:020000040800F2
:1000000000A00020093A0008610600086306000805
:100010006506000867060008690600080000000081
:100020000000000000000000000000006B06000857
:100030006D060008000000006F0600087106000849
:10004000533A0008593A00085F3A0008653A000838
:100050006B3A0008713A0008773A00087D3A0008C8
:10006000833A0008893A00088F3A0008953A000858
:100070009B3A000879060008A13A000889060008A2
:1000800099060008A73A0008A9060008AD3A00083A
:10009000B33A0008B93A0008BF3A0008B9060008A8
:1000A000C53A0008CB3A0008D13A0008D73A000810
:1000B000DD3A0008E33A0008E93A0008EF3A0008A0
:1000C000F53A0008FB3A0008013B0008073B00082E
:1000D0000D3B0008C5060008D5060008E506000827
:1000E000133B0008F5060008973B0008193B000881
:1000F0001F3B0008253B00082B3B0008313B000854
:10010000000000000000000000000000373B000875
:100110003D3B0008433B0008493B00084F3B0008BB
:10012000553B00085B3B0008613B0008673B00084B
:100130006D3B0008733B0008000000000000000059
:10014000793B00087F3B0008853B00080000000069
:10015000000000000000000000000000000000009F
:1001600000000000000000008B3B0008913B0008ED
:10017000973B0008000000000000000000000000A5
:08018000000000009D3B000897
:1001880010B5054C237833B9044B13B10448AFF3C9
:1001980000800123237010BD0C0000200000000027
:1001A800FC3B000808B5034B1BB103490348AFF3F8
:1001B800008008BD0000000010000020FC3B000883
:1001C80070B58AB00024059406940794089409949D
:1001D8002D4B5A6942F400225A615A6902F40022EE
:1001E8000192019A5A6942F480025A615A6902F4EA
:1001F80080020292029A5A6942F400325A615A699C
:1002080002F400320392039A5A6942F480225A6136
:100218005B6903F480230493049B224692214FF0E8
:10022800904002F06FF8194E224641F262013046C2
:1002380002F068F89223059301250695079408941F
:1002480005A94FF0904001F079FF202305934FF462
:1002580088130693079405A94FF0904001F06EFFAC
:1002680041F26203059306950794089405A9304660
:1002780001F064FF22462946172002F059F9172099
:1002880002F08EF90AB070BD001002400004004868
:1002980000B583B0124B5A6942F001025A615B699A
:1002A80003F001030193019B002205210D2002F0B8
:1002B8003FF90D2002F074F9002206210F2002F008
:1002C80037F90F2002F06CF900220721102002F004
:1002D8002FF9102002F064F903B05DF804FB00BFA9
:1002E8000010024072B6FEE700B587B00023009305
:1002F800019302930393049305931648164A0260E8
:100308004360836003610122427680F82030C36233
:100318008262C360C26180F8303004224261037691
:10032800436300F0FFFB80B903230093012301938B
:10033800002303930293049305936946054800F04C
:100348004DFF20B907B05DF804FBFFF7CBFFFFF7BF
:10035800C9FF00BF280000200001005008B50F4861
:100368000F4B03604FF482734360002383604FF4A4
:10037800E062C260036143614FF400728261C3614D
:100388000362436283620722C262036308234363F2
:1003980002F028F900B908BDFFF7A4FF64010020A6
:1003A8000038004008B50B480B4B03604FF4E133AD
:1003B800436000238360C36003610C224261836150
:1003C800C3610362436203F054F800B908BDFFF744
:1003D80089FF00BF140200200038014008B50B480F
:1003E8000B4B03604FF4E133436000238360C36029
:1003F80003610C2242618361C3610362436203F0BB
:1004080038F800B908BDFFF76DFF00BF980200205B
:100418000044004008B50B480B4B03604FF4E13330
:10042800436000238360C36003610C2242618361DF
:10043800C3610362436203F01CF800B908BDFFF70B
:1004480051FF00BF1C0300200048004000B58BB0DE
:10045800002307930893099300930193029303934E
:100468000493059306931748174A0260472242608F
:1004780083604FF49672C2600361836102F0B8FA38
:10048800C8B900230793099307A90E4802F0C4FBD3
:1004980098B96023009300230193029304930822E0
:1004A8006946084802F01AFB48B9064800F0E0F926
:1004B8000BB05DF804FBFFF715FFFFF713FFFFF71D
:1004C80011FF00BFC80100200004004010B590B023
:1004D80000240B940C940D940E940F940A942822E3
:1004E8002146684603F07EFB2748284B036044609A
:1004F8007F238360FF23C36004614461846103F048
:1005080052F8002837D100238DF82C308DF82D3083
:100518008DF82E300E930F9301220BA91A4803F081
:10052800AFF850BB01228DF828208DF829208DF8CE
:100538002A2000238DF82B300AA9134803F01FF94D
:10054800E8B900238DF800308DF801308DF80230BD
:1005580001930393049305930693079301228DF85F
:1005680020204FF4807309936946074803F074F913
:1005780038B910B010BDFFF7B5FEFFF7B3FEFFF7AF
:10058800B1FEFFF7AFFE00BF440100200028004085
:1005980000B59FB02822002114A803F023FB0021F6
:1005A8000F9110911191129113913C22684603F01A
:1005B80019FB092314934FF48033159301221892E1
:1005C8001A9202221B921C934FF4E0131D9314A855
:1005D80001F02CF800BB0F230F9302211091002388
:1005E80011934FF48062129213930FA801F070FBDD
:1005F800A0B90C4B009300230293039304934FF488
:10060800807309934FF400730193684601F066FC08
:1006180030B91FB05DF804FBFFF764FEFFF762FE18
:10062800FFF760FE8700010008B500F0DBFFFFF769
:10063800AFFFFFF7C5FDFFF72BFEFFF755FEFFF7EE
:100648008DFEFFF7AFFEFFF7C9FEFFF7E3FEFFF7EA
:10065800FDFEFFF73BFFFEE7FEE7FEE7FEE7FEE7EE
:10066800FEE770477047704708B500F0CDFF08BD3A
:1006780008B5024801F0EFFE08BD00BF00010020E8
:1006880008B5024801F0E7FE08BD00BF7800002069
:1006980008B5024801F0DFFE08BD00BFBC0000201D
:1006A80008B5024800F08AFB08BD00BF28000020FA
:1006B80008B5202001F02CFE08BD000008B502484E
:1006C80002F038FB08BD00BF1402002008B502483C
:1006D80002F030FB08BD00BF9802002008B50248B0
:1006E80002F028FB08BD00BF1C03002008B5024823
:1006F80002F0F2FE08BD00BF4401002082B00A4BA0
:100708009A6942F001029A619A6902F00102009224
:10071800009ADA6942F08052DA61DB6903F08053AB
:100728000193019B02B070470010024000B589B0E8
:100738000023039304930593069307930268154BCC
:100748009A4202D009B05DF804FB134B5A6942F093
:1007580080525A615A6902F080520192019A5A698C
:1007680042F400325A615B6903F400330293029B3E
:10077800402303930323049303A94FF0904001F00F
:10078800DDFC00220221122001F0D2FE122001F02D
:1007980007FFD7E7000100500010024008B50268C3
:1007A8000B4B9A4200D008BD4FF4004292FAA2F2D5
:1007B800B2FA82F2074B13449B0001221A6000220E
:1007C8000A21292001F0B4FE292001F0E9FEEAE718
:1007D800002800400081901000B589B000230393E1
:1007E80004930593069307930268144B9A4202D028
:1007F80009B05DF804FB03F5EC33DA6942F4804292
:10080800DA61DA6902F480420192019A5A6942F483
:1008180080225A615B6903F480230293029B4FF4A0
:10082800604303930223049303230693052307934A
:1008380003A9034801F082FCDAE700BF0038004052
:10084800000400480268094B9A4200D0704782B001
:1008580003F50333DA6942F00202DA61DB6903F077
:1008680002030193019B02B0704700BF00040040DF
:1008780000B587B000230193029303930493059373
:1008880002680D4B9A4202D007B05DF804FB03F5ED
:1008980003335A6942F480225A615B6903F4802366
:1008A8000093009B0123019302230293059301A95E
:1008B800024801F043FCE7E7000400400004004858
:1008C80010B58CB0044600230793089309930A9344
:1008D8000B930368644A934208D0644A934245D014
:1008E800634A934200F081800CB010BD614B9A6955
:1008F80042F480429A619A6902F480420192019A14
:100908005A6942F400325A615B6903F40033029376
:10091800029B4FF4C06307930223089303230A93AF
:1009280007230B9307A94FF0904001F007FC5248AA
:10093800524B03600023436083608022C2600361DE
:10094800436120228261C36101F016FD58B94A4B08
:1009580023675C6200220221252001F0E9FD2520A1
:1009680001F01EFEC0E7FFF7BDFCF0E7414BDA6976
:1009780042F40032DA61DA6902F400320392039A2F
:100988005A6942F400325A615B6903F400330493F4
:10099800049B0C2307930223089303230A9307233A
:1009A8000B9307A94FF0904001F0C8FB3448354B32
:1009B80003600023436083608022C2600361436157
:1009C80020228261C36101F0D7FC58B92C4B236700
:1009D8005C6200220321262001F0AAFD262001F0F6
:1009E800DFFD81E7FFF77EFCF0E7224BDA6942F48E
:1009F8008022DA61DA6902F480220592059A5A693E
:100A080042F480225A615B6903F480230693069BB3
:100A18004FF4406307930223089303230A930723A1
:100A28000B9307A9184801F089FB1848184B036075
:100A38000023436083608022C260036143612022F7
:100A48008261C36101F098FC58B9104B23675C625E
:100A580000220421272001F06BFD272001F0A0FDD2
:100A680042E7FFF73FFCF0E7003801400044004050
:100A78000048004000100240780000205800024062
:100A8800BC0000206C000240000400480001002067
:100A98003000024070477047704738B50268936865
:100AA80003F00303012B01D0002038BD044613686E
:100AB80013F0010F33D0936803F00D03012B09D015
:100AC800036C43F010030364436C43F00103436475
:100AD8000120EAE7936843F0020393600368032266
:100AE8001A6000F09DFD054623689B6813F0010F0E
:100AF80013D000F095FD401B0228F5D923689B68A8
:100B080013F0010FF0D0236C43F010032364636CDF
:100B180043F0010363640120C7E70020C5E7002014
:100B2800C3E7000030B597B000230193002800F018
:100B38002F810446036C13F0100F52D1036CABB134
:100B4800002023689A6812F0805F03D09B6813F036
:100B5800005F47D0236C23F0120343F01003236493
:100B6800636C43F00103636401203BE04364C364A6
:100B7800836480F83C30FFF7D9FD23689B6813F045
:100B8800805F01D00020DCE72046FFF786FF236C5A
:100B980013F0100FD5D10028D3D1236C23F4885338
:100BA80023F0020343F0020323642268936823F0CE
:100BB800405393602268936843F080539360754B69
:100BC8001B68754AA2FB03239B0C03EB83035B00A2
:100BD800019302E0019B013B0193019B002BF9D19A
:100BE800AFE70020236C13F0100F40F0C8800028F6
:100BF80040F0C5802368996811F0040140F0BF8077
:100C0800226C22F4817242F002022264B3F1A04FF6
:100C180014D0624A93420FD0614DB3F1A04F0FD068
:100C28005E4A934267D05F4A934268D05E4A9342D5
:100C380069D00022029205E05C4DEEE75B4DECE7DF
:100C4800564A02929A6802F00302012A5FD0029B78
:100C580023B19A6802F00302012A5DD0AB6823F43D
:100C6800403362681343AB60627E5303656B012DAA
:100C780001D04FF480510B43E1680B43A1680B434B
:100C880094F8201001294CD0A26A012A0AD02168C0
:100C9800444DA94258D005F58075A94254D0E16A5F
:100CA8000A4313432268916811F00C0F0CD1D168E4
:100CB80021F4804121F00201D160217E94F8302096
:100CC800520042EA813213432168CD68384A2A40EB
:100CD8001343CB602369012B48D02268136B23F0A0
:100CE8000F03136300236364236C23F0030343F0AF
:100CF800010323644AE04FF0A0420292A2E702F502
:100D0800807202929EE7A2F5807202929AE71B68AF
:100D180013F0010FA8D19AE71B6813F0010FA3D1B4
:100D28009CE732B9626A013A43EA424343F48033AA
:100D3800AAE7226C22F0220242F020022264626CAE
:100D480042F0010262649FE7B2F5307F08D0B2F545
:100D5800807F08D0B2F5E07FA1D14FF480729EE782
:100D68004FF4E0729BE74FF4307298E721680B6B01
:100D780023F00F03E269013A13430B63B2E7236CD4
:100D880023F0120343F010032364012017B030BD91
:100D98000120FBE70800002083DE1B430001005010
:100DA80000070050000400500005005000030050E8
:100DB80007C0F0FF704770477047704710B504468A
:100DC80003681A6812F0040F03D05A6812F0040F6F
:100DD80007D11A6812F0080F7FD05A6812F0080F6E
:100DE8007BD0226C12F0100F03D1226C42F40072F7
:100DF8002264B3F1A04F28D08E4A934225D08E4A60
:100E0800926812F01F0F25D1D968DA6812F4406F82
:100E18005DD111F4005F5AD11A6812F0080F56D04C
:100E28009A6812F0040F4AD15A6822F00C025A60EC
:100E3800236C23F480732364236C13F4805F46D1FE
:100E4800236C43F00103236441E07C4A926812F06A
:100E58001F0FD9D0B3F1A04F09D0764A934206D0DC
:100E6800754A926802F01F02052A06D1CCE7734A38
:100E7800926802F01F02052AC6D0B3F1A04F09D02C
:100E88006C4A934206D06C4A926802F01F02092A03
:100E980006D1B9E7694A926802F01F02092AB3D05D
:100EA800B3F1A04FB0D0664A9342ADD0614A9342A5
:100EB80002D0634AD168A8E74FF0A042FAE7236C52
:100EC80043F010032364636C43F00103636420461A
:100ED800FFF7E0FD23680C221A6023681A6812F0F5
:100EE800200F03D05A6812F0200F09D11A6812F0A7
:100EF800400F00F0E0805A6812F0400F00F0DB80ED
:100F0800226C42F400522264B3F1A04F45D0494A02
:100F1800934242D0484A926812F01F0F42D1D968D2
:100F2800DA6C12F0C00F40F0C08011F0007F08D0DA
:100F3800DA6812F4406F40F0B88011F4005F40F0B6
:100F4800B4801A6812F0400F00F0AF80B3F1A04FE0
:100F58005DD0384A93425AD0374A926812F01F0F30
:100F68005AD1DA6812F4001F40F09F809A6812F094
:100F7800080F40F092805A6822F060025A60236C91
:100F880023F480532364236C13F4807F40F08D8016
:100F9800236C43F00103236487E0284A926812F027
:100FA8001F0FBCD0B3F1A04F09D0224A934206D0FC
:100FB800214A926802F01F02052A06D1AFE71F4AAC
:100FC800926802F01F02052AA9D0B3F1A04F09D0F8
:100FD800184A934206D0184A926802F01F02092A5A
:100FE80006D19CE7154A926802F01F02092A96D09A
:100FF800B3F1A04F93D0124A934290D00D4A934236
:1010080002D00F4AD1688BE74FF0A042FAE70B4AAB
:10101800926812F01F0FA4D0B3F1A04F12D0054A66
:1010280093420FD0044A926802F01F02062A0FD199
:1010380097E700BF00010050000700500003005070
:1010480000040050614A926802F01F02062A88D004
:10105800B3F1A04F09D05E4A934206D05D4A926828
:1010680002F01F02072A07D17BE7584A926802F06C
:101078001F02072A3FF475AFB3F1A04F3FF471AFD9
:10108800554A93423FF46DAF514A934202D0524AB7
:10109800D26867E74FF0A042FAE7236C43F01003E9
:1010A8002364636C43F0010363642046FFF782FE08
:1010B800236860221A6023681A6812F0800F03D030
:1010C8005B6813F0800F44D123681A6812F4807F9C
:1010D80003D05B6813F4807F46D123681A6812F442
:1010E800007F03D05B6813F4007F49D123681A6836
:1010F80012F0100F23D05A6812F0100F1FD0626B35
:10110800012A0ED0B3F1A04F49D0314A934243D0BF
:10111800304A916811F01F0F43D1DB6813F0010FBB
:101128000AD0236C43F480632364636C43F00203A6
:1011380063642046FFF7B0FC236810221A60236816
:101148001A6812F4806F03D05A6812F4806F2DD198
:1011580010BD236C43F4803323642046FFF79BFCC7
:10116800236880221A60AFE7236C43F400332364BA
:101178002046FFF721FE23684FF480721A60ACE71F
:10118800236C43F4802323642046FFF716FE23686C
:101198004FF400721A60A9E702F50072B9E70B4A2A
:1011A800B7E7936813F4404FC6D0BAE7226C42F40D
:1011B80080422264626C42F0080262644FF48062EA
:1011C8001A602046FFF7F7FDC2E700BF0003005092
:1011D80000010050000700500004005030B496B0E1
:1011E8000022019290F83C20012A00F0C2810346B7
:1011F800012280F83C200068826812F0040F40F059
:10120800AD814A68042A37D8046B02EB42025200C7
:101218004FF01F0C0CFA02FC24EA0C0C0C6804FAC0
:1012280002F24CEA020202631868826812F00C0F9C
:101238006ED10A68092A52D9846902EB42021E3A21
:101248004FF0070C0CFA02FC24EA0C048D6805FA2E
:1012580002F22243826148691C68E268C2F3C10253
:10126800520000FA02F208690138032800F2998056
:10127800DFE800F04476818C092A10D8446B02EB31
:10128800420252001E3A4FF01F0C0CFA02FC24EAEC
:101298000C040D6805FA02F222434263C4E70E2AE1
:1012A8000ED8846B02EB420252003C3A1F2595404F
:1012B80024EA05040D6805FA02F222438263B3E7C3
:1012C800C46B02EB420252005A3A1F25954024EAA9
:1012D80005040D6805FA02F22243C263A4E74469D3
:1012E80002EB42024FF0070C0CFA02FC24EA0C0451
:1012F8008D6805FA02F222434261ACE7206E9E4DEA
:101308000540086842EA8062154345F000452566B5
:101318001868826802F00302012A72D0CA68012A9A
:1013280075D0D0F8B02001240D68AC4022EA040240
:10133800C0F8B0201A68B2F1A04F00F093808F482F
:10134800824200F08D808E4C0968102900F08C8054
:10135800112900F09D80122900F09F80002002E1F1
:10136800606E854D0540086842EA8062154345F085
:1013780000456566CCE7A06E7F4D0540086842EAE7
:101388008062154345F00045A566C1E7E56E7A48D9
:1013980028400D6842EA8562024342F00042E26654
:1013A800B6E7226E02F0F8420868B2EB806F03D10C
:1013B800226E22F0004222661A68506E00F0F84051
:1013C8000C68B0EB846F03D1506E20F0004050667B
:1013D8001A68906E00F0F8400C68B0EB846F03D187
:1013E800906E20F0004090661A68D06E00F0F840C9
:1013F8000C68B0EB846F8BD1D06E20F00040D066C3
:1014080086E7026812F0010F88D00020ABE0D0F820
:10141800B0200D680124AC402243C0F8B0200A680F
:10142800092A0ED91D68A86902EB42021B3A072453
:10143800944020EA04008C6804FA02F20243AA618C
:1014480078E71D686869013202EB4202072494407C
:1014580020EA04008C6804FA02F202436A6169E730
:10146800484C71E7474C6FE7A06810F4000F7FF411
:101478006FAFB2F1A04F16D0404882422AD04248FE
:1014880082422BD0414882422CD0002002900CE0AE
:10149800A06810F0807FECD05DE7A06810F4800FA2
:1014A800E7D000205FE035480290906800F0030024
:1014B80001281BD0029828B1856805F0030CBCF1FF
:1014C800010F1DD0102920D0112938D012293FD062
:1014D800002048E04FF0A0400290E6E700F5807059
:1014E8000290E2E7A0F580700290DEE7106810F045
:1014F800010FDFD01A6C42F020021A64012032E09A
:10150800006810F0010FF5D1DCE7B2F1A04FDBD194
:10151800A26842F40002A2601D4A12681D49A1FB9C
:101528000212920C02EB82025200019202E0019A2E
:10153800013A0192019A002AF9D1002013E0B2F190
:10154800A04FC3D1A26842F08072A26000200AE0D6
:10155800A26842F48002A260002004E01A6C42F003
:1015680020021A640120002283F83C2016B030BC07
:1015780070470220FAE700BF00F0FF830001005027
:101588000007005000030050000400500005005000
:101598000800002083DE1B4310B504460E4B187864
:1015A8004FF47A73B3FBF0F30C4A1068B0FBF3F016
:1015B80001F004F868B90F2C01D901200AE00022D3
:1015C80021464FF0FF3000F0B3FF054B1C600020B0
:1015D80000E0012010BD00BF00000020080000202E
:1015E8000400002008B5074A136843F0100313608D
:1015F800032000F08BFF0F20FFF7CEFFFFF77EF8E8
:10160800002008BD00200240034A1168034B1B78E4
:101618000B441360704700BFA003002000000020A7
:10162800014B1868704700BFA0030020002800F095
:10163800018370B582B00446036813F0010F3BD0F4
:10164800B54B5B6803F00C03042B1ED0B24B5B68F0
:1016580003F00C03082B13D06368B3F5803F68D000
:10166800002B40F0928003F1804303F504331A689D
:1016780022F480321A601A6822F480221A605DE02F
:10168800A54B5B6813F4803FE6D04FF4003393FA20
:10169800A3F3A14B19684FF4003393FAA3F3B3FAF9
:1016A80083F303F01F03012202FA03F30B4203D072
:1016B8006368002B00F0C082236813F0020F00F06B
:1016C800C580954B5B6813F00C0F00F09C80924B23
:1016D8005B6803F00C03082B00F08F802369002B54
:1016E80000F0F280012292FAA2F3B3FA83F303F135
:1016F800845303F584139B001A60FFF791FF054696
:10170800022393FAA3F3844B1968022393FAA3F3F1
:10171800B3FA83F303F01F03012202FA03F30B4227
:1017280040F0C380FFF77CFF401B0228E8D9032064
:101738008BE2794A136843F480331360764AD36A9C
:1017480023F00F03A1680B43D3626368002B36D0E4
:10175800FFF766FF05464FF4003393FAA3F36E4B89
:1017680019684FF4003393FAA3F3B3FA83F303F041
:101778001F03012202FA03F30B429DD1FFF750FF2A
:10178800401B6428E7D903205FE2B3F5A02F09D0F6
:10179800614B1A6822F480321A601A6822F4802297
:1017A8001A60CBE703F18043A3F53C331A6842F48F
:1017B80080221A601A6842F480321A60BEE7FFF786
:1017C8002FFF05464FF4003393FAA3F3524B1968E1
:1017D8004FF4003393FAA3F3B3FA83F303F01F0330
:1017E800012202FA03F30B423FF466AFFFF718FF3A
:1017F800401B6428E6D9032027E2474B5B6813F4B3
:10180800803F7FF46BAF022393FAA3F3424B19682E
:10181800022393FAA3F3B3FA83F303F01F0301221D
:1018280002FA03F30B4203D02369934240F0068285
:101838003948036823F0F8036169F82292FAA2F2A2
:10184800B2FA82F201FA02F213430360236813F03A
:10185800080F00F08D80A369002B61D0012191FA57
:10186800A1F2B2FA82F22D4B13449B001960FFF7E4
:10187800D7FE0546022393FAA3F293FAA3F293FA4A
:10188800A3F2254A516A93FAA3F3B3FA83F303F058
:101898001F03012202FA03F30B4269D1FFF7C0FECE
:1018A800401B0228E6D90320CFE11B48036823F038
:1018B800F8036169F82292FAA2F2B2FA82F201FA06
:1018C80002F213430360C1E7012393FAA3F3B3FAC7
:1018D80083F303F1845303F584139B0000221A60F9
:1018E800FFF79EFE0546022393FAA3F30A4B1968F5
:1018F800022393FAA3F3B3FA83F303F01F0301223D
:1019080002FA03F30B42A1D0FFF78AFE401B02281C
:10191800E9D9032099E100BF00100240208190100E
:10192800012292FAA2F2B2FA82F2B74B13449B0058
:1019380000221A60FFF774FE0546022393FAA3F209
:1019480093FAA3F293FAA3F2B04A516A93FAA3F373
:10195800B3FA83F303F01F03012202FA03F30B42E5
:1019680006D0FFF75DFE401B0228E6D903206CE194
:10197800236813F0040F00F0A980A44BDB6913F06F
:10198800805F20D1A14BDA6942F08052DA61DB69CD
:1019980003F080530193019B01259D4B1B6813F4B1
:1019A800807F12D0E368012B23D073BB03F18043FF
:1019B80003F504331A6A22F001021A621A6A22F045
:1019C80004021A621AE00025E7E7914A136843F413
:1019D80080731360FFF724FE06468D4B1B6813F4D3
:1019E800807FDFD1FFF71CFE801B6428F5D9032018
:1019F8002BE1864A136A43F001031362E368002B64
:101A08003CD0FFF70DFE06462BE0052B09D07F4B97
:101A18001A6A22F001021A621A6A22F004021A6291
:101A2800ECE77A4B1A6A42F004021A621A6A42F028
:101A380001021A62E2E7754B196A022393FAA3F3CB
:101A4800B3FA83F303F01F03012202FA03F31942E6
:101A58003BD1FFF7E5FD801B41F28833984200F245
:101A6800EF80022393FAA3F293FAA3F3002BE2D1B7
:101A7800022393FAA3F3654B596ADEE7FFF7D0FD1B
:101A8800064615E0614B196A022393FAA3F3B3FAE9
:101A980083F303F01F03012202FA03F3194214D05F
:101AA800FFF7BEFD801B41F28833984200F2CA80DE
:101AB800022393FAA3F293FAA3F3002BE2D10223B1
:101AC80093FAA3F3514B596ADEE7B5BBE369002BE0
:101AD80000F0BA804D4A526802F00C02082A00F061
:101AE8009980022B2FD04FF0807393FAA3F3B3FAA7
:101AF80083F303F1845303F584139B0000221A60D7
:101B0800FFF78EFD04464FF0007393FAA3F33F4BA3
:101B180019684FF0007393FAA3F3B3FA83F303F051
:101B28001F03012202FA03F319426BD0FFF778FD75
:101B3800001B0228E7D9032087E0344AD36923F041
:101B48008053D361C2E74FF0807393FAA3F3B3FADB
:101B580083F303F1845303F584139B0000221A6076
:101B6800FFF75EFD05464FF0007393FAA3F3274B8A
:101B780019684FF0007393FAA3F3B3FA83F303F0F1
:101B88001F03012202FA03F3194206D0FFF748FDAA
:101B9800401B0228E7D9032057E01C494B6823F46F
:101BA8007413626A206A024313434B604FF08073D8
:101BB80093FAA3F3B3FA83F303F1845303F584137D
:101BC8009B0001221A60FFF72BFD04464FF00073BB
:101BD80093FAA3F30D4B19684FF0007393FAA3F32C
:101BE800B3FA83F303F01F03012202FA03F3194245
:101BF80006D1FFF715FD001B0228E7D9032024E0D2
:101C0800002022E0002020E02081901000100240F7
:101C180000700040012B1AD0104B5B6803F4803130
:101C2800226A914215D103F47013626A934212D169
:101C380000200AE001207047012006E0012004E0AE
:101C4800032002E0032000E0002002B070BD012064
:101C5800FBE70120F9E70120F7E700BF0010024089
:101C6800164B5B6803F00C02082A01D01448704731
:101C780003F470114FF4701292FAA2F2B2FA82F2DF
:101C880021FA02F20F49885C0C4AD26A02F00F026C
:101C98000F2191FAA1F1B1FA81F1CA400A498A5C8F
:101CA80013F4803F05D0064BB3FBF2F303FB00F0BF
:101CB8007047064B03FB00F0704700BF001002405E
:101CC80000127A00143C0008243C000800093D007A
:101CD800002800F0BE8070B50D460446614B1B68B5
:101CE80003F007038B420BD25E4A136823F0070305
:101CF8000B431360136803F007038B4240F0AB807B
:101D0800236813F0020F06D0574A536823F0F003F4
:101D1800A1680B435360236813F0010F5AD063681E
:101D2800012B2DD0022B40D0022292FAA2F24E4A69
:101D38001068022292FAA2F2B2FA82F202F01F02AC
:101D4800012101FA02F2104200F0878046494A68F0
:101D580022F0030213434B60FFF762FC0646424B36
:101D68005B6803F00C036268B3EB820F32D0FFF7B5
:101D780057FC801B41F288339842F0D9032067E072
:101D88004FF4003292FAA2F2374A10684FF4003248
:101D980092FAA2F2B2FA82F202F01F02012101FACB
:101DA80002F20242D2D1012052E04FF0007292FAC0
:101DB800A2F22D4A10684FF0007292FAA2F2B2FA1B
:101DC80082F202F01F02012101FA02F21042BDD193
:101DD80001203DE0234B1B6803F00703AB420AD9FF
:101DE800204A136823F007032B431360136803F09A
:101DF8000703AB4233D1236813F0040F06D01A4A05
:101E0800536823F4E063E1680B435360236813F0DD
:101E1800080F07D0144A536823F46053216943EA32
:101E2800C1035360FFF71CFF0F4B5B6803F0F0031F
:101E3800F02292FAA2F2B2FA82F2D3400B4AD35CB1
:101E4800D8400B4B18600B4B1868FFF7A5FB002018
:101E580070BD012070470120FAE70120F8E7012052
:101E6800F6E700BF0020024000100240343C0008A2
:101E78000800002004000020014B1868704700BFCC
:101E88000800002008B5FFF7F7FF074B5B6803F46D
:101E9800E0634FF4E06292FAA2F2B2FA82F2D3401F
:101EA800024AD35CD84008BD00100240443C0008F8
:101EB80008B5FFF7E1FF074B5B6803F460534FF485
:101EC800605292FAA2F2B2FA82F2D340024AD35C8A
:101ED800D84008BD00100240443C0008F0B583B06B
:101EE8000446036813F4803F48D0914BDB6913F034
:101EF800805F40F0D4808E4BDA6942F08052DA611C
:101F0800DB6903F080530193019B0125894B1B6812
:101F180013F4807F00F0C580854B1B6A13F440736F
:101F280022D0626802F440729A421DD08048016A49
:101F380021F440764FF4803393FAA3F2B2FA82F296
:101F48007D4F3A4492004FF0010CC2F800C093FA5A
:101F5800A3F3B3FA83F33B449B0000221A600662A2
:101F680011F0010F40F0B280714A136A23F44073F4
:101F780061680B431362002D40F0CF80236813F093
:101F8800010F06D06A4A136B23F00303A1680B43C1
:101F98001363236813F0020F06D0654A136B23F40A
:101FA8004033E1680B431363236813F0040F06D032
:101FB8005F4A136B23F4402321690B43136323689F
:101FC80013F0200F06D05A4A136B23F01003E1696F
:101FD8000B431363236813F4003F06D0544A536835
:101FE80023F48003A16B0B435360236813F0400F65
:101FF80006D04F4A136B23F02003216A0B43136367
:10200800236813F0080F06D0494A136B23F44013D2
:1020180061690B431363236813F0100F06D0444A19
:10202800136B23F44003A1690B431363236813F470
:10203800007F06D03E4A536823F40003E16A0B434D
:102048005360236813F0800F06D0394AD36A23F40B
:10205800F873616A0B43D362236813F4807F06D058
:10206800334AD36A23F47853A16A0B43D3622368B3
:1020780013F4805F06D02E4A136B23F48073216B10
:102088000B431363236813F4005F4DD0284A136B86
:1020980023F40073616B0B431363002045E00025B4
:1020A80034E7244A136843F480731360FFF7B8FADF
:1020B8000646204B1B6813F4807F7FF42DAFFFF793
:1020C800AFFA801B6428F4D903202EE0FFF7A8FAA2
:1020D800064615E0164B196A022393FAA3F3B3FADE
:1020E80083F303F01F03012202FA03F30B427FF488
:1020F8003BAFFFF795FA801B41F28833984211D81D
:10210800022393FAA3F293FAA3F3002BE2D102235A
:1021180093FAA3F3064B596ADEE7D36923F0805399
:10212800D3612BE7032000E0002003B0F0BD00BF1F
:10213800001002400070004000819010F0B583B09C
:10214800002362E085685E000324B44025EA0405A4
:10215800CC68B4402C438460446824EA0C0C4C6876
:10216800C4F300149C4044EA0C0444605EE0DD08BB
:10217800083550F8256003F007044FEA840C0F2453
:1021880004FA0CF426EA040E0C6904FA0CF444EA86
:102198000E0440F8254060E0042400E0002404FA1E
:1021A8000EF42C430CF1020C524D45F82C40524CC5
:1021B8002568D44325EA02064F6817F4803F01D00A
:1021C80042EA05064C4D2E606D6804EA05064F6824
:1021D80017F4003F01D042EA0506474D6E60AD682E
:1021E80004EA05064F6817F4801F01D042EA050685
:1021F800414DAE60ED682C404E6816F4001F01D0CA
:1022080042EA05043C4AD46001330A6832FA03F40E
:102218006ED04FF0010C0CFA03FC1CEA0202F3D05A
:102228004C6804F00304013C012C8BD94C6804F081
:102238000304032C0CD0C4685D004FF0030C0CFAA7
:1022480005FC24EA0C0C8C68AC4044EA0C04C4601D
:102258004C6804F00304022C89D004684FEA430E4A
:102268004FF0030C0CFA0EFC24EA0C0C4C6804F03A
:10227800030404FA0EF444EA0C0404604C6814F4F1
:10228800403FC1D01D4CA56945F00105A561A46971
:1022980004F001040194019C4FEA930C0CF102052F
:1022A800144C54F8255003F003044FEA840E0F240D
:1022B80004FA0EF425EA0405B0F1904F3FF46EAF2E
:1022C8000F4CA0420ED004F58064A0420CD004F557
:1022D8008064A0420AD004F58064A0423FF45CAF59
:1022E80005245CE701245AE7022458E7032456E74B
:1022F80003B0F0BD0000014000040140001002409E
:10230800000400480AB181617047816270477047D4
:1023180008B5054B5B69034200D108BD024B586103
:10232800FFF7F5FFF9E700BF0004014002680C4B16
:102338009A420AD80B4B13440B4AA2FB03231B09EE
:102348009B000364094BC3637047094B1344064A57
:10235800A2FB03231B099B000364064BC36370475E
:1023680007040240F8FFFDBFCDCCCCCC00000240F2
:10237800F8FBFDBF0004024020B310B50446022359
:1023880080F8213001680A6822F47F5222F0300276
:10239800436880680343E068034320690343606936
:1023A8000343A0690343E069034313430B602046DA
:1023B800FFF7BCFF0020A063012384F8213084F8D4
:1023C800200010BD0120704790F82130022B06D064
:1023D80004238363002380F82030012070470268BB
:1023E800136823F00E0313600268136823F00103D7
:1023F8001360036CC16B012202FA03F34B6080F88F
:102408002120002380F820301846704708B590F83E
:102418002130022B03D004238363012008BD026806
:10242800136823F00E0313600268136823F0010396
:102438001360036CC16B012202FA03F34B6080F84E
:102448002120002380F82030436B13B198470020E7
:10245800E4E70020E2E738B5C36B1A68046825682A
:10246800016C04238B40134213D015F0040F10D0D5
:10247800236813F0200F03D1236823F0040323609B
:10248800016CC26B04238B405360C36A03B1984745
:1024980038BD02238B4013421AD015F0020F17D013
:1024A800236813F0200F06D1236823F00A03236062
:1024B800012380F82130016CC26B02238B405360EA
:1024C800002380F82030836A002BE1D09847DFE7AB
:1024D800082303FA01F11142DAD015F0080FD7D01A
:1024E800236823F00E032360026CC16B012303FAF7
:1024F80002F24A60836380F82130002380F820309C
:10250800036B002BC4D09847C2E70000074AD36882
:1025180023F4E0631B041B0C000200F4E060034397
:1025280043F0BF6343F40033D360704700ED00E02D
:1025380000B5194BDB68C3F30223C3F1070CBCF1E8
:10254800040F28BF4FF0040C03F1040EBEF1060F70
:1025580018D9033B4FF0FF3E0EFA0CFC21EA0C01A0
:1025680099400EFA03F322EA0303194300280BDB10
:102578000901C9B200F1604000F5614080F800131C
:102588005DF804FB0023E5E700F00F000901C9B27C
:10259800024B1954F4E700BF00ED00E014ED00E031
:1025A800002807DB00F01F02400901239340024A7C
:1025B80042F82030704700BF00E100E00138B0F178
:1025C800807F0BD24FF0E0235861054AF02182F852
:1025D80023100020986107221A6170470120704774
:1025E80000ED00E000286FD010B50446436A33B907
:1025F8004368B3F5827F05D00023C36102E000235E
:10260800036143610023A36294F85D30002B52D02C
:10261800022384F85D302268136823F040031360B6
:10262800E368B3F5E06F4CD90022B3F5706F04D0BE
:10263800B3F5E06F01D00023A362636803F48273EB
:10264800A16801F404410B43216901F002010B4325
:10265800616901F001010B43A16901F400710B43A9
:10266800E16901F038010B43216A01F080010B4355
:10267800A16A01F4005120680B430360638B03F0E7
:102688000403616A01F010010B43616B01F008015A
:102698000B43E16801F470610B43216813434B60FD
:1026A8002268D36923F40063D361002020660123E4
:1026B80084F85D3010BD84F85C302046FEF78CF855
:1026C800A6E74FF48052B0E70120704730B4036AA0
:1026D80023F001030362036A4568826922F48032A9
:1026E80022F073020C68224323F002038C68234310
:1026F8001D4CA0420FD004F50064A0420BD004F595
:102708004064A04207D004F58064A04203D004F5D9
:102718008064A04205D123F00803CC68234323F04A
:102728000403114CA0420FD004F50064A0420BD062
:1027380004F54064A04207D004F58064A04203D0A9
:1027480004F58064A04207D125F4407C4C6944EA32
:102758000C0C8D6945EA0C05456082614A68426344
:10276800036230BC704700BF002C014030B4036ADC
:1027780023F480730362036A4468C26922F48032D6
:1027880022F073020D682A4323F400738D6843EA2C
:102798000523184DA84203D005F50065A84206D1C7
:1027A80023F40063CD6843EA052323F48063114DC5
:1027B800A8420FD005F50065A8420BD005F5406585
:1027C800A84207D005F58065A84203D005F58065C5
:1027D800A84207D124F4405C4C694CEA041C8C697B
:1027E8004CEA04144460C2614A68C263036230BCA4
:1027F800704700BF002C014030B4036A23F48053B3
:102808000362036A4468C26922F0807222F4E642D5
:102818000D6842EA052223F400538D6843EA053324
:102828000F4DA8420FD005F50065A8420BD005F55D
:102838004065A84207D005F58065A84203D005F594
:102848008065A84204D124F480444D6944EA851483
:102858004460C2614A680264036230BC704700BFCA
:10286800002C014030B4036A23F480330362036A06
:102878004468426D22F4803222F070020D682A43C7
:1028880023F400338D6843EA05430F4DA8420FD067
:1028980005F50065A8420BD005F54065A84207D0AC
:1028A80005F58065A84203D005F58065A84204D1E6
:1028B80024F480344D6944EA0524446042654A683A
:1028C8008265036230BC7047002C014030B4036A53
:1028D80023F480130362036A4468426D22F0807215
:1028E80022F4E0420D6842EA052223F400138D68C1
:1028F80043EA05530F4DA8420FD005F50065A842DD
:102908000BD005F54065A84207D005F58065A842BB
:1029180003D005F58065A84204D124F480244D69CC
:1029280044EA8524446042654A68C265036230BC53
:10293800704700BF002C014003682C4A90420ED01B
:10294800B0F1804F0BD0A2F59432904207D002F537
:102958008062904203D002F59632904203D123F070
:1029680070034A681343214A90421AD0B0F1804F4D
:1029780017D0A2F59432904213D002F580629042AB
:102988000FD002F5963290420BD002F54062904289
:1029980007D002F58062904203D002F5806290422F
:1029A80003D123F44073CA68134323F080034A69B0
:1029B800134303608B68C3620B6883620B4B9842B6
:1029C8000FD003F5006398420BD003F5406398429B
:1029D80007D003F58063984203D003F580639842DB
:1029E80001D10B690363012343617047002C014047
:1029F80060B310B5044690F83D3013B3022384F851
:102A08003D30214651F8040BFFF796FF012384F867
:102A1800483084F83E3084F83F3084F8403084F8F9
:102A2800413084F8423084F8433084F8443084F8E4
:102A3800453084F8463084F8473084F83D3000202B
:102A480010BD80F83C30FDF7FDFED7E70120704748
:102A580030B4036A23F010030362036A446882698E
:102A680022F0807222F4E6420D6842EA052223F041
:102A780020038D6843EA0513174DA84203D005F5D6
:102A88000065A84206D123F08003CD6843EA051308
:102A980023F04003104DA8420FD005F50065A84269
:102AA8000BD005F54065A84207D005F58065A8421A
:102AB80003D005F58065A84207D124F4406C4C6921
:102AC8004CEA840C8C694CEA8404446082614A684C
:102AD8008263036230BC7047002C014038B590F81F
:102AE8003C30012B00F0958004460D46012380F808
:102AF8003C30142A00F28880DFE802F00B868686D4
:102B08001F86868634868686488686865D8686867D
:102B180071000068FFF7DAFD2268936943F0080343
:102B280093612268936923F004039361226893698F
:102B380029690B439361002067E00068FFF788FF6D
:102B48002268936943F4006393612268936923F4CC
:102B58008063936122689369296943EA0123936139
:102B6800002052E00068FFF701FE2268D36943F0B5
:102B78000803D3612268D36923F00403D361226870
:102B8800D36929690B43D36100203EE00068FFF751
:102B980033FE2268D36943F40063D3612268D369A2
:102BA80023F48063D3612268D369296943EA012346
:102BB800D361002029E00068FFF754FE2268536DB6
:102BC80043F0080353652268536D23F004035365EB
:102BD8002268536D29690B435365002015E000688E
:102BE800FFF774FE2268536D43F40063536522684F
:102BF800536D23F4806353652268536D296943EA52
:102C080001235365002000E00120002384F83C30B4
:102C180038BD0220FCE7000090F83C30012B3ED084
:102C280030B4012380F83C30022380F83D3002683C
:102C3800536894681B4DAA4203D005F50065AA4263
:102C480003D123F470034D682B4323F070030D6800
:102C58002B4353600368134A934212D0B3F1804F59
:102C68000FD0A2F5943293420BD002F580629342C2
:102C780007D002F59632934203D002F540629342A0
:102C880004D124F080048A6814439C60012380F8EE
:102C98003D30002380F83C30184630BC7047022095
:102CA800704700BF002C0140026852E8003F23F43F
:102CB800907342E800310029F6D1026802F1080356
:102CC80053E8003F23F00103083242E800310029AD
:102CD800F3D1036E012B05D02023C36700230366BD
:102CE80043667047026852E8003F23F0100342E849
:102CF80000310029F6D1EFE7704708B5026852E8BD
:102D0800003F23F0400342E800310029F6D1202398
:102D1800836700238366FFF7EFFF08BD704708B598
:102D2800406A0023A0F85A30A0F85230FFF7F6FFA7
:102D380008BD704770B504460168CB6908688D689E
:102D480040F60F021A4005D113F0200F02D010F000
:102D5800200F20D12AB115F0010222D1AB4E30420A
:102D68001FD1226E012A00F0AB8013F4801F03D01C
:102D780015F4800F40F0378113F0800F03D010F066
:102D8800800F40F0378113F0400F03D010F0400F50
:102D980040F0378170BD636E002BFBD0204698470A
:102DA800F8E713F0010F09D010F4807F06D0012551
:102DB8000D62D4F880102943C4F8801013F0020F74
:102DC80009D042B1216802250D62D4F8801041F083
:102DD8000401C4F8801013F0040F09D042B121682F
:102DE80004250D62D4F8801041F00201C4F8801067
:102DF80013F0080F0BD010F0200F00D13AB1226861
:102E080008211162D4F880200A43C4F8802013F402
:102E1800006F0CD010F0806F09D022684FF4006169
:102E28001162D4F8802042F02002C4F88020D4F83F
:102E38008020002AAED013F0200F06D010F0200F0B
:102E480003D0636E0BB120469847D4F880202368DE
:102E58009B6813F0400F02D112F0280F29D02046AA
:102E6800FFF722FF23689B6813F0400F1DD02268EC
:102E780002F1080353E8003F23F04003083242E818
:102E880000310029F3D1236F5BB1614A5A63206F87
:102E9800FFF7BCFA00283FF47DAF206F436B9847DB
:102EA80078E72046FFF73AFF74E72046FFF736FF3A
:102EB80070E72046FFF732FF0023C4F8803069E747
:102EC80013F0100F3FF451AF10F0100F3FF44DAF57
:102ED80010230B6223689B6813F0400F4CD0226FBD
:102EE80013685B689BB2002B3FF454AFB4F85810DA
:102EF80099427FF64FAFA4F85A309369202B30D00F
:102F0800226852E8003F23F4807342E80031002928
:102F1800F6D1226802F1080353E8003F23F00103C9
:102F2800083242E800310029F3D1226802F108038F
:102F380053E8003F23F04003083242E800310029FB
:102F4800F3D12023E36700232366226852E8003F79
:102F580023F0100342E800310029F6D1206FFFF773
:102F680033FAB4F85810B4F85A309BB2C91A89B277
:102F78002046FFF7DEFE0DE7B4F85810B4F85A30D3
:102F88009BB2C91A89B2B4F85A309BB2002B3FF4ED
:102F980001AF00293FF4FEAE226852E8003F23F457
:102FA800907342E800300028F6D1226802F1080345
:102FB80053E8003F23F00103083242E800300028BC
:102FC800F3D12023E367002323666366226852E86F
:102FD800003F23F0100342E800300028F6D12046D5
:102FE800FFF7A7FED6E64FF480130B62204600F0E9
:102FF80071FACFE6A36E002B3FF4CCAE204698477B
:10300800C8E62046FFF779FEC4E600BF20010004A9
:10301800272D000810B504468368026913434269E6
:103028001343C2691A4301680B6823F4164323F05B
:103038000C0313430B600268536823F44053C168C0
:103048000B4353608269036A1A4301688B6823F44F
:10305800306313438B6003687B4A93420DD07B4AED
:1030680093421CD07A4A93423AD07A4A93424AD041
:10307800794A93425AD010231FE0784B1B6B03F018
:103088000303032B09D8DFE803F0020406640123D5
:1030980013E0042311E008230FE010230DE06F4B29
:1030A8001B6B03F44033B3F5003F54D013D8002B07
:1030B80053D0B3F5803F52D10423E069B0F5004FF7
:1030C80069D0082B00F2B980DFE803F092A890B726
:1030D800ABB7B7B7AE00B3F5403F42D10223ECE738
:1030E8005E4B1B6B03F44023B3F5002F3BD005D890
:1030F800DBB3B3F5802F3AD10423DEE7B3F5402FD5
:1031080037D10223D9E7554B1B6B03F44013B3F5B2
:10311800001F30D005D883B3B3F5801F2FD1042307
:10312800CBE7B3F5401F2CD10223C6E74B4B1B6BF3
:1031380003F44003B3F5000F25D005D82BB3B3F53E
:10314800800F24D10423B8E7B3F5400F21D102231F
:10315800B3E70223B1E70823AFE70023ADE7102365
:10316800ABE71023A9E70823A7E70023A5E7102367
:10317800A3E71023A1E708239FE700239DE7102377
:103188009BE7102399E7082397E7002395E7102387
:1031980093E7102391E7082B49D8DFE803F0051FD0
:1031A8002548224848480900FEF76CFE002840D010
:1031B8006268530803EB4000B0FBF2F080B2A0F164
:1031C80010024FF6EF739A4235D820F00F03C0F380
:1031D800420018432368D86000201BE0FEF768FE11
:1031E800E4E7FEF73DFDE1E71D48E1E71C4802E0A2
:1031F800FEF748FE18B3636800EB5300B0FBF3F02A
:1032080080B2A0F110024FF6EF739A4219D82368E2
:10321800D860002000236366A36610BDFEF748FE51
:10322800E8E7FEF71DFDE5E74FF40040E3E701207E
:10323800F0E70020EEE70120ECE70120EAE70020B4
:10324800E8E70120E6E700BF0038014000440040FD
:1032580000480040004C0040005000400010024070
:1032680000127A00436A13F0010F06D0026853680F
:1032780023F40033816A0B435360436A13F0020F4F
:1032880006D00268536823F48033C16A0B43536045
:10329800436A13F0040F06D00268536823F48023AE
:1032A800016B0B435360436A13F0080F06D00268A2
:1032B800536823F40043416B0B435360436A13F094
:1032C800100F06D00268936823F48053816B0B4378
:1032D8009360436A13F0200F06D00268936823F4C2
:1032E8000053C16B0B439360436A13F0400F0AD03D
:1032F8000268536823F48013016C0B435360036C1A
:10330800B3F5801F0BD0436A13F0800F06D0026814
:10331800536823F40023816C0B43536070470268A1
:10332800536823F4C003416C0B435360EBE72DE96A
:10333800F84305460F4616469946DDF820802C6866
:10334800E46937EA04030CBF4FF0010C4FF0000C9E
:10335800B44553D1B8F1FF3FF1D0FEF761F9A0EBC6
:10336800090040452DD8B8F1000F2AD02B681A68FB
:1033780012F0040FE3D0DA6912F4006FDFD04FF4D3
:1033880000621A622A6852E8003F23F4D07342E8C8
:1033980000310029F6D12A6802F1080353E8003FFA
:1033A80023F00103083242E800310029F3D1202339
:1033B800AB67EB67C5F88030002385F874300320CD
:1033C8001DE02A6852E8003F23F4D07342E8003138
:1033D8000029F6D12A6802F1080353E8003F23F0D8
:1033E8000103083242E800310029F3D12023AB67FA
:1033F800EB67002385F87430032000E00020BDE867
:10340800F88330B583B004460023C0F88030FEF757
:1034180007F905462268126812F0080F0DD12368D3
:103428001B6813F0040F16D12023A367E36700205D
:10343800206684F8740003B030BD6FF07E430093BB
:10344800034600224FF400112046FFF770FF0028C2
:10345800E5D00320EFE76FF07E4300932B46002270
:103468004FF480012046FFF762FF0028DCD00320DC
:10347800E1E768B310B50446836F03B32423A36759
:103488002268136823F0010313602046FFF7C2FD8A
:10349800012813D0636ABBB92268536823F49043A8
:1034A80053602268936823F02A03936022681368A4
:1034B80043F0010313602046FFF7A3FF10BD80F817
:1034C8007430FDF7FDF9D9E72046FFF7CBFEE3E7B7
:1034D800012070477047704710B5044603689A6822
:1034E80012F4805F03D0DB6813F4807F0FD1236868
:1034F8009A6812F4005F03D0DB6813F4007F0FD1E1
:103508000C4B4FF400325A610123637710BDFFF76B
:10351800E2FF2268D368DBB263F4C073D360E6E7E6
:10352800204600F061FA2268D368DBB263F42073A6
:10353800D360E5E70004014038B504460268D36863
:1035480023F0A003D360FEF76BF805462368DB6819
:1035580013F0200F07D1FEF763F8401BB0F57A7F10
:10356800F4D9032000E0002038BD38B50368DA68D4
:1035780012F0400F01D0002038BD04464FF0FF3252
:10358800DA60FEF74DF805462368DB6813F0400F54
:1035980007D1FEF745F8431BB3F57A7FF4D903202A
:1035A800EAE70020E8E738B500285CD00446437F06
:1035B800002B41D0022363772368CA225A6223680A
:1035C80053225A622046FFF7D0FF0546002837D11C
:1035D8002268936823F4E00323F040039360216892
:1035E8008A686368206903436069034313438B60F7
:1035F8002368E2681A6122681369A16843EA0143F3
:1036080013612268D36823F08003D36023689B6822
:1036180013F0200F1BD02268136C23F4802313644B
:103628002268136CA1690B4313642368FF225A6252
:1036380001236377284638BD0377FDF7AFF8B9E76C
:103648002368FF225A62042363770125F2E72046A4
:10365800FFF772FF0028DED02368FF225A62042396
:1036680063770125E6E70125E4E7002302E001335B
:103678000A38C0B20928FAD81B01DBB218437047D0
:10368800F8B5037F012B78D004460E460123037753
:1036980002234377002A47D103689B6813F0400F41
:1036A80001D10023CB703078FFF7DFFF0504707875
:1036B800FFF7DBFF45EA0025B078FFF7D6FF0543A3
:1036C800F07845EA00452368CA225A6223685322E3
:1036D8005A622046FFF749FF0746002836D123687B
:1036E80005F07F3525F0FE451D602268936823F4B8
:1036F8008023936021688B68F26830690243134322
:103708008B602268D36823F08003D36023689B68AA
:1037180013F0200F23D02368FF225A620123637716
:10372800002323773846F8BD03689B6813F0400FE1
:1037380001D10023CB7035787078000240EA05404B
:10374800B5782843F57840EA0545BCE72368FF22A9
:103758005A6204236377002323770127E2E7204690
:10376800FFF7EAFE0028D6D02368FF225A62042316
:103778006377002323770127D4E70227D2E770B5C0
:10378800037F012B66D004460E46012303770223EC
:1037980043773AB94B7813F0100F03D003F0EF03D7
:1037A8000A334B70002A33D1F078FFF75EFF050427
:1037B8007078FFF75AFF45EA0025B078FFF755FF04
:1037C8000543307845EA40352368CA225A6223689F
:1037D80053225A622046FFF7C8FE064618BB2368E4
:1037E80025F07F4525F0C0055D602268D36823F089
:1037F8008003D36023689B6813F0200F1CD02368D4
:10380800FF225A620123637700232377304670BD75
:10381800F5787078000240EA0540B5782843357895
:1038280040EA4535D0E72368FF225A6204236377CC
:10383800002323770126E9E72046FFF77DFE0028CD
:10384800DDD02368FF225A6204236377002323779D
:103858000126DBE70226D9E7F8B5037F012B00F044
:10386800BE8004460D460123037702234377002ACE
:103878004ED103689B6813F0400F01D10023CB7031
:10388800EE692878FFF7F1FE07046878FFF7EDFE88
:1038980047EA0027A878FFF7E8FE0743E87847EAF1
:1038A800004795F82000FFF7E0FE47EA00673E432F
:1038B8006B691E436F68AB691F432368CA225A624B
:1038C800236853225A626B6AB3F5807F3AD0226824
:1038D800936823F4007393602268D368DBB263F4BF
:1038E8002073D360FDF79CFE05462368DA6812F062
:1038F800020F56D1FDF794FE401BB0F57A7FF4D93C
:103908002368FF225A62032060770023237765E04B
:1039180003689B6813F0400F01D10023CB70EE6958
:103928002A786B781B0243EA0243AA781343EA78A1
:1039380043EA024395F8202043EA02631E436B6979
:103948001E43B7E72268936823F480739360226864
:10395800D368DBB263F4C073D360FDF761FE05463C
:103968002368DA6812F0010F0DD1FDF759FE401BEC
:10397800B0F57A7FF4D92368FF225A620320607772
:10398800002323772AE0DE6123685F642268936856
:1039980043F4807393602268936843F48053936080
:1039A8000CE01E6223689F642268936843F40073E6
:1039B80093602268936843F400539360094B1A6834
:1039C80042F400321A609A6842F400329A6023681E
:1039D800FF225A620123637700202077F8BD022076
:1039E800FCE700BF0004014070470000034AD2F81A
:1039F800883043F47003C2F88830704700ED00E067
:103A080008B50C4B0C4A03E052F8041B43F8041B9E
:103A18000A498B42F8D30A4B02E0002243F8042BF0
:103A2800084A9342F9D3FFF7E1FF00F0B7F8FCF733
:103A3800FBFDFEE700000020543C00080C000020BD
:103A48000C000020A4030020FEE708B5FFF7FCFFE8
:103A580008B5FFF7F9FF08B5FFF7F6FF08B5FFF758
:103A6800F3FF08B5FFF7F0FF08B5FFF7EDFF08B55E
:103A7800FFF7EAFF08B5FFF7E7FF08B5FFF7E4FF30
:103A880008B5FFF7E1FF08B5FFF7DEFF08B5FFF758
:103A9800DBFF08B5FFF7D8FF08B5FFF7D5FF08B576
:103AA800FFF7D2FF08B5FFF7CFFF08B5FFF7CCFF48
:103AB80008B5FFF7C9FF08B5FFF7C6FF08B5FFF758
:103AC800C3FF08B5FFF7C0FF08B5FFF7BDFF08B58E
:103AD800FFF7BAFF08B5FFF7B7FF08B5FFF7B4FF60
:103AE80008B5FFF7B1FF08B5FFF7AEFF08B5FFF758
:103AF800ABFF08B5FFF7A8FF08B5FFF7A5FF08B5A6
:103B0800FFF7A2FF08B5FFF79FFF08B5FFF79CFF77
:103B180008B5FFF799FF08B5FFF796FF08B5FFF757
:103B280093FF08B5FFF790FF08B5FFF78DFF08B5BD
:103B3800FFF78AFF08B5FFF787FF08B5FFF784FF8F
:103B480008B5FFF781FF08B5FFF77EFF08B5FFF757
:103B58007BFF08B5FFF778FF08B5FFF775FF08B5D5
:103B6800FFF772FF08B5FFF76FFF08B5FFF76CFFA7
:103B780008B5FFF769FF08B5FFF766FF08B5FFF757
:103B880063FF08B5FFF760FF08B5FFF75DFF08B5ED
:103B9800FFF75AFF08B5FFF757FF000070B50D4D46
:103BA8000D4C641BA4100026A64209D10B4D0C4CE9
:103BB80000F020F8641BA4100026A64205D170BDB1
:103BC80055F8043B98470136EEE755F8043B98470B
:103BD8000136F2E74C3C00084C3C00084C3C00081D
:103BE800503C000802440346934200D1704703F852
:103BF800011BF9E7F8B500BFF8BC08BC9E46704742
:0C3C0800F8B500BFF8BC08BC9E46704731
:103C140002030405060708090A0B0C0D0E0F101009
:103C24000102030405060708090A0B0C0D0E0F1008
:103C34000000000000000000010203040607080958
:083C440000000000010203046E
:043C4C00AD010008BE
:043C500089010008DE
:0C3C5400010000001000000000127A00C7
:0400000508003A09AC
:00000001FF
