:020000040800F2
:1000000000A000207D710008890700089107000802
:1000100099070008A1070008A907000800000000D0
:10002000000000000000000000000000B107000810
:10003000B907000800000000C1070008C907000850
:10004000C7710008CD710008D3710008D1070008FE
:10005000D9710008DF710008E5710008EB71000834
:10006000F1710008F7710008FD71000803720008C3
:10007000097200080F720008157200081B72000850
:10008000E107000821720008F10700082772000844
:100090002D72000833720008397200080108000848
:1000A0003F7200080D0800081D080008457200088E
:1000B0004B72000851720008577200085D72000808
:1000C00063720008697200086F7200087572000898
:1000D0007B7200082D080008817200083D080008A6
:1000E000877200088D7200080B7300089372000875
:1000F000997200089F720008A5720008AB72000890
:10010000000000000000000000000000B1720008C4
:10011000B7720008BD720008C3720008C9720008F7
:100120004D080008CF720008D5720008DB72000885
:10013000E1720008E7720008000000000000000003
:10014000ED720008F3720008F97200080000000068
:10015000000000000000000000000000000000009F
:100160000000000000000000FF7200080573000896
:100170000B730008000000000000000000000000F9
:080180000000000011730008EB
:1001900010B5054C237833B9044B13B10448AFF3C1
:1001A00000800123237010BD7800002000000000B3
:1001B000EC85000808B5034B1BB103490348AFF3B6
:1001C000008008BD000000007C000020EC850008D5
:1001D000034613F8012B002AFBD1181A0138704787
:1001E00001F0FF01102A2BDB10F0070F08D010F8E8
:1001F000013B013A8B422DD010F0070F42B3F6D1EC
:10020000F0B441EA012141EA014122F007047FF004
:1002100000070023F0E80256083C85EA010586EA5B
:10022000010685FA47F5A3FA87F586FA47F6A5FA97
:1002300087F68EB9EED1F0BC01F0FF0102F00702A3
:1002400032B110F8013B013A83EA010313B1F8D14E
:100250000020704701387047002D06BF354603382F
:10026000073815F0010F07D1013015F4807F02BF68
:10027000013015F4C03F0130F0BC0138704700BFB9
:1002800070B58AB0002405940694079408940994E4
:10029000354B5A6942F400225A615A6902F400222D
:1002A0000192019A5A6942F480025A615A6902F431
:1002B00080020292029A5A6942F400325A615A69E3
:1002C00002F400320392039A5A6942F480225A617E
:1002D0005B6903F480230493049B224692214FF030
:1002E000904004F042FD214D224641F20201284691
:1002F00004F03BFD01226021284604F036FD9223E4
:100300000593012606960794089405A94FF090409E
:1003100004F0BAFB202305934FF488130693079447
:1003200005A94FF0904004F0AFFB41F202030593A2
:1003300006960794089405A9284604F0A5FB6023B7
:100340000593112306930794089405A9284604F001
:100350009BFB22462146172004F092FE172004F052
:10036000C7FE0AB070BD00BF001002400004004884
:1003700000B583B0124B5A6942F002025A615A69C1
:1003800002F002020092009A5A6942F001025A6198
:100390005B6903F001030193019B002207211020F8
:1003A00004F06EFE102004F0A3FE00221146382057
:1003B00004F066FE382004F09BFE03B05DF804FBF9
:1003C0000010024072B6FEE700B587B0002300932C
:1003D000019302930393049305931648164A02600F
:1003E0004360836003610122427680F82030C3625B
:1003F0008262C360C26180F83030042242610376B9
:10040000436302F04DFE88B9032300930123019357
:10041000002303930422029204930593694605483E
:1004200003F060FB20B907B05DF804FBFFF7CAFFDB
:10043000FFF7C8FF940000200001005008B50F48E6
:100440000F4B03604FF482734360002383604FF4CB
:10045000E062C260036143614FF400728261C36174
:100460000362436283620722C26203630823436319
:1004700004F0DAFF00B908BDFFF7A4FF8C010020EB
:100480000038004008B50B480B4B03604FF4E133D4
:10049000436000238360C36003610C224261836177
:1004A000C3610362436206F0C2FA00B908BDFFF7F8
:1004B00089FF00BFD40200200038014008B50B4876
:1004C0000B4B03604FF4E133436000238360C36050
:1004D00003610C2242618361C3610362436206F0DF
:1004E000A6FA00B908BDFFF76DFF00BF5803002052
:1004F0000044004008B50B480B4B03604FF4E13358
:10050000436000238360C36003610C224261836106
:10051000C3610362436206F08AFA00B908BDFFF7BF
:1005200051FF00BFDC0300200048004000B58BB045
:100530000023079308930993009301930293039375
:100540000493059306931748174A026047224260B6
:1005500083604FF49672C2600361836105F0C6FA4E
:10056000C8B900230793099307A90E4805F08CFC2E
:1005700098B9602300930023019302930493082207
:100580006946084805F028FB48B9064800F092FA89
:100590000BB05DF804FBFFF715FFFFF713FFFFF744
:1005A00011FF00BF880200200004004000B587B0A2
:1005B00000230193029303930493059300931A4835
:1005C0001A4A026043607C22826040F2CF72C260AD
:1005D00003614361836106F08DFBF8B900228DF859
:1005E00004208DF805208DF806200492059201A9BB
:1005F0000D4806F0ECFB98B901238DF800308DF81A
:1006000001308DF8023000228DF80320694606483B
:1006100006F05CFC30B907B05DF804FBFFF7D2FED2
:10062000FFF7D0FEFFF7CEFE6C010020002800404F
:1006300008B50948094B03604723436000238360E2
:100640006422C26003614361836105F01FFA00B94F
:1006500008BDFFF7B7FE00BFF001002000440140D5
:1006600008B50948094B03604723436000238360B2
:1006700042F21072C26003614361836105F006FAC1
:1006800000B908BDFFF79EFE3C0200200048014073
:1006900000B59FB02822002114A806F06FFE0021AB
:1006A0000F9110911191129113913C22684606F01E
:1006B00065FE012214924FF48033159318920222A2
:1006C0001B921C934FF4E0131D9314A803F054FCE9
:1006D00020BB0F230F9302211091002311934FF49D
:1006E0008062129213930FA803F098FFC0B90E4BCB
:1006F0000093012302934FF4803303934FF480233C
:1007000004934FF4807309934FF440730193684648
:1007100004F08AF830B91FB05DF804FBFFF752FE11
:10072000FFF750FEFFF74EFE8700010008B503F00B
:10073000DDFBFFF7ADFFFFF7A3FDFFF719FEFFF7A6
:1007400043FEFFF77BFEFFF79DFEFFF7B7FEFFF7C7
:10075000D1FEFFF7EBFEFFF729FFFFF769FFFFF779
:100760007FFF074805F00AF8064805F007F802F091
:10077000FFF84FF4FA6003F0DDFB02F00BF9FCE741
:10078000F00100203C02002008B504F0D1FCFCE799
:1007900008B504F0CDFCFCE708B504F0C9FCFCE7A3
:1007A00008B504F0C5FCFCE708B504F0C1FCFCE7A3
:1007B00008B504F0BDFC08BD08B504F0B9FC08BDDF
:1007C00008B504F0B5FC08BD08B503F0A1FB08BDF1
:1007D00008B5024806F0AEFC08BD00BF6C01002061
:1007E00008B5024804F0E0FB08BD00BF2801002066
:1007F00008B5024802F066FF08BD00BF9400002063
:1008000008B5202004F0B8FA08BD000008B5024879
:1008100005F013F808BD00BFF001002008B502483C
:1008200005F00BF808BD00BF3C02002008B50248E7
:1008300005F0F2FB08BD00BFD402002008B5024855
:1008400005F0EAFB08BD00BFDC03002008B5024844
:1008500004F0AAFB08BD00BFE400002082B00A4BF0
:100860009A6942F001029A619A6902F001020092CB
:10087000009ADA6942F08052DA61DB6903F0805352
:100880000193019B02B070470010024010B588B080
:100890000023039304930593069307930268224B66
:1008A0009A4201D008B010BD0446204B5A6942F06C
:1008B00080525A615A6902F080520192019A5A6933
:1008C00042F400325A615B6903F400330293029BE5
:1008D000402303930323049303A94FF0904004F0B3
:1008E000D3F81348134B03600023436083608022D6
:1008F000C2604FF4807202614FF480624261202234
:100900008261C36104F082FA58B9094BA3635C6247
:1009100000220221122004F0B3FB122004F0E8FBB5
:10092000C0E7FFF74FFDF0E7000100500010024064
:10093000E40000200804024002680B4B9A4200D0F9
:10094000704710B50446094A536923F08053536138
:1009500040214FF0904004F07BF9A06B04F07EFA48
:10096000122004F0D3FB10BD000100500010024023
:1009700008B502680B4B9A4200D008BD4FF4004204
:1009800092FAA2F2B2FA82F2074B13449B000122C0
:100990001A6000221146032004F072FB032004F0C9
:1009A000A7FBEAE7002800400081901000B589B05D
:1009B0000023039304930593069307930268144B53
:1009C0009A4202D009B05DF804FB03F5EC33DA6912
:1009D00042F48042DA61DA6902F480420192019ABB
:1009E0005A6942F480225A615B6903F480230293BE
:1009F000029B4FF460430393022304930323069363
:100A00000523079303A9034804F03EF8DAE700BF83
:100A100000380040000400480268094B9A4200D0A8
:100A2000704782B003F50333DA6942F00202DA61FB
:100A3000DB6903F002030193019B02B0704700BF22
:100A40000004004000B583B00368174A934205D004
:100A5000164A934215D003B05DF804FB144B9A6913
:100A600042F400329A619B6903F400330093009BC7
:100A700000220D21192004F003FB192004F038FB9B
:100A8000E9E70B4B9A6942F480229A619B6903F46F
:100A900080230193019B00220E211A2004F0F0FA1A
:100AA0001A2004F025FBD6E700440140004801402D
:100AB0000010024000B587B0002301930293039316
:100AC0000493059302680D4B9A4202D007B05DF87B
:100AD00004FB03F503335A6942F480225A615B69CF
:100AE00003F480230093009B0123019302230293CC
:100AF000059301A9024803F0C7FFE7E7000400409F
:100B00000004004810B58CB00023079308930993A4
:100B10000A930B9303684C4A934208D004464B4A0D
:100B2000934230D04A4A934264D00CB010BD494B36
:100B30009A6942F480429A619A6902F48042019271
:100B4000019A5A6942F400325A615B6903F4003336
:100B50000293029B4FF4C06307930223089301237F
:100B6000099303240A9407230B9307A94FF090409D
:100B700003F08AFF00222146252004F081FA252077
:100B800004F0B6FAD1E7334BDA6942F40032DA61A5
:100B9000DA6902F400320392039A5A6942F400328D
:100BA0005A615B6903F400330493049B0C2307939D
:100BB0000223089303230A9307230B9307A94FF0FB
:100BC000904003F061FF2448244B036000234360FE
:100BD00083608022C2600361436120228261C3611D
:100BE00004F014F918B91C4B23675C629DE7FFF70A
:100BF000E9FBF8E7174BDA6942F48022DA61DA6937
:100C000002F480220592059A5A6942F480225A61C0
:100C10005B6903F480230693069B4FF440630793BC
:100C20000223089303230A9307230B9307A90C4875
:100C300003F02AFF00220421272004F021FA2720B4
:100C400004F056FA71E700BF00380140004400404C
:100C50000048004000100240280100206C000240C3
:100C60000004004810B5074C23684FF4B972DA62EB
:100C7000E2603222DA6303F05DF923680022DA636E
:100C800010BD00BF8802002010B5094C0821204685
:100C900005F04EF823680022DA63204604F06EFD6A
:100CA00018B96420FFF7DEFF10BDFFF78BFBF8E7F4
:100CB0008802002010B50446FFF78AFA642382B246
:100CC0002146024805F00FFE10BD00BFDC030020E6
:100CD00008B501220549064805F02EFF18B9054858
:100CE000FFF7E8FF08BDFFF76DFBF8E76508002098
:100CF000DC0300201886000810B5044C228800216F
:100D0000034806F03BFB0023238010BD6004002055
:100D10006404002030B5B7B0002131913291339195
:100D20003491359130910A9192220BA806F026FB5E
:100D3000A24B1B88032B04D91A1FA1498A5C242AC1
:100D400006D0A04B1B78012B00F0AC8137B030BD32
:100D5000DA1E8A5C242AF4D1023BCB5C242BF0D12E
:100D60000B78532B1AD0522B46D0472B68D0472BE9
:100D700000F08D80542B00F0B280442B00F0E7800F
:100D80004E2BDED18E4B5B78442BDAD102238C4A7A
:100D9000D25C202A40F046810133F8E74A784E2A97
:100DA000E1D1894C894B224689498A4806F00EFBDD
:100DB0002368B3F57A7F01D301222260834B1A683E
:100DC000854B9A4202D9814B00221A607F4C7E4D9E
:100DD00023682A6881490AA806F0D8FA0AA8FFF70A
:100DE00069FF7F4B2A681A6022685A60FFF784FF08
:100DF000744B01221A70A4E7714A5278432AB4D185
:100E0000784C22467849734806F0E0FA226845F2A9
:100E100060439A4202D945F260422260714C2268D6
:100E200072490AA806F0B2FA0AA8FFF743FF22683F
:100E30006B4B9A61FFF760FF624B01221A7080E7EB
:100E40005F4A5278412A92D109AA6749614806F05F
:100E5000BDFA09984209664BA3FB0232D1090A4642
:100E6000644B1980644B03FB110364490B605C49BC
:100E70008A60CB6062490AA806F088FA0AA8FFF7E0
:100E800019FFFFF739FF4F4B01221A7059E74C4AFF
:100E900052784F2A7FF46EAF08AA53494D4806F0A6
:100EA00095FA08984209524BA3FB0232D1090A462F
:100EB000544B1980504B03FB110353490B604849B5
:100EC0000A614B6151490AA806F060FA0AA8FFF7C7
:100ED000F1FEFFF711FF3B4B01221A7031E7384A50
:100EE0005278492A7FF449AF494C002231A9204663
:100EF00006F062F8002230A9204606F085F80DF1D0
:100F0000C60300930DF1C50331AA4249314806F0EA
:100F10005DFA002231A9204605F059FF002230A9D0
:100F2000204605F0D3FF9DF8C63000939DF8C530EC
:100F30009DF8C42038490AA806F028FA0AA8FFF745
:100F4000B9FEFFF7D9FE1F4B00221A70F9E61C4AC2
:100F50005278492A7FF414AF224B1A684FF4616328
:100F6000B2FBF3F003FB10232C4907913C21B2FBA9
:100F7000F1F401FB14220692B3FBF1F30593049004
:100F8000214B1B6803931F4B1B8802931B4B1B6851
:100F90000193184B1B8800930C4B1B680A4A12687C
:100FA0001F490AA806F0F2F90AA8FFF783FEFFF727
:100FB000A3FE044B00221A70C3E600BF60040020A9
:100FC00064040020640800201C0F0020200F002073
:100FD0004086000866040020FFC99A3B4886000846
:100FE000880F0020000000206C8600087086000832
:100FF000C55A7C0A080B0020A0860100040B0020C3
:101000009C860008100B00200C0B0020C4860008F2
:101010006C010020EC860008F88600081010002003
:1010200014870008214A22492248184406F0CEF9C4
:1010300000231E4AD25C202A02D022B10133F8E7F5
:101040001A4A0021D154002217E09B1003F10F002F
:10105000D31C164911F803C0931CCB5C1B0403EB93
:101060000C6302F1010C11F80CC003EB0C23895C3A
:101070000B44114941F820300432132A04DC134692
:10108000002AE2DAD31CE0E7084A0C490AA806F075
:101090007DF90AA8FFF70EFEFFF72EFE084B01228E
:1010A0001A704EE601F0E6FD50E600BF1010002079
:1010B0009487000864040020880F00209C870008A3
:1010C00064080020BFF34F8F0549CA6802F4E0624C
:1010D000044B1343CB60BFF34F8F00BFFDE700BF4E
:1010E00000ED00E00400FA0508B5012204490548B6
:1010F00002F022FA00B908BDFFF764F9FBE700BF70
:10110000680800209400002008B54FF0004393FACF
:10111000A3F293FAA3F293FAA3F25B4A516A93FA09
:10112000A3F3B3FA83F303F01F03012202FA03F3DC
:101130000B420DD0554B1A70544B1B78052B00F009
:101140009D80062B00F09C80072B00F09B8008BD43
:101150004FF0804393FAA3F293FAA3F293FAA3F227
:10116000494A516A93FAA3F3B3FA83F303F01F03D6
:10117000012202FA03F30B4203D0444B02221A70FD
:10118000DAE74FF0005393FAA3F293FAA3F293FA3B
:10119000A3F23D4A516A93FAA3F3B3FA83F303F03F
:1011A0001F03012202FA03F3194203D0374B032233
:1011B0001A70C1E74FF0805393FAA3F293FAA3F2A7
:1011C00093FAA3F2304A516A93FAA3F3B3FA83F382
:1011D00003F01F03012202FA03F30B4203D02B4B4F
:1011E00004221A70A8E74FF0006393FAA3F293FA6F
:1011F000A3F293FAA3F2244A516A93FAA3F3B3FA3F
:1012000083F303F01F03012202FA03F30B4203D01E
:101210001E4B05221A708FE74FF0806393FAA3F2FA
:1012200093FAA3F293FAA3F2174A516A93FAA3F33B
:10123000B3FA83F303F01F03012202FA03F30B4214
:1012400003D0124B06221A7076E7022393FAA3F218
:1012500093FAA3F293FAA3F20B4A516A93FAA3F317
:10126000B3FA83F303F01F03012202FA03F30B42E4
:101270003FF462AF054B07221A705DE7FFF722FFCC
:10128000FFF720FFFFF71EFF00100240700800204C
:1012900008B501221149124802F04EF9D8B90F4B96
:1012A000D3ED007AF8EE677A9FED0E7A67EE877AD3
:1012B0009FED0D7A67EE877A9FED0C7A67EE877A5D
:1012C000DFED0B6A87EEA67ABCEEC77A094B17EE04
:1012D000102A1A8008BDFFF775F8E0E768080020BB
:1012E0009400002000404E45000080390000FA467E
:1012F00000401C466C08002008B520214FF09040AB
:1013000003F02CFD01280DD00E4B00221A700E4B5D
:1013100001221A700B4B1B78012B07D00B4B0022BC
:101320001A7008BD074B01221A70F3E7074A1378B9
:101330000133DBB21370132BF3D900231370024A6D
:101340001370EEE76E0800206F080020710800207F
:101350002A4B1B78132B00D0704710B582B00022A7
:1013600010214FF0904003F000FD254C0022022197
:10137000204603F0FAFC01222021204603F0F5FC70
:1013800000224021204603F0F0FC1E48FFF792FCAB
:101390001D4804F035FA1D4804F032FA1C4B1A6857
:1013A000136823F0010313601A4B1A68136823F0C3
:1013B00001031360184801F0BBFF01F08DFC4FF4EE
:1013C0007A7002F0B7FD02F0C9FD144BDA6942F001
:1013D0008052DA61DB6903F080530193019B0221A3
:1013E000002003F0CBFE02F0C0FD0D48FFF762FCC9
:1013F0004FF47A7002F09EFDFFF764FE240F002088
:1014000000040048C4870008F00100203C020020CE
:10141000D402002058030020940000200010024055
:10142000DC87000800B587B0002301930293039383
:1014300004930593A8B9012280214FF0904003F056
:1014400094FC80230193112302930023039303232D
:10145000049301A94FF0904003F016FB07B05DF82C
:1014600004FB8023019301A94FF0904003F00CFB93
:10147000F4E7000008B501220221024803F075FCE0
:1014800008BD00BF000400482DE9F04389B00023E7
:10149000049305938146002838D14FF4FA648D4BAC
:1014A0001B78012B35D08B4B1B7813B9894B01224C
:1014B0001A7002F039FD884B18600020FFF7B2FF68
:1014C000002280214FF0904003F04FFC0A2002F0F0
:1014D00031FD012280214FF0904003F046FC0120B5
:1014E000FFF7A0FF002480214FF0904003F036FC6E
:1014F000012821D1013442F210739C42F3D904AB8C
:1015000093E8030008AB03E903009BE04FF47A740F
:10151000C5E702F009FD704B1B68C31AA342C2D293
:101520006E4B5A6805921B68049304AB93E8030062
:1015300008AB03E9030085E0002480214FF09040D0
:1015400003F00CFC01280BD0013442F210739C42D2
:10155000F3D904AB93E8030008AB03E9030071E09F
:10156000002480214FF0904003F0F8FB01280BD1BC
:10157000013442F210739C42F3D904AB93E80300A8
:1015800008AB03E903005DE0554B93E803000290CC
:101590008DF80C104FF0000832E0AE420BD9012359
:1015A00003FA07F208F120030DEB030111F8183CD0
:1015B000134301F8183C013FFFB2FF2F1CD0002558
:1015C0002C4680214FF0904003F0C8FB012804D046
:1015D00001350134434B9C42F3D900263446802127
:1015E0004FF0904003F0BAFB0128D6D10136013408
:1015F0003C4B9C42F3D9D0E708F101085FFA88F828
:10160000B8F1040F01D80727D7E79DF808409DF8E7
:101610000920A0189DF80A1051FA80F09DF80B30AF
:1016200053FA80F0C0B29DF80C50A84211D02B4B59
:10163000049A1A60059A5A6004AB93E8030008AB59
:1016400003E903009DED060ADDED070A09B0BDE8D8
:10165000F083B9F1010F11D0B9F1000FE7D107EE16
:10166000904AF8EE677ACDED047A9DF80A3007EEDD
:10167000903AF8EE677ACDED057AD8E742EA04228F
:1016800007EE902AF8EEE77A9FED177A67EE877AF1
:10169000CDED047A11F0800F0AD143EA012307EE61
:1016A000903AF8EEE77A67EE877ACDED057AD3E7E0
:1016B00001F07F018DF80A1043EA012307EE903A0A
:1016C000F8EEE77A9FED097A67EE877ACDED057A35
:1016D000C2E700BF720800207408002078080020CC
:1016E00004860008905F0100CDCCCC3DCDCCCCBDB4
:1016F00000231A4605E00849C95C0A4492B2013346
:10170000DBB2072BF7D9044B1B7AD2B2934201D03C
:1017100000207047012070478408002008B5092286
:101720000749084805F086FA30B9012210214FF028
:10173000904003F01AFB08BDFEF744FEF5E700BF3A
:10174000840800205803002008B5FFF7D1FF0128C6
:1017500000D008BD094B9A78D97842EA012208499D
:101760000A801A79597942EA012206490A809A794F
:10177000DB7942EA0323044A1380EAE78408002065
:10178000800800208E08002090080020084BA3FB52
:101790000030084A138801339BB21380B3EB501F0B
:1017A00004D9134600221A80012070470020704798
:1017B0001F85EB512E0F002070B590B00120FFF770
:1017C00063FE8DED0E0ACDED0F0AF5EEC00AF1EEC7
:1017D00010FA7AD45C4AFCEEE07A17EE903A138065
:1017E000DFED5A7A60EEA77AFCEEE77A17EE903AD0
:1017F0009BB2574AA2FB03125209642101FB123328
:10180000544A1380DDED0E7ABCEEE77A17EE103AFB
:101810009CB2514B1C809FED4D7A67EE877AFCEEAF
:10182000E77A17EE903A9BB24948A0FB031252099F
:101830004FF0640C0CFB12339BB2484A1380484AA9
:101840001588484A1580484A12884849A1FB026118
:101850008909474E3180474EA6FB0262D208A0FBA1
:10186000026040090CFB102292B2434802804348B8
:101870000078434E3070F5EEC00AF1EE10FA3FD416
:101880000C90404800680B903F4800880A903F4801
:10189000006809903E4800880890079206913D4AEA
:1018A000128805920495039302942A4B1B88019396
:1018B000254B1B880093384B1B68384A12683849FF
:1018C000384805F063FD10B070BDF1EE607ABCEEF3
:1018D000E77A17EE102A1C4B1A809FED1C7A67EEF0
:1018E000877AFCEEE77A17EE903A9BB2184AA2FB91
:1018F00003125209642101FB1233164A138081E757
:101900000C90204800680B901F4800880A901F48E0
:10191000006809901E4800880890079206911D4AA9
:10192000128805920495039302940A4B1B88019335
:10193000054B1B880093184B1B68184A12681A49FC
:10194000184805F023FDBEE7280F00200000C8421C
:101950001F85EB51260F0020160B0020140B0020D2
:10196000800800209A0A00206C080020D34D6210E5
:10197000960A0020CDCCCCCC940A00206F08002021
:101980009C0A00200C0B0020100B0020040B0020F0
:10199000080B0020980A0020200F00201C0F0020B8
:1019A0007C88000894080020F087000870B5ADF529
:1019B000846D0646002408944FF47F72214609A8DE
:1019C00005F0DCFC0DF1040C1E4D0FCDACE80F0052
:1019D00095E807008CE807001B4B009309E01B4BC0
:1019E0001A5D1B4908AB03EB440005F0CFFC013442
:1019F000A4B21648FEF7ECFB8442F0D301A8FEF730
:101A0000E7FB024601A9304605F0AAFC01A8FEF753
:101A1000DFFB341808A8FEF7DBFB024608A92046C6
:101A200005F09EFC3046FEF7D3FB06446846FEF701
:101A3000CFFB02466946304605F092FC0DF5846DF9
:101A400070BD00BF0C890008220D0A009408002018
:101A50000889000810B50446FEF7BAFB642382B279
:101A60002146064804F03FFF2046FEF7B1FB642301
:101A700082B22146024804F036FF10BDD402002095
:101A8000DC03002038B51F4B1A88032A35D8002400
:101A9000204638BD4CB301339BB2B3F5806F2ED2D4
:101AA0001949CC5C4F2CF5D1591C174D695C4B2959
:101AB000F0D1991C695C0D29ECD1D91C695C0A290B
:101AC000E8D1EC182046FEF783FB642382B221465E
:101AD0000E4804F008FF0B4C22880021284605F030
:101AE0004DFC002323800124D2E70021064805F0A5
:101AF00045FC044B00221A80CAE70023CDE70024EE
:101B0000C6E700BF180F0020180B0020DC030020E0
:101B100010B50446FFF7B6FF012808D0074A13782E
:101B20000133DBB213700A2B04D8204610BD0134F8
:101B3000E4B2FAE703F0FCFAF7E700BF2B0F00204E
:101B400030B5ADF2044D002100914FF47F7201A831
:101B500005F014FC9B4B1B78122B1BD8DFE813F00D
:101B6000130042006A009300C000EA001301510113
:101B70007C01A601D30100022C0259029802C20284
:101B8000EF021D034503904B1B7833B18E4B1B783E
:101B9000012B12D00DF2044D30BD8C4B93E80300A5
:101BA0000090ADF80410090C8DF806106846FFF798
:101BB00051FF854B01221A70E8E7854B1B78012BFA
:101BC00005D06420FFF7E2FD814B1870E2E70020AA
:101BD000FFF79EFF7B4B187000237D4A13707A4AF3
:101BE0001370D7E7784B1B786BB1774B1B78012BC1
:101BF000D0D1774B1B78012B11D06420FFF7C6FDA5
:101C0000734B1870C6E76B46724A07CA83E8070031
:101C10001846FFF71FFF6C4B01221A70E5E7012001
:101C2000FFF776FF674B18700023694A1370664A06
:101C30001370AFE7644B1B7873B1634B1B78012BB8
:101C4000A8D1634B1B78012B12D040F6B830FFF7B8
:101C50009DFD5F4B18709DE76B465F4A07CA83E89E
:101C600007001846FFF7F6FE574B01221A70E4E70B
:101C70000220FFF74DFF534B18700023544A137096
:101C8000514A137086E7504B1B787BB14E4B1B7843
:101C9000012B7FF47FAF4E4B1B78012B15D04FF4F7
:101CA000FA70FFF773FD4A4B187073E76C464B4DA3
:101CB0000FCD0FC495E8070084E807006846FFF7DA
:101CC000C9FE414B01221A70E0E70320FFF720FF15
:101CD0003C4B187000233E4A13703B4A137059E77F
:101CE000394B1B787BB1384B1B78012B7FF452AFFB
:101CF000374B1B78012B12D040F6B830FFF746FD6A
:101D0000334B187046E76B46354A07CA83E807002D
:101D10001846FFF79FFE2C4B01221A70E3E70420C0
:101D2000FFF7F6FE274B18700023294A1370264A46
:101D300013702FE7244B1B7873B1234B1B78012BB7
:101D40007FF428AF224B1B78012B11D06420FFF7C2
:101D50001DFD1F4B18701DE7224A6B4607CA03C3BF
:101D60001A806846FFF776FE174B01221A70E4E7E7
:101D70000520FFF7CDFE134B18700023144A137093
:101D8000114A137006E7104B1B7873B10E4B1B788A
:101D9000012B7FF4FFAE0E4B1B78012B26D0642065
:101DA000FFF7F4FC0A4B1870F4E60F4B6C460FCBB0
:101DB00007C423706846FFF74DFE034B01221A70DB
:101DC000E4E700BF240F0020310F0020288900081D
:101DD0002D0F0020308900083C8900084889000840
:101DE00064890008708900087C8900080620FFF7D4
:101DF0008FFE9D4B187000239C4A13709C4A1370F1
:101E0000C8E69B4B1B787BB1994B1B78012B7FF469
:101E1000C1AE964B1B78012B13D04FF47A70FFF7AD
:101E2000B5FC924B1870B5E66C46924D0FCD0FC4C1
:101E30002B6823806846FFF70DFE8D4B01221A7038
:101E4000E2E70720FFF764FE874B18700023874AFC
:101E50001370874A13709DE6854B1B787BB1844BCA
:101E60001B78012B7FF496AE804B1B78012B12D090
:101E70004FF47A70FFF78AFC7C4B18708AE66C4648
:101E80007D4B0FCB84E80F002046FFF7E3FD784B36
:101E900001221A70E3E70820FFF73AFE724B187030
:101EA0000023724A1370724A137073E6704B1B78EA
:101EB0007BB16F4B1B78012B7FF46CAE6B4B1B78A7
:101EC000012B15D04FF4FA50FFF760FC674B1870E8
:101ED00060E66A4B6C460FCB07C424F8023B1B0C30
:101EE00023706846FFF7B6FD614B01221A70E0E7E8
:101EF0000920FFF70DFE5C4B187000235B4A13703E
:101F00005B4A137046E65A4B1B787BB1584B1B78E3
:101F1000012B7FF43FAE554B1B78012B15D04FF4AE
:101F20007A70FFF733FC514B187033E6544B6C4614
:101F30000FCB07C424F8023B1B0C23706846FFF745
:101F400089FD4B4B01221A70E0E70A20FFF7E0FD04
:101F5000454B18700023454A1370454A137019E623
:101F6000434B1B7873B1424B1B78012B7FF412AEAD
:101F70003E4B1B78012B14D03220FFF707FC3B4B64
:101F8000187007E66C463F4D0FCD0FC495E80F0063
:101F900084E80F006846FFF75DFD354B01221A709B
:101FA000E1E70B20FFF7B4FD2F4B187000232F4AF9
:101FB00013702F4A1370EDE52D4B1B7873B12C4B2A
:101FC0001B78012B7FF4E6AD284B1B78012B15D035
:101FD0003220FFF7DBFB254B1870DBE56C462A4D02
:101FE0000FCD0FC42B6824F8023B1B0C23706846EE
:101FF000FFF730FD1E4B01221A70E0E70C20FFF7BF
:1020000087FD194B18700023184A1370184A137073
:10201000C0E5174B1B787BB1154B1B78012B7FF468
:10202000B9AD124B1B78012B13D04FF4FA60FFF7B8
:10203000ADFB0E4B1870ADE56C46144D0FCD0FC4C3
:102040002B6823706846FFF705FD094B01221A70C3
:10205000E2E70D20FFF75CFD034B18700023034AF5
:102060001370034A137095E5240F00202D0F0020F4
:10207000310F00208C890008A0890008B089000871
:10208000C0890008D0890008F0890008048A000887
:102090006B4B1B787BB16A4B1B78012B7FF47AADBD
:1020A000684B1B78012B12D04FF4FA60FFF76EFBE0
:1020B000644B18706EE56C46634B0FCB84E80F00E1
:1020C0002046FFF7C7FC5E4B01221A70E3E70E20A3
:1020D000FFF71EFD5D4B187000235A4A1370584AD3
:1020E000137057E5564B1B787BB1554B1B78012B72
:1020F0007FF450AD534B1B78012B15D04FF4FA6091
:10210000FFF744FB4F4B187044E56C46504D0FCD24
:102110000FC495E8070084E807006846FFF79AFCBB
:10212000474B01221A70E0E70F20FFF7F1FC474B05
:1021300018700023434A1370414A13702AE5404B3C
:102140001B787BB13E4B1B78012B7FF423AD3D4BBD
:102150001B78012B16D04FF4FA60FFF717FB394BB1
:10216000187017E5EC463B4C0FCCACE80F0094E838
:102170000F008CE80F006846FFF76CFC304B012223
:102180001A70DFE71020FFF7C3FC304B18700023F4
:102190002C4A13702A4A1370FCE4294B1B787BB13C
:1021A000274B1B78012B7FF4F5AC264B1B78012BBA
:1021B00010D042F21070FFF7E9FA224B1870E9E4F0
:1021C0006846FFF7F3FB6846FFF744FC1C4B01220F
:1021D0001A70E5E71120FFF79BFC1C4B18700023D9
:1021E000184A1370164A1370D4E4154B1B787BB150
:1021F000134B1B78012B7FF4CDAC124B1B78012BBA
:1022000012D04FF47A70FFF7C1FA0E4B1870C1E488
:102210006C46114B0FCB84E80F002046FFF71AFCE9
:10222000074B01221A70E3E71220FFF771FC074BFE
:1022300018700023034A1370014A1370AAE400BF08
:10224000310F00202D0F0020188A0008240F0020D5
:10225000288A0008448A0008648A00082DE9F843A7
:102260000446022806D0414B1B88002B7CD1204617
:10227000BDE8F8833D4B1B88002BF8D0002301E01C
:1022800001339BB2B3F5806FF1D21946384AD25C64
:102290004F2AF5D15A1C3648825C4B2AF0D19A1C41
:1022A000825C0D2AECD1DA1C825C0A2AE8D1642314
:1022B000042201442F4804F016FB0134E4B2D6E7AF
:1022C000FB79302B4DD13B7A312B4AD17B7A352BA0
:1022D00047D10024CBE701339BB2B3F5806FC6D260
:1022E0001D46234AD25C2B2AF5D15A1C20498A5C10
:1022F000552AF0D19A1C8A5C552AECD1DA1C8A5CEA
:102300004C2AE8D11A1D8A5C4F2AE4D15A1D8A5CF6
:10231000432AE0D19A1D8A5C3A2ADCD10E46CF18B6
:102320003846FDF755FF642382B23946114804F060
:10233000DAFA05F10801DFF83480B8F800900E4FA2
:10234000A9EB05023144384605F00AF84A46002157
:10235000304605F013F80023A8F80030BB79322B83
:10236000AED00134E4B282E70023B6E7180F0020B4
:10237000180B0020DC030020A00A002070B586B0F6
:102380000446002501950295039504950595009551
:10239000A14B19785A7801EB810102EB4102103A06
:1023A0008DF80220D9781A7901EB810102EB410204
:1023B000103A8DF80120197A5A7A01EB810102EB6B
:1023C0004102103A8DF80320D97A1A7B01EB810182
:1023D00002EB4102103A8DF80420997BDA7B01EB85
:1023E000810102EB4102103A8DF805205A7C9B7C5A
:1023F00002EB820203EB4203103B8DF80630874E5E
:102400002A4601A9304604F0E2FC2A4669463046D5
:1024100004F05CFD2B462A46022B0AD803F1180172
:102420007D48415C2E2904D00132D2B20133DBB2A7
:10243000F2E7012A07D0022A43D0032A4DD0784B75
:102440000021198004E0744B1B7E303B74490B80E3
:10245000114602F119037048C35CA3F1300502F183
:102460001A03C35C303B6F4E06FB03F36E4E06FB54
:10247000053302F11B05455D303D42F2107606FB47
:10248000053302F11C05455D303D4FF47A7606FBBD
:10249000053302F11D05455D303D642606FB05331D
:1024A00002F11E05455D303D05EB850503EB450357
:1024B0001F32825C303A13445C4A136000231A4690
:1024C00024E055490B7E303B497E03EB830301EB4F
:1024D0004303303B52490B80BAE74F48017E303905
:1024E000437E303B01EB810101EB810103EB830370
:1024F0005B0003EB81039BB2817E0B44303B484978
:102500000B80A5E70132D2B20133DBB2022B06D831
:1025100003F121000844404D285C2E28F2D1012A05
:1025200007D0022A4CD0032A5AD0414B00201880F1
:1025300006E001F121033848C35C303B3C4803808E
:1025400001F1220313443448C35CA3F1300501F1C7
:1025500023031344C35C303B324E06FB03F3324E7D
:1025600006FB053301F124051544455D303D42F27B
:10257000107606FB053301F125051544455D303D18
:102580004FF47A7606FB053301F126051544455DC7
:10259000303D642606FB053301F127051544455DF2
:1025A000303D05EB850503EB450328311144425CC2
:1025B000303A13441F4A1360601CC0B206B070BDAD
:1025C00001F121031448C35C303B01F12205405D59
:1025D00003EB830300EB4303303B15480380AFE775
:1025E00001F121030C4DE85C303801F12203EB5C72
:1025F000303B00EB800000EB800003EB83035B00CB
:1026000003EB80039BB201F12300285C0344303BC1
:102610000748038094E700BFA00A00206C01002057
:10262000080B0020A086010040420F00040B002090
:10263000100B00200C0B002010B59AB00021019166
:10264000602202A804F09AFE564B1B78042B00F27D
:10265000A780DFE803F0032E5787A000524B1B78BA
:102660007BB1514B1B78012B40F09A804F4B1B786C
:10267000012B13D04FF47A70FFF788F84B4B18708A
:102680008EE04B4B93E8030001908DF8081001A8F1
:10269000FFF7E0F9444B01221A70E2E70020FFF750
:1026A00037FA404B18700023404A13703E4A1370AB
:1026B00076E03D4B1B7873B13B4B1B78012B6FD100
:1026C0003A4B1B78012B12D04FF47A70FFF75EF86B
:1026D000364B187064E001AC364B0FCB84E80F002A
:1026E0002046FFF7B7F9304B01221A70E4E70120CA
:1026F000FFF70EFA2B4B187000232C4A13702A4A4E
:1027000013704DE0284B1B7873B1274B1B78012BBE
:1027100046D1264B1B78012B19D04FF47A70FFF766
:1027200035F8224B18703BE00DF1040C224C0FCC15
:10273000ACE80F0094E80700ACE803008CF8002038
:1027400001A8FFF787F9184B01221A70DDE7022074
:10275000FFF784FD134B18700023144A1370124ABC
:1027600013701DE0104B01221A70104B1B7893421E
:1027700006D041F28830FFF709F80C4B18700FE0D3
:102780000320FFF76BFD074B18700023074A1370F7
:10279000054A137004E00420FFF7F0FD014B1870A8
:1027A0001AB010BD120B0020300F00202C0F00209B
:1027B000748A00087C8A00088C8A000810B50122FF
:1027C0001149124804F0B8F9D8B940F6B83001F010
:1027D000B1FB0F4C01222021204602F0C6FA6420F2
:1027E00001F0A8FB00222021204602F0BEFA40F2B0
:1027F000DC5001F09FFB01224021204602F0B5FA97
:1028000010BDFDF7DFFDE0E72A0F0020D402002015
:102810000004004808B5FEF7CFFF054B1B78052BD9
:1028200002D0FFF709FF08BDFFF78AF9FBE700BFF9
:10283000120B0020024A136801331360704700BF77
:10284000340F0020014B1868704700BF340F002080
:1028500010B50446FFF7F6FF022C08D0032C09D070
:102860000023C31A022C08D0032C0AD010BD074B3A
:10287000DB69F6E7054B1B6AF3E7044AD362D061D4
:10288000F4E7024A13631062F0E700BF340F002040
:1028900010B50446FFF7D6FF022C02D0032C03D05C
:1028A00010BD034BD860FBE7014B5861F8E700BF50
:1028B000340F002010B50446FFF7C4FF022C08D0E7
:1028C000032C09D00023C31A022C08D0032C0AD0F1
:1028D00010BD074BDB68F6E7054B5B69F3E7044A7D
:1028E00053621061F4E7024A93629061F0E700BF1F
:1028F000340F002008B5FEF727FFFEF70BFAFFF7AD
:1029000089FF00F0C5F9FEF723FD08BD08B5FEF705
:10291000BFFCFEF7F1FC08BD08B5134B5A68013245
:102920005A60012183F83C10104BA3FB0213DB0813
:1029300003EB830359008A4206D10B4B9A6801329C
:102940009A60012283F83D20074B002283F83C2047
:102950000220FFF79DFFFFF7D9FF0220FFF7AAFF34
:102960000220FFF775FF08BD340F0020CDCCCCCC82
:1029700008B5FEF7B9FBFEF77DFDFEF7A9F9FEF7F6
:10298000CDFEFFF71BFFFEF77FF900F031F9FEF7F0
:10299000BBFB08BD08B50F4B93F83D30012B09D0A8
:1029A0000420FFF775FF0420FFF784FF0420FFF7E2
:1029B0004FFF08BD074B002283F83D200320FFF79F
:1029C00067FFFFF797FF0320FFF774FF0320FFF770
:1029D0003FFFEEE7340F002010B504460268074BB6
:1029E0009A4204D02268064B9A4203D010BDFFF7EA
:1029F00093FFF7E7FFF71EFFF8E700BF004801402D
:102A00000044014008B50368144A934206D0144AB2
:102A1000934210D0134A934212D008BD988C124AA8
:102A200013881249C85401331380012210491148F8
:102A300004F082F8F1E7104A136801331360ECE701
:102A4000988C0E4A13880E49C85401331380012212
:102A500007490C4804F070F8DFE700BF0038014078
:102A60000044004000480040180F0020180B0020D0
:102A7000740F0020D4020020780F00206004002092
:102A800064040020DC030020BFF34F8F0549CA68AF
:102A900002F4E062044B1343CB60BFF34F8F00BFDF
:102AA000FDE700BF00ED00E00400FA0510B582B0BC
:102AB000002301930C4C23600C4B63600123A36043
:102AC00002F098FB01A9204602F05CFC20B902F05C
:102AD000ABFB002002B010BD02F0A6FB0A2001F003
:102AE00029FAFFF7D1FF00BF7C0F002000F8030890
:102AF00008B588220021244804F040FC00220AE0A6
:102B0000930003F1006303F57E33D3E900011E4B0C
:102B100043F822000132212AF2DD1B4B19681B4ABF
:102B2000116059681A4A116099681A4A1180D96867
:102B3000194A11601969194A11805969184A1160B6
:102B40009A69184B1A60002316E092100F320E4952
:102B500051F82210D81C4FEA116C134A02F800C039
:102B6000981CC1F3074C02F800C0581CC1F3072C95
:102B700002F800C0D1540433132B04DC1A46002B96
:102B8000E3DADA1CE1E708BD880F00201C0F002003
:102B9000200F0020080B0020040B0020100B002049
:102BA0000C0B0020000000201010002010B502F0D7
:102BB00021FB0A2001F0BEF9002411E072B6A10049
:102BC0000A4B53F82420002301F1006101F57E3106
:102BD000022002F063FB62B60A2001F0ABF9013477
:102BE000212CEBDD02F020FB10BD00BF880F002080
:102BF00010B51D4BD3E90023B3F1FF3F08BFB2F17D
:102C0000FF3F02D0FFF774FF10BD184C882200214F
:102C1000204604F0B3FB0123236042F63023A36176
:102C2000002217E09B1003F10F00D31C104911F88C
:102C300003C0931CCB5C1B0403EB0C6302F1010C7F
:102C400011F80CC003EB0C23895C0B44074941F8D5
:102C500020300432132A04DC1346002AE2DAD31CA3
:102C6000E0E7FFF7A3FFCFE700F80308880F002095
:102C70001010002008B5FFF719FF642001F05AF981
:102C8000FFF794FF4FF4FA7001F054F9FFF7FCFEE0
:102C900010B586B00C4C002201A9204604F08CF936
:102CA00000226946204604F0AFF99DF80420074B46
:102CB0001A809DF80520064B1A809DF80620054BCA
:102CC0001A8006B010BD00BF6C01002074100020F7
:102CD000761000207810002030B5A1B02822002105
:102CE00016A804F04BFB002411941294139414942E
:102CF0001594109403942E22214604A804F03EFB60
:102D0000474D224611A9284604F056F9224610A93B
:102D1000284604F079F99DF8463000939DF8453037
:102D20009DF844203F4903A804F030FB03A8FDF7B9
:102D3000C1FF3D4B1B78012B61D09DF844303B4ACD
:102D400011683B4AA2FB010203EBD2238DF85830F5
:102D50009DF84500374BA3FB01425209A3FB0243F8
:102D60005B09C3EB0313A2EB830303448DF85930D3
:102D70009DF84630C2EB0212A1EB82021A448DF894
:102D80005A202D4B1B9301238DF878304FF480731C
:102D90001F939DF85A303B2B07D93C3B8DF85A3096
:102DA0009DF8593001338DF859309DF859303B2B3F
:102DB00007D93C3B8DF859309DF8583001338DF8D8
:102DC00058309DF85830172B02D9183B8DF85830E1
:102DD0009DF85A3000939DF859309DF858201749B6
:102DE00003A804F0D3FA03A8FDF764FF04220F4BF5
:102DF00019680B4804F026F978B921B030BD9DF868
:102E000044308DF858309DF845300F338DF85930E7
:102E10009DF846308DF85A30B3E7FDF7D3FAECE76A
:102E20006C010020A88A00086F0800200000002024
:102E3000C5B3A2918988888880808000C48A0008F0
:102E4000704770477047704738B50268936803F061
:102E50000303012B01D0002038BD0446136813F092
:102E6000010F33D0936803F00D03012B09D0036CDD
:102E700043F010030364436C43F0010343640120F7
:102E8000EAE7936843F002039360036803221A6041
:102E900001F04AF8054623689B6813F0010F13D030
:102EA00001F042F8401B0228F5D923689B6813F013
:102EB000010FF0D0236C43F010032364636C43F0E4
:102EC000010363640120C7E70020C5E70020C3E7D2
:102ED00003689A6812F00C0F65D070B50446DA6882
:102EE00012F0007F04D0008B40F20112904246D0D5
:102EF00060290CD023689A6812F0040F07D09A68F2
:102F000012F0020F03D19A6842F010029A600C2965
:102F10000CD023689A6812F0080F07D09A6812F054
:102F2000020F03D19A6842F020029A60602934D0DF
:102F30006C2934D10C2500F0F7FF064623689B6806
:102F40002B422ED000F0F0FF831B0B2BF6D9236809
:102F50009B682B42F2D0236C43F010032364636C14
:102F600043F00103636401201CE0236C43F0100371
:102F70002364636C43F001036364012012E00022C8
:102F8000196811F0400F04D108498A42EDD8013286
:102F9000F6E740221A600C21ACE70825CBE70425B0
:102FA000C9E7002070BD0020704700BFFF930900F3
:102FB00038B504460268936803F00303012B0DD073
:102FC00091681A4B19420FD0236C43F0100323640D
:102FD000636C43F001036364012038BD136813F090
:102FE000010FEDD00020F8E7936843F001039360F0
:102FF00000F09AFF054623681B6813F0010F13D1F8
:1030000000F092FF431B022BF5D923681B6813F0D5
:10301000010FF0D1236C43F010032364636C43F081
:10302000010363640120D8E70020D6E73F00008059
:1030300008B5406A036C43F040030364436C43F0FB
:1030400004034364FFF7FFFE08BD08B5406AFFF7BD
:10305000F8FE08BD08B5436A1A6C12F0500F1AD179
:103060001A6C42F400721A641A68D26812F4406F43
:103070000DD15A7E5AB91A6C22F480721A641A6CF5
:1030800012F4805F03D11A6C42F001021A641846F0
:10309000FFF7D6FE08BD9B6B1B6B9847FAE7000055
:1030A00030B597B000230193002800F02F8104462B
:1030B000036C13F0100F52D1036CABB100202368E6
:1030C0009A6812F0805F03D09B6813F0005F47D0CE
:1030D000236C23F0120343F010032364636C43F06A
:1030E0000103636401203BE04364C364836480F8AC
:1030F0003C30FDF7CBFB23689B6813F0805F01D069
:103100000020DCE72046FFF79FFE236C13F0100F32
:10311000D5D10028D3D1236C23F4885323F00203A4
:1031200043F0020323642268936823F040539360C2
:103130002268936843F080539360754B1B68754A0F
:10314000A2FB03239B0C03EB83035B00019302E0D0
:10315000019B013B0193019B002BF9D1AFE70020BC
:10316000236C13F0100F40F0C880002840F0C58099
:103170002368996811F0040140F0BF80226C22F4AA
:10318000817242F002022264B3F1A04F14D0624A6D
:1031900093420FD0614DB3F1A04F0FD05E4A9342DE
:1031A00067D05F4A934268D05E4A934269D000225A
:1031B000029205E05C4DEEE75B4DECE7564A029269
:1031C0009A6802F00302012A5FD0029B23B19A6839
:1031D00002F00302012A5DD0AB6823F44033626839
:1031E0001343AB60627E5303656B012D01D04FF436
:1031F00080510B43E1680B43A1680B4394F8201006
:1032000001294CD0A26A012A0AD02168444DA94262
:1032100058D005F58075A94254D0E16A0A4313439A
:103220002268916811F00C0F0CD1D16821F4804113
:1032300021F00201D160217E94F83020520042EA50
:10324000813213432168CD68384A2A401343CB604A
:103250002369012B48D02268136B23F00F031363FB
:1032600000236364236C23F0030343F0010323640E
:103270004AE04FF0A0420292A2E702F58072029269
:103280009EE7A2F5807202929AE71B6813F0010F85
:10329000A8D19AE71B6813F0010FA3D19CE732B9BC
:1032A000626A013A43EA424343F48033AAE7226C5C
:1032B00022F0220242F020022264626C42F00102FB
:1032C00062649FE7B2F5307F08D0B2F5807F08D006
:1032D000B2F5E07FA1D14FF480729EE74FF4E07227
:1032E0009BE74FF4307298E721680B6B23F00F03D4
:1032F000E269013A13430B63B2E7236C23F0120334
:1033000043F010032364012017B030BD0120FBE718
:103310000C00002083DE1B4300010050000700501A
:1033200000040050000500500003005007C0F0FFEB
:1033300030B595B0002800F0E7800446036C43F0F8
:10334000020303646C21FFF7C3FD0546002800F06B
:103350009380002D40F0BA802268536823F4FF6305
:1033600023F007035360236840F2FF721A6022685B
:10337000936823F0E04393602268936843F000531E
:1033800093602268D168614B0B40D3602268536917
:1033900023F07F5323F47F1323F47F5323F0380368
:1033A00053612268936903F0784393612268136A3A
:1033B00003F0F02313622268536A03F0FF23536281
:1033C0002268936A03F0FF2393622268116B504BCB
:1033D0000B40136323685A6B4E490A405A632268B4
:1033E000936B0B4093632268D36B23F4FB6323F04E
:1033F0000703D36321680A6E474B1A400A662168A7
:103400004A6E1A404A6621688A6E1A408A662168A6
:10341000CA6E1340CB662168D1F8A0303F4A1340F2
:10342000C1F8A0302168D1F8A4301340C1F8A4300D
:103430002168D1F8B0301340C1F8B0302268D2F81A
:10344000B43023F07F13C2F8B4302368B3F1A04F37
:1034500022D0334A93421DD03249B3F1A04F1DD040
:103460002F4A934238D0304A934239D02F4A934260
:103470003AD00022009213E02268D36843F400138C
:10348000D3602046FFF7E0FC054600283AD101232F
:1034900023645EE72649E0E72549DEE7204A0092FB
:1034A0009A6802F00302012A22D0009B23B19A6895
:1034B00002F00302012A20D08A681E4B13408B6061
:1034C0002046FDF739FA002363642364002384F85F
:1034D0003C30284615B030BD4FF0A0420092DFE7E7
:1034E00002F580720092DBE7A2F580720092D7E7C6
:1034F0001B6813F0010FE3D1D7E71B6813F0010F2E
:10350000DED1D9E70125E1E70125E2E7048000806B
:10351000300882E0200882E000F0FF030100F8FF9D
:10352000000100500007005000040050000500504A
:1035300000030050E0103CFEF8B5044600688568C2
:1035400015F0040F40F0A8800F46164694F83C3062
:10355000012B00F0A380012384F83C30B0F1A04F90
:103560000AD04F4B984207D04E4B9B6813F01F0F69
:103570000CBF0123002306E04B4B9B6813F01F0F89
:103580000CBF012300232BB9002384F83C30012514
:103590002846F8BD2046FFF70BFD0546002877D1E9
:1035A000236C23F4706323F0010343F480732364DA
:1035B0002368B3F1A04F43D0394A934240D0394AEF
:1035C000926812F01F0F40D1226C22F48012226404
:1035D000DB6813F0007F05D0236C23F4405343F4E1
:1035E00080532364236C13F4805F4ED0636C23F00C
:1035F00006036364002384F83C30A36B2B4A9A6271
:10360000A36B2B4ADA62A36B2A4A1A6323681C2233
:103610001A602268536843F0100353602268D3682D
:1036200043F00103D360216833463A464031A06B32
:1036300001F039FC2268936843F004039360A7E724
:10364000194A926812F01F0FBED0B3F1A04FBBD041
:10365000194A9342B8D0226C42F480122264104A74
:1036600093420CD0144BDB68C3F34063002BB9D0FA
:10367000236C23F4405343F480532364B2E74FF0A8
:10368000A043DB68C3F34063F0E700236364B1E762
:10369000002384F83C307BE7022579E7022577E7B1
:1036A0000001005000070050000300505530000892
:1036B0004B3000083130000800040050704770475C
:1036C0007047704710B5044603681A6812F0040F7B
:1036D00003D05A6812F0040F07D11A6812F0080FCD
:1036E0007FD05A6812F0080F7BD0226C12F0100FB6
:1036F00003D1226C42F400722264B3F1A04F28D0AF
:103700008E4A934225D08E4A926812F01F0F25D11F
:10371000D968DA6812F4406F5DD111F4005F5AD1B4
:103720001A6812F0080F56D09A6812F0040F4AD1A6
:103730005A6822F00C025A60236C23F480732364CD
:10374000236C13F4805F46D1236C43F001032364A0
:1037500041E07C4A926812F01F0FD9D0B3F1A04F1C
:1037600009D0764A934206D0754A926802F01F0249
:10377000052A06D1CCE7734A926802F01F02052A97
:10378000C6D0B3F1A04F09D06C4A934206D06C4A20
:10379000926802F01F02092A06D1B9E7694A9268C5
:1037A00002F01F02092AB3D0B3F1A04FB0D0664A8D
:1037B0009342ADD0614A934202D0634AD168A8E7F0
:1037C0004FF0A042FAE7236C43F010032364636CCC
:1037D00043F0010363642046FFF732FB23680C22A9
:1037E0001A6023681A6812F0200F03D05A6812F08A
:1037F000200F09D11A6812F0400F00F0E0805A68DB
:1038000012F0400F00F0DB80226C42F40052226480
:10381000B3F1A04F45D0494A934242D0484A9268FA
:1038200012F01F0F42D1D968DA6C12F0C00F40F0CD
:10383000C08011F0007F08D0DA6812F4406F40F0C9
:10384000B88011F4005F40F0B4801A6812F0400FA5
:1038500000F0AF80B3F1A04F5DD0384A93425AD008
:10386000374A926812F01F0F5AD1DA6812F4001F1B
:1038700040F09F809A6812F0080F40F092805A68DA
:1038800022F060025A60236C23F480532364236C7B
:1038900013F4807F40F08D80236C43F00103236498
:1038A00087E0284A926812F01F0FBCD0B3F1A04FF6
:1038B00009D0224A934206D0214A926802F01F02A0
:1038C000052A06D1AFE71F4A926802F01F02052AB7
:1038D000A9D0B3F1A04F09D0184A934206D0184A94
:1038E000926802F01F02092A06D19CE7154A9268E5
:1038F00002F01F02092A96D0B3F1A04F93D0124ACA
:10390000934290D00D4A934202D00F4AD1688BE780
:103910004FF0A042FAE70B4A926812F01F0FA4D0B2
:10392000B3F1A04F12D0054A93420FD0044A9268D7
:1039300002F01F02062A0FD197E700BF00010050D6
:10394000000700500003005000040050614A9268D4
:1039500002F01F02062A88D0B3F1A04F09D05E4AB8
:10396000934206D05D4A926802F01F02072A07D1EF
:103970007BE7584A926802F01F02072A3FF475AFAE
:10398000B3F1A04F3FF471AF554A93423FF46DAF8E
:10399000514A934202D0524AD26867E74FF0A042A0
:1039A000FAE7236C43F010032364636C43F00103D4
:1039B00063642046FFF782FE236860221A60236852
:1039C0001A6812F0800F03D05B6813F0800F44D1A7
:1039D00023681A6812F4807F03D05B6813F4807F39
:1039E00046D123681A6812F4007F03D05B6813F491
:1039F000007F49D123681A6812F0100F23D05A684B
:103A000012F0100F1FD0626B012A0ED0B3F1A04F3D
:103A100049D0314A934243D0304A916811F01F0F88
:103A200043D1DB6813F0010F0AD0236C43F48063A9
:103A30002364636C43F0020363642046FFF703FAD8
:103A4000236810221A6023681A6812F4806F03D06A
:103A50005A6812F4806F2DD110BD236C43F480336B
:103A600023642046FFF7EEF9236880221A60AFE74F
:103A7000236C43F4003323642046FFF721FE2368C0
:103A80004FF480721A60ACE7236C43F48023236404
:103A90002046FFF716FE23684FF400721A60A9E76C
:103AA00002F50072B9E70B4AB7E7936813F4404F89
:103AB000C6D0BAE7226C42F480422264626C42F0C3
:103AC000080262644FF480621A602046FFF7F7FD37
:103AD000C2E700BF00030050000100500007005083
:103AE0000004005030B496B00022019290F83C20BF
:103AF000012A00F0C2810346012280F83C200068C0
:103B0000826812F0040F40F0AD814A68042A37D869
:103B1000046B02EB420252004FF01F0C0CFA02FC45
:103B200024EA0C0C0C6804FA02F24CEA020202636A
:103B30001868826812F00C0F6ED10A68092A52D9EF
:103B4000846902EB42021E3A4FF0070C0CFA02FCA9
:103B500024EA0C048D6805FA02F222438261486966
:103B60001C68E268C2F3C102520000FA02F208695E
:103B70000138032800F29980DFE800F04476818C58
:103B8000092A10D8446B02EB420252001E3A4FF051
:103B90001F0C0CFA02FC24EA0C040D6805FA02F270
:103BA00022434263C4E70E2A0ED8846B02EB420222
:103BB00052003C3A1F25954024EA05040D6805FA99
:103BC00002F222438263B3E7C46B02EB420252006B
:103BD0005A3A1F25954024EA05040D6805FA02F2B9
:103BE0002243C263A4E7446902EB42024FF0070C90
:103BF0000CFA02FC24EA0C048D6805FA02F2224356
:103C00004261ACE7206E9E4D0540086842EA806242
:103C1000154345F0004525661868826802F00302E6
:103C2000012A72D0CA68012A75D0D0F8B0200124C8
:103C30000D68AC4022EA0402C0F8B0201A68B2F164
:103C4000A04F00F093808F48824200F08D808E4C10
:103C50000968102900F08C80112900F09D8012293C
:103C600000F09F80002002E1606E854D05400868ED
:103C700042EA8062154345F000456566CCE7A06ED8
:103C80007F4D0540086842EA8062154345F00045D3
:103C9000A566C1E7E56E7A4828400D6842EA85626C
:103CA000024342F00042E266B6E7226E02F0F842BA
:103CB0000868B2EB806F03D1226E22F000422266C8
:103CC0001A68506E00F0F8400C68B0EB846F03D1B6
:103CD000506E20F0004050661A68906E00F0F84078
:103CE0000C68B0EB846F03D1906E20F000409066BA
:103CF0001A68D06E00F0F8400C68B0EB846F8BD17E
:103D0000D06E20F00040D06686E7026812F0010F06
:103D100088D00020ABE0D0F8B0200D680124AC4082
:103D20002243C0F8B0200A68092A0ED91D68A86984
:103D300002EB42021B3A0724944020EA04008C68FC
:103D400004FA02F20243AA6178E71D686869013249
:103D500002EB42020724944020EA04008C6804FA33
:103D600002F202436A6169E7484C71E7474C6FE72A
:103D7000A06810F4000F7FF46FAFB2F1A04F16D01F
:103D8000404882422AD0424882422BD04148824257
:103D90002CD0002002900CE0A06810F0807FECD0C6
:103DA0005DE7A06810F4800FE7D000205FE03548A1
:103DB0000290906800F0030001281BD0029828B1FF
:103DC000856805F0030CBCF1010F1DD0102920D02F
:103DD000112938D012293FD0002048E04FF0A040F0
:103DE0000290E6E700F580700290E2E7A0F58070AF
:103DF0000290DEE7106810F0010FDFD01A6C42F07D
:103E000020021A64012032E0006810F0010FF5D1A1
:103E1000DCE7B2F1A04FDBD1A26842F40002A2605D
:103E20001D4A12681D49A1FB0212920C02EB82028C
:103E30005200019202E0019A013A0192019A002A8D
:103E4000F9D1002013E0B2F1A04FC3D1A26842F033
:103E50008072A26000200AE0A26842F48002A260A0
:103E6000002004E01A6C42F020021A6401200022B3
:103E700083F83C2016B030BC70470220FAE700BF40
:103E800000F0FF83000100500007005000030050C5
:103E900000040050000500500C00002083DE1B438E
:103EA00010B504460E4B18784FF47A73B3FBF0F359
:103EB0000C4A1068B0FBF3F001F04CF968B90F2C14
:103EC00001D901200AE0002221464FF0FF3001F025
:103ED000D7F8054B1C60002000E0012010BD00BF9A
:103EE000040000200C0000200800002008B5074A4C
:103EF000136843F010031360032001F0AFF80F20A4
:103F0000FFF7CEFFFCF7AAFC002008BD002002400E
:103F1000034A1168034B1B780B441360704700BFC2
:103F20007C10002004000020014B1868704700BF7F
:103F30007C10002038B50446FFF7F6FF0546B4F1C3
:103F4000FF3F02D0044B1B781C44FFF7EDFF401BE2
:103F5000A042FAD338BD00BF040000204FF0E02299
:103F6000136923F00203136170474FF0E0221369D5
:103F700043F0020313617047002800F0018370B51D
:103F800082B00446036813F0010F3BD0B54B5B6869
:103F900003F00C03042B1ED0B24B5B6803F00C0340
:103FA000082B13D06368B3F5803F68D0002B40F036
:103FB000928003F1804303F504331A6822F48032BF
:103FC0001A601A6822F480221A605DE0A54B5B68D3
:103FD00013F4803FE6D04FF4003393FAA3F3A14BE0
:103FE00019684FF4003393FAA3F3B3FA83F303F0A1
:103FF0001F03012202FA03F30B4203D06368002B74
:1040000000F0C082236813F0020F00F0C580954BCA
:104010005B6813F00C0F00F09C80924B5B6803F020
:104020000C03082B00F08F802369002B00F0F28036
:10403000012292FAA2F3B3FA83F303F1845303F556
:1040400084139B001A60FFF76FFF0546022393FA63
:10405000A3F3844B1968022393FAA3F3B3FA83F30F
:1040600003F01F03012202FA03F30B4240F0C38066
:10407000FFF75AFF401B0228E8D903208BE2794A58
:10408000136843F480331360764AD36A23F00F0336
:10409000A1680B43D3626368002B36D0FFF744FF5F
:1040A00005464FF4003393FAA3F36E4B19684FF4AF
:1040B000003393FAA3F3B3FA83F303F01F0301224F
:1040C00002FA03F30B429DD1FFF72EFF401B642839
:1040D000E7D903205FE2B3F5A02F09D0614B1A683E
:1040E00022F480321A601A6822F480221A60CBE728
:1040F00003F18043A3F53C331A6842F480221A602E
:104100001A6842F480321A60BEE7FFF70DFF0546D9
:104110004FF4003393FAA3F3524B19684FF4003372
:1041200093FAA3F3B3FA83F303F01F03012202FA15
:1041300003F30B423FF466AFFFF7F6FE401B642823
:10414000E6D9032027E2474B5B6813F4803F7FF4F6
:104150006BAF022393FAA3F3424B1968022393FA3D
:10416000A3F3B3FA83F303F01F03012202FA03F36C
:104170000B4203D02369934240F00682394803681A
:1041800023F0F8036169F82292FAA2F2B2FA82F2FD
:1041900001FA02F213430360236813F0080F00F0E2
:1041A0008D80A369002B61D0012191FAA1F2B2FAAE
:1041B00082F22D4B13449B001960FFF7B5FE0546B4
:1041C000022393FAA3F293FAA3F293FAA3F2254AF5
:1041D000516A93FAA3F3B3FA83F303F01F030122A6
:1041E00002FA03F30B4269D1FFF79EFE401B02283F
:1041F000E6D90320CFE11B48036823F0F803616987
:10420000F82292FAA2F2B2FA82F201FA02F213430F
:104210000360C1E7012393FAA3F3B3FA83F303F135
:10422000845303F584139B0000221A60FFF77CFE81
:104230000546022393FAA3F30A4B1968022393FA63
:10424000A3F3B3FA83F303F01F03012202FA03F38B
:104250000B42A1D0FFF768FE401B0228E9D90320DA
:1042600099E100BF0010024020819010012292FAD3
:10427000A2F2B2FA82F2B74B13449B0000221A60FA
:10428000FFF752FE0546022393FAA3F293FAA3F234
:1042900093FAA3F2B04A516A93FAA3F3B3FA83F301
:1042A00003F01F03012202FA03F30B4206D0FFF7CB
:1042B0003BFE401B0228E6D903206CE1236813F083
:1042C000040F00F0A980A44BDB6913F0805F20D1BC
:1042D000A14BDA6942F08052DA61DB6903F0805366
:1042E0000193019B01259D4B1B6813F4807F12D025
:1042F000E368012B23D073BB03F1804303F5043340
:104300001A6A22F001021A621A6A22F004021A6280
:104310001AE00025E7E7914A136843F480731360BD
:10432000FFF702FE06468D4B1B6813F4807FDFD13A
:10433000FFF7FAFD801B6428F5D903202BE1864A9C
:10434000136A43F001031362E368002B3CD0FFF7CC
:10435000EBFD06462BE0052B09D07F4B1A6A22F0B5
:1043600001021A621A6A22F004021A62ECE77A4B1E
:104370001A6A42F004021A621A6A42F001021A62D0
:10438000E2E7754B196A022393FAA3F3B3FA83F3B6
:1043900003F01F03012202FA03F319423BD1FFF796
:1043A000C3FD801B41F28833984200F2EF80022364
:1043B00093FAA3F293FAA3F3002BE2D1022393FA28
:1043C000A3F3654B596ADEE7FFF7AEFD064615E03D
:1043D000614B196A022393FAA3F3B3FA83F303F050
:1043E0001F03012202FA03F3194214D0FFF79CFDC8
:1043F000801B41F28833984200F2CA80022393FA6C
:10440000A3F293FAA3F3002BE2D1022393FAA3F3CE
:10441000514B596ADEE7B5BBE369002B00F0BA8067
:104420004D4A526802F00C02082A00F09980022BD3
:104430002FD04FF0807393FAA3F3B3FA83F303F111
:10444000845303F584139B0000221A60FFF76CFD70
:1044500004464FF0007393FAA3F33F4B19684FF0F3
:10446000007393FAA3F3B3FA83F303F01F0301225B
:1044700002FA03F319426BD0FFF756FD001B022826
:10448000E7D9032087E0344AD36923F08053D3610E
:10449000C2E74FF0807393FAA3F3B3FA83F303F107
:1044A000845303F584139B0000221A60FFF73CFD40
:1044B00005464FF0007393FAA3F3274B19684FF0AA
:1044C000007393FAA3F3B3FA83F303F01F030122FB
:1044D00002FA03F3194206D0FFF726FD401B02281B
:1044E000E7D9032057E01C494B6823F47413626A30
:1044F000206A024313434B604FF0807393FAA3F397
:10450000B3FA83F303F1845303F584139B00012270
:104510001A60FFF709FD04464FF0007393FAA3F306
:104520000D4B19684FF0007393FAA3F3B3FA83F3BA
:1045300003F01F03012202FA03F3194206D1FFF729
:10454000F3FC001B0228E7D9032024E0002022E02E
:10455000002020E0208190100010024000700040F8
:10456000012B1AD0104B5B6803F48031226A914210
:1045700015D103F47013626A934212D100200AE04D
:1045800001207047012006E0012004E0032002E042
:10459000032000E0002002B070BD0120FBE70120F5
:1045A000F9E70120F7E700BF00100240164B5B68F7
:1045B00003F00C02082A01D01448704703F470116C
:1045C0004FF4701292FAA2F2B2FA82F221FA02F2D7
:1045D0000F49885C0C4AD26A02F00F020F2191FA4F
:1045E000A1F1B1FA81F1CA400A498A5C13F4803F13
:1045F00005D0064BB3FBF2F303FB00F07047064B0C
:1046000003FB00F0704700BF0010024000127A0068
:10461000E48A0008F48A000800093D00002800F040
:10462000BE8070B50D460446614B1B6803F007035E
:104630008B420BD25E4A136823F007030B431360CF
:10464000136803F007038B4240F0AB80236813F03C
:10465000020F06D0574A536823F0F003A1680B43BA
:104660005360236813F0010F5AD06368012B2DD0DB
:10467000022B40D0022292FAA2F24E4A1068022285
:1046800092FAA2F2B2FA82F202F01F02012101FABA
:1046900002F2104200F0878046494A6822F0030285
:1046A00013434B60FFF740FC0646424B5B6803F048
:1046B0000C036268B3EB820F32D0FFF735FC801B2E
:1046C00041F288339842F0D9032067E04FF400327A
:1046D00092FAA2F2374A10684FF4003292FAA2F22C
:1046E000B2FA82F202F01F02012101FA02F2024242
:1046F000D2D1012052E04FF0007292FAA2F22D4A7C
:1047000010684FF0007292FAA2F2B2FA82F202F04E
:104710001F02012101FA02F21042BDD101203DE049
:10472000234B1B6803F00703AB420AD9204A1368E6
:1047300023F007032B431360136803F00703AB4216
:1047400033D1236813F0040F06D01A4A536823F4B8
:10475000E063E1680B435360236813F0080F07D050
:10476000144A536823F46053216943EAC103536038
:10477000FFF71CFF0F4B5B6803F0F003F02292FA87
:10478000A2F2B2FA82F2D3400B4AD35CD8400B4B70
:1047900018600B4B1868FFF783FB002070BD0120E9
:1047A00070470120FAE70120F8E70120F6E700BF93
:1047B0000020024000100240048B00080C00002082
:1047C00008000020014B1868704700BF0C00002053
:1047D00008B5FFF7F7FF074B5B6803F4E0634FF49E
:1047E000E06292FAA2F2B2FA82F2D340024AD35CB9
:1047F000D84008BD00100240148B000808B5FFF730
:10480000E1FF074B5B6803F460534FF4605292FA88
:10481000A2F2B2FA82F2D340024AD35CD84008BD79
:1048200000100240148B0008F0B583B00446036802
:1048300013F4803F48D0914BDB6913F0805F40F068
:10484000D4808E4BDA6942F08052DA61DB6903F082
:1048500080530193019B0125894B1B6813F4807FD2
:1048600000F0C580854B1B6A13F4407322D0626848
:1048700002F440729A421DD08048016A21F44076C9
:104880004FF4803393FAA3F2B2FA82F27D4F3A44A6
:1048900092004FF0010CC2F800C093FAA3F3B3FAF0
:1048A00083F33B449B0000221A60066211F0010F63
:1048B00040F0B280714A136A23F4407361680B437D
:1048C0001362002D40F0CF80236813F0010F06D053
:1048D0006A4A136B23F00303A1680B431363236835
:1048E00013F0020F06D0654A136B23F44033E168DE
:1048F0000B431363236813F0040F06D05F4A136B56
:1049000023F4402321690B431363236813F0200F22
:1049100006D05A4A136B23F01003E1690B4313636B
:10492000236813F4003F06D0544A536823F48003ED
:10493000A16B0B435360236813F0400F06D04F4A1E
:10494000136B23F02003216A0B431363236813F0D6
:10495000080F06D0494A136B23F4401361690B43D7
:104960001363236813F0100F06D0444A136B23F42B
:104970004003A1690B431363236813F4007F06D03F
:104980003E4A536823F40003E16A0B4353602368F3
:1049900013F0800F06D0394AD36A23F4F873616AA2
:1049A0000B43D362236813F4807F06D0334AD36A63
:1049B00023F47853A16A0B43D362236813F4805F16
:1049C00006D02E4A136B23F48073216B0B431363C1
:1049D000236813F4005F4DD0284A136B23F400734F
:1049E000616B0B431363002045E0002534E7244A44
:1049F000136843F480731360FFF796FA0646204B62
:104A00001B6813F4807F7FF42DAFFFF78DFA801BB6
:104A10006428F4D903202EE0FFF786FA064615E055
:104A2000164B196A022393FAA3F3B3FA83F303F044
:104A30001F03012202FA03F30B427FF43BAFFFF79F
:104A400073FA801B41F28833984211D8022393FAFB
:104A5000A3F293FAA3F3002BE2D1022393FAA3F378
:104A6000064B596ADEE7D36923F08053D3612BE705
:104A7000032000E0002003B0F0BD00BF00100240A2
:104A80000070004000819010F0B583B0002362E018
:104A900085685E000324B44025EA0405CC68B44070
:104AA0002C438460446824EA0C0C4C68C4F3001462
:104AB0009C4044EA0C0444605EE0DD08083550F890
:104AC000256003F007044FEA840C0F2404FA0CF469
:104AD00026EA040E0C6904FA0CF444EA0E0440F8C9
:104AE000254060E0042400E0002404FA0EF42C4386
:104AF0000CF1020C524D45F82C40524C2568D44321
:104B000025EA02064F6817F4803F01D042EA050605
:104B10004C4D2E606D6804EA05064F6817F4003F9F
:104B200001D042EA0506474D6E60AD6804EA05060D
:104B30004F6817F4801F01D042EA0506414DAE6070
:104B4000ED682C404E6816F4001F01D042EA0504BF
:104B50003C4AD46001330A6832FA03F46ED04FF055
:104B6000010C0CFA03FC1CEA0202F3D04C6804F0BE
:104B70000304013C012C8BD94C6804F00304032C82
:104B80000CD0C4685D004FF0030C0CFA05FC24EA5D
:104B90000C0C8C68AC4044EA0C04C4604C6804F013
:104BA0000304022C89D004684FEA430E4FF0030C33
:104BB0000CFA0EFC24EA0C0C4C6804F0030404FA12
:104BC0000EF444EA0C0404604C6814F4403FC1D075
:104BD0001D4CA56945F00105A561A46904F0010417
:104BE0000194019C4FEA930C0CF10205144C54F80B
:104BF000255003F003044FEA840E0F2404FA0EF448
:104C000025EA0405B0F1904F3FF46EAF0F4CA0427F
:104C10000ED004F58064A0420CD004F58064A0425C
:104C20000AD004F58064A0423FF45CAF05245CE741
:104C300001245AE7022458E7032456E703B0F0BDE5
:104C40000000014000040140001002400004004840
:104C5000002331FA03F27AD0F0B52EE0042500E00B
:104C6000002505FA0CFCA44555D004685D004FF002
:104C7000030C0CFA05FC24EA0C0404604FEAD30E82
:104C80000EF1080E50F82E4003F00705AE000F2578
:104C9000B54024EA050440F82E40C46824EA0C0418
:104CA000C460446824EA02024260826822EA0C027C
:104CB0008260013331FA03F248D001229A4012EAAD
:104CC0000107F6D04FEA930E0EF10205204C54F87E
:104CD000254003F0030C4FEA8C0C0F2505FA0CF667
:104CE0003440B0F1904FBBD01A4DA8420DD005F51D
:104CF0008065A8420BD005F58065A84209D005F56E
:104D00008065A842AAD00525ABE70125A9E70225C1
:104D1000A7E70325A5E7104C256825EA07052560C8
:104D2000656825EA07056560A56825EA0705A560A9
:104D3000E56825EA0707E760054F0EF1020457F81A
:104D4000245025EA060547F824508EE7F0BD704749
:104D500000000140000400480004014003691942BA
:104D600001D001207047002070470AB1816170476F
:104D7000816270477047000008B5054B5B690342CC
:104D800000D108BD024B5861FFF7F4FFF9E700BFFF
:104D90000004014030B40124056CAC40C56B6C606C
:104DA000046863604368102B05D00368996003684A
:104DB000DA6030BC704703689A600368D960F8E72E
:104DC00002680C4B9A420AD80B4B13440B4AA2FBC5
:104DD00003231B099B000364094BC3637047094B02
:104DE0001344064AA2FB03231B099B000364064BE2
:104DF000C363704707040240F8FFFDBFCDCCCCCCA5
:104E000000000240F8FBFDBF0004024020B310B5D3
:104E10000446022380F8213001680A6822F47F5298
:104E200022F03002436880680343E068034320694E
:104E3000034360690343A0690343E06903431343E9
:104E40000B602046FFF7BCFF0020A063012384F81D
:104E5000213084F8200010BD0120704708B338B518
:104E600004460268136823F00103136003680025F9
:104E70001D6003685D6003689D600368DD60FFF787
:104E80009FFF216CE26B01238B405360A562E562BA
:104E900025636563A56384F8215084F82050284673
:104EA00038BD0120704738B5044690F8200001282D
:104EB00031D0012084F8200094F82100012804D08A
:104EC000002384F82030022038BD022084F821001D
:104ED0000020A0632568286820F001002860204693
:104EE000FFF758FFE36A5BB12268136843F00E03D3
:104EF00013602268136843F0010313600020E3E7A6
:104F00002268136843F00A0313602268136823F0D1
:104F100004031360EDE70220D6E790F82130022B5E
:104F200006D004238363002380F8203001207047DB
:104F30000268136823F00E0313600268136823F0FD
:104F400001031360036CC16B012202FA03F34B608F
:104F500080F82120002380F820301846704708B5DB
:104F600090F82130022B03D004238363012008BD75
:104F70000268136823F00E0313600268136823F0BD
:104F800001031360036CC16B012202FA03F34B604F
:104F900080F82120002380F82030436B13B198471C
:104FA0000020E4E70020E2E738B5C36B1A68046824
:104FB0002568016C04238B40134213D015F0040FB5
:104FC00010D0236813F0200F03D1236823F00403CB
:104FD0002360016CC26B04238B405360C36A03B12E
:104FE000984738BD02238B4013421AD015F0020FA8
:104FF00017D0236813F0200F06D1236823F00A038B
:105000002360012380F82130016CC26B02238B40A6
:105010005360002380F82030836A002BE1D098474A
:10502000DFE7082303FA01F11142DAD015F0080F87
:10503000D7D0236823F00E032360026CC16B0123D9
:1050400003FA02F24A60836380F82130002380F87B
:105050002030036B002BC4D09847C2E7074AD368BF
:1050600023F4E0631B041B0C000200F4E060034324
:1050700043F0BF6343F40033D360704700ED00E0BA
:1050800000B5194BDB68C3F30223C3F1070CBCF175
:10509000040F28BF4FF0040C03F1040EBEF1060FFD
:1050A00018D9033B4FF0FF3E0EFA0CFC21EA0C012D
:1050B00099400EFA03F322EA0303194300280BDB9D
:1050C0000901C9B200F1604000F5614080F80013A9
:1050D0005DF804FB0023E5E700F00F000901C9B209
:1050E000024B1954F4E700BF00ED00E014ED00E0BE
:1050F000002807DB00F01F02400901239340024A09
:1051000042F82030704700BF00E100E000280CDBCF
:1051100000F01F024009012393402030034A42F867
:105120002030BFF34F8FBFF36F8F704700E100E077
:10513000BFF34F8F0549CA6802F4E062044B134382
:10514000CB60BFF34F8F00BFFDE700BF00ED00E075
:105150000400FA050138B0F1807F0BD24FF0E02354
:105160005861054AF02182F8231000209861072237
:105170001A6170470120704700ED00E0064A13698C
:1051800023F004031361012903D040BF20BF20BFD7
:10519000704730BF704700BF00ED00E0044B0022B5
:1051A000DA61044A136943F0010313610180704717
:1051B00080100020002002400C4BDB6813F010032D
:1051C00005D00B4AD36943F00203D3611023074A89
:1051D000D26812F0040F06D00549CA6942F00102F4
:1051E000CA6143F00403014AD360704700200240C3
:1051F000801000200A4B1B6913F0800F0BD0084B66
:10520000084A5A6002F188325A601B6913F0800F15
:1052100003D100207047002070470120704700BF75
:105220000020024023016745034A136943F08003CD
:1052300013610020704700BF0020024038B50446CB
:10524000FEF772FE0546144BDB6813F0010F0AD01F
:10525000B4F1FF3FF7D024B1FEF766FE401BA04239
:10526000F1D9032012E00C4BDB6813F0200F02D0C1
:10527000094B2022DA60084BDB6813F0100F06D1CF
:10528000054BDB6813F0040F01D1002038BDFFF798
:1052900093FF0120FAE700BF002002402DE9F84308
:1052A0001E46244B1B7E012B41D004460F469046E0
:1052B000204B01221A764CF25030FFF7BFFF034615
:1052C00078BB012C08D0022C03D04FF004091C46F7
:1052D00007E04FF00209FAE74FF00109F7E7013460
:1052E000E4B24C451DD22101C1F12002A1F12003FD
:1052F00028FA01F106FA02F2114326FA03F31943E0
:1053000089B207EB4400FFF749FF4CF25030FFF73A
:1053100095FF094B1D6925F001051D610346002815
:10532000DDD0044A002111761846BDE8F883022337
:10533000FAE700BF8010002000200240064B002248
:10534000DA61064B1A6942F004021A611A6942F0E6
:1053500040021A61704700BF801000200020024008
:10536000064B0022DA61064B1A6942F002021A610A
:1053700058611A6942F040021A617047801000209B
:1053800000200240264B1B7E012B45D070B5054600
:105390000E46234B01221A760368934220D04CF22A
:1053A0005030FFF74BFF88BB4FF0FF3333606C6822
:1053B0000121AA686B6803EBC223A34227D92046C8
:1053C000FFF7CEFF4CF25030FFF738FF154A136954
:1053D00023F0020313610146B0B904F50064E8E765
:1053E0004CF25030FFF72AFF08B101210FE0FFF720
:1053F000A5FF4CF25030FFF721FF0146094A13691F
:1054000023F00403136102E0346000E00121044B47
:1054100000221A76084670BD02210846704700BF78
:10542000801000200020024000286FD010B50446F4
:10543000436A33B94368B3F5827F05D00023C36163
:1054400002E00023036143610023A36294F85D300E
:10545000002B52D0022384F85D302268136823F0B9
:1054600040031360E368B3F5E06F4CD90022B3F555
:10547000706F04D0B3F5E06F01D00023A3626368BE
:1054800003F48273A16801F404410B43216901F024
:1054900002010B43616901F001010B43A16901F4B1
:1054A00000710B43E16901F038010B43216A01F0FF
:1054B00080010B43A16A01F4005120680B43036093
:1054C000638B03F00403616A01F010010B43616B0D
:1054D00001F008010B43E16801F470610B4321689E
:1054E00013434B602268D36923F40063D361002027
:1054F0002066012384F85D3010BD84F85C302046BE
:10550000FBF754FAA6E74FF48052B0E7012070474A
:1055100030B4036A23F001030362036A45688269B9
:1055200022F4803222F073020C68224323F002033B
:105530008C6823431D4CA0420FD004F50064A042A8
:105540000BD004F54064A04207D004F58064A0426B
:1055500003D004F58064A04205D123F00803CC6891
:10556000234323F00403114CA0420FD004F5006440
:10557000A0420BD004F54064A04207D004F580643B
:10558000A04203D004F58064A04207D125F4407CFA
:105590004C6944EA0C0C8D6945EA0C054560826152
:1055A0004A684263036230BC704700BF002C014070
:1055B00030B4036A23F480730362036A4468C269E7
:1055C00022F4803222F073020D682A4323F4007320
:1055D0008D6843EA0523184DA84203D005F5006500
:1055E000A84206D123F40063CD6843EA052323F4DF
:1055F0008063114DA8420FD005F50065A8420BD07D
:1056000005F54065A84207D005F58065A84203D09E
:1056100005F58065A84207D124F4405C4C694CEA4A
:10562000041C8C694CEA04144460C2614A68C26379
:10563000036230BC704700BF002C014030B4036AE5
:1056400023F480530362036A4468C26922F08072C3
:1056500022F4E6420D6842EA052223F400538D68E5
:1056600043EA05330F4DA8420FD005F50065A84267
:105670000BD005F54065A84207D005F58065A84226
:1056800003D005F58065A84204D124F480444D6917
:1056900044EA85144460C2614A680264036230BC13
:1056A000704700BF002C014030B4036A23F48033FC
:1056B0000362036A4468426D22F4803222F0700271
:1056C0000D682A4323F400338D6843EA05430F4DE8
:1056D000A8420FD005F50065A8420BD005F540653E
:1056E000A84207D005F58065A84203D005F580657E
:1056F000A84204D124F480344D6944EA052444606E
:1057000042654A688265036230BC7047002C0140E4
:1057100030B4036A23F480130362036A4468426D61
:1057200022F0807222F4E0420D6842EA052223F45E
:1057300000138D6843EA05530F4DA8420FD005F5BD
:105740000065A8420BD005F54065A84207D005F5D5
:105750008065A84203D005F58065A84204D124F4F1
:1057600080244D6944EA8524446042654A68C265E4
:10577000036230BC704700BF002C014090F83D3000
:10578000DBB2012B32D1022380F83D300268D368AE
:1057900043F00103D3600368174A934218D0B3F172
:1057A000804F15D0A2F59432934211D002F5806259
:1057B00093420DD002F59632934209D002F5406231
:1057C000934205D01A6842F001021A600020704727
:1057D00099680A4A0A40062A0AD0B2F5803F09D0E1
:1057E0001A6842F001021A600020704701207047D9
:1057F0000020704700207047002C01400700010086
:105800000268D36823F00103D3600368196A41F288
:105810001112114208D1196A40F24442114203D1D7
:105820001A6822F001021A60012380F83D3000203E
:105830007047704770477047704710B5044603685B
:105840001A6912F0020F11D0DA6812F0020F0DD0AF
:105850006FF002021A610123037703689B6913F05A
:10586000030F79D0FFF7E6FF0023237723681A6937
:1058700012F0040F12D0DA6812F0040F0ED06FF09D
:1058800004021A610223237723689B6913F4407F83
:1058900068D02046FFF7CEFF0023237723681A69DC
:1058A00012F0080F12D0DA6812F0080F0ED06FF065
:1058B00008021A61042323772368DB6913F0030FBE
:1058C00057D02046FFF7B6FF0023237723681A69D5
:1058D00012F0100F12D0DA6812F0100F0ED06FF025
:1058E00010021A61082323772368DB6913F4407FD1
:1058F00046D02046FFF79EFF0023237723681A69CE
:1059000012F0010F03D0DA6812F0010F3FD12368C3
:105910001A6912F0800F03D0DA6812F0800F3DD1BF
:1059200023681A6912F4807F03D0DA6812F0800FBE
:105930003BD123681A6912F0400F03D0DA6812F0E5
:10594000400F39D123681A6912F0200F03D0DA68AA
:1059500012F0200F37D110BDFFF76BFF2046FFF785
:105960006AFF81E72046FFF764FF2046FFF763FFE9
:1059700092E72046FFF75DFF2046FFF75CFFA3E7B5
:105980002046FFF756FF2046FFF755FFB4E76FF0BC
:1059900001021A612046FDF71FF8B8E76FF0800298
:1059A0001A61204600F0B9FABAE76FF480721A6102
:1059B000204600F0B3FABCE76FF040021A612046BF
:1059C000FFF73AFFBEE76FF020021A61204600F0B1
:1059D000A3FAC0E703682C4A90420ED0B0F1804F82
:1059E0000BD0A2F59432904207D002F5806290422B
:1059F00003D002F59632904203D123F070034A6837
:105A00001343214A90421AD0B0F1804F17D0A2F52B
:105A10009432904213D002F5806290420FD002F58A
:105A2000963290420BD002F54062904207D002F5C8
:105A30008062904203D002F58062904203D123F449
:105A40004073CA68134323F080034A691343036019
:105A50008B68C3620B6883620B4B98420FD003F5CF
:105A6000006398420BD003F54063984207D003F5DA
:105A70008063984203D003F58063984201D10B699B
:105A80000363012343617047002C014060B310B5EC
:105A9000044690F83D3013B3022384F83D3021468C
:105AA00051F8040BFFF796FF012384F8483084F87F
:105AB0003E3084F83F3084F8403084F8413084F838
:105AC000423084F8433084F8443084F8453084F818
:105AD000463084F8473084F83D30002010BD80F80F
