:020000040800F2
:1000000000A000206162000881070008890700083D
:100010009107000899070008A107000800000000E8
:10002000000000000000000000000000A907000818
:10003000B107000800000000B9070008C107000868
:10004000AB620008B1620008B7620008BD62000838
:10005000C3620008C9620008CF620008D5620008C8
:10006000DB620008E1620008E7620008ED62000858
:10007000F3620008F9620008FF62000805630008E7
:10008000C90700080B630008D907000811630008BE
:10009000176300081D630008236300082963000834
:1000A0002F630008E9070008F90700083563000816
:1000B0003B63000841630008476300084D63000884
:1000C00053630008596300085F6300086563000814
:1000D0006B6300080908000871630008190800082C
:1000E000776300087D630008FB63000883630008F2
:1000F000896300088F630008956300089B6300080C
:10010000000000000000000000000000A1630008E3
:10011000A7630008AD630008B3630008B963000873
:1001200029080008BF630008C5630008CB63000806
:10013000D1630008D7630008000000000000000041
:10014000DD630008E3630008E963000800000000C5
:10015000000000000000000000000000000000009F
:100160000000000000000000EF630008F5630008D5
:10017000FB63000800000000000000000000000019
:0801800000000000016400080A
:1001900010B5054C237833B9044B13B10448AFF3C1
:1001A00000800123237010BD8000002000000000AB
:1001B000586D000808B5034B1BB103490348AFF362
:1001C000008008BD0000000084000020586D000879
:1001D000034613F8012B002AFBD1181A0138704787
:1001E00001F0FF01102A2BDB10F0070F08D010F8E8
:1001F000013B013A8B422DD010F0070F42B3F6D1EC
:10020000F0B441EA012141EA014122F007047FF004
:1002100000070023F0E80256083C85EA010586EA5B
:10022000010685FA47F5A3FA87F586FA47F6A5FA97
:1002300087F68EB9EED1F0BC01F0FF0102F00702A3
:1002400032B110F8013B013A83EA010313B1F8D14E
:100250000020704701387047002D06BF354603382F
:10026000073815F0010F07D1013015F4807F02BF68
:10027000013015F4C03F0130F0BC0138704700BFB9
:1002800070B58AB0002405940694079408940994E4
:10029000314B5A6942F400225A615A6902F4002231
:1002A0000192019A5A6942F480025A615A6902F431
:1002B00080020292029A5A6942F400325A615A69E3
:1002C00002F400320392039A5A6942F480225A617E
:1002D0005B6903F480230493049B224692214FF030
:1002E000904003F02AFF1D4D224641F202012846AC
:1002F00003F023FF01226021284603F01EFF922312
:100300000593012606960794089405A94FF090409E
:1003100003F028FE202305934FF4881306930794D7
:1003200005A94FF0904003F01DFE41F20203059332
:1003300006960794089405A9284603F013FE602347
:100340000593112306930794089405A9284603F002
:1003500009FE0AB070BD00BF001002400004004852
:1003600000B583B0124B5A6942F002025A615A69D1
:1003700002F002020092009A5A6942F001025A61A8
:100380005B6903F001030193019B00220721102008
:1003900004F02AF8102004F05FF8002211463820FB
:1003A00004F022F8382004F057F803B05DF804FB9D
:1003B0000010024072B6FEE700B587B0002300933C
:1003C000019302930393049305931648164A02601F
:1003D0004360836003610122427680F82030C3626B
:1003E0008262C360C26180F83030042242610376C9
:1003F000436302F0D5F988B90323009301230193E5
:10040000002303930422029204930593694605484E
:1004100002F0E4FD20B907B05DF804FBFFF7CAFF66
:10042000FFF7C8FF9C0000200001005008B50F48EE
:100430000F4B03604FF482734360002383604FF4DB
:10044000E062C260036143614FF400728261C36184
:100450000362436283620722C26203630823436329
:1004600004F0FEF800B908BDFFF7A4FF94010020D6
:100470000038004008B50B480B4B03604FF4E133E4
:10048000436000238360C36003610C224261836187
:10049000C3610362436205F0CEFB00B908BDFFF7FC
:1004A00089FF00BFDC0200200038014008B50B487E
:1004B0000B4B03604FF4E133436000238360C36060
:1004C00003610C2242618361C3610362436205F0F0
:1004D000B2FB00B908BDFFF76DFF00BF600300204D
:1004E0000044004008B50B480B4B03604FF4E13368
:1004F000436000238360C36003610C224261836117
:10050000C3610362436205F096FB00B908BDFFF7C3
:1005100051FF00BFE40300200048004000B58BB04D
:100520000023079308930993009301930293039385
:100530000493059306931748174A026047224260C6
:1005400083604FF49672C2600361836104F0D2FB52
:10055000C8B900230793099307A90E4804F098FD32
:1005600098B9602300930023019302930493082217
:100570006946084804F034FC48B9064800F064FABB
:100580000BB05DF804FBFFF715FFFFF713FFFFF754
:1005900011FF00BF900200200004004000B587B0AA
:1005A00000230193029303930493059300931C4843
:1005B0001C4A026043607F228260FF22C2600361A6
:1005C0004361836105F09AFC20BB04238DF804305D
:1005D0000F238DF8053037238DF806300023049360
:1005E0000593012201A90E4805F0F5FCA0B90122EE
:1005F0008DF800208DF8012003238DF80230E623CA
:100600008DF803306946064805F064FD30B907B03F
:100610005DF804FBFFF7CEFEFFF7CCFEFFF7CAFE46
:10062000740100200028004008B50948094B036008
:1006300047234360002383606422C26003614361F7
:10064000836104F027FB00B908BDFFF7B3FE00BFCC
:10065000F80100200044014008B50948094B036037
:10066000472343600023836042F21072C26003613B
:100670004361836104F00EFB00B908BDFFF79AFEE9
:10068000440200200048014000B59FB0282200210C
:1006900014A805F0EBFE00210F9110911191129119
:1006A00013913C22684605F0E1FE012214924FF4BA
:1006B00080331593189202221B921C934FF4E0137F
:1006C0001D9314A802F0C6FE20BB0F230F93022136
:1006D0001091002311934FF48062129213930FA88C
:1006E00003F00AFAC0B90E4B0093012302934FF4B2
:1006F000803303934FF4802304934FF48073099362
:100700004FF440730193684603F0FCFA30B91FB010
:100710005DF804FBFFF74EFEFFF74CFEFFF74AFEC5
:100720008700010008B502F05DFEFFF7ADFFFFF79F
:10073000A7FDFFF715FEFFF73FFEFFF777FEFFF778
:1007400099FEFFF7B3FEFFF7CDFEFFF7E7FEFFF7D9
:1007500025FFFFF769FFFFF77FFF074804F02AF93D
:10076000064804F027F901F0E5FD4FF4FA6002F0C5
:100770005DFE01F0F3FDFCE7F801002044020020DB
:1007800008B503F077FEFCE708B503F073FEFCE75D
:1007900008B503F06FFEFCE708B503F06BFEFCE75D
:1007A00008B503F067FEFCE708B503F063FE08BD7B
:1007B00008B503F05FFE08BD08B503F05BFE08BD99
:1007C00008B502F021FE08BD08B5024803F09FFD00
:1007D00008BD00BF3001002008B5024802F0EEF964
:1007E00008BD00BF9C00002008B5024804F028F9AD
:1007F00008BD00BFF801002008B5024804F020F948
:1008000008BD00BF4402002008B5024804F008FDFE
:1008100008BD00BFDC02002008B5024804F000FD5E
:1008200008BD00BFE403002008B5024803F06FFDD7
:1008300008BD00BFEC00002082B00A4B9A6942F06C
:1008400001029A619A6902F001020092009ADA6943
:1008500042F08052DA61DB6903F080530193019B1F
:1008600002B070470010024010B588B00023039317
:1008700004930593069307930268224B9A4201D092
:1008800008B010BD0446204B5A6942F080525A61AC
:100890005A6902F080520192019A5A6942F4003278
:1008A0005A615B6903F400330293029B4023039374
:1008B0000323049303A94FF0904003F053FB134824
:1008C000134B03600023436083608022C2604FF4B7
:1008D000807202614FF48062426120228261C361B2
:1008E00003F06CFC58B9094BA3635C62002202213F
:1008F000122003F079FD122003F0AEFDC0E7FFF7F0
:1009000059FDF0E70001005000100240EC0000200B
:10091000080402400268084B9A4200D070474FF426
:10092000004292FAA2F2B2FA82F2044B13449B0004
:1009300001221A60F2E700BF0028004000819010F9
:1009400000B589B00023039304930593069307939E
:100950000268144B9A4202D009B05DF804FB03F51B
:10096000EC33DA6942F48042DA61DA6902F48042F7
:100970000192019A5A6942F480225A615B6903F438
:1009800080230293029B4FF460430393022304935A
:10099000032306930523079303A9034803F0E2FA10
:1009A000DAE700BF00380040000400480268094B45
:1009B0009A4200D0704782B003F50333DA6942F0FF
:1009C0000202DA61DB6903F002030193019B02B0CA
:1009D000704700BF0004004000B583B00368174AA9
:1009E000934205D0164A934215D003B05DF804FB3C
:1009F000144B9A6942F400329A619B6903F4003304
:100A00000093009B00220D21192003F0EDFC19201A
:100A100003F022FDE9E70B4B9A6942F480229A61C8
:100A20009B6903F480230193019B00220E211A206D
:100A300003F0DAFC1A2003F00FFDD6E70044014072
:100A4000004801400010024000B587B00023019328
:100A5000029303930493059302680D4B9A4202D0CC
:100A600007B05DF804FB03F503335A6942F48022B2
:100A70005A615B6903F480230093009B0123019377
:100A800002230293059301A9024803F06BFAE7E7FA
:100A9000000400400004004810B58CB00023079308
:100AA000089309930A930B9303684C4A934208D026
:100AB00004464B4A934230D04A4A934264D00CB029
:100AC00010BD494B9A6942F480429A619A6902F4D6
:100AD00080420192019A5A6942F400325A615B697C
:100AE00003F400330293029B4FF4C0630793022385
:100AF00008930123099303240A9407230B9307A95E
:100B00004FF0904003F02EFA00222146252003F0FA
:100B10006BFC252003F0A0FCD1E7334BDA6942F4EB
:100B20000032DA61DA6902F400320392039A5A69F8
:100B300042F400325A615B6903F400330493049B6E
:100B40000C2307930223089303230A9307230B9391
:100B500007A94FF0904003F005FA2448244B0360A6
:100B60000023436083608022C260036143612022CE
:100B70008261C36103F022FB18B91C4B23675C62DE
:100B80009DE7FFF717FCF8E7174BDA6942F480227C
:100B9000DA61DA6902F480220592059A5A6942F410
:100BA00080225A615B6903F480230693069B4FF40D
:100BB000406307930223089303230A9307230B93AD
:100BC00007A90C4803F0CEF900220421272003F0E6
:100BD0000BFC272003F040FC71E700BF0038014008
:100BE0000044004000480040001002403001002056
:100BF0006C0002400004004810B5074C23684FF415
:100C0000B972DA62E2603222DA6302F00FFC236822
:100C10000022DA6310BD00BF9002002010B5094C1D
:100C20000821204604F088F923680022DA63204670
:100C300003F0C0FE18B96420FFF7DEFF10BDFFF718
:100C4000B9FBF8E79002002010B50446FFF7C0FAA0
:100C5000642382B22146024804F049FF10BD00BF60
:100C6000E403002008B501220549064805F068F8AC
:100C700018B90548FFF7E8FF08BDFFF79BFBF8E749
:100C80006C080020E4030020786D000838B50A4B9A
:100C90001A8802B938BD094D64232946084804F072
:100CA00026FF054C642322882946064804F01FFFCE
:100CB00000232380EEE700BF680400206C040020BE
:100CC000E4030020DC020020BFF34F8F0549CA680F
:100CD00002F4E062044B1343CB60BFF34F8F00BFBD
:100CE000FDE700BF00ED00E00400FA0508B50122B1
:100CF0000449054801F09CFE00B908BDFFF75AFB06
:100D0000FBE700BF700800209C00002008B54FF0F2
:100D1000004393FAA3F293FAA3F293FAA3F25B4A85
:100D2000516A93FAA3F3B3FA83F303F01F0301228A
:100D300002FA03F30B420DD0554B1A70544B1B783B
:100D4000052B00F09D80062B00F09C80072B00F007
:100D50009B8008BD4FF0804393FAA3F293FAA3F26D
:100D600093FAA3F2494A516A93FAA3F3B3FA83F3CD
:100D700003F01F03012202FA03F30B4203D0444B9A
:100D800002221A70DAE74FF0005393FAA3F293FAB3
:100D9000A3F293FAA3F23D4A516A93FAA3F3B3FA8A
:100DA00083F303F01F03012202FA03F3194203D075
:100DB000374B03221A70C1E74FF0805393FAA3F226
:100DC00093FAA3F293FAA3F2304A516A93FAA3F387
:100DD000B3FA83F303F01F03012202FA03F30B4279
:100DE00003D02B4B04221A70A8E74FF0006393FA4C
:100DF000A3F293FAA3F293FAA3F2244A516A93FA64
:100E0000A3F3B3FA83F303F01F03012202FA03F3FF
:100E10000B4203D01E4B05221A708FE74FF0806300
:100E200093FAA3F293FAA3F293FAA3F2174A516A40
:100E300093FAA3F3B3FA83F303F01F03012202FA38
:100E400003F30B4203D0124B06221A7076E70223FB
:100E500093FAA3F293FAA3F293FAA3F20B4A516A1C
:100E600093FAA3F3B3FA83F303F01F03012202FA08
:100E700003F30B423FF462AF054B07221A705DE7A4
:100E8000FFF722FFFFF720FFFFF71EFF00100240D1
:100E90007808002008B501221149124801F0C8FD68
:100EA000D8B90F4BD3ED007AF8EE677A9FED0E7A42
:100EB00067EE877A9FED0D7A67EE877A9FED0C7A61
:100EC00067EE877ADFED0B6A87EEA67ABCEEC77A0B
:100ED000094B17EE102A1A8008BDFFF76BFAE0E7FE
:100EE000700800209C00002000404E450000803922
:100EF0000000FA4600401C467408002008B5202176
:100F00004FF0904003F012F901280CD000230F4A53
:100F100013700F4A13700D4B1B78142B07D00D4B19
:100F200000221A7008BD094B01221A70F3E7094A22
:100F300013780133DBB21370132BF3D9134600225D
:100F40001A70034B01221A70ECE700BF76080020EC
:100F5000770800207908002000B587B000230193AE
:100F60000293039304930593A8B9012280214FF0C3
:100F7000904003F0E2F880230193112302930023B1
:100F800003930323049301A94FF0904002F0EAFF7A
:100F900007B05DF804FB8023019301A94FF0904056
:100FA00002F0E0FFF4E7000008B501220221024848
:100FB00003F0C3F808BD00BF000400482DE9F0436A
:100FC00089B00023049305938146002838D14FF45B
:100FD000FA648D4B1B78012B35D08B4B1B7813B9E2
:100FE000894B01221A7002F01BFA884B186000200E
:100FF000FFF7B2FF002280214FF0904003F09DF8F0
:101000000A2002F013FA012280214FF0904003F0F1
:1010100094F80120FFF7A0FF002480214FF09040BA
:1010200003F084F8012821D1013442F210739C426C
:10103000F3D904AB93E8030008AB03E903009BE09A
:101040004FF47A74C5E702F0EBF9704B1B68C31AD2
:10105000A342C2D26E4B5A6805921B68049304AB3C
:1010600093E8030008AB03E9030085E00024802136
:101070004FF0904003F05AF801280BD0013442F2AF
:1010800010739C42F3D904AB93E8030008AB03E967
:10109000030071E0002480214FF0904003F046F8F7
:1010A00001280BD1013442F210739C42F3D904ABF6
:1010B00093E8030008AB03E903005DE0554B93E8B8
:1010C000030002908DF80C104FF0000832E0AE42A1
:1010D0000BD9012303FA07F208F120030DEB0301FA
:1010E00011F8183C134301F8183C013FFFB2FF2FE1
:1010F0001CD000252C4680214FF0904003F016F8BC
:10110000012804D001350134434B9C42F3D9002619
:10111000344680214FF0904003F008F80128D6D1E2
:10112000013601343C4B9C42F3D9D0E708F1010869
:101130005FFA88F8B8F1040F01D80727D7E79DF8C0
:1011400008409DF80920A0189DF80A1051FA80F077
:101150009DF80B3053FA80F0C0B29DF80C50A842B5
:1011600011D02B4B049A1A60059A5A6004AB93E88D
:10117000030008AB03E903009DED060ADDED070A55
:1011800009B0BDE8F083B9F1010F11D0B9F1000F3A
:10119000E7D107EE904AF8EE677ACDED047A9DF834
:1011A0000A3007EE903AF8EE677ACDED057AD8E787
:1011B00042EA042207EE902AF8EEE77A9FED177ACA
:1011C00067EE877ACDED047A11F0800F0AD143EAF9
:1011D000012307EE903AF8EEE77A67EE877ACDEDD5
:1011E000057AD3E701F07F018DF80A1043EA012365
:1011F00007EE903AF8EEE77A9FED097A67EE877A84
:10120000CDED057AC2E700BF7A0800207C080020F7
:1012100080080020706D0008905F0100CDCCCC3DAF
:10122000CDCCCCBD00231A4605E00849C95C0A4470
:1012300092B20133DBB2072BF7D9044B1B7AD2B23F
:10124000934201D000207047012070478C08002095
:1012500008B509220749084804F0F0FD30B9012219
:1012600010214FF0904002F068FF08BDFFF7A2F890
:10127000F5E700BF8C0800206003002008B5FFF7E9
:10128000D1FF012800D008BD094B9A78D97842EAED
:10129000012208490A801A79597942EA012206494D
:1012A0000A809A79DB7942EA0323044A1380EAE749
:1012B0008C0800208808002096080020980800204C
:1012C000084BA3FB0030084A138801339BB21380FC
:1012D000B3EB501F04D9134600221A800120704737
:1012E000002070471F85EB512C0F002070B58EB089
:1012F0000120FFF763FE8DED0C0ACDED0D0AF5EE32
:10130000C00AF1EE10FA76D4584AFCEEE07A17EEF5
:10131000903A1380DFED567A60EEA77AFCEEE77A1A
:1013200017EE903A9BB2534AA2FB03125209642172
:1013300001FB1233504A1380DDED0C7ABCEEE77AE4
:1013400017EE103A9CB24D4B1C809FED497A67EE28
:10135000877AFCEEE77A17EE903A9BB24548A0FBFD
:10136000031252094FF0640C0CFB12339BB2444A37
:101370001380444A1588444A1580444A12884449D7
:10138000A1FB02618909434E3180434EA6FB0262F4
:10139000D208A0FB026040090CFB102292B23F4829
:1013A00002803F4800783F4E3070F5EEC00AF1EE03
:1013B00010FA3BD40B903C4800680A903B480088E8
:1013C00009903B48006808903A48008807900692C8
:1013D0000591394A12880492039502930194264B91
:1013E0001B880093214B1B88344A3549354805F04A
:1013F00045F80EB070BDF1EE607ABCEEE77A17EEFC
:10140000102A1A4B1A809FED1A7A67EE877AFCEE43
:10141000E77A17EE903A9BB2164AA2FB03125209E2
:10142000642101FB1233144A138085E70B901E4898
:1014300000680A901D48008809901D4800680890BF
:101440001C4800880790069205911B4A1288049256
:10145000039502930194084B1B880093034B1B8850
:10146000164A1949174805F009F8C2E7260F002067
:101470000000C8421F85EB51240F00201E0B0020E6
:101480001C0B002088080020A20A002074080020FD
:10149000D34D62109E0A0020CDCCCCCC9C0A0020FB
:1014A00077080020A40A0020140B0020180B00204D
:1014B0000C0B0020100B0020A00A002000000020D0
:1014C0001C6E00089C080020A06D000810B50446A2
:1014D000FEF77EFE642382B22146064804F007FB35
:1014E0002046FEF775FE642382B22146024804F0CE
:1014F000FEFA10BDDC020020E403002038B51F4BCB
:101500001A88032A35D80024204638BD4CB301334D
:101510009BB2B3F5806F2ED21949CC5C4F2CF5D11C
:10152000591C174D695C4B29F0D1991C695C0D2938
:10153000ECD1D91C695C0A29E8D1EC182046FEF7E9
:1015400047FE642382B221460E4804F0D0FA0B4CC9
:1015500022880021284604F089FF002323800124EB
:10156000D2E70021064804F081FF044B00221A80D4
:10157000CAE70023CDE70024C6E700BF200F002004
:10158000200B0020E403002010B50446FFF7B6FF4F
:10159000012808D0074A13780133DBB213700A2BF5
:1015A00004D8204610BD0134E4B2FAE702F062FF2D
:1015B000F7E700BF290F002070B5ADF5846D064632
:1015C000002408944FF47F72214609A804F04EFFCE
:1015D0000DF1040C1E4D0FCDACE80F0095E807008F
:1015E0008CE807001B4B009309E01B4B1A5D1B495D
:1015F00008AB03EB440004F041FF0134A4B21648E9
:10160000FEF7E6FD8442F0D301A8FEF7E1FD0246B5
:1016100001A9304604F01CFF01A8FEF7D9FD3418DB
:1016200008A8FEF7D5FD024608A9204604F010FFE1
:101630003046FEF7CDFD06446846FEF7C9FD02467A
:101640006946304604F004FF0DF5846D70BD00BF9F
:101650009C6E0008220D0A009C080020986E00086D
:1016600030B5ADF2044D002100914FF47F7201A816
:1016700004F0FCFEA04B1B78112B1AD8DFE813F006
:101680001200410069009200BF00E9001201500100
:101690007B01A501D201FF012B0258028302C10286
:1016A000EE021C03954B1B7833B1944B1B78012B36
:1016B00012D00DF2044D30BD914B93E80300009021
:1016C000ADF80410090C8DF806106846FFF7FEFE11
:1016D0008A4B01221A70E8E78A4B1B78012B05D050
:1016E0006420FFF7EDFD874B1870E2E70020FFF75D
:1016F0004BFF814B18700023824A13707F4A13708E
:10170000D7E77E4B1B786BB17C4B1B78012BD0D17C
:101710007C4B1B78012B11D06420FFF7D1FD794B56
:101720001870C6E76B46784A07CA83E80700184670
:10173000FFF7CCFE714B01221A70E5E70120FFF79D
:1017400023FF6D4B187000236E4A13706B4A1370A1
:10175000AFE76A4B1B7873B1684B1B78012BA8D19C
:10176000684B1B78012B12D040F6B830FFF7A8FD6C
:10177000644B18709DE76B46644A07CA83E807000C
:101780001846FFF7A3FE5D4B01221A70E4E7022022
:10179000FFF7FAFE584B187000235A4A1370574A45
:1017A000137086E7554B1B787BB1544B1B78012B8C
:1017B0007FF47FAF534B1B78012B15D04FF4FA7099
:1017C000FFF77EFD4F4B187073E76C46504D0FCD01
:1017D0000FC495E8070084E807006846FFF776FE27
:1017E000464B01221A70E0E70320FFF7CDFE424B83
:1017F00018700023434A1370404A137059E73F4B57
:101800001B787BB13D4B1B78012B7FF452AF3D4BD6
:101810001B78012B12D040F6B830FFF751FD394B41
:10182000187046E76B463B4A07CA83E8070018462C
:10183000FFF74CFE314B01221A70E3E70420FFF75B
:10184000A3FE2D4B187000232E4A13702B4A1370E1
:101850002FE72A4B1B7873B1284B1B78012B7FF4A1
:1018600028AF284B1B78012B11D06420FFF728FDEF
:10187000244B18701DE7284A6B4607CA03C31A8019
:101880006846FFF723FE1D4B01221A70E4E705208E
:10189000FFF77AFE184B187000231A4A1370174A84
:1018A000137006E7154B1B7873B1144B1B78012B93
:1018B0007FF4FFAE134B1B78012B11D06420FFF790
:1018C000FFFC104B1870F4E6144B6C460FCB07C4AA
:1018D00023706846FFF7FAFD084B01221A70E4E70F
:1018E0000620FFF751FE044B18700023054A1370C1
:1018F000024A1370DDE600BF220F00202F0F0020E8
:10190000B86E00082B0F0020C06E0008CC6E0008D7
:10191000D86E0008F46E0008006F00080C6F000815
:10192000A24B1B787BB1A14B1B78012B7FF4C1AE7E
:101930009F4B1B78012B13D04FF47A70FFF7C0FC3C
:101940009B4B1870B5E66C469A4D0FCD0FC42B68B3
:1019500023806846FFF7BAFD944B01221A70E2E734
:101960000720FFF711FE944B18700023904A137064
:101970008E4A13709DE68D4B1B787BB18B4B1B7889
:10198000012B7FF496AE8A4B1B78012B12D04FF4BB
:101990007A70FFF795FC864B18708AE66C46874B89
:1019A0000FCB84E80F002046FFF790FD7F4B01220C
:1019B0001A70E3E70820FFF7E7FD7F4B187000235C
:1019C0007B4A1370794A137073E6784B1B787BB1AE
:1019D000764B1B78012B7FF46CAE754B1B78012B7B
:1019E00015D04FF4FA50FFF76BFC714B187060E69E
:1019F000734B6C460FCB07C424F8023B1B0C2370BF
:101A00006846FFF763FD694B01221A70E0E7092081
:101A1000FFF7BAFD684B18700023654A1370634ADC
:101A2000137046E6614B1B787BB1604B1B78012B32
:101A30007FF43FAE5E4B1B78012B15D04FF47A70CC
:101A4000FFF73EFC5A4B187033E65E4B6C460FCBEB
:101A500007C424F8023B1B0C23706846FFF736FDD1
:101A6000524B01221A70E0E70A20FFF78DFD524B1E
:101A7000187000234E4A13704C4A137019E64B4BF2
:101A80001B7873B1494B1B78012B7FF412AE484B86
:101A90001B78012B14D03220FFF712FC444B187036
:101AA00007E66C46484D0FCD0FC495E80F0084E85B
:101AB0000F006846FFF70AFD3C4B01221A70E1E770
:101AC0000B20FFF761FD3C4B18700023384A137060
:101AD000364A1370EDE5354B1B7873B1334B1B78E9
:101AE000012B7FF4E6AD324B1B78012B15D0322051
:101AF000FFF7E6FB2E4B1870DBE56C46334D0FCD40
:101B00000FC42B6824F8023B1B0C23706846FFF7B8
:101B1000DDFC264B01221A70E0E70C20FFF734FDB4
:101B2000254B18700023224A1370204A1370C0E519
:101B30001E4B1B787BB11D4B1B78012B7FF4B9AD7D
:101B40001B4B1B78012B13D04FF4FA60FFF7B8FB47
:101B5000174B1870ADE56C461D4D0FCD0FC42B68AB
:101B600023706846FFF7B2FC104B01221A70E2E7BF
:101B70000D20FFF709FD104B187000230C4A13705D
:101B80000A4A137095E5094B1B781BB3074B1B786A
:101B9000012B7FF48EAD064B1B78012B26D04FF422
:101BA000FA60FFF78DFB024B187082E52F0F0020C3
:101BB0002B0F00201C6F0008220F0020306F000840
:101BC000406F0008506F0008606F0008806F0008C9
:101BD000946F00086C464A4B0FCB84E80F002046F8
:101BE000FFF774FC474B01221A70CFE70E20FFF776
:101BF000CBFC454B18700023444A1370414A1370C4
:101C000057E5404B1B787BB13E4B1B78012B7FF493
:101C100050AD3E4B1B78012B15D04FF4FA60FFF707
:101C20004FFB3A4B187044E56C46394D0FCD0FC44D
:101C300095E8070084E807006846FFF747FC314B4A
:101C400001221A70E0E70F20FFF79EFC2E4B187060
:101C500000232E4A13702B4A13702AE5294B1B7858
:101C60007BB1284B1B78012B7FF423AD274B1B78CE
:101C7000012B16D04FF4FA60FFF722FB234B1870AC
:101C800017E5EC46234C0FCCACE80F0094E80F00AE
:101C90008CE80F006846FFF719FC1A4B01221A70F6
:101CA000DFE71020FFF770FC174B18700023174A6E
:101CB0001370144A1370FCE4124B1B7873B1114B70
:101CC0001B78012B7FF4F5AC104B1B78012B0FD147
:101CD00000230E4A13700B4A1370EAE46846FFF7BC
:101CE0006BFC6846FFF7F2FB064B01221A70E6E731
:101CF00042F21070FFF7E4FA044B1870D9E400BF09
:101D0000A86F00082F0F0020220F00202B0F0020AB
:101D1000B86F0008D46F00082DE9F04105462B4B41
:101D20001A88002A50D12846BDE8F081002944D005
:101D300001339BB2B3F5806FF5D21C462449C95CD0
:101D40002B29F3D103F1010C214810F80C00552880
:101D5000ECD1981C1E4E305C5528E7D1D81C305C65
:101D60004C28E3D1181D305C4F28DFD1581D305C62
:101D70004328DBD1981D305C3A28D7D1F718384674
:101D8000FEF726FA642382B23946124803F0AFFE0A
:101D900004F108010D4FB7F80080A8EB04023144AC
:101DA0000D4804F055FB42460021304604F05EFB2E
:101DB00000233B800135EDB2B5E7054804F056FB42
:101DC000024B00221A80AEE70023B3E7200F002069
:101DD000200B0020E4030020A80A002070B586B084
:101DE0000446A44B19785A7801EB810102EB4102B9
:101DF000103A8DF80220D9781A7901EB810102EBB3
:101E00004102103A8DF80120197A5A7A01EB8101CA
:101E100002EB4102103A8DF80320D97A1A7B01EBCC
:101E2000810102EB4102103A8DF80420997BDA7BA4
:101E300001EB810102EB4102103A8DF805205A7C3A
:101E40009B7C02EB820203EB4203103B8DF80630D1
:101E5000894D002201A9284604F0BDF800226946F8
:101E6000284604F037F900221346022A0AD802F164
:101E700018018048415C2E2904D00133DBB20132C5
:101E8000D2B2F2E7012B07D0022B45D0032B4FD063
:101E90007A4A0021118004E0764A127E303A77496E
:101EA0000A80194603F119027248825CA2F13005DA
:101EB00003F11A02825C303A714E06FB02F2714E57
:101EC00006FB052203F11B05455D303D42F210760D
:101ED00006FB052203F11C05455D303D4FF47A7683
:101EE00006FB052203F11D05455D303D642606FB1A
:101EF000052203F11E0510F805C0ACF1300C0CEB07
:101F00008C0C02EB4C021F33C35C303B13445E4A23
:101F1000136000231A4624E056490A7E303A497E6F
:101F200002EB820201EB4202303A54490A80B8E7E0
:101F30005048017E3039427E303A01EB810101EB9D
:101F4000810102EB8202520002EB810292B2817E99
:101F50000A44303A49490A80A3E70132D2B2013338
:101F6000DBB2022B06D803F121000844414D285C66
:101F70002E28F2D1012A07D0022A4FD0032A5DD0A1
:101F8000424B0020188006E001F121033948C35C70
:101F9000303B3E48038001F1220313443548C35CC3
:101FA000A3F1300501F123031344C35C303B344EED
:101FB00006FB03F3334E06FB053301F124051544FC
:101FC000455D303D42F2107C0CFB053301F12505E7
:101FD0001544455D303D4FF47A7C0CFB053301F12F
:101FE00026051544455D303D4FF0640C0CFB053370
:101FF00001F12705154410F805C0ACF1300C0CEBCD
:102000008C0C03EB4C0328310A44825C303A1344B5
:102010001F4A1360601CC0B206B070BD01F12103FD
:102020001448C35C303B01F12205405D03EB8303A0
:1020300000EB4303303B15480380ACE701F121037B
:102040000C4DE85C303801F12203EB5C303B00EBD7
:10205000800000EB800003EB83035B0003EB800355
:102060009BB201F12300285C0344303B0748038006
:1020700091E700BFA80A002074010020100B002087
:10208000A086010040420F000C0B0020180B00201E
:10209000140B002010B59AB000210191602202A813
:1020A00004F0E4F9334B1B78012B2DD0022B5BD0CD
:1020B0000BB11AB010BD304B1B7873B12E4B1B788F
:1020C000012BF6D12D4B1B78012B12D04FF47A70D7
:1020D000FFF7F6F8294B1870EBE701AC284B0FCB54
:1020E00084E80F002046FFF7F1F9234B01221A7014
:1020F000E4E70020FFF748FA1E4B187000231F4A40
:1021000013701D4A1370D4E71B4B1B7873B11A4B25
:102110001B78012BCDD1194B1B78012B19D041F223
:102120008830FFF7CDF8154B1870C2E70DF1040C9D
:10213000144C0FCCACE80F0094E80700ACE80300A7
:102140008CF8002001A8FFF7C1F90B4B01221A708F
:10215000DDE70120FFF7E0FD064B18700023074A7A
:102160001370054A1370A4E70220FFF737FE014BF6
:1021700018709EE71A0B00202E0F00202A0F002057
:10218000F46F00080470000810B501220B490C48D8
:1021900003F0D6FD78B90B4C00222021204601F037
:1021A000CCFF40F2DC5001F041F9002240212046F2
:1021B00001F0C3FF10BDFEF7FDF8ECE7280F00208B
:1021C000DC0200200004004808B5FFF78FF8054B3B
:1021D0001B78032B02D0FFF75DFF08BDFFF740FA25
:1021E000FBE700BF1A0B0020024A1368013313609B
:1021F000704700BF300F0020014B1868704700BFC8
:10220000300F002010B50446FFF7F6FF022C08D06F
:10221000032C09D00023C31A022C08D0032C0AD0A7
:1022200010BD074BDB69F6E7054B1B6AF3E7044A71
:10223000D362D061F4E7024A13631062F0E700BF93
:10224000300F002010B50446FFF7D6FF022C02D055
:10225000032C03D010BD034BD860FBE7014B586142
:10226000F8E700BF300F002010B50446FFF7C4FFA9
:10227000022C08D0032C09D00023C31A022C08D04A
:10228000032C0AD010BD074BDB68F6E7054B5B69F2
:10229000F3E7044A53621061F4E7024A93629061E3
:1022A000F0E700BF300F002000B5A7B0002100917B
:1022B000922201A804F0DAF8FEF7E0FFFEF7E6FC50
:1022C000FFF782FF00F088F927B05DF804FB08B53E
:1022D000FEF7E0FDFEF712FE08BD000008B5134B47
:1022E0005A6801325A60012183F83C10104BA3FB5D
:1022F0000213DB0803EB830359008A4206D10B4B20
:102300009A6801329A60012283F83D20074B00222F
:1023100083F83C200220FFF795FFFFF7D8FF02204B
:10232000FFF7A2FF0220FFF76DFF08BD300F00206E
:10233000CDCCCCCC08B500F04DF9FEF7D7FCFEF7BC
:1023400033FEFEF78FFCFEF783FFFFF71DFFFEF75E
:1023500065FC00F0FDF8FEF7D9FC08BD08B50F4B91
:1023600093F83D30012B09D00420FFF76BFF0420C8
:10237000FFF77AFF0420FFF745FF08BD074B002257
:1023800083F83D200320FFF75DFFFFF78DFF03205B
:10239000FFF76AFF0320FFF735FFEEE7300F00205D
:1023A00010B504460268074B9A4204D02268064BD7
:1023B0009A4203D010BDFFF791FFF7E7FFF714FF34
:1023C000F8E700BF004801400044014008B5036839
:1023D000144A934206D0144A934210D0134A9342AF
:1023E00012D008BD988C124A13881249C854013380
:1023F000138001221049114803F0A2FCF1E7104AB2
:10240000136801331360ECE7988C0E4A13880E4969
:10241000C85401331380012207490C4803F090FC93
:10242000DFE700BF003801400044004000480040A2
:10243000200F0020200B0020700F0020DC02002065
:10244000740F0020680400206C040020E4030020C6
:1024500008B588220021244804F008F800220AE088
:10246000930003F1006303F57E33D3E900011E4BB3
:1024700043F822000132212AF2DD1B4B19681B4A66
:10248000116059691A4A11609A681A490A605968B4
:1024900019480160D868194B186002B111B9184B7E
:1024A000184A1A60002316E092100E320E4951F8B5
:1024B0002210D81C4FEA116C134A02F800C0981C75
:1024C000C1F3074C02F800C0581CC1F3072C02F8F6
:1024D00000C0D1540433132B04DC1A46002BE3DA7A
:1024E000DA1CE1E708BD00BFF00F0020880F0020D4
:1024F000780F0020840F0020800F0020781000202B
:102500007C0F0020ADDEADDE8C0F002010B502F098
:1025100003F80A2000F08AFF002411E072B6A1003F
:102520000A4B53F82420002301F1006101F57E31AC
:10253000022002F045F862B60A2000F077FF01346D
:10254000212CEBDD02F002F810BD00BFF00F0020DF
:1025500010B51D4BD3E90023B3F1FF3F08BFB2F123
:10256000FF3F02D0FFF774FF10BD184C88220021F6
:10257000204603F07BFF0123236042F63023E36013
:10258000002217E09B1003F10E00D31C104911F834
:1025900003C0931CCB5C1B0403EB0C6302F1010C26
:1025A00011F80CC003EB0C23895C0B44074941F87C
:1025B00020300432132A04DC1346002AE2DAD31C4A
:1025C000E0E7FFF7A3FFCFE700F80308F00F0020D4
:1025D0008C0F00207047000010B586B00C4C002214
:1025E00001A9204603F0ECFD00226946204603F0D5
:1025F0000FFE9DF80420074B1A809DF80520064B1E
:102600001A809DF80620054B1A8006B010BD00BF49
:10261000740100207C1000207E100020801000201B
:10262000704770477047704738B50268936803F089
:102630000303012B01D0002038BD0446136813F0BA
:10264000010F33D0936803F00D03012B09D0036C05
:1026500043F010030364436C43F00103436401201F
:10266000EAE7936843F002039360036803221A6069
:1026700000F0D6FE054623689B6813F0010F13D0C7
:1026800000F0CEFE401B0228F5D923689B6813F0AA
:10269000010FF0D0236C43F010032364636C43F00C
:1026A000010363640120C7E70020C5E70020C3E7FA
:1026B00038B504460268936803F00303012B0DD07C
:1026C00091681A4B19420FD0236C43F01003236416
:1026D000636C43F001036364012038BD136813F099
:1026E000010FEDD00020F8E7936843F001039360F9
:1026F00000F096FE054623681B6813F0010F13D106
:1027000000F08EFE431B022BF5D923681B6813F0E3
:10271000010FF0D1236C43F010032364636C43F08A
:10272000010363640120D8E70020D6E73F00008062
:1027300008B5406A036C43F040030364436C43F004
:1027400004034364FFF76FFF08BD08B5406AFFF755
:1027500068FF08BD08B5436A1A6C12F0500F1AD111
:102760001A6C42F400721A641A68D26812F4406F4C
:102770000DD15A7E5AB91A6C22F480721A641A6CFE
:1027800012F4805F03D11A6C42F001021A641846F9
:10279000FFF746FF08BD9B6B1B6B9847FAE70000ED
:1027A00030B597B000230193002800F02F81044634
:1027B000036C13F0100F52D1036CABB100202368EF
:1027C0009A6812F0805F03D09B6813F0005F47D0D7
:1027D000236C23F0120343F010032364636C43F073
:1027E0000103636401203BE04364C364836480F8B5
:1027F0003C30FEF739F823689B6813F0805F01D006
:102800000020DCE72046FFF70FFF236C13F0100FCA
:10281000D5D10028D3D1236C23F4885323F00203AD
:1028200043F0020323642268936823F040539360CB
:102830002268936843F080539360754B1B68754A18
:10284000A2FB03239B0C03EB83035B00019302E0D9
:10285000019B013B0193019B002BF9D1AFE70020C5
:10286000236C13F0100F40F0C880002840F0C580A2
:102870002368996811F0040140F0BF80226C22F4B3
:10288000817242F002022264B3F1A04F14D0624A76
:1028900093420FD0614DB3F1A04F0FD05E4A9342E7
:1028A00067D05F4A934268D05E4A934269D0002263
:1028B000029205E05C4DEEE75B4DECE7564A029272
:1028C0009A6802F00302012A5FD0029B23B19A6842
:1028D00002F00302012A5DD0AB6823F44033626842
:1028E0001343AB60627E5303656B012D01D04FF43F
:1028F00080510B43E1680B43A1680B4394F820100F
:1029000001294CD0A26A012A0AD02168444DA9426B
:1029100058D005F58075A94254D0E16A0A431343A3
:102920002268916811F00C0F0CD1D16821F480411C
:1029300021F00201D160217E94F83020520042EA59
:10294000813213432168CD68384A2A401343CB6053
:102950002369012B48D02268136B23F00F03136304
:1029600000236364236C23F0030343F00103236417
:102970004AE04FF0A0420292A2E702F58072029272
:102980009EE7A2F5807202929AE71B6813F0010F8E
:10299000A8D19AE71B6813F0010FA3D19CE732B9C5
:1029A000626A013A43EA424343F48033AAE7226C65
:1029B00022F0220242F020022264626C42F0010204
:1029C00062649FE7B2F5307F08D0B2F5807F08D00F
:1029D000B2F5E07FA1D14FF480729EE74FF4E07230
:1029E0009BE74FF4307298E721680B6B23F00F03DD
:1029F000E269013A13430B63B2E7236C23F012033D
:102A000043F010032364012017B030BD0120FBE721
:102A10001800002083DE1B43000100500007005017
:102A200000040050000500500003005007C0F0FFF4
:102A3000F8B504460068856815F0040F40F0A880DA
:102A40000F46164694F83C30012B00F0A38001237A
:102A500084F83C30B0F1A04F0AD04F4B984207D0D9
:102A60004E4B9B6813F01F0F0CBF0123002306E0A1
:102A70004B4B9B6813F01F0F0CBF012300232BB996
:102A8000002384F83C3001252846F8BD2046FFF796
:102A90000FFE0546002877D1236C23F4706323F0E2
:102AA000010343F4807323642368B3F1A04F43D040
:102AB000394A934240D0394A926812F01F0F40D1F0
:102AC000226C22F480122264DB6813F0007F05D0B0
:102AD000236C23F4405343F480532364236C13F496
:102AE000805F4ED0636C23F006036364002384F898
:102AF0003C30A36B2B4A9A62A36B2B4ADA62A36B1E
:102B00002A4A1A6323681C221A602268536843F019
:102B1000100353602268D36843F00103D360216837
:102B200033463A464031A06B01F070FB226893684F
:102B300043F004039360A7E7194A926812F01F0F4D
:102B4000BED0B3F1A04FBBD0194A9342B8D0226C8B
:102B500042F480122264104A93420CD0144BDB687A
:102B6000C3F34063002BB9D0236C23F4405343F4E8
:102B700080532364B2E74FF0A043DB68C3F34063A4
:102B8000F0E700236364B1E7002384F83C307BE77F
:102B9000022579E7022577E7000100500007005081
:102BA00000030050552700084B2700083127000874
:102BB00000040050704770477047704710B50446D6
:102BC00003681A6812F0040F03D05A6812F0040F59
:102BD00007D11A6812F0080F7FD05A6812F0080F58
:102BE0007BD0226C12F0100F03D1226C42F40072E1
:102BF0002264B3F1A04F28D08E4A934225D08E4A4A
:102C0000926812F01F0F25D1D968DA6812F4406F6C
:102C10005DD111F4005F5AD11A6812F0080F56D036
:102C20009A6812F0040F4AD15A6822F00C025A60D6
:102C3000236C23F480732364236C13F4805F46D1E8
:102C4000236C43F00103236441E07C4A926812F054
:102C50001F0FD9D0B3F1A04F09D0764A934206D0C6
:102C6000754A926802F01F02052A06D1CCE7734A22
:102C7000926802F01F02052AC6D0B3F1A04F09D016
:102C80006C4A934206D06C4A926802F01F02092AED
:102C900006D1B9E7694A926802F01F02092AB3D047
:102CA000B3F1A04FB0D0664A9342ADD0614A93428F
:102CB00002D0634AD168A8E74FF0A042FAE7236C3C
:102CC00043F010032364636C43F001036364204604
:102CD000FFF7A6FC23680C221A6023681A6812F01A
:102CE000200F03D05A6812F0200F09D11A6812F091
:102CF000400F00F0E0805A6812F0400F00F0DB80D7
:102D0000226C42F400522264B3F1A04F45D0494AEC
:102D1000934242D0484A926812F01F0F42D1D968BC
:102D2000DA6C12F0C00F40F0C08011F0007F08D0C4
:102D3000DA6812F4406F40F0B88011F4005F40F0A0
:102D4000B4801A6812F0400F00F0AF80B3F1A04FCA
:102D50005DD0384A93425AD0374A926812F01F0F1A
:102D60005AD1DA6812F4001F40F09F809A6812F07E
:102D7000080F40F092805A6822F060025A60236C7B
:102D800023F480532364236C13F4807F40F08D8000
:102D9000236C43F00103236487E0284A926812F011
:102DA0001F0FBCD0B3F1A04F09D0224A934206D0E6
:102DB000214A926802F01F02052A06D1AFE71F4A96
:102DC000926802F01F02052AA9D0B3F1A04F09D0E2
:102DD000184A934206D0184A926802F01F02092A44
:102DE00006D19CE7154A926802F01F02092A96D084
:102DF000B3F1A04F93D0124A934290D00D4A934220
:102E000002D00F4AD1688BE74FF0A042FAE70B4A95
:102E1000926812F01F0FA4D0B3F1A04F12D0054A50
:102E200093420FD0044A926802F01F02062A0FD183
:102E300097E700BF0001005000070050000300505A
:102E400000040050614A926802F01F02062A88D0EE
:102E5000B3F1A04F09D05E4A934206D05D4A926812
:102E600002F01F02072A07D17BE7584A926802F056
:102E70001F02072A3FF475AFB3F1A04F3FF471AFC3
:102E8000554A93423FF46DAF514A934202D0524AA1
:102E9000D26867E74FF0A042FAE7236C43F01003D3
:102EA0002364636C43F0010363642046FFF782FEF2
:102EB000236860221A6023681A6812F0800F03D01A
:102EC0005B6813F0800F44D123681A6812F4807F86
:102ED00003D05B6813F4807F46D123681A6812F42C
:102EE000007F03D05B6813F4007F49D123681A6820
:102EF00012F0100F23D05A6812F0100F1FD0626B1F
:102F0000012A0ED0B3F1A04F49D0314A934243D0A9
:102F1000304A916811F01F0F43D1DB6813F0010FA5
:102F20000AD0236C43F480632364636C43F0020390
:102F300063642046FFF777FB236810221A6023683A
:102F40001A6812F4806F03D05A6812F4806F2DD182
:102F500010BD236C43F4803323642046FFF762FBEB
:102F6000236880221A60AFE7236C43F400332364A4
:102F70002046FFF721FE23684FF480721A60ACE709
:102F8000236C43F4802323642046FFF716FE236856
:102F90004FF400721A60A9E702F50072B9E70B4A14
:102FA000B7E7936813F4404FC6D0BAE7226C42F4F7
:102FB00080422264626C42F0080262644FF48062D4
:102FC0001A602046FFF7F7FDC2E700BF000300507C
:102FD00000010050000700500004005030B496B0CB
:102FE0000022019290F83C20012A00F0C2810346A1
:102FF000012280F83C200068826812F0040F40F043
:10300000AD814A68042A37D8046B02EB42025200B1
:103010004FF01F0C0CFA02FC24EA0C0C0C6804FAAA
:1030200002F24CEA020202631868826812F00C0F86
:103030006ED10A68092A52D9846902EB42021E3A0B
:103040004FF0070C0CFA02FC24EA0C048D6805FA18
:1030500002F22243826148691C68E268C2F3C1023D
:10306000520000FA02F208690138032800F2998040
:10307000DFE800F04476818C092A10D8446B02EB1B
:10308000420252001E3A4FF01F0C0CFA02FC24EAD6
:103090000C040D6805FA02F222434263C4E70E2ACB
:1030A0000ED8846B02EB420252003C3A1F25954039
:1030B00024EA05040D6805FA02F222438263B3E7AD
:1030C000C46B02EB420252005A3A1F25954024EA93
:1030D00005040D6805FA02F22243C263A4E74469BD
:1030E00002EB42024FF0070C0CFA02FC24EA0C043B
:1030F0008D6805FA02F222434261ACE7206E9E4DD4
:103100000540086842EA8062154345F0004525669F
:103110001868826802F00302012A72D0CA68012A84
:1031200075D0D0F8B02001240D68AC4022EA04022A
:10313000C0F8B0201A68B2F1A04F00F093808F4819
:10314000824200F08D808E4C0968102900F08C803E
:10315000112900F09D80122900F09F80002002E1DB
:10316000606E854D0540086842EA8062154345F06F
:1031700000456566CCE7A06E7F4D0540086842EAD1
:103180008062154345F00045A566C1E7E56E7A48C3
:1031900028400D6842EA8562024342F00042E2663E
:1031A000B6E7226E02F0F8420868B2EB806F03D1F6
:1031B000226E22F0004222661A68506E00F0F8403B
:1031C0000C68B0EB846F03D1506E20F00040506665
:1031D0001A68906E00F0F8400C68B0EB846F03D171
:1031E000906E20F0004090661A68D06E00F0F840B3
:1031F0000C68B0EB846F8BD1D06E20F00040D066AD
:1032000086E7026812F0010F88D00020ABE0D0F80A
:10321000B0200D680124AC402243C0F8B0200A68F9
:10322000092A0ED91D68A86902EB42021B3A07243D
:10323000944020EA04008C6804FA02F20243AA6176
:1032400078E71D686869013202EB42020724944066
:1032500020EA04008C6804FA02F202436A6169E71A
:10326000484C71E7474C6FE7A06810F4000F7FF4FB
:103270006FAFB2F1A04F16D0404882422AD04248E8
:1032800082422BD0414882422CD0002002900CE098
:10329000A06810F0807FECD05DE7A06810F4800F8C
:1032A000E7D000205FE035480290906800F003000E
:1032B00001281BD0029828B1856805F0030CBCF1E9
:1032C000010F1DD0102920D0112938D012293FD04C
:1032D000002048E04FF0A0400290E6E700F5807043
:1032E0000290E2E7A0F580700290DEE7106810F02F
:1032F000010FDFD01A6C42F020021A64012032E084
:10330000006810F0010FF5D1DCE7B2F1A04FDBD17E
:10331000A26842F40002A2601D4A12681D49A1FB86
:103320000212920C02EB82025200019202E0019A18
:10333000013A0192019A002AF9D1002013E0B2F17A
:10334000A04FC3D1A26842F08072A26000200AE0C0
:10335000A26842F48002A260002004E01A6C42F0ED
:1033600020021A640120002283F83C2016B030BCF1
:1033700070470220FAE700BF00F0FF830001005011
:1033800000070050000300500004005000050050EA
:103390001800002083DE1B4310B504460E4B18783E
:1033A0004FF47A73B3FBF0F30C4A1068B0FBF3F000
:1033B00001F072F868B90F2C01D901200AE000224F
:1033C00021464FF0FF3001F00FF8054B1C60002044
:1033D00000E0012010BD00BF1000002018000020F8
:1033E0001400002008B5074A136843F01003136067
:1033F000032000F0E7FF0F20FFF7CEFFFDF71CFAD8
:10340000002008BD00200240034A1168034B1B78CE
:103410000B441360704700BF841000201000002090
:10342000014B1868704700BF8410002038B504466F
:10343000FFF7F6FF0546B4F1FF3F02D0044B1B78BF
:103440001C44FFF7EDFF401BA042FAD338BD00BF7C
:1034500010000020002800F0018370B582B00446FF
:10346000036813F0010F3BD0B54B5B6803F00C030E
:10347000042B1ED0B24B5B6803F00C03082B13D057
:103480006368B3F5803F68D0002B40F0928003F171
:10349000804303F504331A6822F480321A601A68F4
:1034A00022F480221A605DE0A54B5B6813F4803F34
:1034B000E6D04FF4003393FAA3F3A14B19684FF40D
:1034C000003393FAA3F3B3FA83F303F01F0301224B
:1034D00002FA03F30B4203D06368002B00F0C082B2
:1034E000236813F0020F00F0C580954B5B6813F062
:1034F0000C0F00F09C80924B5B6803F00C03082BD0
:1035000000F08F802369002B00F0F280012292FAF4
:10351000A2F3B3FA83F303F1845303F584139B00FE
:103520001A60FFF77DFF0546022393FAA3F3844B4D
:103530001968022393FAA3F3B3FA83F303F01F038A
:10354000012202FA03F30B4240F0C380FFF768FF49
:10355000401B0228E8D903208BE2794A136843F420
:1035600080331360764AD36A23F00F03A1680B43BC
:10357000D3626368002B36D0FFF752FF05464FF445
:10358000003393FAA3F36E4B19684FF4003393FAA8
:10359000A3F3B3FA83F303F01F03012202FA03F348
:1035A0000B429DD1FFF73CFF401B6428E7D9032065
:1035B0005FE2B3F5A02F09D0614B1A6822F4803284
:1035C0001A601A6822F480221A60CBE703F1804364
:1035D000A3F53C331A6842F480221A601A6842F458
:1035E00080321A60BEE7FFF71BFF05464FF4003339
:1035F00093FAA3F3524B19684FF4003393FAA3F3F1
:10360000B3FA83F303F01F03012202FA03F30B4220
:103610003FF466AFFFF704FF401B6428E6D90320A0
:1036200027E2474B5B6813F4803F7FF46BAF0223C4
:1036300093FAA3F3424B1968022393FAA3F3B3FA64
:1036400083F303F01F03012202FA03F30B4203D0BA
:103650002369934240F006823948036823F0F80357
:103660006169F82292FAA2F2B2FA82F201FA02F247
:1036700013430360236813F0080F00F08D80A369E3
:10368000002B61D0012191FAA1F2B2FA82F22D4B06
:1036900013449B001960FFF7C3FE0546022393FA0B
:1036A000A3F293FAA3F293FAA3F2254A516A93FA8A
:1036B000A3F3B3FA83F303F01F03012202FA03F327
:1036C0000B4269D1FFF7ACFE401B0228E6D903206C
:1036D000CFE11B48036823F0F8036169F82292FAEE
:1036E000A2F2B2FA82F201FA02F213430360C1E7D6
:1036F000012393FAA3F3B3FA83F303F1845303F59D
:1037000084139B0000221A60FFF78AFE05460223FD
:1037100093FAA3F30A4B1968022393FAA3F3B3FABB
:1037200083F303F01F03012202FA03F30B42A1D03B
:10373000FFF776FE401B0228E9D9032099E100BF7C
:103740000010024020819010012292FAA2F2B2FAF7
:1037500082F2B74B13449B0000221A60FFF760FE11
:103760000546022393FAA3F293FAA3F293FAA3F283
:10377000B04A516A93FAA3F3B3FA83F303F01F0339
:10378000012202FA03F30B4206D0FFF749FE401B69
:103790000228E6D903206CE1236813F0040F00F03F
:1037A000A980A44BDB6913F0805F20D1A14BDA69BB
:1037B00042F08052DA61DB6903F080530193019B90
:1037C00001259D4B1B6813F4807F12D0E368012B09
:1037D00023D073BB03F1804303F504331A6A22F04C
:1037E00001021A621A6A22F004021A621AE0002523
:1037F000E7E7914A136843F480731360FFF710FE04
:1038000006468D4B1B6813F4807FDFD1FFF708FE5F
:10381000801B6428F5D903202BE1864A136A43F004
:1038200001031362E368002B3CD0FFF7F9FD064665
:103830002BE0052B09D07F4B1A6A22F001021A6295
:103840001A6A22F004021A62ECE77A4B1A6A42F012
:1038500004021A621A6A42F001021A62E2E7754B28
:10386000196A022393FAA3F3B3FA83F303F01F0355
:10387000012202FA03F319423BD1FFF7D1FD801B6D
:1038800041F28833984200F2EF80022393FAA3F2C8
:1038900093FAA3F3002BE2D1022393FAA3F3654B2F
:1038A000596ADEE7FFF7BCFD064615E0614B196A71
:1038B000022393FAA3F3B3FA83F303F01F03012265
:1038C00002FA03F3194214D0FFF7AAFD801B41F25C
:1038D0008833984200F2CA80022393FAA3F293FA43
:1038E000A3F3002BE2D1022393FAA3F3514B596ABD
:1038F000DEE7B5BBE369002B00F0BA804D4A5268A1
:1039000002F00C02082A00F09980022B2FD04FF011
:10391000807393FAA3F3B3FA83F303F1845303F5AB
:1039200084139B0000221A60FFF77AFD04464FF0D3
:10393000007393FAA3F33F4B19684FF0007393FAA7
:10394000A3F3B3FA83F303F01F03012202FA03F394
:1039500019426BD0FFF764FD001B0228E7D9032052
:1039600087E0344AD36923F08053D361C2E74FF034
:10397000807393FAA3F3B3FA83F303F1845303F54B
:1039800084139B0000221A60FFF74AFD05464FF0A2
:10399000007393FAA3F3274B19684FF0007393FA5F
:1039A000A3F3B3FA83F303F01F03012202FA03F334
:1039B000194206D0FFF734FD401B0228E7D9032047
:1039C00057E01C494B6823F47413626A206A02436F
:1039D00013434B604FF0807393FAA3F3B3FA83F36E
:1039E00003F1845303F584139B0001221A60FFF74F
:1039F00017FD04464FF0007393FAA3F30D4B1968BB
:103A00004FF0007393FAA3F3B3FA83F303F01F03A9
:103A1000012202FA03F3194206D1FFF701FD001B50
:103A20000228E7D9032024E0002022E0002020E043
:103A3000208190100010024000700040012B1AD02D
:103A4000104B5B6803F48031226A914215D103F474
:103A50007013626A934212D100200AE0012070477D
:103A6000012006E0012004E0032002E0032000E042
:103A7000002002B070BD0120FBE70120F9E7012022
:103A8000F7E700BF00100240164B5B6803F00C0222
:103A9000082A01D01448704703F470114FF47012D3
:103AA00092FAA2F2B2FA82F221FA02F20F49885C8B
:103AB0000C4AD26A02F00F020F2191FAA1F1B1FA79
:103AC00081F1CA400A498A5C13F4803F05D0064B55
:103AD000B3FBF2F303FB00F07047064B03FB00F06F
:103AE000704700BF0010024000127A0020700008EA
:103AF0003070000800093D00002800F0BE8070B55D
:103B00000D460446614B1B6803F007038B420BD242
:103B10005E4A136823F007030B431360136803F036
:103B200007038B4240F0AB80236813F0020F06D0EE
:103B3000574A536823F0F003A1680B43536023688E
:103B400013F0010F5AD06368012B2DD0022B40D007
:103B5000022292FAA2F24E4A1068022292FAA2F2CD
:103B6000B2FA82F202F01F02012101FA02F21042BF
:103B700000F0878046494A6822F0030213434B60F5
:103B8000FFF74EFC0646424B5B6803F00C0362688D
:103B9000B3EB820F32D0FFF743FC801B41F2883336
:103BA0009842F0D9032067E04FF4003292FAA2F273
:103BB000374A10684FF4003292FAA2F2B2FA82F257
:103BC00002F01F02012101FA02F20242D2D10120C9
:103BD00052E04FF0007292FAA2F22D4A10684FF0B4
:103BE000007292FAA2F2B2FA82F202F01F020121EE
:103BF00001FA02F21042BDD101203DE0234B1B68C7
:103C000003F00703AB420AD9204A136823F00703E5
:103C10002B431360136803F00703AB4233D12368CF
:103C200013F0040F06D01A4A536823F4E063E168E6
:103C30000B435360236813F0080F07D0144A5368EE
:103C400023F46053216943EAC1035360FFF71CFF6B
:103C50000F4B5B6803F0F003F02292FAA2F2B2FA83
:103C600082F2D3400B4AD35CD8400B4B18600B4B0D
:103C70001868FFF791FB002070BD012070470120FC
:103C8000FAE70120F8E70120F6E700BF0020024034
:103C900000100240407000081800002014000020AE
:103CA000014B1868704700BF1800002008B5FFF7E7
:103CB000F7FF074B5B6803F4E0634FF4E06292FAAE
:103CC000A2F2B2FA82F2D340024AD35CD84008BDD5
:103CD000001002405070000808B5FFF7E1FF074BE5
:103CE0005B6803F460534FF4605292FAA2F2B2FAA6
:103CF00082F2D340024AD35CD84008BD0010024093
:103D000050700008F0B583B00446036813F4803F98
:103D100048D0914BDB6913F0805F40F0D4808E4B2C
:103D2000DA6942F08052DA61DB6903F08053019373
:103D3000019B0125894B1B6813F4807F00F0C5802F
:103D4000854B1B6A13F4407322D0626802F4407200
:103D50009A421DD08048016A21F440764FF48033A6
:103D600093FAA3F2B2FA82F27D4F3A4492004FF0F6
:103D7000010CC2F800C093FAA3F3B3FA83F33B44F7
:103D80009B0000221A60066211F0010F40F0B28021
:103D9000714A136A23F4407361680B431362002D68
:103DA00040F0CF80236813F0010F06D06A4A136BEE
:103DB00023F00303A1680B431363236813F0020F7E
:103DC00006D0654A136B23F44033E1680B43136359
:103DD000236813F0040F06D05F4A136B23F44023CB
:103DE00021690B431363236813F0200F06D05A4A4E
:103DF000136B23F01003E1690B431363236813F47F
:103E0000003F06D0544A536823F48003A16B0B4350
:103E10005360236813F0400F06D04F4A136B23F012
:103E20002003216A0B431363236813F0080F06D0A5
:103E3000494A136B23F4401361690B4313632368EE
:103E400013F0100F06D0444A136B23F44003A1690A
:103E50000B431363236813F4007F06D03E4A536874
:103E600023F40003E16A0B435360236813F0800FCF
:103E700006D0394AD36A23F4F873616A0B43D362DC
:103E8000236813F4807F06D0334AD36A23F478532F
:103E9000A16A0B43D362236813F4805F06D02E4AD5
:103EA000136B23F48073216B0B431363236813F4A8
:103EB000005F4DD0284A136B23F40073616B0B43F2
:103EC0001363002045E0002534E7244A136843F4D7
:103ED00080731360FFF7A4FA0646204B1B6813F4A7
:103EE000807F7FF42DAFFFF79BFA801B6428F4D905
:103EF00003202EE0FFF794FA064615E0164B196AE8
:103F0000022393FAA3F3B3FA83F303F01F0301220E
:103F100002FA03F30B427FF43BAFFFF781FA801BF9
:103F200041F28833984211D8022393FAA3F293FA0C
:103F3000A3F3002BE2D1022393FAA3F3064B596AB1
:103F4000DEE7D36923F08053D3612BE7032000E041
:103F5000002003B0F0BD00BF001002400070004020
:103F600000819010F0B583B0002362E085685E00A8
:103F70000324B44025EA0405CC68B4402C43846093
:103F8000446824EA0C0C4C68C4F300149C4044EAD6
:103F90000C0444605EE0DD08083550F8256003F04D
:103FA00007044FEA840C0F2404FA0CF426EA040EEA
:103FB0000C6904FA0CF444EA0E0440F8254060E071
:103FC000042400E0002404FA0EF42C430CF1020C4B
:103FD000524D45F82C40524C2568D44325EA020640
:103FE0004F6817F4803F01D042EA05064C4D2E6021
:103FF0006D6804EA05064F6817F4003F01D042EAF5
:104000000506474D6E60AD6804EA05064F6817F473
:10401000801F01D042EA0506414DAE60ED682C409C
:104020004E6816F4001F01D042EA05043C4AD460F1
:1040300001330A6832FA03F46ED04FF0010C0CFA27
:1040400003FC1CEA0202F3D04C6804F00304013CB8
:10405000012C8BD94C6804F00304032C0CD0C468E9
:104060005D004FF0030C0CFA05FC24EA0C0C8C6884
:10407000AC4044EA0C04C4604C6804F00304022C15
:1040800089D004684FEA430E4FF0030C0CFA0EFC83
:1040900024EA0C0C4C6804F0030404FA0EF444EA1D
:1040A0000C0404604C6814F4403FC1D01D4CA56959
:1040B00045F00105A561A46904F001040194019C87
:1040C0004FEA930C0CF10205144C54F8255003F000
:1040D00003044FEA840E0F2404FA0EF425EA0405C3
:1040E000B0F1904F3FF46EAF0F4CA0420ED004F5EC
:1040F0008064A0420CD004F58064A0420AD004F58C
:104100008064A0423FF45CAF05245CE701245AE7D9
:10411000022458E7032456E703B0F0BD0000014035
:1041200000040140001002400004004803691942E5
:1041300001D001207047002070470AB181617047AB
:104140008162704730B40124056CAC40C56B6C6073
:10415000046863604368102B05D0036899600368A6
:10416000DA6030BC704703689A600368D960F8E78A
:1041700002680C4B9A420AD80B4B13440B4AA2FB21
:1041800003231B099B000364094BC3637047094B5E
:104190001344064AA2FB03231B099B000364064B3E
:1041A000C363704707040240F8FFFDBFCDCCCCCC01
:1041B00000000240F8FBFDBF0004024020B310B530
:1041C0000446022380F8213001680A6822F47F52F5
:1041D00022F03002436880680343E06803432069AB
:1041E000034360690343A0690343E0690343134346
:1041F0000B602046FFF7BCFF0020A063012384F87A
:10420000213084F8200010BD0120704738B50446E5
:1042100090F82000012831D0012084F8200094F883
:104220002100012804D0002384F82030022038BD6A
:10423000022084F821000020A0632568286820F06F
:10424000010028602046FFF77DFFE36A5BB122682A
:10425000136843F00E0313602268136843F00103F0
:1042600013600020E3E72268136843F00A03136039
:104270002268136823F004031360EDE70220D6E7F9
:1042800090F82130022B06D004238363002380F8AA
:104290002030012070470268136823F00E0313607A
:1042A0000268136823F001031360036CC16B0122E1
:1042B00002FA03F34B6080F82120002380F82030BD
:1042C0001846704708B590F82130022B03D004231C
:1042D0008363012008BD0268136823F00E03136096
:1042E0000268136823F001031360036CC16B0122A1
:1042F00002FA03F34B6080F82120002380F820307D
:10430000436B13B198470020E4E70020E2E738B59B
:10431000C36B1A6804682568016C04238B40134240
:1043200013D015F0040F10D0236813F0200F03D121
:10433000236823F004032360016CC26B04238B40C9
:104340005360C36A03B1984738BD02238B401342C0
:104350001AD015F0020F17D0236813F0200F06D1E2
:10436000236823F00A032360012380F82130016CC5
:10437000C26B02238B405360002380F82030836A95
:10438000002BE1D09847DFE7082303FA01F111423F
:10439000DAD015F0080FD7D0236823F00E0323607E
:1043A000026CC16B012303FA02F24A60836380F856
:1043B0002130002380F82030036B002BC4D09847B5
:1043C000C2E70000074AD36823F4E0631B041B0C18
:1043D000000200F4E060034343F0BF6343F40033A2
:1043E000D360704700ED00E000B5194BDB68C3F304
:1043F0000223C3F1070CBCF1040F28BF4FF0040CDB
:1044000003F1040EBEF1060F18D9033B4FF0FF3E37
:104410000EFA0CFC21EA0C0199400EFA03F322EA91
:104420000303194300280BDB0901C9B200F1604006
:1044300000F5614080F800135DF804FB0023E5E718
:1044400000F00F000901C9B2024B1954F4E700BF94
:1044500000ED00E014ED00E0002807DB00F01F0293
:10446000400901239340024A42F82030704700BFC0
:1044700000E100E0BFF34F8F0549CA6802F4E06233
:10448000044B1343CB60BFF34F8F00BFFDE700BF6A
:1044900000ED00E00400FA050138B0F1807F0BD296
:1044A0004FF0E0235861054AF02182F823100020E4
:1044B000986107221A6170470120704700ED00E003
:1044C000044B0022DA61044A136943F001031361CB
:1044D0000180704788100020002002400C4BDB68F0
:1044E00013F0100305D00B4AD36943F00203D361E4
:1044F0001023074AD26812F0040F06D00549CA6992
:1045000042F00102CA6143F00403014AD3607047DC
:1045100000200240881000200A4B1B6913F0800F16
:104520000BD0084B084A5A6002F188325A601B6966
:1045300013F0800F03D10020704700207047012046
:10454000704700BF0020024023016745034A1369FA
:1045500043F0800313610020704700BF0020024039
:1045600038B50446FEF75CFF0546144BDB6813F0D4
:10457000010F0AD0B4F1FF3FF7D024B1FEF750FF8E
:10458000401BA042F1D9032012E00C4BDB6813F072
:10459000200F02D0094B2022DA60084BDB6813F0B1
:1045A000100F06D1054BDB6813F0040F01D100207A
:1045B00038BDFFF793FF0120FAE700BF002002405B
:1045C0002DE9F8431E46244B1B7E012B41D00446A7
:1045D0000F469046204B01221A764CF25030FFF7DE
:1045E000BFFF034678BB012C08D0022C03D04FF04C
:1045F00004091C4607E04FF00209FAE74FF00109F1
:10460000F7E70134E4B24C451DD22101C1F120028B
:10461000A1F1200328FA01F106FA02F2114326FA69
:1046200003F3194389B207EB4400FFF749FF4CF24B
:104630005030FFF795FF094B1D6925F001051D61FD
:1046400003460028DDD0044A002111761846BDE853
:10465000F8830223FAE700BF881000200020024000
:1046600000286FD010B50446436A33B94368B3F5E8
:10467000827F05D00023C36102E000230361436110
:104680000023A36294F85D30002B52D0022384F8FB
:104690005D302268136823F040031360E368B3F5CC
:1046A000E06F4CD90022B3F5706F04D0B3F5E06F22
:1046B00001D00023A362636803F48273A16801F44C
:1046C00004410B43216901F002010B43616901F0D0
:1046D00001010B43A16901F400710B43E16901F091
:1046E00038010B43216A01F080010B43A16A01F4F8
:1046F000005120680B430360638B03F00403616A7D
:1047000001F010010B43616B01F008010B43E168FC
:1047100001F470610B43216813434B602268D36935
:1047200023F40063D36100202066012384F85D3008
:1047300010BD84F85C302046FCF702F9A6E74FF480
:104740008052B0E70120704730B4036A23F00103C0
:104750000362036A4568826922F4803222F07302A0
:104760000C68224323F002038C6823431D4CA042B3
:104770000FD004F50064A0420BD004F54064A042C1
:1047800007D004F58064A04203D004F58064A04201
:1047900005D123F00803CC68234323F00403114C14
:1047A000A0420FD004F50064A0420BD004F5406491
:1047B000A04207D004F58064A04203D004F58064D1
:1047C000A04207D125F4407C4C6944EA0C0C8D6969
:1047D00045EA0C05456082614A684263036230BC69
:1047E000704700BF002C014030B4036A23F480738B
:1047F0000362036A4468C26922F4803222F07302C1
:104800000D682A4323F400738D6843EA0523184D8D
:10481000A84203D005F50065A84206D123F4006341
:10482000CD6843EA052323F48063114DA8420FD0DD
:1048300005F50065A8420BD005F54065A84207D0F4
:1048400005F58065A84203D005F58065A84207D12B
:1048500024F4405C4C694CEA041C8C694CEA041456
:104860004460C2614A68C263036230BC704700BFE3
:10487000002C014030B4036A23F480530362036ABE
:104880004468C26922F0807222F4E6420D6842EA6E
:10489000052223F400538D6843EA05330F4DA842E7
:1048A0000FD005F50065A8420BD005F54065A8427C
:1048B00007D005F58065A84203D005F58065A842BC
:1048C00004D124F480444D6944EA85144460C261F3
:1048D0004A680264036230BC704700BF002C01408C
:1048E00030B4036A23F480330362036A4468426D80
:1048F00022F4803222F070020D682A4323F4003340
:104900008D6843EA05430F4DA8420FD005F50065B9
:10491000A8420BD005F54065A84207D005F5806593
:10492000A84203D005F58065A84204D124F4803460
:104930004D6944EA0524446042654A688265036221
:1049400030BC7047002C014030B4036A23F480135C
:104950000362036A4468426D22F0807222F4E042EE
:104960000D6842EA052223F400138D6843EA0553DB
:104970000F4DA8420FD005F50065A8420BD005F5F4
:104980004065A84207D005F58065A84203D005F52B
:104990008065A84204D124F480244D6944EA85242A
:1049A000446042654A68C265036230BC704700BF1C
:1049B000002C014090F83D30DBB2012B32D10223B4
:1049C00080F83D300268D36843F00103D360036888
:1049D000174A934218D0B3F1804F15D0A2F5943204
:1049E000934211D002F5806293420DD002F59632C7
:1049F000934209D002F54062934205D01A6842F012
:104A000001021A600020704799680A4A0A40062A83
:104A10000AD0B2F5803F09D01A6842F001021A604C
:104A20000020704701207047002070470020704729
:104A3000002C014007000100704770477047704725
:104A400010B5044603681A6912F0020F11D0DA6833
:104A500012F0020F0DD06FF002021A6101230377EA
:104A600003689B6913F0030F79D0FFF7E6FF00237B
:104A7000237723681A6912F0040F12D0DA6812F053
:104A8000040F0ED06FF004021A610223237723680B
:104A90009B6913F4407F68D02046FFF7CEFF0023C8
:104AA000237723681A6912F0080F12D0DA6812F01F
:104AB000080F0ED06FF008021A61042323772368D1
:104AC000DB6913F0030F57D02046FFF7B6FF002332
:104AD000237723681A6912F0100F12D0DA6812F0E7
:104AE000100F0ED06FF010021A610823237723688D
:104AF000DB6913F4407F46D02046FFF79EFF00237A
:104B0000237723681A6912F0010F03D0DA6812F0D4
:104B1000010F3FD123681A6912F0800F03D0DA68C1
:104B200012F0800F3DD123681A6912F4807F03D000
:104B3000DA6812F0800F3BD123681A6912F0400F37
:104B400003D0DA6812F0400F39D123681A6912F0E5
:104B5000200F03D0DA6812F0200F37D110BDFFF715
:104B60006BFF2046FFF76AFF81E72046FFF764FFEF
:104B70002046FFF763FF92E72046FFF75DFF2046E0
:104B8000FFF75CFFA3E72046FFF756FF2046FFF73D
:104B900055FFB4E76FF001021A612046FDF700FCF3
:104BA000B8E76FF080021A61204600F0BAFABAE75F
:104BB0006FF480721A61204600F0B4FABCE76FF01F
:104BC00040021A612046FFF73AFFBEE76FF020026D
:104BD0001A61204600F0A4FAC0E7000003682C4ADE
:104BE00090420ED0B0F1804F0BD0A2F5943290429B
:104BF00007D002F58062904203D002F596329042CF
:104C000003D123F070034A681343214A90421AD01B
:104C1000B0F1804F17D0A2F59432904213D002F534
:104C2000806290420FD002F5963290420BD002F58E
:104C30004062904207D002F58062904203D002F5B4
:104C40008062904203D123F44073CA68134323F077
:104C500080034A69134303608B68C3620B688362F5
:104C60000B4B98420FD003F5006398420BD003F52D
:104C70004063984207D003F58063984203D003F560
:104C80008063984201D10B6903630123436170473C
:104C9000002C014060B310B5044690F83D3013B3CA
:104CA000022384F83D30214651F8040BFFF796FFAC
:104CB000012384F8483084F83E3084F83F3084F88B
:104CC000403084F8413084F8423084F8433084F82E
:104CD000443084F8453084F8463084F8473084F80E
:104CE0003D30002010BD80F83C30FBF775FED7E763
:104CF0000120704760B310B5044690F83D3013B3FF
:104D0000022384F83D30214651F8040BFFF766FF7B
:104D1000012384F8483084F83E3084F83F3084F82A
:104D2000403084F8413084F8423084F8433084F8CD
:104D3000443084F8453084F8463084F8473084F8AD
:104D40003D30002010BD80F83C30FBF72FFED7E748
:104D50000120704730B4036A23F010030362036A32
:104D60004468826922F0807222F4E6420D6842EAC9
:104D7000052223F020038D6843EA0513174DA8424E
:104D800003D005F50065A84206D123F08003CD6865
:104D900043EA051323F04003104DA8420FD005F558
:104DA0000065A8420BD005F54065A84207D005F57F
:104DB0008065A84203D005F58065A84207D124F498
:104DC000406C4C694CEA840C8C694CEA8404446065
:104DD00082614A688263036230BC7047002C0140E4
:104DE00038B590F83C30012B00F0958004460D4614
:104DF000012380F83C30142A00F28880DFE802F0BA
:104E00000B8686861F8686863486868648868686B4
:104E10005D86868671000068FFF796FC22689369BC
:104E200043F0080393612268936923F004039361BC
:104E30002268936929690B439361002067E0006849
:104E4000FFF788FF2268936943F400639361226847
:104E5000936923F48063936122689369296943EA23
:104E600001239361002052E00068FFF7BDFC226837
:104E7000D36943F00803D3612268D36923F00403A4
:104E8000D3612268D36929690B43D36100203EE0D6
:104E90000068FFF7EFFC2268D36943F40063D36135
:104EA0002268D36923F48063D3612268D3692969B6
:104EB00043EA0123D361002029E00068FFF710FDD9
:104EC0002268536D43F0080353652268536D23F045
:104ED000040353652268536D29690B435365002011
:104EE00015E00068FFF730FD2268536D43F400635E
:104EF00053652268536D23F4806353652268536DB4
:104F0000296943EA01235365002000E001200023C2
:104F100084F83C3038BD0220FCE701F01F0101237A
:104F200003FA01FC036A23EA0C030362036A02FA30
:104F300001F10B430362704710B50446084600298F
:104F400047D194F83E30DBB2013B18BF0123002B60
:104F500040F09480002867D1022384F83E3001227B
:104F600001462068FFF7D9FF2368474A93420FD0D4
:104F700002F5006293420BD002F54062934207D0E3
:104F800002F58062934203D002F58062934203D11E
:104F90005A6C42F400425A6423683B4A93425FD001
:104FA000B3F1804F5CD0A2F59432934258D002F511
:104FB0008062934254D002F59632934250D002F56B
:104FC000406293424CD01A6842F001021A600020FD
:104FD00055E004290CD0082911D00C2916D010292D
:104FE0001BD094F84330DBB2013B18BF0123AEE77E
:104FF00094F83F30DBB2013B18BF0123A7E794F8D8
:105000004030DBB2013B18BF0123A0E794F84130E8
:10501000DBB2013B18BF012399E794F84230DBB2C1
:10502000013B18BF012392E7042809D008280BD0C0
:105030000C280DD010280FD0022384F843308EE7BF
:10504000022384F83F308AE7022384F8403086E761
:10505000022384F8413082E7022384F842307EE75D
:1050600099680A4A0A40062A0AD0B2F5803F09D058
:105070001A6842F001021A60002000E0012010BD11
:105080000020FCE70020FAE7002C014007000100A7
:1050900090F83C30012B3ED030B4012380F83C30F6
:1050A000022380F83D300268536894681B4DAA4281
:1050B00003D005F50065AA4203D123F470034D68BF
:1050C0002B4323F070030D682B4353600368134A8E
:1050D000934212D0B3F1804F0FD0A2F59432934295
:1050E0000BD002F58062934207D002F596329342CC
:1050F00003D002F54062934204D124F080048A6810
:1051000014439C60012380F83D30002380F83C303C
:10511000184630BC70470220704700BF002C014089
:10512000704770477047026852E8003F23F0C003A1
:1051300042E800310029F6D12023836770470268D6
:1051400052E8003F23F4907342E800310029F6D181
:10515000026802F1080353E8003F23F0010308321C
:1051600042E800310029F3D1036E012B05D0202342
:10517000C3670023036643667047026852E8003F36
:1051800023F0100342E800310029F6D1EFE7704721
:1051900008B5026852E8003F23F0400342E80031BE
:1051A0000029F6D12023836700238366FFF7EFFFF2
:1051B00008BD7047704738B5446AA26FE56F236831
:1051C0009B6813F0800F01D0212A10D023689B68C0
:1051D00013F0400F01D0222D10D0D4F8803043F0CE
:1051E0001003C4F880302046FFF7E4FF38BD0023E9
:1051F000A4F852302046FFF796FFE7E70023A4F813
:105200005A302046FFF79BFFE7E708B5406A0023C6
:10521000A0F85A30A0F85230FFF7CCFF08BD704715
:1052200070B504460168CB6908688D6840F60F02C6
:105230001A4005D113F0200F02D010F0200F20D11A
:105240002AB115F0010222D1AB4E30421FD1226E9D
:10525000012A00F0AB8013F4801F03D015F4800FF7
:1052600040F0378113F0800F03D010F0800F40F032
:10527000378113F0400F03D010F0400F40F037811A
:1052800070BD636E002BFBD020469847F8E713F003
:10529000010F09D010F4807F06D001250D62D4F8EB
:1052A00080102943C4F8801013F0020F09D042B1D6
:1052B000216802250D62D4F8801041F00401C4F881
:1052C000801013F0040F09D042B1216804250D624B
:1052D000D4F8801041F00201C4F8801013F0080FD8
:1052E0000BD010F0200F00D13AB1226808211162D2
:1052F000D4F880200A43C4F8802013F4006F0CD047
:1053000010F0806F09D022684FF400611162D4F868
:10531000802042F02002C4F88020D4F88020002AA7
:10532000AED013F0200F06D010F0200F03D0636E24
:105330000BB120469847D4F8802023689B6813F06F
:10534000400F02D112F0280F29D02046FFF7F7FEB8
:1053500023689B6813F0400F1DD0226802F10803F8
:1053600053E8003F23F04003083242E800310029AF
:10537000F3D1236F5BB1614A5A63206FFEF7A2FF3E
:1053800000283FF47DAF206F436B984778E72046B5
:10539000FFF710FF74E72046FFF70CFF70E7204689
:1053A000FFF708FF0023C4F8803069E713F0100FFF
:1053B0003FF451AF10F0100F3FF44DAF10230B62CC
:1053C00023689B6813F0400F4CD0226F13685B6812
:1053D0009BB2002B3FF454AFB4F8581099427FF6BB
:1053E0004FAFA4F85A309369202B30D0226852E88E
:1053F000003F23F4807342E800310029F6D122688F
:1054000002F1080353E8003F23F00103083242E8A9
:1054100000310029F3D1226802F1080353E8003F6C
:1054200023F04003083242E800310029F3D1202361
:10543000E36700232366226852E8003F23F010034D
:1054400042E800310029F6D1206FFEF719FFB4F8C9
:105450005810B4F85A309BB2C91A89B22046FFF7E7
:10546000DEFE0DE7B4F85810B4F85A309BB2C91AF2
:1054700089B2B4F85A309BB2002B3FF401AF002937
:105480003FF4FEAE226852E8003F23F4907342E8F6
:1054900000300028F6D1226802F1080353E8003FEB
:1054A00023F00103083242E800300028F3D1202322
:1054B000E367002323666366226852E8003F23F017
:1054C000100342E800300028F6D12046FFF7A7FE7F
:1054D000D6E64FF480130B62204600F0D7FCCFE6EF
:1054E000A36E002B3FF4CCAE20469847C8E620467A
:1054F000FFF74EFEC4E600BF200100040B52000877
:1055000008B5B0F85C30C26F222A05D002689369F2
:1055100043F00803936108BD0268918CDBB2426DD1
:105520000B401370436D01334365B0F85A309BB2A2
:10553000013B9BB2A0F85A30B0F85A309BB2002B16
:10554000E9D1026852E8003F23F4907342E8003149
:105550000029F6D1026802F1080353E8003F23F066
:105560000103083242E800310029F3D12023C36748
:1055700000234366036E012B16D1002303660268E5
:1055800052E8003F23F0100342E800310029F6D131
:105590000368DA6912F0100F01D010221A62B0F815
:1055A0005810FFF73CFEB6E7FCF710FFB3E708B56D
:1055B000B0F85C30C26F222A05D00268936943F0CC
:1055C0000803936108BD0268918C426D0B40138003
:1055D000436D02334365B0F85A309BB2013B9BB236
:1055E000A0F85A30B0F85A309BB2002BEAD10268CA
:1055F00052E8003F23F4907342E800310029F6D1CD
:10560000026802F1080353E8003F23F00103083267
:1056100042E800310029F3D12023C3670023436609
:10562000036E012B16D100230366026852E8003F87
:1056300023F0100342E800310029F6D10368DA694B
:1056400012F0100F01D010221A62B0F85810FFF7B4
:10565000E6FDB7E7FCF7BAFEB4E708B5406A036EAB
:10566000012B02D0FFF7A5FD08BDB0F8581049087E
:10567000FFF7D5FDF8E708B50346406A9B69202B84
:1056800028D00023A0F85A30026852E8003F23F4E3
:10569000807342E800310029F6D1026802F1080364
:1056A00053E8003F23F00103083242E800310029AB
:1056B000F3D1026802F1080353E8003F23F04003EE
:1056C000083242E800310029F3D12023C367036E7A
:1056D000012B05D0036E012B0CD0FCF777FE08BD23
:1056E000026852E8003F23F0100342E8003100292D
:1056F000F6D1EFE7B0F85810FFF791FDEFE70000A3
:1057000010B5044683680269134342691343C269B2
:105710001A4301680B6823F4164323F00C03134368
:105720000B600268536823F44053C1680B43536015
:105730008269036A1A4301688B6823F43063134358
:105740008B6003687B4A93420DD07B4A93421CD006
:105750007A4A93423AD07A4A93424AD0794A93425B
:105760005AD010231FE0784B1B6B03F00303032B6D
:1057700009D8DFE803F002040664012313E00423E0
:1057800011E008230FE010230DE06F4B1B6B03F4B7
:105790004033B3F5003F54D013D8002B53D0B3F5AA
:1057A000803F52D10423E069B0F5004F69D0082B47
:1057B00000F2B980DFE803F092A890B7ABB7B7B7B3
:1057C000AE00B3F5403F42D10223ECE75E4B1B6BCA
:1057D00003F44023B3F5002F3BD005D8DBB3B3F57A
:1057E000802F3AD10423DEE7B3F5402F37D10223CF
:1057F000D9E7554B1B6B03F44013B3F5001F30D0B2
:1058000005D883B3B3F5801F2FD10423CBE7B3F5BD
:10581000401F2CD10223C6E74B4B1B6B03F4400304
:10582000B3F5000F25D005D82BB3B3F5800F24D1E5
:105830000423B8E7B3F5400F21D10223B3E70223D5
:10584000B1E70823AFE70023ADE71023ABE7102350
:10585000A9E70823A7E70023A5E71023A3E7102360
:10586000A1E708239FE700239DE710239BE7102370
:1058700099E7082397E7002395E7102393E7102380
:1058800091E7082B49D8DFE803F0051F2548224897
:1058900048480900FEF70AFA002840D06268530819
:1058A00003EB4000B0FBF2F080B2A0F110024FF623
:1058B000EF739A4235D820F00F03C0F3420018432B
:1058C0002368D86000201BE0FEF706FAE4E7FEF745
:1058D000DBF8E1E71D48E1E71C4802E0FEF7E6F9E6
:1058E00018B3636800EB5300B0FBF3F080B2A0F193
:1058F00010024FF6EF739A4219D82368D86000203F
:1059000000236366A36610BDFEF7E6F9E8E7FEF73D
:10591000BBF8E5E74FF40040E3E70120F0E70020A3
:10592000EEE70120ECE70120EAE70020E8E70120AC
:10593000E6E700BF00380140004400400048004056
:10594000004C0040005000400010024000127A005D
:10595000436A13F0010F06D00268536823F4003342
:10596000816A0B435360436A13F0020F06D002684A
:10597000536823F48033C16A0B435360436A13F0C6
:10598000040F06D00268536823F48023016B0B4395
:105990005360436A13F0080F06D00268536823F47B
:1059A0000043416B0B435360436A13F0100F06D062
:1059B0000268936823F48053816B0B439360436ABE
:1059C00013F0200F06D00268936823F40053C16BD4
:1059D0000B439360436A13F0400F0AD00268536888
:1059E00023F48013016C0B435360036CB3F5801FE9
:1059F0000BD0436A13F0800F06D00268536823F47B
:105A00000023816C0B43536070470268536823F492
:105A1000C003416C0B435360EBE72DE9F8430546A7
:105A20000F4616469946DDF820802C68E46937EA6F
:105A300004030CBF4FF0010C4FF0000CB44553D1E0
:105A4000B8F1FF3FF1D0FDF7EBFCA0EB09004045BA
:105A50002DD8B8F1000F2AD02B681A6812F0040F65
:105A6000E3D0DA6912F4006FDFD04FF400621A62FB
:105A70002A6852E8003F23F4D07342E8003100293D
:105A8000F6D12A6802F1080353E8003F23F001032E
:105A9000083242E800310029F3D12023AB67EB67DD
:105AA000C5F88030002385F8743003201DE02A6893
:105AB00052E8003F23F4D07342E800310029F6D1C8
:105AC0002A6802F1080353E8003F23F0010308327B
:105AD00042E800310029F3D12023AB67EB670023B4
