:020000040800F2
:1000000000A0002035520008810700088907000879
:100010009107000899070008A107000800000000E8
:10002000000000000000000000000000A907000818
:10003000B107000800000000B9070008C107000868
:100040007F520008855200088B5200089152000828
:10005000975200089D520008A3520008A9520008B8
:10006000AF520008B5520008BB520008C152000848
:10007000C7520008C9070008CD520008D907000878
:10008000E9070008D3520008F9070008D952000810
:10009000DF520008E5520008EB520008090800088A
:1000A000F15200081508000825080008F75200085A
:1000B000FD52000803530008095300080F530008BD
:1000C000155300081B53000821530008275300084C
:1000D0002D53000835080008450800085508000899
:1000E0003353000839530008B75300083F53000842
:1000F000455300084B53000851530008575300085C
:100100000000000000000000000000005D53000837
:1001100063530008695300086F53000875530008C3
:10012000650800087B5300088153000887530008C6
:100130008D530008935300080000000000000000E9
:10014000995300089F530008A553000800000000C1
:10015000000000000000000000000000000000009F
:100160000000000000000000AB530008B15300087D
:10017000B75300080000000000000000000000006D
:0801800000000000BD5300085F
:1001900010B5054C237833B9044B13B10448AFF3C1
:1001A00000800123237010BD7000002000000000BB
:1001B000145D000808B5034B1BB103490348AFF3B6
:1001C000008008BD0000000074000020145D0008DD
:1001D000034613F8012B002AFBD1181A0138704787
:1001E00001F0FF01102A2BDB10F0070F08D010F8E8
:1001F000013B013A8B422DD010F0070F42B3F6D1EC
:10020000F0B441EA012141EA014122F007047FF004
:1002100000070023F0E80256083C85EA010586EA5B
:10022000010685FA47F5A3FA87F586FA47F6A5FA97
:1002300087F68EB9EED1F0BC01F0FF0102F00702A3
:1002400032B110F8013B013A83EA010313B1F8D14E
:100250000020704701387047002D06BF354603382F
:10026000073815F0010F07D1013015F4807F02BF68
:10027000013015F4C03F0130F0BC0138704700BFB9
:1002800070B58AB0002405940694079408940994E4
:100290002D4B5A6942F400225A615A6902F4002235
:1002A0000192019A5A6942F480025A615A6902F431
:1002B00080020292029A5A6942F400325A615A69E3
:1002C00002F400320392039A5A6942F480225A617E
:1002D0005B6903F480230493049B224692214FF030
:1002E000904003F030F8194E224641F26201304648
:1002F00003F029F8922305930125069507940894A5
:1003000005A94FF0904002F033FF202305934FF4EE
:1003100088130693079405A94FF0904002F028FF38
:1003200041F26203059306950794089405A93046A7
:1003300002F01EFF22462946172003F069F9172014
:1003400003F09EF90AB070BD00100240000400489E
:1003500000B583B01A4B5A6942F001025A615A69DA
:1003600002F001020092009A5A6942F002025A61B8
:100370005B6903F002030193019B002205210D201C
:1003800003F046F90D2003F07BF9002206210F202F
:1003900003F03EF90F2003F073F90022072110202B
:1003A00003F036F9102003F06BF9002211463820D3
:1003B00003F02EF9382003F063F903B05DF804FB75
:1003C0000010024072B6FEE700B587B0002300932C
:1003D000019302930393049305931648164A02600F
:1003E0004360836003610122427680F82030C3625B
:1003F0008262C360C26180F83030042242610376B9
:10040000436301F0D3FA88B90323009301230193D6
:10041000002303930422029204930593694605483E
:1004200001F0E2FE20B907B05DF804FBFFF7CAFF58
:10043000FFF7C8FF8C0000200001005008B50F48EE
:100440000F4B03604FF482734360002383604FF4CB
:10045000E062C260036143614FF400728261C36174
:100460000362436283620722C26203630823436319
:1004700003F00AFA00B908BDFFF7A4FF0C02002040
:100480000038004008B50B480B4B03604FF4E133D4
:10049000436000238360C36003610C224261836177
:1004A000C3610362436204F02CFC00B908BDFFF78E
:1004B00089FF00BF540300200038014008B50B48F5
:1004C0000B4B03604FF4E133436000238360C36050
:1004D00003610C2242618361C3610362436204F0E1
:1004E00010FC00B908BDFFF76DFF00BFD803002066
:1004F0000044004008B50B480B4B03604FF4E13358
:10050000436000238360C36003610C224261836106
:10051000C3610362436204F0F4FB00B908BDFFF756
:1005200051FF00BF5C0400200048004000B58BB0C4
:100530000023079308930993009301930293039375
:100540000493059306931748174A026047224260B6
:1005500083604FF49672C2600361836103F0DEFC36
:10056000C8B900230793099307A90E4803F0A4FE16
:1005700098B9602300930023019302930493082207
:100580006946084803F040FD48B9064800F07AFA89
:100590000BB05DF804FBFFF715FFFFF713FFFFF744
:1005A00011FF00BF080300200004004000B587B021
:1005B00000230193029303930493059300931C4833
:1005C0001C4A026043607F228260FF22C260036196
:1005D0004361836104F07CFC20BB04238DF804306C
:1005E0000F238DF8053037238DF806300023049350
:1005F0000593012201A90E4804F0D7FCA0B90122FD
:100600008DF800208DF8012003238DF80230E623B9
:100610008DF803306946064804F046FD30B907B04E
:100620005DF804FBFFF7CEFEFFF7CCFEFFF7CAFE36
:10063000EC0100200028004008B50948094B036080
:1006400047234360002383606422C26003614361E7
:10065000836103F033FC00B908BDFFF7B3FE00BFB0
:10066000700200200044014008B50948094B0360AE
:10067000472343600023836042F21072C26003612B
:100680004361836103F01AFC00B908BDFFF79AFECD
:10069000BC0200200048014000B59FB02822002184
:1006A00014A804F0B3FE00210F9110911191129142
:1006B00013913C22684604F0A9FE012214924FF4E3
:1006C00080331593189202221B921C934FF4E0136F
:1006D0001D9314A801F0C4FF00BB0F230F93022148
:1006E0001091002311934FF48062129213930FA87C
:1006F00002F008FBA0B90C4B009300230293039374
:1007000004934FF4807309934FF440730193684648
:1007100002F0FEFB30B91FB05DF804FBFFF752FE9C
:10072000FFF750FEFFF74EFE8700010008B501F00D
:100730005FFFFFF7B1FFFFF7A3FDFFF709FEFFF72C
:1007400043FEFFF77BFEFFF79DFEFFF7B7FEFFF7C7
:10075000D1FEFFF7EBFEFFF729FFFFF76DFFFFF775
:1007600083FF054803F03AFA044803F037FA00F033
:10077000FFFE00F011FFFCE770020020BC02002029
:1007800008B502F08BFFFCE708B502F087FFFCE735
:1007900008B502F083FFFCE708B502F07FFFFCE735
:1007A00008B502F07BFFFCE708B502F077FF08BD53
:1007B00008B502F073FF08BD08B502F06FFF08BD71
:1007C00008B501F027FF08BD08B5024802F0B3FEE6
:1007D00008BD00BFA801002008B5024802F0ABFE2A
:1007E00008BD00BF2001002008B5024802F0A3FEAA
:1007F00008BD00BF6401002008B5024801F0E4FA1A
:1008000008BD00BF8C00002008B5202002F0A0FD2C
:1008100008BD000008B5024803F026FA08BD00BF75
:100820007002002008B5024803F01EFA08BD00BFA0
:10083000BC02002008B5024803F006FE08BD00BF58
:100840005403002008B5024803F0FEFD08BD00BFB8
:10085000D803002008B5024803F0F6FD08BD00BF2C
:100860005C04002008B5024802F065FE08BD00BF28
:10087000DC00002082B00A4B9A6942F001029A61C2
:100880009A6902F001020092009ADA6942F08052FD
:10089000DA61DB6903F080530193019B02B070477A
:1008A0000010024010B588B0002303930493059311
:1008B000069307930268224B9A4201D008B010BDFC
:1008C0000446204B5A6942F080525A615A6902F03C
:1008D00080520192019A5A6942F400325A615B696E
:1008E00003F400330293029B4023039303230493F6
:1008F00003A94FF0904002F03BFC1348134B0360F8
:100900000023436083608022C2604FF480720261E2
:100910004FF48062426120228261C36102F062FD75
:1009200058B9094BA3635C6200220221122002F035
:100930006FFE122002F0A4FEC0E7FFF743FDF0E7D0
:100940000001005000100240DC00002008040240BA
:100950000268084B9A4200D070474FF4004292FA66
:10096000A2F2B2FA82F2044B13449B0001221A60F5
:10097000F2E700BF002800400081901000B589B068
:100980000023039304930593069307930268144B83
:100990009A4202D009B05DF804FB03F5EC33DA6942
:1009A00042F48042DA61DA6902F480420192019AEB
:1009B0005A6942F480225A615B6903F480230293EE
:1009C000029B4FF460430393022304930323069393
:1009D0000523079303A9034802F0CAFBDAE700BF27
:1009E00000380040000400480268094B9A4200D0D9
:1009F000704782B003F50333DA6942F00202DA612C
:100A0000DB6903F002030193019B02B0704700BF52
:100A10000004004000B583B00368174A934205D034
:100A2000164A934215D003B05DF804FB144B9A6943
:100A300042F400329A619B6903F400330093009BF7
:100A400000220121192002F0E3FD192002F018FE16
:100A5000E9E70B4B9A6942F480229A619B6903F49F
:100A600080230193019B002202211A2002F0D0FD75
:100A70001A2002F005FED6E700440140004801407C
:100A80000010024000B587B0002301930293039346
:100A90000493059302680D4B9A4202D007B05DF8AB
:100AA00004FB03F503335A6942F480225A615B69FF
:100AB00003F480230093009B0123019302230293FC
:100AC000059301A9024802F053FBE7E70004004048
:100AD0000004004810B58CB0044600230793089327
:100AE00009930A930B930368644A934208D0644ABB
:100AF000934245D0634A934200F081800CB010BD10
:100B0000614B9A6942F480429A619A6902F4804288
:100B10000192019A5A6942F400325A615B6903F406
:100B200000330293029B4FF4C063079302230893A0
:100B300003230A9307230B9307A94FF0904002F079
:100B400017FB5248524B03600023436083608022AE
:100B5000C2600361436120228261C36102F042FCF2
:100B600058B94A4B23675C6200220321252002F01A
:100B70004FFD252002F084FDC0E7FFF723FCF0E7DE
:100B8000414BDA6942F40032DA61DA6902F4003288
:100B90000392039A5A6942F400325A615B6903F482
:100BA00000330493049B0C2307930223089303232D
:100BB0000A9307230B9307A94FF0904002F0D8FA4D
:100BC0003448354B03600023436083608022C26059
:100BD0000361436120228261C36102F003FC58B9C2
:100BE0002C4B23675C6200220321262002F010FDBB
:100BF000262002F045FD81E7FFF7E4FBF0E7224BFA
:100C0000DA6942F48022DA61DA6902F4802205921C
:100C1000059A5A6942F480225A615B6903F4802381
:100C20000693069B4FF44063079302230893032324
:100C30000A9307230B9307A9184802F099FA18485A
:100C4000184B03600023436083608022C26003610D
:100C5000436120228261C36102F0C4FB58B9104B8A
:100C600023675C6200220421272002F0D1FC2720A8
:100C700002F006FD42E7FFF7A5FBF0E70038014070
:100C800000440040004800400010024020010020C5
:100C900058000240640100206C000240000400483B
:100CA000A80100203000024010B5074C23684FF423
:100CB000B972DA62E2603222DA6301F0BDFC2368C5
:100CC0000022DA6310BD00BF0803002010B5094CF4
:100CD0000821204603F044FA23680022DA63204604
:100CE00002F07CFF18B96420FFF7DEFF10BDFFF7AC
:100CF00069FBF8E70803002010B50446FFF768FA1F
:100D0000642382B22146024803F057FF10BD00BFA2
:100D10005C04002008B54FF480620649064804F0E0
:100D200077F818B90548FFF7E7FF08BDFFF74AFB5A
:100D3000F8E700BFE00400205C040020345D0008F8
:100D4000BFF34F8F0549CA6802F4E062044B1343B6
:100D5000CB60BFF34F8F00BFFDE700BF00ED00E0A9
:100D60000400FA0508B501220649074800F066FFAD
:100D700028B901224021054802F0E5FA08BDFFF735
:100D800021FBF6E7440500208C0000200004004809
:100D900008B54FF0004393FAA3F293FAA3F293FA43
:100DA000A3F25B4A516A93FAA3F3B3FA83F303F015
:100DB0001F03012202FA03F30B420DD0554B1A70A8
:100DC000544B1B78052B00F09D80062B00F09C8077
:100DD000072B00F09B8008BD4FF0804393FAA3F2ED
:100DE00093FAA3F293FAA3F2494A516A93FAA3F34E
:100DF000B3FA83F303F01F03012202FA03F30B4259
:100E000003D0444B02221A70DAE74FF0005393FAF2
:100E1000A3F293FAA3F293FAA3F23D4A516A93FA2A
:100E2000A3F3B3FA83F303F01F03012202FA03F3DF
:100E3000194203D0374B03221A70C1E74FF0805399
:100E400093FAA3F293FAA3F293FAA3F2304A516A07
:100E500093FAA3F3B3FA83F303F01F03012202FA18
:100E600003F30B4203D02B4B04221A70A8E74FF078
:100E7000006393FAA3F293FAA3F293FAA3F2244A3B
:100E8000516A93FAA3F3B3FA83F303F01F03012229
:100E900002FA03F30B4203D01E4B05221A708FE7B0
:100EA0004FF0806393FAA3F293FAA3F293FAA3F2BA
:100EB000174A516A93FAA3F3B3FA83F303F01F03BB
:100EC000012202FA03F30B4203D0124B06221A70DE
:100ED00076E7022393FAA3F293FAA3F293FAA3F22A
:100EE0000B4A516A93FAA3F3B3FA83F303F01F0397
:100EF000012202FA03F30B423FF462AF054B0722D3
:100F00001A705DE7FFF71CFFFFF71AFFFFF718FFE6
:100F1000001002404B05002008B501221249134879
:100F200000F08CFEE0B9104B1B8807EE903AF8EE0B
:100F3000677A9FED0F7A67EE877A9FED0E7A67EEFC
:100F4000877A9FED0D7A67EE877ADFED0C6A87EE80
:100F5000A67ABCEEC77A0A4B17EE102A1A8008BD93
:100F6000FFF730FADFE700BF440500208C000020C7
:100F700000404E45000080390000FA4600401C4603
:100F800046050020154B1B78012B04D0144B1B7811
:100F9000012B17D07047134A13780133DBB213705B
:100FA000092BF3D9134600221A700F4B1B78022B22
:100FB00002D90B4B01221A7000230B4A1370074A07
:100FC0001370E3E7094A13780133DBB21370632B24
:100FD000E0D900231370024A1370DBE749050020B3
:100FE0004A0500204D050020480500204C05002042
:100FF000202800D07047044B01221A70034A13784E
:1010000001331370F6E700BF4905002048050020B2
:1010100000B587B0002301930293039304930593D3
:10102000A8B9012280214FF0904002F08CF9802372
:10103000019311230293002303930323049301A933
:101040004FF0904002F094F807B05DF804FB802365
:10105000019301A94FF0904002F08AF8F4E70000F4
:1010600008B501220221024802F06DF908BD00BF57
:10107000000400482DE9F04389B000230493059350
:101080008146002838D14FF4FA648D4B1B78012B30
:1010900035D08B4B1B7813B9894B01221A7001F0A4
:1010A000C5FA884B18600020FFF7B2FF00228021AC
:1010B0004FF0904002F047F90A2001F0BDFA0122FA
:1010C00080214FF0904002F03EF90120FFF7A0FF91
:1010D000002480214FF0904002F02EF9012821D108
:1010E000013442F210739C42F3D904AB93E803003D
:1010F00008AB03E903009BE04FF47A74C5E701F005
:1011000095FA704B1B68C31AA342C2D26E4B5A6841
:1011100005921B68049304AB93E8030008AB03E952
:10112000030085E0002480214FF0904002F004F994
:1011300001280BD0013442F210739C42F3D904AB66
:1011400093E8030008AB03E9030071E00024802169
:101150004FF0904002F0F0F801280BD1013442F238
:1011600010739C42F3D904AB93E8030008AB03E986
:1011700003005DE0554B93E8030002908DF80C10DE
:101180004FF0000832E0AE420BD9012303FA07F218
:1011900008F120030DEB030111F8183C134301F88B
:1011A000183C013FFFB2FF2F1CD000252C468021A8
:1011B0004FF0904002F0C0F8012804D0013501340E
:1011C000434B9C42F3D90026344680214FF0904097
:1011D00002F0B2F80128D6D1013601343C4B9C42D2
:1011E000F3D9D0E708F101085FFA88F8B8F1040FE5
:1011F00001D80727D7E79DF808409DF80920A018D7
:101200009DF80A1051FA80F09DF80B3053FA80F0E7
:10121000C0B29DF80C50A84211D02B4B049A1A6012
:10122000059A5A6004AB93E8030008AB03E9030096
:101230009DED060ADDED070A09B0BDE8F083B9F1BE
:10124000010F11D0B9F1000FE7D107EE904AF8EE87
:10125000677ACDED047A9DF80A3007EE903AF8EE01
:10126000677ACDED057AD8E742EA042207EE902AA4
:10127000F8EEE77A9FED177A67EE877ACDED047A7C
:1012800011F0800F0AD143EA012307EE903AF8EEFD
:10129000E77A67EE877ACDED057AD3E701F07F0133
:1012A0008DF80A1043EA012307EE903AF8EEE77A48
:1012B0009FED097A67EE877ACDED057AC2E700BF28
:1012C0004E05002050050020540500202C5D00082C
:1012D000905F0100CDCCCC3DCDCCCCBD00231A46D7
:1012E00005E00849C95C0A4492B20133DBB2072B1E
:1012F000F7D9044B1B7AD2B2934201D00020704739
:10130000012070476005002008B5092207490848F8
:1013100003F07EFD30B9012210214FF0904002F021
:1013200012F808BDFFF74EF8F5E700BF6005002092
:10133000D803002008B5FFF7D1FF012800D008BD71
:10134000094B9A78D97842EA012208490A801A7929
:10135000597942EA012206490A809A79DB7942EA00
:101360000323044A1380EAE7600500205C0500209F
:101370006A0500206C05002008B564220449054870
:1013800003F046FD00B908BDFFF71CF8FBE700BFFE
:101390007005002054030020024A136801331360D3
:1013A000704700BFD4050020014B1868704700BF8C
:1013B000D405002010B50446FFF7F6FF022C08D034
:1013C000032C09D00023C31A022C08D0032C0AD006
:1013D00010BD074BDB69F6E7054B1B6AF3E7044AD0
:1013E000D362D061F4E7024A13631062F0E700BFF2
:1013F000D405002010B50446FFF7D6FF022C02D01A
:10140000032C03D010BD034BD860FBE7014B5861A0
:10141000F8E700BFD405002010B50446FFF7C4FF6D
:10142000022C08D0032C09D00023C31A022C08D0A8
:10143000032C0AD010BD074BDB68F6E7054B5B6950
:10144000F3E7044A53621061F4E7024A9362906141
:10145000F0E700BFD405002070B5B0B000260896B4
:101460009222314609A803F0D1FF00F0BBF9012018
:10147000FFF700FE8DED2E0ACDED2F0AFCEEE00AFF
:1014800010EE903A9DB2BCEEC00A10EE103A9CB23B
:10149000FFF750FF124B1B780793124B1B880693E4
:1014A000114B1B880593114B1B880493104B1B8811
:1014B0000393029401950F4B1B8800930E4B1B88DE
:1014C0000E4A12880E4908A803F0A8FF08A8FFF7E3
:1014D00013FC9622314608A803F098FF30B070BD87
:1014E0004A0500206C0500206A0500205C050020EC
:1014F00046050020300700202E0700202C07002082
:101500005C5D000808B5FFF707FDFFF73BFD08BD70
:1015100008B5144B5A6801325A60012183F83C1017
:10152000114BA3FB0213DB0803EB830359008A4230
:1015300006D10C4B9A6801329A60012283F83D2053
:10154000084B0A4A1A64002283F83C200220FFF765
:1015500051FFFFF7D7FF0220FFF75EFF0220FFF7E2
:1015600029FF08BDD4050020CDCCCCCC0515000842
:1015700008B500F035F9FFF7F5FBFFF771FDFFF750
:10158000C9FBFFF7C1FEFFF7F7FEFFF79FFB00F077
:10159000E5F8FFF7FDFB08BD08B5104B93F83D30AB
:1015A000012B09D00420FFF725FF0420FFF734FFAB
:1015B0000420FFF7FFFE08BD084B094A5A640022C9
:1015C00083F83D200320FFF715FFFFF745FF0320B9
:1015D000FFF722FF0320FFF7EDFEECE7D405002024
:1015E0005914000810B504460268074B9A4204D00B
:1015F0002268064B9A4203D010BDFFF789FFF7E738
:10160000FFF7CAFEF8E700BF004801400044014070
:1016100003680C4A934206D00B4A934208D00B4A07
:1016200093420AD070470A4A136801331360704727
:10163000084A1368013313607047074A136801337F
:101640001360EFE7003801400044004000480040CC
:101650001C060020200600202406002008B5882251
:101660000021244803F0D2FE00220AE0930003F197
:10167000006303F57E33D3E900011E4B43F82200DB
:101680000132212AF2DD1B4B19681B4A116059698E
:101690001A4A11609A681A490A6059681948016023
:1016A000D868194B186002B111B9184B184A1A6062
:1016B000002316E092100E320E4951F82210D81C69
:1016C0004FEA116C134A02F800C0981CC1F3074C92
:1016D00002F800C0581CC1F3072C02F800C0D15416
:1016E0000433132B04DC1A46002BE3DADA1CE1E79F
:1016F00008BD00BFA00600203806002028060020F4
:101700003406002030060020280700202C06002088
:10171000ADDEADDE3C06002010B502F011F80A2067
:1017200000F08AFF002411E072B6A1000A4B53F8C2
:101730002420002301F1006101F57E31022002F036
:1017400053F862B60A2000F077FF0134212CEBDD5C
:1017500002F010F810BD00BFA006002010B51D4B10
:10176000D3E90023B3F1FF3F08BFB2F1FF3F02D03E
:10177000FFF774FF10BD184C88220021204603F0AB
:1017800045FE0123236042F63023E360002217E088
:101790009B1003F10E00D31C104911F803C0931CD9
:1017A000CB5C1B0403EB0C6302F1010C11F80CC0C1
:1017B00003EB0C23895C0B44074941F820300432C9
:1017C000132A04DC1346002AE2DAD31CE0E7FFF711
:1017D000A3FFCFE700F80308A00600203C06002086
:1017E0007047000010B586B00C4C002201A92046BD
:1017F00003F0D0FC00226946204603F0F3FC9DF87C
:101800000420074B1A809DF80520064B1A809DF88E
:101810000620054B1A8006B010BD00BFEC01002069
:101820002C0700202E07002030070020704770474B
:101830007047704738B50268936803F00303012BC3
:1018400001D0002038BD0446136813F0010F33D0D7
:10185000936803F00D03012B09D0036C43F01003D0
:101860000364436C43F0010343640120EAE7936897
:1018700043F002039360036803221A6000F0D6FE6F
:10188000054623689B6813F0010F13D000F0CEFECD
:10189000401B0228F5D923689B6813F0010FF0D094
:1018A000236C43F010032364636C43F0010363640F
:1018B0000120C7E70020C5E70020C3E738B504468C
:1018C0000268936803F00303012B0DD091681A4B53
:1018D00019420FD0236C43F010032364636C43F070
:1018E00001036364012038BD136813F0010FEDD0CC
:1018F0000020F8E7936843F00103936000F096FE40
:10190000054623681B6813F0010F13D100F08EFE0B
:10191000431B022BF5D923681B6813F0010FF0D18C
:10192000236C43F010032364636C43F0010363648E
:101930000120D8E70020D6E73F00008008B5406AC4
:10194000036C43F040030364436C43F004034364BB
:10195000FFF76FFF08BD08B5406AFFF768FF08BDD5
:1019600008B5436A1A6C12F0500F1AD11A6C42F47F
:1019700000721A641A68D26812F4406F0DD15A7E50
:101980005AB91A6C22F480721A641A6C12F4805FCD
:1019900003D11A6C42F001021A641846FFF746FFA1
:1019A00008BD9B6B1B6B9847FAE7000030B597B0FA
:1019B00000230193002800F02F810446036C13F0EC
:1019C000100F52D1036CABB1002023689A6812F05B
:1019D000805F03D09B6813F0005F47D0236C23F037
:1019E000120343F010032364636C43F00103636448
:1019F00001203BE04364C364836480F83C30FEF71D
:101A000051FF23689B6813F0805F01D00020DCE762
:101A10002046FFF70FFF236C13F0100FD5D10028DD
:101A2000D3D1236C23F4885323F0020343F0020341
:101A300023642268936823F040539360226893687C
:101A400043F080539360754B1B68754AA2FB0323D8
:101A50009B0C03EB83035B00019302E0019B013BC2
:101A60000193019B002BF9D1AFE70020236C13F009
:101A7000100F40F0C880002840F0C58023689968A6
:101A800011F0040140F0BF80226C22F4817242F018
:101A900002022264B3F1A04F14D0624A93420FD0E5
:101AA000614DB3F1A04F0FD05E4A934267D05F4AB9
:101AB000934268D05E4A934269D00022029205E0C8
:101AC0005C4DEEE75B4DECE7564A02929A6802F0F5
:101AD0000302012A5FD0029B23B19A6802F003023D
:101AE000012A5DD0AB6823F4403362681343AB60D6
:101AF000627E5303656B012D01D04FF480510B437F
:101B0000E1680B43A1680B4394F8201001294CD0E5
:101B1000A26A012A0AD02168444DA94258D005F58D
:101B20008075A94254D0E16A0A4313432268916840
:101B300011F00C0F0CD1D16821F4804121F0020189
:101B4000D160217E94F83020520042EA8132134362
:101B50002168CD68384A2A401343CB602369012BA2
:101B600048D02268136B23F00F03136300236364D0
:101B7000236C23F0030343F0010323644AE04FF096
:101B8000A0420292A2E702F5807202929EE7A2F5BD
:101B9000807202929AE71B6813F0010FA8D19AE7AE
:101BA0001B6813F0010FA3D19CE732B9626A013AB6
:101BB00043EA424343F48033AAE7226C22F0220234
:101BC00042F020022264626C42F0010262649FE7EC
:101BD000B2F5307F08D0B2F5807F08D0B2F5E07F53
:101BE000A1D14FF480729EE74FF4E0729BE74FF46F
:101BF000307298E721680B6B23F00F03E269013A1A
:101C000013430B63B2E7236C23F0120343F010037A
:101C10002364012017B030BD0120FBE7080000203D
:101C200083DE1B43000100500007005000040050F9
:101C3000000500500003005007C0F0FFF8B504464F
:101C40000068856815F0040F40F0A8800F4616461E
:101C500094F83C30012B00F0A380012384F83C3041
:101C6000B0F1A04F0AD04F4B984207D04E4B9B6823
:101C700013F01F0F0CBF0123002306E04B4B9B68A2
:101C800013F01F0F0CBF012300232BB9002384F88E
:101C90003C3001252846F8BD2046FFF70FFE0546DB
:101CA000002877D1236C23F4706323F0010343F4FD
:101CB000807323642368B3F1A04F43D0394A934221
:101CC00040D0394A926812F01F0F40D1226C22F4A2
:101CD00080122264DB6813F0007F05D0236C23F4AC
:101CE000405343F480532364236C13F4805F4ED03D
:101CF000636C23F006036364002384F83C30A36B19
:101D00002B4A9A62A36B2B4ADA62A36B2A4A1A63A4
:101D100023681C221A602268536843F01003536042
:101D20002268D36843F00103D360216833463A4602
:101D30004031A06B01F07EFB2268936843F00403FE
:101D40009360A7E7194A926812F01F0FBED0B3F153
:101D5000A04FBBD0194A9342B8D0226C42F48012F3
:101D60002264104A93420CD0144BDB68C3F34063E7
:101D7000002BB9D0236C23F4405343F480532364E5
:101D8000B2E74FF0A043DB68C3F34063F0E7002302
:101D90006364B1E7002384F83C307BE7022579E7F0
:101DA000022577E7000100500007005000030050B3
:101DB00061190008571900083D1900080004005077
:101DC000704770477047704710B5044603681A683B
:101DD00012F0040F03D05A6812F0040F07D11A68EA
:101DE00012F0080F7FD05A6812F0080F7BD0226CD7
:101DF00012F0100F03D1226C42F400722264B3F18E
:101E0000A04F28D08E4A934225D08E4A926812F075
:101E10001F0F25D1D968DA6812F4406F5DD111F433
:101E2000005F5AD11A6812F0080F56D09A6812F063
:101E3000040F4AD15A6822F00C025A60236C23F432
:101E400080732364236C13F4805F46D1236C43F0CA
:101E50000103236441E07C4A926812F01F0FD9D03D
:101E6000B3F1A04F09D0764A934206D0754A9268E2
:101E700002F01F02052A06D1CCE7734A926802F0ED
:101E80001F02052AC6D0B3F1A04F09D06C4A934275
:101E900006D06C4A926802F01F02092A06D1B9E7FF
:101EA000694A926802F01F02092AB3D0B3F1A04F29
:101EB000B0D0664A9342ADD0614A934202D0634AA1
:101EC000D168A8E74FF0A042FAE7236C43F0100373
:101ED0002364636C43F0010363642046FFF7A6FCB0
:101EE00023680C221A6023681A6812F0200F03D0AE
:101EF0005A6812F0200F09D11A6812F0400F00F052
:101F0000E0805A6812F0400F00F0DB80226C42F44F
:101F100000522264B3F1A04F45D0494A934242D0C7
:101F2000484A926812F01F0F42D1D968DA6C12F059
:101F3000C00F40F0C08011F0007F08D0DA6812F4C2
:101F4000406F40F0B88011F4005F40F0B4801A6830
:101F500012F0400F00F0AF80B3F1A04F5DD0384ACF
:101F600093425AD0374A926812F01F0F5AD1DA685A
:101F700012F4001F40F09F809A6812F0080F40F0A2
:101F800092805A6822F060025A60236C23F48053D6
:101F90002364236C13F4807F40F08D80236C43F026
:101FA0000103236487E0284A926812F01F0FBCD017
:101FB000B3F1A04F09D0224A934206D0214A926839
:101FC00002F01F02052A06D1AFE71F4A926802F00D
:101FD0001F02052AA9D0B3F1A04F09D0184A934295
:101FE00006D0184A926802F01F02092A06D19CE71F
:101FF000154A926802F01F02092A96D0B3F1A04F49
:1020000093D0124A934290D00D4A934202D00F4A85
:10201000D1688BE74FF0A042FAE70B4A926812F0C2
:102020001F0FA4D0B3F1A04F12D0054A93420FD096
:10203000044A926802F01F02062A0FD197E700BFF8
:102040000001005000070050000300500004005041
:10205000614A926802F01F02062A88D0B3F1A04FAD
:1020600009D05E4A934206D05D4A926802F01F0290
:10207000072A07D17BE7584A926802F01F02072A15
:102080003FF475AFB3F1A04F3FF471AF554A93429F
:102090003FF46DAF514A934202D0524AD26867E78B
:1020A0004FF0A042FAE7236C43F010032364636C03
:1020B00043F0010363642046FFF782FE2368602239
:1020C0001A6023681A6812F0800F03D05B6813F05F
:1020D000800F44D123681A6812F4807F03D05B68B4
:1020E00013F4807F46D123681A6812F4007F03D06E
:1020F0005B6813F4007F49D123681A6812F0100F4F
:1021000023D05A6812F0100F1FD0626B012A0ED034
:10211000B3F1A04F49D0314A934243D0304A91683D
:1021200011F01F0F43D1DB6813F0010F0AD0236CAD
:1021300043F480632364636C43F0020363642046CA
:10214000FFF777FB236810221A6023681A6812F4DD
:10215000806F03D05A6812F4806F2DD110BD236CAC
:1021600043F4803323642046FFF762FB2368802218
:102170001A60AFE7236C43F4003323642046FFF773
:1021800021FE23684FF480721A60ACE7236C43F49D
:10219000802323642046FFF716FE23684FF4007265
:1021A0001A60A9E702F50072B9E70B4AB7E793682E
:1021B00013F4404FC6D0BAE7226C42F48042226446
:1021C000626C42F0080262644FF480621A6020463A
:1021D000FFF7F7FDC2E700BF000300500001005009
:1021E000000700500004005030B496B00022019265
:1021F00090F83C20012A00F0C2810346012280F8B9
:102200003C200068826812F0040F40F0AD814A68FB
:10221000042A37D8046B02EB420252004FF01F0C25
:102220000CFA02FC24EA0C0C0C6804FA02F24CEAE8
:10223000020202631868826812F00C0F6ED10A68FD
:10224000092A52D9846902EB42021E3A4FF0070C68
:102250000CFA02FC24EA0C048D6805FA02F222430F
:10226000826148691C68E268C2F3C102520000FA48
:1022700002F208690138032800F29980DFE800F0D3
:102280004476818C092A10D8446B02EB420252003A
:102290001E3A4FF01F0C0CFA02FC24EA0C040D68E5
:1022A00005FA02F222434263C4E70E2A0ED8846B79
:1022B00002EB420252003C3A1F25954024EA0504F5
:1022C0000D6805FA02F222438263B3E7C46B02EBA6
:1022D000420252005A3A1F25954024EA05040D682F
:1022E00005FA02F22243C263A4E7446902EB420208
:1022F0004FF0070C0CFA02FC24EA0C048D6805FA76
:1023000002F222434261ACE7206E9E4D0540086810
:1023100042EA8062154345F00045256618688268E8
:1023200002F00302012A72D0CA68012A75D0D0F8DF
:10233000B02001240D68AC4022EA0402C0F8B020AD
:102340001A68B2F1A04F00F093808F48824200F0EB
:102350008D808E4C0968102900F08C80112900F0C6
:102360009D80122900F09F80002002E1606E854D63
:102370000540086842EA8062154345F000456566FD
:10238000CCE7A06E7F4D0540086842EA80621543A5
:1023900045F00045A566C1E7E56E7A4828400D681E
:1023A00042EA8562024342F00042E266B6E7226EEC
:1023B00002F0F8420868B2EB806F03D1226E22F07F
:1023C000004222661A68506E00F0F8400C68B0EBCC
:1023D000846F03D1506E20F0004050661A68906EF2
:1023E00000F0F8400C68B0EB846F03D1906E20F0E1
:1023F000004090661A68D06E00F0F8400C68B0EBB0
:10240000846F8BD1D06E20F00040D06686E70268E2
:1024100012F0010F88D00020ABE0D0F8B0200D689A
:102420000124AC402243C0F8B0200A68092A0ED922
:102430001D68A86902EB42021B3A0724944020EA77
:1024400004008C6804FA02F20243AA6178E71D686E
:102450006869013202EB42020724944020EA04003A
:102460008C6804FA02F202436A6169E7484C71E73A
:10247000474C6FE7A06810F4000F7FF46FAFB2F124
:10248000A04F16D0404882422AD0424882422BD0E8
:10249000414882422CD0002002900CE0A06810F04D
:1024A000807FECD05DE7A06810F4800FE7D00020BB
:1024B0005FE035480290906800F0030001281BD0CF
:1024C000029828B1856805F0030CBCF1010F1DD0FE
:1024D000102920D0112938D012293FD0002048E0FF
:1024E0004FF0A0400290E6E700F580700290E2E72E
:1024F000A0F580700290DEE7106810F0010FDFD0C9
:102500001A6C42F020021A64012032E0006810F0D8
:10251000010FF5D1DCE7B2F1A04FDBD1A26842F4A4
:102520000002A2601D4A12681D49A1FB0212920C12
:1025300002EB82025200019202E0019A013A0192FA
:10254000019A002AF9D1002013E0B2F1A04FC3D1C3
:10255000A26842F08072A26000200AE0A26842F401
:102560008002A260002004E01A6C42F020021A648B
:102570000120002283F83C2016B030BC70470220B6
:10258000FAE700BF00F0FF83000100500007005091
:102590000003005000040050000500500800002017
:1025A00083DE1B4310B504460E4B18784FF47A7344
:1025B000B3FBF0F30C4A1068B0FBF3F001F080F8C5
:1025C00068B90F2C01D901200AE0002221464FF002
:1025D000FF3001F01DF8054B1C60002000E00120D9
:1025E00010BD00BF000000200800002004000020F3
:1025F00008B5074A136843F010031360032000F086
:10260000F5FF0F20FFF7CEFFFEF734F9002008BDDD
:1026100000200240034A1168034B1B780B441360EF
:10262000704700BF3407002000000020014B1868ED
:10263000704700BF3407002038B50446FFF7F6FFA7
:102640000546B4F1FF3F02D0044B1B781C44FFF752
:10265000EDFF401BA042FAD338BD00BF00000020B0
:10266000002800F0018370B582B00446036813F0BF
:10267000010F3BD0B54B5B6803F00C03042B1ED05D
:10268000B24B5B6803F00C03082B13D06368B3F5FF
:10269000803F68D0002B40F0928003F1804303F527
:1026A00004331A6822F480321A601A6822F48022F5
:1026B0001A605DE0A54B5B6813F4803FE6D04FF4F1
:1026C000003393FAA3F3A14B19684FF4003393FA44
:1026D000A3F3B3FA83F303F01F03012202FA03F317
:1026E0000B4203D06368002B00F0C082236813F014
:1026F000020F00F0C580954B5B6813F00C0F00F0E3
:102700009C80924B5B6803F00C03082B00F08F80D9
:102710002369002B00F0F280012292FAA2F3B3FAAF
:1027200083F303F1845303F584139B001A60FFF7CE
:102730007DFF0546022393FAA3F3844B1968022315
:1027400093FAA3F3B3FA83F303F01F03012202FA0F
:1027500003F30B4240F0C380FFF768FF401B0228E1
:10276000E8D903208BE2794A136843F4803313607D
:10277000764AD36A23F00F03A1680B43D3626368E0
:10278000002B36D0FFF752FF05464FF4003393FA83
:10279000A3F36E4B19684FF4003393FAA3F3B3FA23
:1027A00083F303F01F03012202FA03F30B429DD1CE
:1027B000FFF73CFF401B6428E7D903205FE2B3F535
:1027C000A02F09D0614B1A6822F480321A601A686F
:1027D00022F480221A60CBE703F18043A3F53C3357
:1027E0001A6842F480221A601A6842F480321A6031
:1027F000BEE7FFF71BFF05464FF4003393FAA3F340
:10280000524B19684FF4003393FAA3F3B3FA83F3EE
:1028100003F01F03012202FA03F30B423FF466AFF9
:10282000FFF704FF401B6428E6D9032027E2474B4B
:102830005B6813F4803F7FF46BAF022393FAA3F33A
:10284000424B1968022393FAA3F3B3FA83F303F01C
:102850001F03012202FA03F30B4203D023699342C0
:1028600040F006823948036823F0F8036169F822D2
:1028700092FAA2F2B2FA82F201FA02F21343036070
:10288000236813F0080F00F08D80A369002B61D03E
:10289000012191FAA1F2B2FA82F22D4B13449B006E
:1028A0001960FFF7C3FE0546022393FAA3F293FAD9
:1028B000A3F293FAA3F2254A516A93FAA3F3B3FA67
:1028C00083F303F01F03012202FA03F30B4269D1E1
:1028D000FFF7ACFE401B0228E6D90320CFE11B48DE
:1028E000036823F0F8036169F82292FAA2F2B2FABF
:1028F00082F201FA02F213430360C1E7012393FA63
:10290000A3F3B3FA83F303F1845303F584139B0019
:1029100000221A60FFF78AFE0546022393FAA3F30A
:102920000A4B1968022393FAA3F3B3FA83F303F073
:102930001F03012202FA03F30B42A1D0FFF776FE38
:10294000401B0228E9D9032099E100BF0010024092
:1029500020819010012292FAA2F2B2FA82F2B74BD1
:1029600013449B0000221A60FFF760FE0546022315
:1029700093FAA3F293FAA3F293FAA3F2B04A516A3C
:1029800093FAA3F3B3FA83F303F01F03012202FACD
:1029900003F30B4206D0FFF749FE401B0228E6D99D
:1029A00003206CE1236813F0040F00F0A980A44B0E
:1029B000DB6913F0805F20D1A14BDA6942F08052CD
:1029C000DA61DB6903F080530193019B01259D4B84
:1029D0001B6813F4807F12D0E368012B23D073BBF4
:1029E00003F1804303F504331A6A22F001021A62EC
:1029F0001A6A22F004021A621AE00025E7E7914AF7
:102A0000136843F480731360FFF710FE06468D4B86
:102A10001B6813F4807FDFD1FFF708FE801B64285A
:102A2000F5D903202BE1864A136A43F001031362B0
:102A3000E368002B3CD0FFF7F9FD06462BE0052BA1
:102A400009D07F4B1A6A22F001021A621A6A22F038
:102A500004021A62ECE77A4B1A6A42F004021A6224
:102A60001A6A42F001021A62E2E7754B196A022300
:102A700093FAA3F3B3FA83F303F01F03012202FADC
:102A800003F319423BD1FFF7D1FD801B41F288339C
:102A9000984200F2EF80022393FAA3F293FAA3F391
:102AA000002BE2D1022393FAA3F3654B596ADEE7C8
:102AB000FFF7BCFD064615E0614B196A022393FA45
:102AC000A3F3B3FA83F303F01F03012202FA03F323
:102AD000194214D0FFF7AAFD801B41F288339842B7
:102AE00000F2CA80022393FAA3F293FAA3F3002B15
:102AF000E2D1022393FAA3F3514B596ADEE7B5BB47
:102B0000E369002B00F0BA804D4A526802F00C02D3
:102B1000082A00F09980022B2FD04FF0807393FA8F
:102B2000A3F3B3FA83F303F1845303F584139B00F7
:102B300000221A60FFF77AFD04464FF0007393FA03
:102B4000A3F33F4B19684FF0007393FAA3F3B3FA62
:102B500083F303F01F03012202FA03F319426BD03F
:102B6000FFF764FD001B0228E7D9032087E0344A01
:102B7000D36923F08053D361C2E74FF0807393FA97
:102B8000A3F3B3FA83F303F1845303F584139B0097
:102B900000221A60FFF74AFD05464FF0007393FAD2
:102BA000A3F3274B19684FF0007393FAA3F3B3FA1A
:102BB00083F303F01F03012202FA03F3194206D044
:102BC000FFF734FD401B0228E7D9032057E01C49DA
:102BD0004B6823F47413626A206A024313434B6008
:102BE0004FF0807393FAA3F3B3FA83F303F18453A2
:102BF00003F584139B0001221A60FFF717FD0446BA
:102C00004FF0007393FAA3F30D4B19684FF0007364
:102C100093FAA3F3B3FA83F303F01F03012202FA3A
:102C200003F3194206D1FFF701FD001B0228E7D983
:102C3000032024E0002022E0002020E020819010EA
:102C40000010024000700040012B1AD0104B5B684E
:102C500003F48031226A914215D103F47013626A41
:102C6000934212D100200AE001207047012006E0C3
:102C7000012004E0032002E0032000E0002002B075
:102C800070BD0120FBE70120F9E70120F7E700BF55
:102C900000100240164B5B6803F00C02082A01D0BA
:102CA0001448704703F470114FF4701292FAA2F2B4
:102CB000B2FA82F221FA02F20F49885C0C4AD26A17
:102CC00002F00F020F2191FAA1F1B1FA81F1CA408D
:102CD0000A498A5C13F4803F05D0064BB3FBF2F33C
:102CE00003FB00F07047064B03FB00F0704700BF8A
:102CF0000010024000127A00EC5D0008FC5D000844
:102D000000093D00002800F0BE8070B50D46044665
:102D1000614B1B6803F007038B420BD25E4A1368BA
:102D200023F007030B431360136803F007038B4280
:102D300040F0AB80236813F0020F06D0574A536867
:102D400023F0F003A1680B435360236813F0010FD5
:102D50005AD06368012B2DD0022B40D0022292FA68
:102D6000A2F24E4A1068022292FAA2F2B2FA82F25B
:102D700002F01F02012101FA02F2104200F08780E6
:102D800046494A6822F0030213434B60FFF74EFCAA
:102D90000646424B5B6803F00C036268B3EB820F9C
:102DA00032D0FFF743FC801B41F288339842F0D9C0
:102DB000032067E04FF4003292FAA2F2374A10681B
:102DC0004FF4003292FAA2F2B2FA82F202F01F023B
:102DD000012101FA02F20242D2D1012052E04FF069
:102DE000007292FAA2F22D4A10684FF0007292FA25
:102DF000A2F2B2FA82F202F01F02012101FA02F2FB
:102E00001042BDD101203DE0234B1B6803F00703B6
:102E1000AB420AD9204A136823F007032B431360FF
:102E2000136803F00703AB4233D1236813F0040F98
:102E300006D01A4A536823F4E063E1680B435360F9
:102E4000236813F0080F07D0144A536823F4605323
:102E5000216943EAC1035360FFF71CFF0F4B5B6816
:102E600003F0F003F02292FAA2F2B2FA82F2D34017
:102E70000B4AD35CD8400B4B18600B4B1868FFF71C
:102E800091FB002070BD012070470120FAE701206E
:102E9000F8E70120F6E700BF0020024000100240E2
:102EA0000C5E00080800002004000020014B186898
:102EB000704700BF0800002008B5FFF7F7FF074B79
:102EC0005B6803F4E0634FF4E06292FAA2F2B2FAB4
:102ED00082F2D340024AD35CD84008BD00100240C1
:102EE0001C5E000808B5FFF7E1FF074B5B6803F4C1
:102EF00060534FF4605292FAA2F2B2FA82F2D340D7
:102F0000024AD35CD84008BD001002401C5E000895
:102F1000F0B583B00446036813F4803F48D0914B6A
:102F2000DB6913F0805F40F0D4808E4BDA6942F0A9
:102F30008052DA61DB6903F080530193019B012524
:102F4000894B1B6813F4807F00F0C580854B1B6A9A
:102F500013F4407322D0626802F440729A421DD08A
:102F60008048016A21F440764FF4803393FAA3F24B
:102F7000B2FA82F27D4F3A4492004FF0010CC2F84F
:102F800000C093FAA3F3B3FA83F33B449B000022FF
:102F90001A60066211F0010F40F0B280714A136AA4
:102FA00023F4407361680B431362002D40F0CF801F
:102FB000236813F0010F06D06A4A136B23F0030352
:102FC000A1680B431363236813F0020F06D0654A10
:102FD000136B23F44033E1680B431363236813F04E
:102FE000040F06D05F4A136B23F4402321690B437F
:102FF0001363236813F0200F06D05A4A136B23F093
:103000001003E1690B431363236813F4003F06D0F8
:10301000544A536823F48003A16B0B435360236825
:1030200013F0400F06D04F4A136B23F02003216AA0
:103030000B431363236813F0080F06D0494A136B40
:1030400023F4401361690B431363236813F0100FDB
:1030500006D0444A136B23F44003A1690B43136366
:10306000236813F4007F06D03E4A536823F400031C
:10307000E16A0B435360236813F0800F06D0394A8E
:10308000D36A23F4F873616A0B43D362236813F4A1
:10309000807F06D0334AD36A23F47853A16A0B4366
:1030A000D362236813F4805F06D02E4A136B23F497
:1030B0008073216B0B431363236813F4005F4DD0BF
:1030C000284A136B23F40073616B0B4313630020D6
:1030D00045E0002534E7244A136843F48073136005
:1030E000FFF7A4FA0646204B1B6813F4807F7FF499
:1030F0002DAFFFF79BFA801B6428F4D903202EE044
:10310000FFF794FA064615E0164B196A022393FA64
:10311000A3F3B3FA83F303F01F03012202FA03F3CC
:103120000B427FF43BAFFFF781FA801B41F28833FB
:10313000984211D8022393FAA3F293FAA3F3002B37
:10314000E2D1022393FAA3F3064B596ADEE7D3696F
:1031500023F08053D3612BE7032000E0002003B06D
:10316000F0BD00BF001002400070004000819010D0
:10317000F0B583B0002362E085685E000324B440AC
:1031800025EA0405CC68B4402C438460446824EAF2
:103190000C0C4C68C4F300149C4044EA0C044460DA
:1031A0005EE0DD08083550F8256003F007044FEABB
:1031B000840C0F2404FA0CF426EA040E0C6904FAB9
:1031C0000CF444EA0E0440F8254060E0042400E0DA
:1031D000002404FA0EF42C430CF1020C524D45F875
:1031E0002C40524C2568D44325EA02064F6817F458
:1031F000803F01D042EA05064C4D2E606D6804EA1E
:1032000005064F6817F4003F01D042EA0506474D16
:103210006E60AD6804EA05064F6817F4801F01D0A0
:1032200042EA0506414DAE60ED682C404E6816F44A
:10323000001F01D042EA05043C4AD46001330A6809
:1032400032FA03F46ED04FF0010C0CFA03FC1CEAC6
:103250000202F3D04C6804F00304013C012C8BD92A
:103260004C6804F00304032C0CD0C4685D004FF0DC
:10327000030C0CFA05FC24EA0C0C8C68AC4044EA04
:103280000C04C4604C6804F00304022C89D0046868
:103290004FEA430E4FF0030C0CFA0EFC24EA0C0C20
:1032A0004C6804F0030404FA0EF444EA0C040460CD
:1032B0004C6814F4403FC1D01D4CA56945F0010590
:1032C000A561A46904F001040194019C4FEA930CE8
:1032D0000CF10205144C54F8255003F003044FEA96
:1032E000840E0F2404FA0EF425EA0405B0F1904F81
:1032F0003FF46EAF0F4CA0420ED004F58064A042A4
:103300000CD004F58064A0420AD004F58064A04289
:103310003FF45CAF05245CE701245AE7022458E738
:10332000032456E703B0F0BD000001400004014053
:1033300000100240000400480369194201D0012036
:103340007047002070470AB1816170478162704701
:1033500008B5054B5B69034200D108BD024B5861BB
:10336000FDF746FEF9E700BF0004014030B4012438
:10337000056CAC40C56B6C60046863604368102BDF
:1033800005D0036899600368DA6030BC7047036851
:103390009A600368D960F8E702680C4B9A420AD831
:1033A0000B4B13440B4AA2FB03231B099B00036432
:1033B000094BC3637047094B1344064AA2FB03231E
:1033C0001B099B000364064BC3637047070402405C
:1033D000F8FFFDBFCDCCCCCC00000240F8FBFDBF18
:1033E0000004024020B310B50446022380F82130C7
:1033F00001680A6822F47F5222F030024368806834
:103400000343E06803432069034360690343A06901
:103410000343E069034313430B602046FFF7BCFFFF
:103420000020A063012384F8213084F8200010BD1F
:103430000120704738B5044690F82000012831D0AB
:10344000012084F8200094F82100012804D00023F2
:1034500084F82030022038BD022084F821000020AA
:10346000A0632568286820F0010028602046FFF747
:103470007DFFE36A5BB12268136843F00E031360BB
:103480002268136843F0010313600020E3E7226819
:10349000136843F00A0313602268136823F00403DF
:1034A0001360EDE70220D6E790F82130022B06D01A
:1034B00004238363002380F82030012070470268D2
:1034C000136823F00E0313600268136823F00103EE
:1034D0001360036CC16B012202FA03F34B6080F8A6
:1034E0002120002380F820301846704708B590F856
:1034F0002130022B03D004238363012008BD02681E
:10350000136823F00E0313600268136823F00103AD
:103510001360036CC16B012202FA03F34B6080F865
:103520002120002380F82030436B13B198470020FE
:10353000E4E70020E2E738B5C36B1A680468256841
:10354000016C04238B40134213D015F0040F10D0EC
:10355000236813F0200F03D1236823F004032360B2
:10356000016CC26B04238B405360C36A03B198475C
:1035700038BD02238B4013421AD015F0020F17D02A
:10358000236813F0200F06D1236823F00A03236079
:10359000012380F82130016CC26B02238B40536001
:1035A000002380F82030836A002BE1D09847DFE7C2
:1035B000082303FA01F11142DAD015F0080FD7D031
:1035C000236823F00E032360026CC16B012303FA0E
:1035D00002F24A60836380F82130002380F82030B3
:1035E000036B002BC4D09847C2E70000074AD3689A
:1035F00023F4E0631B041B0C000200F4E0600343AF
:1036000043F0BF6343F40033D360704700ED00E044
:1036100000B5194BDB68C3F30223C3F1070CBCF1FF
:10362000040F28BF4FF0040C03F1040EBEF1060F87
:1036300018D9033B4FF0FF3E0EFA0CFC21EA0C01B7
:1036400099400EFA03F322EA0303194300280BDB27
:103650000901C9B200F1604000F5614080F8001333
:103660005DF804FB0023E5E700F00F000901C9B293
:10367000024B1954F4E700BF00ED00E014ED00E048
:10368000002807DB00F01F02400901239340024A93
:1036900042F82030704700BF00E100E0BFF34F8FD9
:1036A0000549CA6802F4E062044B1343CB60BFF3E0
:1036B0004F8F00BFFDE700BF00ED00E00400FA05FA
:1036C0000138B0F1807F0BD24FF0E0235861054AFA
:1036D000F02182F823100020986107221A617047B8
:1036E0000120704700ED00E0044B0022DA61044A3B
:1036F000136943F00103136101807047380700200C
:10370000002002400C4BDB6813F0100305D00B4A7D
:10371000D36943F00203D3611023074AD26812F041
:10372000040F06D00549CA6942F00102CA6143F09C
:103730000403014AD360704700200240380700208C
:103740000A4B1B6913F0800F0BD0084B084A5A60D4
:1037500002F188325A601B6913F0800F03D10020F8
:103760007047002070470120704700BF00200240D2
:1037700023016745034A136943F080031361002066
:10378000704700BF0020024038B50446FEF74EFFE8
:103790000546144BDB6813F0010F0AD0B4F1FF3F6C
:1037A000F7D024B1FEF742FF401BA042F1D903201D
:1037B00012E00C4BDB6813F0200F02D0094B2022E3
:1037C000DA60084BDB6813F0100F06D1054BDB689D
:1037D00013F0040F01D1002038BDFFF793FF012043
:1037E000FAE700BF002002402DE9F8431E46244BB3
:1037F0001B7E012B41D004460F469046204B0122F0
:103800001A764CF25030FFF7BFFF034678BB012C0D
:1038100008D0022C03D04FF004091C4607E04FF0FB
:103820000209FAE74FF00109F7E70134E4B24C4529
:103830001DD22101C1F12002A1F1200328FA01F1DA
:1038400006FA02F2114326FA03F3194389B207EB91
:103850004400FFF749FF4CF25030FFF795FF094B4A
:103860001D6925F001051D6103460028DDD0044ACD
:10387000002111761846BDE8F8830223FAE700BF5D
:10388000380700200020024000286FD010B5044601
:10389000436A33B94368B3F5827F05D00023C3611F
:1038A00002E00023036143610023A36294F85D30CA
:1038B000002B52D0022384F85D302268136823F075
:1038C00040031360E368B3F5E06F4CD90022B3F511
:1038D000706F04D0B3F5E06F01D00023A36263687A
:1038E00003F48273A16801F404410B43216901F0E0
:1038F00002010B43616901F001010B43A16901F46D
:1039000000710B43E16901F038010B43216A01F0BA
:1039100080010B43A16A01F4005120680B4303604E
:10392000638B03F00403616A01F010010B43616BC8
:1039300001F008010B43E16801F470610B43216859
:1039400013434B602268D36923F40063D3610020E2
:103950002066012384F85D3010BD84F85C30204679
:10396000FDF70CF8A6E74FF48052B0E7012070474E
:1039700030B4036A23F001030362036A4568826975
:1039800022F4803222F073020C68224323F00203F7
:103990008C6823431D4CA0420FD004F50064A04264
:1039A0000BD004F54064A04207D004F58064A04227
:1039B00003D004F58064A04205D123F00803CC684D
:1039C000234323F00403114CA0420FD004F50064FC
:1039D000A0420BD004F54064A04207D004F58064F7
:1039E000A04203D004F58064A04207D125F4407CB6
:1039F0004C6944EA0C0C8D6945EA0C05456082610E
:103A00004A684263036230BC704700BF002C01402B
:103A100030B4036A23F480730362036A4468C269A2
:103A200022F4803222F073020D682A4323F40073DB
:103A30008D6843EA0523184DA84203D005F50065BB
:103A4000A84206D123F40063CD6843EA052323F49A
:103A50008063114DA8420FD005F50065A8420BD038
:103A600005F54065A84207D005F58065A84203D05A
:103A700005F58065A84207D124F4405C4C694CEA06
:103A8000041C8C694CEA04144460C2614A68C26335
:103A9000036230BC704700BF002C014030B4036AA1
:103AA00023F480530362036A4468C26922F080727F
:103AB00022F4E6420D6842EA052223F400538D68A1
:103AC00043EA05330F4DA8420FD005F50065A84223
:103AD0000BD005F54065A84207D005F58065A842E2
:103AE00003D005F58065A84204D124F480444D69D3
:103AF00044EA85144460C2614A680264036230BCCF
:103B0000704700BF002C014030B4036A23F48033B7
:103B10000362036A4468426D22F4803222F070022C
:103B20000D682A4323F400338D6843EA05430F4DA3
:103B3000A8420FD005F50065A8420BD005F54065F9
:103B4000A84207D005F58065A84203D005F5806539
:103B5000A84204D124F480344D6944EA0524446029
:103B600042654A688265036230BC7047002C0140A0
:103B700030B4036A23F480130362036A4468426D1D
:103B800022F0807222F4E0420D6842EA052223F41A
:103B900000138D6843EA05530F4DA8420FD005F579
:103BA0000065A8420BD005F54065A84207D005F591
:103BB0008065A84203D005F58065A84204D124F4AD
:103BC00080244D6944EA8524446042654A68C265A0
:103BD000036230BC704700BF002C014090F83D30BC
:103BE000DBB2012B32D1022380F83D300268D3686A
:103BF00043F00103D3600368174A934218D0B3F12E
:103C0000804F15D0A2F59432934211D002F5806214
:103C100093420DD002F59632934209D002F54062EC
:103C2000934205D01A6842F001021A6000207047E2
:103C300099680A4A0A40062A0AD0B2F5803F09D09C
:103C40001A6842F001021A60002070470120704794
:103C50000020704700207047002C01400700010041
:103C6000704770477047704710B5044603681A697B
:103C700012F0020F11D0DA6812F0020F0DD06FF0BF
:103C800002021A610123037703689B6913F0030F93
:103C900079D0FFF7E6FF0023237723681A6912F033
:103CA000040F12D0DA6812F0040F0ED06FF0040285
:103CB0001A610223237723689B6913F4407F68D03D
:103CC0002046FFF7CEFF0023237723681A6912F0FE
:103CD000080F12D0DA6812F0080F0ED06FF0080249
:103CE0001A61042323772368DB6913F0030F57D08D
:103CF0002046FFF7B6FF0023237723681A6912F0E6
:103D0000100F12D0DA6812F0100F0ED06FF0100200
:103D10001A61082323772368DB6913F4407F46D0B8
:103D20002046FFF79EFF0023237723681A6912F0CD
:103D3000010F03D0DA6812F0010F3FD123681A692E
:103D400012F0800F03D0DA6812F0800F3DD12368A3
:103D50001A6912F4807F03D0DA6812F0800F3BD129
:103D600023681A6912F0400F03D0DA6812F0400F8E
:103D700039D123681A6912F0200F03D0DA6812F0E3
:103D8000200F37D110BDFFF76BFF2046FFF76AFF0A
:103D900081E72046FFF764FF2046FFF763FF92E7C5
:103DA0002046FFF75DFF2046FFF75CFFA3E72046B4
:103DB000FFF756FF2046FFF755FFB4E76FF001020B
:103DC0001A612046FDF70EFCB8E76FF080021A6119
:103DD000204600F0BAFABAE76FF480721A61204602
:103DE00000F0B4FABCE76FF040021A612046FFF71A
:103DF0003AFFBEE76FF020021A61204600F0A4FAF5
:103E0000C0E7000003682C4A90420ED0B0F1804F0A
:103E10000BD0A2F59432904207D002F58062904216
:103E200003D002F59632904203D123F070034A6822
:103E30001343214A90421AD0B0F1804F17D0A2F517
:103E40009432904213D002F5806290420FD002F576
:103E5000963290420BD002F54062904207D002F5B4
:103E60008062904203D002F58062904203D123F435
:103E70004073CA68134323F080034A691343036005
:103E80008B68C3620B6883620B4B98420FD003F5BB
:103E9000006398420BD003F54063984207D003F5C6
:103EA0008063984203D003F58063984201D10B6987
:103EB0000363012343617047002C014060B310B5D8
:103EC000044690F83D3013B3022384F83D30214678
:103ED00051F8040BFFF796FF012384F8483084F86B
:103EE0003E3084F83F3084F8403084F8413084F824
:103EF000423084F8433084F8443084F8453084F804
:103F0000463084F8473084F83D30002010BD80F8FA
:103F10003C30FCF77FFDD7E70120704760B310B558
:103F2000044690F83D3013B3022384F83D30214617
:103F300051F8040BFFF766FF012384F8483084F83A
:103F40003E3084F83F3084F8403084F8413084F8C3
:103F5000423084F8433084F8443084F8453084F8A3
:103F6000463084F8473084F83D30002010BD80F89A
:103F70003C30FCF739FDD7E70120704730B4036AC5
:103F800023F010030362036A4468826922F080729E
:103F900022F4E6420D6842EA052223F020038D68F0
:103FA00043EA0513174DA84203D005F50065A84262
:103FB00006D123F08003CD6843EA051323F04003C4
:103FC000104DA8420FD005F50065A8420BD005F5AD
:103FD0004065A84207D005F58065A84203D005F5E5
:103FE0008065A84207D124F4406C4C694CEA840CEB
:103FF0008C694CEA8404446082614A68826303628B
:1040000030BC7047002C014038B590F83C30012B93
:1040100000F0958004460D46012380F83C30142AB8
:1040200000F28880DFE802F00B8686861F8686868F
:1040300034868686488686865D8686867100006818
:10404000FFF796FC2268936943F0080393612268A6
:10405000936923F0040393612268936929690B43F0
:104060009361002067E00068FFF788FF226893698A
:1040700043F4006393612268936923F4806393613E
:1040800022689369296943EA01239361002052E081
:104090000068FFF7BDFC2268D36943F00803D361D1
:1040A0002268D36923F00403D3612268D3692969A4
:1040B0000B43D36100203EE00068FFF7EFFC22686D
:1040C000D36943F40063D3612268D36923F4806326
:1040D000D3612268D369296943EA0123D3610020AF
:1040E00029E00068FFF710FD2268536D43F00803D4
:1040F00053652268536D23F0040353652268536DA2
:1041000029690B435365002015E00068FFF730FD77
:104110002268536D43F4006353652268536D23F4A2
:10412000806353652268536D296943EA012353650F
:10413000002000E00120002384F83C3038BD02203C
:10414000FCE701F01F01012303FA01FC036A23EAE3
:104150000C030362036A02FA01F10B430362704726
:1041600010B504460846002947D194F83E30DBB22A
:10417000013B18BF0123002B40F09480002867D139
:10418000022384F83E30012201462068FFF7D9FF60
:104190002368474A93420FD002F5006293420BD046
:1041A00002F54062934207D002F58062934203D049
:1041B00002F58062934203D15A6C42F400425A6481
:1041C00023683B4A93425FD0B3F1804F5CD0A2F5A5
:1041D0009432934258D002F58062934254D002F553
:1041E0009632934250D002F5406293424CD01A6806
:1041F00042F001021A60002055E004290CD0082981
:1042000011D00C2916D010291BD094F84330DBB202
:10421000013B18BF0123AEE794F83F30DBB2013B0E
:1042200018BF0123A7E794F84030DBB2013B18BF69
:104230000123A0E794F84130DBB2013B18BF012312
:1042400099E794F84230DBB2013B18BF012392E7B3
:10425000042809D008280BD00C280DD010280FD026
:10426000022384F843308EE7022384F83F308AE744
:10427000022384F8403086E7022384F8413082E745
:10428000022384F842307EE799680A4A0A40062AE7
:104290000AD0B2F5803F09D01A6842F001021A60D4
:1042A000002000E0012010BD0020FCE70020FAE71C
:1042B000002C01400700010090F83C30012B3ED05B
:1042C00030B4012380F83C30022380F83D3002688E
:1042D000536894681B4DAA4203D005F50065AA42B5
:1042E00003D123F470034D682B4323F070030D6852
:1042F0002B4353600368134A934212D0B3F1804FAB
:104300000FD0A2F5943293420BD002F58062934213
:1043100007D002F59632934203D002F540629342F1
:1043200004D124F080048A6814439C60012380F83F
:104330003D30002380F83C30184630BC70470220E6
:10434000704700BF002C01407047704770470268FB
:1043500052E8003F23F0C00342E800310029F6D1C3
:10436000202383677047026852E8003F23F490736C
:1043700042E800310029F6D1026802F1080353E84F
:10438000003F23F00103083242E800310029F3D155
:10439000036E012B05D02023C36700230366436609
:1043A0007047026852E8003F23F0100342E80031F2
:1043B0000029F6D1EFE7704708B5026852E8003FE0
:1043C00023F0400342E800310029F6D1202383671F
:1043D00000238366FFF7EFFF08BD7047704738B5CD
:1043E000446AA26FE56F23689B6813F0800F01D0C9
:1043F000212A10D023689B6813F0400F01D0222D92
:1044000010D0D4F8803043F01003C4F88030204638
:10441000FFF7E4FF38BD0023A4F852302046FFF731
:1044200096FFE7E70023A4F85A302046FFF79BFFEA
:10443000E7E708B5406A0023A0F85A30A0F85230E8
:10444000FFF7CCFF08BD704770B504460168CB6923
:1044500008688D6840F60F021A4005D113F0200F4E
:1044600002D010F0200F20D12AB115F0010222D184
:10447000AB4E30421FD1226E012A00F0AB8013F404
:10448000801F03D015F4800F40F0378113F0800FA8
:1044900003D010F0800F40F0378113F0400F03D0AD
:1044A00010F0400F40F0378170BD636E002BFBD0E1
:1044B00020469847F8E713F0010F09D010F4807FE9
:1044C00006D001250D62D4F880102943C4F880106D
:1044D00013F0020F09D042B1216802250D62D4F811
:1044E000801041F00401C4F8801013F0040F09D0CB
:1044F00042B1216804250D62D4F8801041F0020118
:10450000C4F8801013F0080F0BD010F0200F00D16A
:104510003AB1226808211162D4F880200A43C4F815
:10452000802013F4006F0CD010F0806F09D0226847
:104530004FF400611162D4F8802042F02002C4F8E8
:104540008020D4F88020002AAED013F0200F06D0AF
:1045500010F0200F03D0636E0BB120469847D4F8BB
:10456000802023689B6813F0400F02D112F0280FBF
:1045700029D02046FFF7F7FE23689B6813F0400F11
:104580001DD0226802F1080353E8003F23F04003E6
:10459000083242E800310029F3D1236F5BB1614A50
:1045A0005A63206FFEF7A2FF00283FF47DAF206F13
:1045B000436B984778E72046FFF710FF74E72046E3
:1045C000FFF70CFF70E72046FFF708FF0023C4F851
:1045D000803069E713F0100F3FF451AF10F0100F67
:1045E0003FF44DAF10230B6223689B6813F0400F1C
:1045F0004CD0226F13685B689BB2002B3FF454AF22
:10460000B4F8581099427FF64FAFA4F85A30936926
:10461000202B30D0226852E8003F23F4807342E818
:1046200000310029F6D1226802F1080353E8003F67
:1046300023F00103083242E800310029F3D1226857
:1046400002F1080353E8003F23F04003083242E838
:1046500000310029F3D12023E36700232366226879
:1046600052E8003F23F0100342E800310029F6D160
:10467000206FFEF719FFB4F85810B4F85A309BB207
:10468000C91A89B22046FFF7DEFE0DE7B4F85810CC
:10469000B4F85A309BB2C91A89B2B4F85A309BB2F6
:1046A000002B3FF401AF00293FF4FEAE226852E830
:1046B000003F23F4907342E800300028F6D12268CE
:1046C00002F1080353E8003F23F00103083242E8F7
:1046D00000300028F3D12023E367002323666366BC
:1046E000226852E8003F23F0100342E8003000281F
:1046F000F6D12046FFF7A7FED6E64FF480130B62F3
:10470000204600F0ADFBCFE6A36E002B3FF4CCAE0D
:1047100020469847C8E62046FFF74EFEC4E600BF95
:10472000200100043344000808B5406A036E012BE1
:1047300002D0FFF752FE08BDB0F858104908FFF745
:1047400082FEF8E708B50346406A9B69202B28D013
:104750000023A0F85A30026852E8003F23F4807327
:1047600042E800310029F6D1026802F1080353E85B
:10477000003F23F00103083242E800310029F3D161
:10478000026802F1080353E8003F23F040030832B7
:1047900042E800310029F3D12023C367036E012BC7
:1047A00005D0036E012B0CD0FCF732FF08BD026868
:1047B00052E8003F23F0100342E800310029F6D10F
:1047C000EFE7B0F85810FFF73EFEEFE710B50446EC
:1047D00083680269134342691343C2691A4301683B
:1047E0000B6823F4164323F00C0313430B60026899
:1047F000536823F44053C1680B4353608269036AD2
:104800001A4301688B6823F4306313438B60036899
:104810007B4A93420DD07B4A93421CD07A4A934202
:104820003AD07A4A93424AD0794A93425AD01023D6
:104830001FE0784B1B6B03F00303032B09D8DFE861
:1048400003F002040664012313E0042311E00823AB
:104850000FE010230DE06F4B1B6B03F44033B3F5F7
:10486000003F54D013D8002B53D0B3F5803F52D122
:104870000423E069B0F5004F69D0082B00F2B9803D
:10488000DFE803F092A890B7ABB7B7B7AE00B3F5C7
:10489000403F42D10223ECE75E4B1B6B03F4402305
:1048A000B3F5002F3BD005D8DBB3B3F5802F3AD159
:1048B0000423DEE7B3F5402F37D10223D9E7554B68
:1048C0001B6B03F44013B3F5001F30D005D883B33E
:1048D000B3F5801F2FD10423CBE7B3F5401F2CD1B4
:1048E0000223C6E74B4B1B6B03F44003B3F5000FE9
:1048F00025D005D82BB3B3F5800F24D10423B8E716
:10490000B3F5400F21D10223B3E70223B1E7082317
:10491000AFE70023ADE71023ABE71023A9E7082397
:10492000A7E70023A5E71023A3E71023A1E70823A7
:104930009FE700239DE710239BE7102399E70823B7
:1049400097E7002395E7102393E7102391E7082BBF
:1049500049D8DFE803F0051F2548224848480900E8
:10496000FEF7AAFA002840D06268530803EB400023
:10497000B0FBF2F080B2A0F110024FF6EF739A4252
:1049800035D820F00F03C0F3420018432368D860E5
:1049900000201BE0FEF7A6FAE4E7FEF77BF9E1E76B
:1049A0001D48E1E71C4802E0FEF786FA18B3636889
:1049B00000EB5300B0FBF3F080B2A0F110024FF611
:1049C000EF739A4219D82368D860002000236366E9
:1049D000A36610BDFEF786FAE8E7FEF75BF9E5E7A8
:1049E0004FF40040E3E70120F0E70020EEE701206C
:1049F000ECE70120EAE70020E8E70120E6E700BF56
:104A0000003801400044004000480040004C004095
:104A1000005000400010024000127A00436A13F078
:104A2000010F06D00268536823F40033816A0B43F8
:104A30005360436A13F0020F06D00268536823F4F0
:104A40008033C16A0B435360436A13F0040F06D0EE
:104A50000268536823F48023016B0B435360436A5D
:104A600013F0080F06D00268536823F40043416B2B
:104A70000B435360436A13F0100F06D0026893682B
:104A800023F48053816B0B439360436A13F0200F30
:104A900006D00268936823F40053C16B0B43936004
:104AA000436A13F0400F0AD00268536823F480135E
:104AB000016C0B435360036CB3F5801F0BD0436A4A
:104AC00013F0800F06D00268536823F40023816C32
:104AD0000B43536070470268536823F4C003416C72
:104AE0000B435360EBE72DE9F84305460F461646A6
:104AF0009946DDF820802C68E46937EA04030CBF8E
:104B00004FF0010C4FF0000CB44553D1B8F1FF3F0A
:104B1000F1D0FDF78BFDA0EB090040452DD8B8F191
:104B2000000F2AD02B681A6812F0040FE3D0DA695C
:104B300012F4006FDFD04FF400621A622A6852E864
:104B4000003F23F4D07342E800310029F6D12A68EF
:104B500002F1080353E8003F23F00103083242E862
:104B600000310029F3D12023AB67EB67C5F8803013
:104B7000002385F8743003201DE02A6852E8003FC6
:104B800023F4D07342E800310029F6D12A6802F1FB
:104B9000080353E8003F23F00103083242E80031E4
:104BA0000029F3D12023AB67EB67002385F874302D
:104BB000032000E00020BDE8F8832DE9F04182B039
:104BC0001E46836F202B56D104460D469046002981
:104BD00055D0002A55D090F87430012B53D00123C2
:104BE00080F874300023C0F8803021238367FDF7FC
:104BF0001DFD0746A4F85080A4F85280A368B3F5C1
:104C0000805F05D04FF00008002384F8743014E072
:104C1000236913B14FF00008F6E7A8460025F3E733
:104C200038F8023B2268C3F308031385B4F8522016
:104C300092B2013A92B2A4F85220B4F852309BB228
:104C400073B100963B46002280212046FFF74BFFC0
:104C5000D8B9002DE4D0236815F8012B1A85E5E7B3
:104C600000963B46002240212046FFF73CFF70B9EA
:104C70002023A36700E0022002B0BDE8F0810120FC
:104C8000FAE70120F8E70220F6E70320F4E7032023
:104C9000F2E730B583B004460023C0F88030FDF75A
:104CA000C5FC05462268126812F0080F0DD1236872
:104CB0001B6813F0040F16D12023A367E3670020BD
:104CC000206684F8740003B030BD6FF07E4300931B
:104CD000034600224FF400112046FFF704FF00288E
:104CE000E5D00320EFE76FF07E4300932B460022D0
:104CF0004FF480012046FFF7F6FE0028DCD00320A9
:104D0000E1E768B310B50446836F03B32423A367B8
:104D10002268136823F0010313602046FFF756FD55
:104D2000012813D0636ABBB92268536823F4904307
:104D300053602268936823F02A0393602268136803
:104D400043F0010313602046FFF7A3FF10BD80F876
:104D50007430FBF7BFFED9E72046FFF75FFEE3E7BD
:104D60000120704710B5044613464165A0F858204D
:104D70000022C0F880202222C267026F8AB1214936
:104D80009162026F2049D162026F20491163026F64
:104D9000002151630168426D2431006FFEF74AFB28
:104DA00028BB002384F87430226852E8003F43F4A3
:104DB000807342E800310029F6D1226802F108032D
:104DC00053E8003F43F00103083242E80031002974
:104DD000F3D1226802F1080353E8003F43F0400397
:104DE000083242E800310029F3D1002010BD102321
:104DF000C4F88030002384F874302023E367012056
:104E0000F4E700BF4547000829470008DF430008D2
:104E100038B5C36F202B1BD1E1B1EAB190F87430E3
:104E2000012B1BD0012380F8743000230366036834
:104E30005B6813F4000F08D0046854E8003F43F0A7
:104E4000806344E80035002DF6D1FFF78BFF00E0CA
:104E5000022038BD0120FCE70120FAE70220F8E734
:104E6000704738B504460268D36823F0A003D360C6
:104E7000FDF7DCFB05462368DB6813F0200F07D144
:104E8000FDF7D4FB401BB0F57A7FF4D9032000E096
:104E9000002038BD38B50368DA6812F0400F01D041
:104EA000002038BD04464FF0FF32DA60FDF7BEFB4C
:104EB00005462368DB6813F0400F07D1FDF7B6FB0A
:104EC000431BB3F57A7FF4D90320EAE70020E8E733
:104ED00038B500285CD00446437F002B41D0022324
:104EE00063772368CA225A62236853225A62204693
:104EF000FFF7D0FF0546002837D12268936823F4D6
:104F0000E00323F04003936021688A6863682069A6
:104F100003436069034313438B602368E2681A61AB
:104F200022681369A16843EA014313612268D368C8
:104F300023F08003D36023689B6813F0200F1BD0FD
:104F40002268136C23F4802313642268136CA16914
:104F50000B4313642368FF225A62012363772846B8
:104F600038BD0377FBF7F4FCB9E72368FF225A62E8
:104F7000042363770125F2E72046FFF772FF00283C
:104F8000DED02368FF225A62042363770125E6E717
:104F90000125E4E7002302E001330A38C0B2092802
:104FA000FAD81B01DBB218437047F8B5037F012B19
:104FB00078D004460E460123037702234377002A64
:104FC00047D103689B6813F0400F01D10023CB70D9
:104FD0003078FFF7DFFF05047078FFF7DBFF45EA65
:104FE0000025B078FFF7D6FF0543F07845EA004585
:104FF0002368CA225A62236853225A622046FFF766
:1050000049FF0746002836D1236805F07F3525F093
:10501000FE451D602268936823F480239360216815
:105020008B68F2683069024313438B602268D3684F
:1050300023F08003D36023689B6813F0200F23D0F4
:105040002368FF225A6201236377002323773846BF
:10505000F8BD03689B6813F0400F01D10023CB70AB
:1050600035787078000240EA0540B5782843F57835
:1050700040EA0545BCE72368FF225A6204236377B0
:10508000002323770127E2E72046FFF7EAFE002806
:10509000D6D02368FF225A62042363770023237744
:1050A0000127D4E70227D2E770B5037F012B66D032
:1050B00004460E4601230377022343773AB94B781F
:1050C00013F0100F03D003F0EF030A334B70002AE4
:1050D00033D1F078FFF75EFF05047078FFF75AFFD1
:1050E00045EA0025B078FFF755FF0543307845EADB
:1050F00040352368CA225A62236853225A622046E6
:10510000FFF7C8FE064618BB236825F07F4525F04B
:10511000C0055D602268D36823F08003D3602368F4
:105120009B6813F0200F1CD02368FF225A620123D2
:10513000637700232377304670BDF57870780002DE
:1051400040EA0540B5782843357840EA4535D0E750
:105150002368FF225A620423637700232377012602
:10516000E9E72046FFF77DFE0028DDD02368FF2217
:105170005A6204236377002323770126DBE70226A4
:10518000D9E7030903EB830300F00F0000EB4300B2
:10519000C0B2704770B50C4603689B6A4B600368E9
:1051A0001B69C3F30E038B6003681D68C5F30641DA
:1051B000C5F305402070C5F30626667005F07F052F
:1051C000A57001F04003E37052B9FFF7DAFF2070D9
:1051D0003046FFF7D6FF60702846FFF7D2FFA07079
:1051E000002070BD70B503685B68C3F30740C870EA
:1051F000C3F304264E7003F03F058D70C3F34233B2
:105200000B705AB90C46FFF7BCFFE0703046FFF751
:10521000B8FF60702846FFF7B4FFA070002070BD93
:10522000034AD2F8883043F47003C2F888307047DC
:1052300000ED00E008B50C4B0C4A03E052F8041BEB
:1052400043F8041B0A498B42F8D30A4B02E00022C0
:1052500043F8042B084A9342F9D3FFF7E1FF00F02B
:10526000B1F8FBF763FAFEE700000020C05E00081B
:1052700070000020700000206C070020FEE708B5D9
:10528000FFF7FCFF08B5FFF7F9FF08B5FFF7F6FFDA
:1052900008B5FFF7F3FF08B5FFF7F0FF08B5FFF714
:1052A000EDFF08B5FFF7EAFF08B5FFF7E7FF08B520
:1052B000FFF7E4FF08B5FFF7E1FF08B5FFF7DEFFF2
:1052C00008B5FFF7DBFF08B5FFF7D8FF08B5FFF714
:1052D000D5FF08B5FFF7D2FF08B5FFF7CFFF08B538
:1052E000FFF7CCFF08B5FFF7C9FF08B5FFF7C6FF0A
:1052F00008B5FFF7C3FF08B5FFF7C0FF08B5FFF714
:10530000BDFF08B5FFF7BAFF08B5FFF7B7FF08B54F
:10531000FFF7B4FF08B5FFF7B1FF08B5FFF7AEFF21
:1053200008B5FFF7ABFF08B5FFF7A8FF08B5FFF713
:10533000A5FF08B5FFF7A2FF08B5FFF79FFF08B567
:10534000FFF79CFF08B5FFF799FF08B5FFF796FF39
:1053500008B5FFF793FF08B5FFF790FF08B5FFF713
:105360008DFF08B5FFF78AFF08B5FFF787FF08B57F
:10537000FFF784FF08B5FFF781FF08B5FFF77EFF51
:1053800008B5FFF77BFF08B5FFF778FF08B5FFF713
:1053900075FF08B5FFF772FF08B5FFF76FFF08B597
:1053A000FFF76CFF08B5FFF769FF08B5FFF766FF69
:1053B00008B5FFF763FF08B5FFF760FF08B5FFF713
:1053C0005DFF000070B50D4D0D4C641BA410002650
:1053D000A64209D10B4D0C4C00F09CFC641BA410A0
:1053E0000026A64205D170BD55F8043B984701360A
:1053F000EEE755F8043B98470136F2E7B85E00083F
:10540000B85E0008B85E0008BC5E000802440346AF
:10541000934200D1704703F8011BF9E70EB400B5C1
:105420009CB01DAB029006906FF0004109480791B7
:105430000491094953F8042B05910068019302A9CE
:1054400000F068F8029B00221A701CB05DF804EBB3
:1054500003B070470C0000200802FFFF2DE9F04761
:105460008E689E4282460C4690461F4638D88A89EE
:1054700012F4906F32D025680969A5EB01096569BE
:1054800005EB450505EBD57501334B446D109D4289
:1054900038BF1D46530531D5294600F065FB064649
:1054A00050B90C23CAF80030A38943F04003A3810C
:1054B0004FF0FF30BDE8F08721694A4600F0C0FA9E
:1054C000A38923F4906343F08003A381266165617F
:1054D0004E44A5EB09052660A5603E46BE4200D9B4
:1054E0003E4620683246414600F0B8FAA3689B1B4E
:1054F000A3602368334423600020DBE72A4600F0E2
:10550000A7FB06460028E1D12169504600F0C0FA09
:10551000C7E700002DE9F04F98468B891B069DB028
:1055200007460D4614460ED50B6963B9402100F0BD
:105530001BFB2860286120B90C233B604FF0FF3033
:10554000D1E040236B610023099320238DF829309B
:10555000CDF80C803023DFF8A8818DF82A304FF089
:10556000010923469A4613F8012B0AB1252AF9D1DD
:10557000BAEB040B0BD05B46224629463846FFF7B0
:105580006DFF013000F0AA80099A5A4409929AF8F6
:105590000030002B00F0A28000234FF0FF32CDE955
:1055A00005230AF1010A049307938DF853301A93E7
:1055B0005446052214F8011B5148FAF711FE049ACB
:1055C000D8B9D00644BF20238DF85330110744BF0B
:1055D0002B238DF853309AF800302A2B15D0079AD8
:1055E000544600204FF00A0C214611F8013B303B95
:1055F000092B4ED9B0B1079214E0A0EB080309FAC9
:1056000003F313430493A246D2E7039B191D1B68BF
:105610000391002BBBBF5B4242F00202079307934A
:10562000B8BF049223782E2B0CD163782A2B35D166
:10563000039B1A1D1B680392002BB8BF4FF0FF336A
:1056400002340593DFF8C8A0217803225046FAF708
:10565000C7FD40B14023A0EB0A0003FA00F0049B11
:1056600003430134049314F8011B26488DF82810D5
:105670000622FAF7B5FD002838D0234B1BBB039B4D
:10568000073323F0070308330393099B334409933B
:1056900067E70CFB02320C460120A5E7002301342A
:1056A000059319464FF00A0C204610F8012B303AAA
:1056B000092A03D9002BC5D00591C3E70CFB0121B2
:1056C00004460123F0E703AB00932A460F4B04A9DD
:1056D0003846AFF30080421C0646D6D1AB895B0644
:1056E0003FF52CAF09981DB0BDE8F08F03AB0093D8
:1056F0002A46064B04A9384600F07AF8EBE700BFCB
:10570000245E00082E5E0008000000005D540008C2
:105710002A5E00082DE9F047164699468A680B690B
:10572000DDF820809342B8BF1346336091F84320E0
:1057300007460C460AB1013333602368990642BF1D
:10574000336802333360256815F0060506D104F18D
:10575000190AE36832689B1AAB4226DC94F84320AE
:10576000131E226818BF012392062BD404F14302B2
:1057700049463846C04701301ED02368E568326884
:1057800003F00603042B08BFAD1AA36822690CBFFF
:1057900025EAE57500259342C4BF9B1AED18002643
:1057A0001A34B5421AD1002008E001235246494676
:1057B0003846C047013003D14FF0FF30BDE8F087D5
:1057C0000135C6E7E1185A1C302081F84300224415
:1057D00094F8451082F843100233C7E701232246AC
:1057E00049463846C0470130E6D00136D9E70000C7
:1057F0002DE9FF470F7E0C9D782F914680460C4681
:105800009A4601F1430207D8622F0AD8002F00F010
:10581000D880582F00F0A38004F1420584F842702C
:105820003AE0A7F16303152BF6D801A151F823F054
:10583000895800089D580008195800081958000890
:1058400019580008195800089D58000819580008F0
:10585000195800081958000819580008A9590008D3
:10586000CD5800088B59000819580008195800082D
:10587000CB59000819580008CD58000819580008DD
:1058800019580008935900082B681A1D1B682A60D4
:1058900004F1420584F842300123A3E0206829681E
:1058A000060601F104030AD50E682B60002E03DA08
:1058B0002D23764284F843305E480A2319E00E68AF
:1058C0002B6010F0400F18BF36B2EFE72B6820684E
:1058D000191D2960010601D51E6802E04606FBD5A8
:1058E0001E8854486F2F0CBF08230A23002184F818
:1058F00043106568A560002DA2BF216821F0040156
:1059000021600EB9002D4DD01546B6FBF3F103FB17
:105910001167C75D05F8017D3746BB420E46F4D9D5
:10592000082B0BD12368DE0708D5236961689942EB
:10593000DEBF302305F8013C05F1FF35521B226123
:10594000CDF800A04B4603AA21464046FFF7E2FEF1
:1059500001304CD14FF0FF3004B0BDE8F08735483E
:1059600081F845702968236851F8046B29601D0689
:1059700014D5DF0744BF43F0200323601EB923681A
:1059800023F0200323601023B0E7236843F02003B3
:1059900023607823284884F84530E3E7590648BF58
:1059A000B6B2E6E71546BBE72B6826686169181DA5
:1059B000286035061B6801D5196002E07006FBD52A
:1059C0001980002323611546BAE72B681A1D2A6047
:1059D0001D68626800212846FAF702FC08B1401BE6
:1059E000606063682361002384F84330A8E723697B
:1059F0002A4649464046D0470130ABD023689B0732
:105A000013D4E068039B9842B8BF1846A4E701236B
:105A1000324649464046D04701309BD00135E368C5
:105A200003995B1AAB42F2DCEBE7002504F119069F
:105A3000F5E700BF355E0008465E00087047704716
:105A40000A44914200F1FF3300D1704710B511F8BC
:105A5000014B03F8014F9142F9D110BD884210B5B6
:105A600001EB020402D98442234607D8431EA14217
:105A700008D011F8012B03F8012FF8E70244014682
:105A80008A4200D110BD13F8014D02F8014DF7E72D
:105A900037B5002944D051F8043C0190002BA1F106
:105AA0000404B8BFE41800F013F91E4A0198136803
:105AB00033B96360146003B0BDE8304000F00EB944
:105AC000A34208D9256861198B4201BF19685B6838
:105AD00049192160EDE71A465B680BB1A342FAD978
