:020000040800F2
:1000000058140020516C0008856A00088D6A0008A9
:10001000956A00089D6A0008A56A000800000000B3
:10002000000000000000000000000000AD6A0008B1
:10003000B16A000800000000B56A0008B96A00084B
:10004000696C00086D6C0008716C0008756C000824
:10005000796C00087D6C0008816C0008856C0008D4
:10006000896C00088D6C0008916C0008956C000884
:10007000996C00089D6C0008A16C0008A56C000834
:10008000BD6A0008A96C0008C36A0008AD6C0008CE
:10009000B16C0008B56C0008B96C0008BD6C0008B4
:1000A000C16C0008C96A0008CF6A0008C56C000866
:1000B000C96C0008CD6C0008D16C0008D56C000834
:1000C000D96C0008DD6C0008E16C0008E56C0008E4
:1000D000E96C0008D56A0008ED6C0008DB6A0008CE
:1000E000F16C0008F56C0008F96C0008FD6C000864
:1000F000016D0008056D0008096D00080D6D000810
:10010000000000000000000000000000116D000869
:10011000156D0008196D00081D6D0008216D00089F
:10012000E16A0008256D0008296D00082D6D0008A2
:10013000316D0008356D000800000000000000006F
:10014000396D00083D6D0008416D00080000000099
:10015000000000000000000000000000000000009F
:100160000000000000000000456D0008496D000817
:100170004D6D0008000000000000000000000000BD
:1001800000000000516D00082DE9F14FB0B092461B
:1001900004910DF142013A9A2B9199464A70002040
:1001A0000AE01AF8011B0498309A9047002804903E
:1001B00000F06B860D98401C0D909AF8000050B12D
:1001C0002528EED1002100220791089209910A9278
:1001D0000B910C9204E00D9800F059BE41F0010122
:1001E0001AF8010F2028F9D023280CD02B2804D08E
:1001F0002D2805D0302809D00BE041F00201EFE7AF
:1002000041F00401ECE741F00801E9E741F0100199
:10021000E6E72A280FD1D9F8002052F8040BC9F8D4
:10022000002000280F9003D540420F9041F00401B8
:100230000AF1010A14E00F92DFF8583C0AE00F9827
:10024000984205DA00EB800402EB4402303A0F9248
:100250000AF1010A9AF80020A2F130000A28EED330
:100260009AF800002E2803D04FF0FF320E9229E0BA
:100270001AF8010F2A2809D1D9F8000050F8042BE8
:10028000C9F800000E920AF1010A1BE02D280CBFEC
:100290000AF1010A002000220E92DFF8F84B0BE071
:1002A00040B90E9AA24205DA02EB820503EB450340
:1002B000303B0E930AF1010A9AF80030A3F13002A4
:1002C0000A2AEDD3ADF840100FF6CC309AF80010A2
:1002D00000F00EFF08B11AF8010B8DF842009DF8EE
:1002E0004200682805D19AF8000068280CD16221E4
:1002F00006E06C2804BF9AF800006C2804D1712134
:100300008DF842100AF1010A12A806901AF801BBF2
:10031000BBF125012CD01C3900F0D781091F02291F
:1003200040F2D381133900F0E284093900F0CD8125
:10033000891E00F07785491E00F02485491E022998
:1003400040F2C381091F00F01D85491F00F0328172
:10035000491E00F0CC84491E00F0D880C91E0DD083
:10036000891E00F0C484C91E00F0C18400F065BD80
:1003700025238DF84830012100F06ABDD9F800002E
:1003800050F8044BC9F80000002C059440F0AB80F5
:100390002B994878002800F0A1804FF0FF340FF629
:1003A000003000F0B5FE201A40F06F8500F051BD1E
:1003B00001236A4602A9304600F042FE002840F0C0
:1003C00064856D1EF4D13096079D12AF75B1309ED5
:1003D00017F8012B02A9304600F022FE002801D4B4
:1003E0006D1EF5D10028309640F04F850A9D3020D3
:1003F000002D8DF800000CDD309E01236A4602A915
:10040000304600F01DFE002840F03F856D1EF4D1FF
:100410003096059F089D75B1309E17F8012B02A9F3
:10042000304600F0FDFD002801D46D1EF5D10028F6
:10043000309640F02A850B9D3020002D8DF800006D
:100440000CDD309E01236A4602A9304600F0F8FD1B
:10045000002840F01A856D1EF4D130960598089951
:10046000099D471875B1309E17F8012B02A9304637
:1004700000F0D6FD002801D46D1EF5D1002830967D
:1004800040F003850C9D3020002D8DF800000CDD20
:10049000309E01236A4602A9304600F0D1FD0028B3
:1004A00040F0F3846D1EF4D130969DF84000410772
:1004B0007FF583AE2020002C8DF800007FF77DAE05
:1004C000309D01236A4602A9284600F0B9FD0028A4
:1004D00040F0DB84641EF4D130956EE60FF6C03038
:1004E000059000F0B6BC0E9D002D04D5204600F00E
:1004F0002FFE044607E02A46204600F033FE00287F
:1005000014BF041B2C46089400F0A3BCD9F80010BB
:1005100051F8040BC9F8001020F00004002121F06C
:10052000FF3512ABCDE902450593DDE902230699BB
:100530003C2413B90AB90E98A8B102F00F05303562
:10054000641EEEB23A2E08DA120942EA03721B095F
:100550000D5508BF002A02D105E02735F4E70598BC
:100560000D19A842E9D308190590C4F13C020E9870
:10057000089282420ADABDF84010821A4FF6EF70F4
:1005800001400A92ADF8401000F063BC002840F131
:1005900060849DF8400000F01400102840F0598459
:1005A0000F9B07990A985B1A1B1A9A1A002A40F3A4
:1005B00050849AE32B99487820B14FF0FF340FF61E
:1005C000B020EEE69DF84200622860D0682817D07F
:1005D0006A283FD06C2806D0712847D074282CD0C8
:1005E0007A281DD062E0D9F8001051F8040BC9F840
:1005F0000010002866D14FF0FF340FF68C20D0E6B3
:10060000D9F8001051F8040BC9F8001020B94FF0C8
:10061000FF340FF67420C4E60D99018000F019BC78
:10062000D9F8001051F8040BC9F80010002849D17E
:100630004FF0FF340FF65020B3E6D9F8001051F810
:10064000040BC9F8001000283CD14FF0FF340FF61E
:100650003820A6E6D9F8001051F8040BC9F80010AC
:1006600080B94FF0FF340FF620209AE6D9F8001039
:1006700051F8040BC9F8001020B94FF0FF340FF601
:1006800008208EE60D9AD317C0E90023E1E3D9F8DC
:10069000001051F8040BC9F8001020B94FF0FF34D6
:1006A0000FF6E4107DE60D990170D2E3D9F8001041
:1006B00051F8040BC9F8001020B94FF0FF340FF6C1
:1006C000C8106EE60D990160C3E3D9F80020D21D71
:1006D00022F00702C9F80020D2E900010832C9F867
:1006E0000020CDE90201C80F02D007982D210AE0B1
:1006F000BDF84000810702D507982B2103E0C00711
:1007000005D50798202112AA1154401C079012A861
:100710000799DDE9024543184BF020006128059355
:1007200021AE0BD00E98002802D506200E9005E0D1
:1007300001BF4BF02000672801210E91DDE9020185
:1007400048004015401C0A460DD109030BD0ABF1FF
:10075000610703201A2F089002D20FF648110DE00E
:100760000FF644110AE070B912030CD1ABF1610726
:1007700003201A2F08901CD30FF6341103221846B9
:1007800000F01CFD65E3DDE902016A4600F022FD90
:10079000CDE902014BF02000612811D105983021EC
:1007A0000170821CBBF1610F05920CBF78215821AA
:1007B00002E00FF6F801E1E741700798801C07900E
:1007C000DDE9020120F0000231F0004308BF002AF9
:1007D00002D10025002445E14BF02008B8F1610F5B
:1007E00040F095800E98002847BF21210191401CC0
:1007F0000190019F7F1C2046294600220023DDE94D
:10080000024500F01FFD00998DF8842038BF85F067
:100810000045091F002F00910DF1850034DD0646CB
:10082000204629460022002300F026FD2BD21C2260
:1008300000F03CFD04460D4600F0D6FDFF1F002FE2
:10084000804609DD00F0ECFD02460B4620462946B5
:1008500000F0AEFE04460D46F01D0721B8F1000F72
:100860000CDD491E5EBF08F00F0200F8012D4FEAB3
:100870002818F3D502E0002200F8012D491EFAD510
:10088000C61D002FCCDC30460DF18501401A0199C0
:1008900005468842C8BF0D46002D0DF185062FD4B0
:1008A000854206DA0DF18500415D0829A8BF0F20B9
:1008B00000DA0020294621AA0A4400E06D1E12F841
:1008C0000139491E8342F9D00F2804D10DF185006A
:1008D000425C521C4254002904D50098001D21AEF0
:1008E0006D1C0090681E0BD431180A783032D3B2D8
:1008F0003A2BA4BF5A443A3A401E01F80129F4D5D4
:100900000E98002840F1AD80691E0E91A9E0009973
:10091000DFF8FC2647F29750414391FBF2F2009238
:1009200025F00045C2F10702002A04DD20462946D1
:1009300000F04AFB0BE052420020DFF8D81600F02E
:1009400043FB02460B462046294600F0A3FE044620
:10095000B8F1660F0E9806BF009F0A3706273F18AA
:10096000142FC8BF142730208DF884000D460DF1D8
:10097000850000E03046002F35DD0646204629463A
:1009800000F0ACFF01460A4606F1080304200A26DF
:10099000B2FBF6F606EB860EA2EB4E02303203F8FF
:1009A000012C0A22B6FBF2F202EB820EA6EB4E06F7
:1009B0003036401E03F8026DE9D1083F002F03F1E5
:1009C0000806D7DD084600F09BFF02460B4620468E
:1009D000294600F0EDFD0022DFF83C3600F09EFFD6
:1009E00004460D46CAE70DF18501401A0DF1850652
:1009F00004E00099491E401E0091761C3178302990
:100A0000F7D0B8F1660F02D10099491C04E0B8F1A3
:100A1000650F0CBF012100210E9D4D19A842B8BFE2
:100A2000451E002D1DD4854204DA705D3428C8BFF0
:100A3000392000DC30202946721E531800E06D1E5C
:100A400013F80149491E8442F9D0392802D1705C5B
:100A5000401C7054002904D50098401C16466D1C9B
:100A60000090009C01F030F8406A0778DDF838808B
:100A700028B2002802DC01250FF238664BF0200076
:100A8000662808BF641C16D0672846D120B210F132
:100A9000040F48DB404546DA9DF84000641C01071E
:100AA00003D428B24045D8BF804620B2B8EB000836
:100AB00048BF4FF000080FFA84FBBBF1000F00F3B2
:100AC000B5800898411C0891302205990A54B8F164
:100AD000000F03DC9DF84000010704D50898411C75
:100AE000089105990F5418EB0B0FB8BFC8F100041B
:100AF00024B260420B90A0442AB29045B8BF45464C
:100B0000059B08982DB209952A463146184400F0F5
:100B100055FBA8EB05000C90D2E0BBF1610F17D19B
:100B20004FF0700B19E028B2404504DA9DF84010F0
:100B30000A0758BF8046B8F1010848BF4FF00008C7
:100B4000BBF1670F14BF4FF0450B4FF0650B04E08E
:100B5000BBF1410F08BF4FF0500B0898411C0891A2
:100B6000B8F1000F059916F8012B0A5403DC9DF823
:100B7000400001071AD50898411C0891B8F1000FF0
:100B800005990F5412DD6D1E28B280450598089B0B
:100B9000B8BF45462AB23146184400F00FFB089909
:100BA0002DB269180891A8EB05000B9005980899DB
:100BB000084421B2002980F800B003D42B224270EF
:100BC000821C04E02D2242700C46821C64420021EB
:100BD0002CAB20460AE004460A2094FBF0F000EB20
:100BE0008005A4EB450403F8014B491C00B2002822
:100BF000F1DC012906DC4BF02000652804BF302021
:100C000002F8010B00292CAB08D1302002F8010BAF
:100C100006E0491E585C303002F8010B0029F8DC70
:100C2000059908980844121A099249E028B221B29D
:100C300088421CDA0598089B2AB23146184400F015
:100C4000BDFA08992DB269180891ABEB0500B8F10F
:100C5000000F0B9003DC9DF84000020704D50598B7
:100C600047540999491C0991CDF8308028E005982E
:100C7000089B22B23146184400F0A0FA08982D1BB8
:100C80005844B8F1000F089003DC9DF840100A07A3
:100C900003D5411C089105990F5428B28045059849
:100CA000089BB8BF45462AB206EB0B01184400F07A
:100CB00085FA08982DB228180890A8EB05000B902B
:100CC0009DF8400000F01400102840F0C280079A00
:100CD00008990B988A18099982180C988A18821812
:100CE0000F98824280F2B580821A0A92B1E09DF894
:100CF0004200622808D068280ED06A2814D06C28D8
:100D00001FD0712810D01CE0D9F8001051F8040B46
:100D1000C9F80010C0B21AE0D9F8001051F8040B5D
:100D2000C9F8001080B212E0D9F80020D21D22F0DC
:100D30000702C9F80020D2E900010832C9F80020F2
:100D400006E0D9F8001051F8040BC9F80010002192
:100D5000CDE902019DF8400001075AD5DDE90223E3
:100D6000002B08BF002A54D04BF02000782850D127
:100D7000079812A930220A54401C431C079301F81B
:100D800000B046E09DF84200622808D068280ED0E6
:100D90006A2814D06C281FD0712810D01CE0D9F814
:100DA000001051F8040BC9F8001040B21AE0D9F84D
:100DB000001051F8040BC9F8001000B212E0D9F885
:100DC0000020D21D22F00702C9F80020D2E900015C
:100DD0000832C9F8002006E0D9F8001051F8040BD9
:100DE000C9F80010C117CDE90201002902D5079802
:100DF0002D210AE0BDF84000810702D507982B217C
:100E000003E0C00705D50798202112AA1154401C01
:100E1000079012A807990144059102A8594600F0CD
:100E20004DF816E001200790D9F8000050F8041B97
:100E3000C9F800008DF848100BE025210122BBF114
:100E4000000F8DF84810079203D08DF849B00221A9
:100E500007910F9A07980A990C9C121A0898521A2F
:100E60000B99121A0998521A121A9DF84000141B75
:100E700041073FF5A9AA2020002C8DF800007FF73C
:100E8000A3AA309E2546FFF793BA4FF0FF3031B04A
:100E9000BDE8F08FCBCCCC0C686A6C747A4C000047
:100EA0007072696E74665F733A20626164202573A4
:100EB00020617267756D656E740000002DE9FC435A
:100EC00004466F29256908BF082605D041F0200097
:100ED000782814BF0A2610263C27D4E90023642969
:100EE00018BF69299046994605D1002B03D5D8F142
:100EF000000869EB4909B9F1000F08BFB8F1000F0C
:100F00000CD1206B50B9082E3AD194F83800010763
:100F100036D530203B2785F83B0031E08DF80010B6
:100F2000404649463246F31700F0D2FD3032D0B287
:100F30007F1E3A2801970EDAEA5540464946324666
:100F4000F31700F0C5FD80465FEA010908BFB8F15C
:100F5000000F05D108E09DF800001218513AEBE7A8
:100F6000E068E9198842DBD3082E09D194F83800EB
:100F7000010705D5E85D302802D07F1E3020E855F6
:100F8000C7F13C02A261E919E160206B824208DAF4
:100F9000821A22624FF6EF70218F01402187BDE84F
:100FA000F38300280ED594F8380000F014001028C0
:100FB00008D1636B6169206A5B1A1B1A9A1A002AAE
:100FC000C8BF2262BDE8F3832DE9D04306460F4631
:100FD00014464FF00008DFF8449012E0E00707D510
:100FE00042464B463046394600F098FC06460F46CE
:100FF0004046494642464B4600F090FC641080460D
:101000008946002CEAD130463946BDE8D08300003D
:10101000A08601000000F03F84D7974100002440E3
:1010200010B503460C461146A0689847A06020B151
:10103000E06A401CE062002010BD4FF0FF3010BDA0
:10104000F8B505460E4617461C4600205CB117F859
:10105000011BB068A847B06030B1F06A401CF06274
:101060000020641EF3D1F2BD4FF0FF30F2BD00004E
:101070007072696E74665F733A20256E20646973BE
:10108000616C6C6F776564007072696E74663A208B
:1010900062616420256E20617267756D656E7400F3
:1010A000000000006E616E004E414E00696E6600E9
:1010B000494E4600300030B50168846842184168E6
:1010C00002EB5103C90703D54C4401E0491C08D188
:1010D0009A4218BF12F9011B01D10C3030BD12F831
:1010E000015B002904F8015BF0D4491EF7D5EFE756
:1010F000C9B202788A421AB11CBF10F8012FF9E771
:1011000018BF002070470268531C036011707047BD
:1011100080B500B906A005490B681BB12222002149
:10112000984701E000F0ECFD222002BD50100020A5
:10113000636F6E73747261696E742068616E646C43
:1011400065723A20626164206D6573736167650042
:1011500000F1010310F8011B11B110F8011BFBE7AE
:10116000C01A7047C9B2830706D0521E22D310F8A6
:10117000013B9942F7D11FE0083A13D302F1040270
:1011800041EA012141EA014150F8043B121F21BF0D
:101190004B40A3F1013C2CEA030C1CF0803FF3D040
:1011A000C9B2001F083210F8013B521E28BF91EA55
:1011B000030FF8D818BF0120401E70474AB1000045
:1011C00011F8013B521E00F8013B1CBF11F8013B16
:1011D000F8E7704710B5144600F002F8226010BD21
:1011E000C1F30A5343B14A0012F5001F28D2A3F2FB
:1011F000FE32A1EB0251704750EA410C20D001F0C1
:10120000004C31EA0C01B1FA81F204BFB0FA80F36C
:10121000D2180B3AB2F120032CBF00FA03F191402F
:1012200041EA0C013EBFC2F1200C20FA0CF3194335
:101230009040524240F2FD33D21A01EB0351704705
:101240000022704741EA030C50EA4C0C52EA0C0CA5
:101250004FF4001C09D307D01CEB410F9CBF1CEBC3
:10126000430F8B4208BF824270471CEB430FFBD8F1
:10127000994208BF9042704741EA030C50EA4C0C77
:1012800052EA0C0C4FF4001C09D307D01CEB410FA1
:101290009CBF1CEB430F994208BF904270471CEB68
:1012A000410FFBD88B4208BF82427047124254D490
:1012B00040F2FF7C1CEA11530FD0634531D09B18DC
:1012C00063453CBF01EB0251704701F0004141EA28
:1012D0000C510020AFF30080704750EA410320D04A
:1012E00001F0004C91EA0C011CD0B1FA81F30B3BE8
:1012F0009A420DD9D21A994051EA0C01C3F1200C3F
:1013000020FA0CFC61449840531C40F2FF7CD7E764
:10131000914041EA0C01C2F1200C20FA0CF3194370
:1013200090407047B0FA80F31533202BE0D3202A89
:10133000EED3203A203B9A4209D9D21A00FA03F19F
:1013400041EA0C010020531C40F2FF7CB8E700FA90
:1013500002F141EA0C0100207047524240F2FF7C4A
:101360001CEA11530DD06345DBD0B2EB030C3CBF3C
:10137000A1EB025170470CF1010221EA035141F443
:10138000801150EA410CCCD001F0004C352A27DC0A
:1013900030B481EA0C01B2F1200309DAC2F1200372
:1013A000044601FA03F5D0402843D1409C400CE0AC
:1013B000C3F12002450020FA03F418BF44F00104F1
:1013C00021FA03F091400C43002174F1004550F1E3
:1013D000000051EB0C01244230BC7FF47BAF70471E
:1013E0006146002076E72E00C1F30A5340F21E4208
:1013F000D31A0CDDCA0283F3070342EA505242F0CB
:101400000042DA4002EBE17282EAE17070476FEA73
:10141000E17203F2E13008B182F000407047000051
:1014200010F0004160B148BF4042B0FA80F29040F5
:10143000D21CC2F5846241EA025202EBD02140057F
:1014400070470000841A71EB030604D26E40001B43
:10145000B141121973414FF4001C1CEB410F34BF12
:101460007CEB430683E00C0DA4EB1356362E00F301
:101470007C80012E45EAC32341DC43EA525312BF6C
:10148000D20292025B08240545EAC12141EA50518B
:10149000D2EBC020994125D407D1B0FA80F610FADA
:1014A00006F162D00020203608E0B1FA81F6B140A2
:1014B000C6F1200220FA02F21143B0404FEAF47460
:1014C000B4EB465434F001064FEA74040AD8D6F55A
:1014D0000016760D04F00044F04061FA06F2504028
:1014E000F1404840C00A40EA415021F0004128BF85
:1014F0005FEA500550F1000044EBD12135E0DB0AF2
:1015000045EAC121C90AB6F120050EDD42EA0242D0
:10151000120CC5F1200603FA06F6EB4042EA060576
:101520006D42984161F100010DE062FA06F5F2406A
:10153000554063FA06FC82EA0C02F3405A406D42C1
:10154000904161EB030111F4801F05D1641E620517
:1015500002D06D004041494121F48011430875F1EA
:10156000004350F1000041EB045170BC70471CEB8C
:10157000410F15D223F0004352EA43060BD04FEA45
:101580004C0CBCEB410F04D80C0D661E342EB7DD9D
:10159000EBE7801A994150EA410608BF0021E4E7D1
:1015A00008BF1CEB430F28BF6FF00001DDE7000010
:1015B00070B491EA030F4FF000457FF543AF6B40E5
:1015C000841A71EB030603D2001BB1411219734157
:1015D0004FF4001C1CEB410F34BF7CEB430442E092
:1015E0000C0DA4EB1356352E4FDC45EAC323DB0A62
:1015F00045EAC121C912B6F120050DDD63FA05F6F1
:10160000EB4086EA0305124218BF45F00105C018F9
:1016100051F100010CD213E062FA06F5F240554098
:10162000F3415A40B340F3405A408018594107D320
:1016300049085FEA30005FEA350528BF45F001053B
:1016400001F58011420875F1004250F1000041EBB4
:1016500004514E0016F5001F70BC38BF70470020C3
:10166000090D090570471CEB410F10D252EA4306E1
:101670000BD0BCEB410F05D80C0DAB43661E342ECE
:10168000B6DD02E0AB438018594170BC704770BCB6
:1016900070470000F0B540F2FF7581EA030C0CF0D2
:1016A000004C15EA11541DBF15EA1357AC42AF4266
:1016B000E5E0BC41C1F31301C3F31303801A994160
:1016C00043F4801304D2641E001849418018594124
:1016D000C90241EA5051B1FBF3F603FB1611A2FB1C
:1016E0000675D7EBC020A94102D2761E8018594159
:1016F000C90241EA5051B1FBF3FE03FB1E11A2FBEC
:101700000E75D7EBC020A94103D2AEF1010E8018AF
:101710005941890241EA9051760546EA8E2EB1FB85
:10172000F3F603FB1611A2FB0675D7EB8020A94147
:1017300002D2761E80185941C90241EA50514EEA40
:10174000060EB1FBF3F603FB1611A2FB0675D7EBF1
:10175000C020A94102D2761E80185941C90241EA2F
:101760005051B1FBF3F703FB1711A2FB0735D3EB85
:10177000C020A94167F100070CBF004247F00107F4
:1017800066F3D5274FEA1E31B80814F5806412DDE0
:10179000BD0775F1004250EB0E5051EB045111F5AD
:1017A000801F5CBF41EA0C01F0BD4CF07F6141F04D
:1017B000E0410020F0BDBD076D0840EA0E5041F445
:1017C0008011D4F10104B4F120060ADAC4F1200634
:1017D0000200E04001FA06F3E1401843B24015432D
:1017E0000EE0342C13DCC6F1200445EA40056D08F8
:1017F00020FA06F2154321FA06F0A1400D4300211C
:1018000075F1004250F1000051EB0C01F0BD0020D9
:101810005FEA0C01F0BDCFB992185B41B3FA83F7D0
:1018200004BFB2FA82F6BF190B3FB7F120062FBFF3
:1018300002FA06F3BB40C7F1200622FA06F638BFCB
:101840003343BA401CB1E419641E33E77F4231F0E0
:101850000041B1FA81F404BFB0FA80F6A4190B3C40
:10186000B4F120062FBF00FA06F1A140C4F1200612
:1018700020FA06F638BF3143A0403C1B1AE7AC42C1
:101880001ABF05EA1357AF4212E050EA41061CBFE7
:1018900052EA4306BFE750EA4107304661461CBFA3
:1018A00041EA0551F0BD52EA430C08BFC143F0BD07
:1018B00000204FF4001616EB410F98BF16EB430FB4
:1018C00008BF16EB410F24BFC14305E016EB430FE1
:1018D0000CBF61464CEA0551F0BD0000400D40F2DE
:1018E0001E4C40EAC120BCEB115C40F0004003D428
:1018F0008CF30701C84070476FEAE1707047000041
:1019000050B1B0FA80F18840C91CC1F58461090565
:1019100001EBD021400570470146704730B540F2D9
:10192000FF7C1CEA11541DBF1CEA13556445654534
:101930003FE0641981EA030C6FF35F530CF0004C35
:1019400043F48013C90241F0004141EA505EC502F0
:101950001100A5FB020200284FF00000EEFB012061
:101960004FF00001E3FB052118BF42F001024018CF
:1019700000214941E3FB0E01A4F580640D0302D26E
:1019800092184041494154F1010470DD450872F15B
:10199000004250F1000051EB0451A1F5801102D436
:1019A00041EA0C0130BD40F2FF7E4CEA0E510020AE
:1019B00030BD0CEA1355644518BF654581EA030C38
:1019C0000CF0004C41D050EA410E1CBF52EA430ECD
:1019D00002E06146002030BD24422C441BD15FEA66
:1019E000050EF6D0090302BF01460020AEF1140E29
:1019F000B1FA81F5AEEB050401FA05FE0C35C5F12F
:101A0000200100FA05F5C8404EEA000E6FF35F535F
:101A100043F480139CE733F00043B3FA83F504BF2B
:101A2000B2FA82FE75440B3D641BB5F1200E2FBF48
:101A300002FA0EF3AB40C5F1200E22FA0EFE38BFBB
:101A400043EA0E03AA40641C7CE750EA410E14BF2F
:101A500052EA430E6FF000014FF4001515EB430FEF
:101A60008EBF194615EB410F9DE7B4D830BDD4F1B8
:101A70000104B4F120050FDAC4F12005520828BF93
:101A800042F0010210FA05FE01FA05F57244E2BFC8
:101A9000E0402843E1400FE0352C9ADCC5F12004FA
:101AA00052EA400220FA05F218BF42F0010231FA70
:101AB00005F0A1400A43002172F1004250F10000FC
:101AC00051EB0C0130BD000000487047A802002017
:101AD000BBBBE1B1B2F5803F80F07E80022A1ED907
:101AE0008C46B1FBF2F102FB11C31B0443EA104325
:101AF000B3FBF2FC02FB1C3380B240EA0343B3FBAE
:101B0000F2F002FB103240EA0C4000237047022A38
:101B100005D98446B0FBF2F002FB10C270474AB10F
:101B200005D100F0010249085FEA30007047002249
:101B30000023704700F0E8B80B00020000210020ED
:101B40007047904271EB030CF6D3B3F5803F2FD270
:101B5000F0B5B3FA83F7B1FA81F4A7F10F0E3D1B8C
:101B60005340CEF1200602FA0EF2F3415340B5F194
:101B70000F0746D80F3C2C444140C4F12006A0403A
:101B8000F1414140B1FBF3F603FB1611A2FB064500
:101B9000001BA94102D2761E8018594180EA010239
:101BA00021FA0EF362FA0EF200215A403046F0BDDF
:101BB00030B4B1FBF3FC03FB1C11A2FB0C45001B72
:101BC000A94103D2ACF1010C8018594130BC024646
:101BD0000B46604600217047B2F1807F65D3F0B5B7
:101BE000B2FA82F7B1FA81F4C7F10F063D1B22FA6F
:101BF00006F307F1110EF24120355A40B5F10F07F7
:101C0000B8D94140C4F12006A040F1414140B1FBA8
:101C1000F3FC03FB1C11A2FB0C45001BA94103D2E2
:101C2000BCF1010C801859410F2F12D30F3FC9038B
:101C300041EA5041B1FBF3F603FB1611A2FB064546
:101C4000D4EBC030A94102D2761E8018594146EA31
:101C5000CC3C07B34140C7F12006B840F1414140B8
:101C6000B1FBF3F603FB1611A2FB0645001BA941CD
:101C700002D2761E8018594180EA010221FA0EF341
:101C8000C7F1200462FA0EF20CFA07F05A402CFA5F
:101C900004F13043F0BD80EA010221FA0EF3002185
:101CA00062FA0EF260465A40F0BD8C46B1FBF2F18A
:101CB00002FB11C31B0243EA1063B3FBF2FC02FBFD
:101CC0001C331B024CEA002043EA1063B3FBF2FC16
:101CD00002FB1C331B024CEA002043EA1063B3FBF7
:101CE000F2FC02FB1C331B024CEA002043EA1063A7
:101CF000B3FBF2FC02FB1C324CEA002000237047CD
:101D0000012000F003B800007047000080B5AFF379
:101D10000080024A11001820ABBEFBE7260002003B
:101D200038B5040009D004F17405696809B900F0F8
:101D30001EF800F021F8012801D1012032BD606AAF
:101D400008B100F02AF800F00AF821F02A01FFE7B4
:101D5000816000F01BF8BDE8324000F07EBB2068D7
:101D6000416821F4904141602068816870470020FB
:101D70002870204600F0C6BE2421696020680268F1
:101D8000520852000260204600F022BA2068016822
:101D900041F00101016020467047204600F0FABA88
:101DA0002DE9FC47054605F1740488466068202843
:101DB000174699464DD1B8F1000F14BF002F0120EE
:101DC00048D02078012844D0012121700020E06013
:101DD0002122626005F1500600F04AFF37808246FA
:101DE0007780A868B0F5805F04BF286900280EBF1F
:101DF0004746404600270021217080460FE018F832
:101E0000012B028508E02868B8F1000FF7D137F8F8
:101E1000021BC1F3080101857088411E7180534681
:101E20007088CDF80090002807D000228021284635
:101E300000F041FB0028E6D005E0002240212846C2
:101E400000F039FB08B1032004E02020606000208E
:101E500000E00220BDE8F68738B500F025F80DD186
:101E600009B1140001D1012032BD0478012C05D044
:101E700000F020F8BDE8384000F06BBB022032BD16
:101E800038B500F011F80DD109B1140001D10120CD
:101E900032BD0478012C05D000F00CF8BDE83840C4
:101EA00000F09CBB022032BD034603F1740084683D
:101EB000202C704701250570002018661C6860689A
:101EC000040209D5186850E8004F054644F08064C4
:101ED00045E800400028F5D118467047206800F119
:101EE000080151E8001F00F108037047F8B50546E6
:101EF00040F60F022B68DE691F68D3F808C0324035
:101F000005F1580407F0200006F020010BD100294C
:101F100018BF00280DD0E168002900F02081284674
:101F2000BDE8F44008475FEACC7203D4DFF84024F0
:101F3000174271D0F20707D5FA0505D501221A62BA
:101F4000A36A43F00103A362B20748BF5FEACC7300
:101F500006D52B6802221A62A26A42F00402A2622B
:101F6000720748BF5FEACC7306D52B6804221A6259
:101F7000A26A42F00202A26232070AD510B95FEAF1
:101F8000CC7206D52A6808231362A26A42F00802BE
:101F9000A262320509D57B0107D52E684FF4006295
:101FA0003262A26A42F02002A262A26A002A32D001
:101FB000002918BF002803D0E16809B128468847E6
:101FC000A06A29688A68510602D410F0280F1DD033
:101FD000284600F055FB28688168480611D500F0B6
:101FE000D5F8FCD1A06960B10FF601014163A06989
:101FF00000F0C5FE00280ED0A069416BBDE8F4409A
:1020000008472846BDE8F24000F06CBF284600F0C3
:1020100069FF0020A062F1BDA068012874D1F0061C
:1020200072D5F90670D510201862296888684106B3
:1020300038D5A1690868406880B20028EBD02288B2
:102040009042E8DA60808869202825D0296851E824
:10205000001F2A6821F4807100F08FF8F6D100F09B
:10206000A3F8FCD1286800F1080151E8001F00F135
:10207000080321F0400100F07AF8F3D120206062DB
:102080000021A16000F07DF821F0100100F075F84A
:10209000F8D1A06900F053FE21886088091A89B23E
:1020A00028462DE0228861886088511A00281CBFCC
:1020B00088B2002853D02A46106850E8003F0546F1
:1020C00023F4907300F04DF8F6D1106800F1080386
:1020D00053E8003F5B0800F108065B0046E800306B
:1020E0000028F2D1202060620023A360E36013681F
:1020F00053E8003F146800F064F8F8D189B2104644
:10210000BDE8F44000F0EFBEF00248BF5FEA4C21AA
:1021100007D54FF4801018622846BDE8F24000F061
:10212000E3BE300607D5390605D52169B9B1284681
:10213000BDE8F4400847700611D579060FD500F0C8
:1021400020F821F0400100F018F8F8D1202020629A
:10215000002121612846BDE8F24000F0C6BEF1BD75
:10216000000045E800300028704721F0800143E876
:1021700000100028704721F4F07142E80010002898
:102180007047286850E8001F02467047296801F12F
:10219000080252E8001F286800F1080321F04001FE
:1021A00043E8001000287047286800F1080151E852
:1021B000001F490800F10803490043E80010002807
:1021C000704723F0100344E80030002870470000F7
:1021D00070B50446674822681368A1680340206907
:1021E0000B4361690343E0690B430343136000251C
:1021F0005168E06821F44051014351609368A1693E
:10220000206A23F430630B435B4903438A429360A3
:102210005A480AD1006800F00300032815D8DFE807
:1022200000F00261754E012110E055498A4236D115
:10223000006810F4403067D0B0F5803F52D0B0F560
:10224000003F63D0B0F5403F39D01021E3694D48DD
:10225000B3F5004F4FF6F0764FF4004260D141B134
:10226000012955D0022908D0042954D0082955D075
:1022700078E001F05FF8002875D061684A0802EB49
:102280004002B2FBF1F080B2A0F11001B14269D27C
:102290000640C0F3420006432068C66063E03A4946
:1022A0008A420ED1006810F440202DD0B0F5802F66
:1022B00018D0B0F5002F29D0B0F5402FC5D102219C
:1022C000C4E732498A420FD1006810F440101BD095
:1022D000B0F5801F06D0B0F5001F17D0B0F5401F35
:1022E000EDD0B2E70421B1E729498A42ADD10068B7
:1022F00010F4400008D0B0F5800FF3D0B0F5000F17
:1023000004D0B0F5400FEBE700219FE708219DE7DF
:1023100001F018F8AFE700F0EFFFACE71046ACE7CC
:1023200041B1012916D0022907D0042915D0082966
:1023300016D017E000F0FEFFA8B1616800EB510075
:10234000B0FBF1F080B2A0F11001B1420AD22268D4
:10235000D06008E000F0F6FFEEE700F0CDFFEBE71D
:102360001046EAE7012500206066A066284670BD99
:1023700020010004F369FFFF0038014030100240E3
:102380000044004000127A0000480040004C004029
:102390000050004090F82410CA0706D50268536820
:1023A000816A23F400330B43536090F824108A07AA
:1023B00006D502685368C16A23F480330B43536027
:1023C00090F824104A0706D502685368016B23F47D
:1023D00080230B43536090F824100A0706D5026847
:1023E0005368416B23F400430B43536090F824106F
:1023F000CA0606D502689368816B23F480530B43A9
:10240000936090F824108A0606D502689368C16B21
:1024100023F400530B43936090F824104A0610D520
:1024200002685368016C23F480130B435360036C00
:10243000B3F5801F05D15368416C23F4C0030B43EF
:10244000536090F824100A0606D501684A68806C2B
:1024500022F4002202434A607047F8B5044604F1B2
:1024600074050020E8606FF07E4700F001FC06462E
:10247000206801680A0708D50097334600224FF408
:102480000011204600F017F860B9206801684A077B
:102490000AD50097334600224FF48001204600F011
:1024A0000AF808B10320F2BD20206860A86000206F
:1024B00020662870F2BD2DE9F041069C05460E46C7
:1024C00090461F462868C1693140B1420CBF0120C7
:1024D0000020404529D114F1010FF3D000F0C8FBD2
:1024E000C01B844200D34CB900F028F8FFF75CFE13
:1024F000FCD100F01DF80021017014E0286801688B
:102500004A07DFD5C1690805DCD52A684FF40061A8
:10251000116200F013F8FFF747FEFCD100F008F855
:10252000C16000220270032000E00020BDE8F081BD
:1025300005F174002021416081607047286850E8EF
:10254000001F024621F4D07142E800100028F5D1A6
:10255000704720B503460020596503F158010A80F1
:102560004A80C860FF229868B0F5805F04D118697E
:1025700048B940F2FF1206E020B9186918B17F206F
:10258000888001E000228A800020886222224A623C
:10259000186800F1080252E8002F00F1080542F027
:1025A000010245E800200028F2D19868B0F5805F6C
:1025B00004BF1869002807BF0FF29122CA600FF20A
:1025C0003D20C86000220A77186850E8001F0246C4
:1025D00041F49071FFF7D1FDF6D120BD70B50446EE
:1025E00004F15805134661652B800020A862222162
:1025F0006962A869E8B10FF2F10181620FF28510FA
:10260000A969C862A9690FF2951008630020A96939
:1026100048632668626DA86906F1240100F055FB45
:1026200038B11020A862002129772020686201209B
:1026300070BD00202877216851E8001F226841F40E
:102640008071FFF79AFDF6D1FFF748FC41F00101D8
:10265000FFF78DFDF8D1FFF741FC41F04001FFF796
:1026600086FDF8D170BD016851E8002F0B4622F0BD
:10267000C00243E800210029F5D12021816770477D
:1026800010B500F010F8FCD100F017F8FCD1016E85
:10269000012902D100F01EF8FCD12021C1670022DF
:1026A0000266426610BD016851E8002F0B4622F415
:1026B000907243E8002100297047016801F1080287
:1026C00052E8002F520801F10804520044E80021AA
:1026D00000297047026852E8002F036822F01002B8
:1026E00043E800210029704738B5426A80692028F4
:1026F00002F1580119D000234B80106800F038F81F
:10270000FBD1106800F028F8FBD1106800F018F831
:10271000FBD1202048628B68012B06D1106850E85D
:10272000003F0446FFF74DFDF8D18B68012B02D125
:1027300009881046E8E0BDE83240104600F034BE9B
:1027400000F1080353E8003F00F1080523F04003BF
:1027500045E800300028704700F1080353E8003FC7
:102760005B0800F108055B0045E800300028704771
:1027700050E8003F044623F4807344E8003000280A
:1027800070470000406A00F158018A68012A18BFAA
:1027900000F04EBE0988490800F0A5BBF8B5446AB0
:1027A00004F1780504F1520728686E6821688A6888
:1027B000110606D5212804D1002038802046FFF7D5
:1027C00052FF21688868410606D5222E04D10020D8
:1027D00038812046FFF754FFA86840F01000A86039
:1027E0002046BDE8F24000F07DBB0000406A00F1E9
:1027F000520100220A810A8000F074BB38B500F053
:102800004CF81DD18B8C9188446D0B402370416D29
:102810004B1C00F048F817D100F053F800F066F8B0
:10282000FCD100F047F80AD1936000F055F8FCD1D4
:102830000168CB69DC0644BF10230B6263E067E0EC
:10284000886940F00800886131BD000038B500F0AB
:1028500024F81DD18B8C9188446D0B402380416DF1
:102860008B1C00F020F817D100F02BF800F03EF898
:10287000FCD100F01FF80AD1936000F02DF8FCD1D4
:102880000168CB69DC0644BF10230B623BE03FE0EC
:10289000886940F00800886131BD00F15802016884
:1028A000536A222B7047436551884B1E53805188D1
:1028B00000297047202151620023D36091680129CB
:1028C0007047036853E8003F046823F4907344E8BA
:1028D00000310029F5D17047016851E8003F0C46EE
:1028E00023F0100344E8003100297047016801F12A
:1028F000080353E8003F5B0801F108055B0045E869
:102900000031002970471188BDE8344000F0EBBA6F
:10291000BDE8324000F048BDDFF80C0381B001682B
:1029200041F001010160026802F001020092009989
:10293000426842F080524260406800F0805000904F
:10294000009801B0704738B586B000F071F8226881
:10295000DFF8D8128A4240D1DFF8D402DFF8D4522F
:10296000026842F080520260016801F080510091DB
:10297000009900F041F94021006800F40030009017
:102980000322009801910292002103914FF09040A0
:1029900001A900F04FFDDFF8A00228600021696066
:1029A0008020E8604FF4807129614FF4806000223C
:1029B00068612021AA60A961EA61284600F05EF9F9
:1029C00008B101F04DF8A5636C62002202211220CB
:1029D00001F062F8122001F07CF807B030BD006809
:1029E0009649884202D1964801220260704710B58C
:1029F00086B000F01DF8226892498A4216D18C48B0
:102A0000816841F480418160816801F480410091D6
:102A1000009900F066F84FF4604100F067F8032277
:102A200005210591049201A900F004FD06B010BD36
:102A30000446142101A801F087B881B000688449D8
:102A4000884209D18048026842F0020202600068B0
:102A500000F002000090009801B0704780B5006857
:102A60007C4A714990420FD1086840F400300860F8
:102A70000022096801F4003100910D21009819200D
:102A800001F00AF8192011E0734A904212D1086847
:102A900040F4802008600022096801F48021009140
:102AA0000E2100981A2000F0F7FF1A20BDE802401E
:102AB00001F00FB801BD10B586B0FFF7B9FF22686D
:102AC00063498A420BD15A4800F00BF8012100F00B
:102AD0000DF804910221059101A900F0ABFC06B0AC
:102AE00010BD026842F4802202607047006800F462
:102AF0008020009002220098544801910292002107
:102B00000391704738B586B004461421684601F039
:102B10001BF82168514A4648914216D1416841F458
:102B200080414160416801F4804100F063F84FF456
:102B3000C06100F066F8012100F06CF8002203216A
:102B4000252000F0A9FF252050E0454A914225D1DB
:102B50008168444D41F400318160816801F40031A5
:102B600000F048F80C2100F04CF8002100F052F879
:102B70003D48286000218020E8606960A9602961E3
:102B8000002068612021E861A961284600F076F8FC
:102B900008B100F065FF25676C6229E0334A914275
:102BA00026D1816841F480218160816801F480210F
:102BB00005910599FFF795FF4FF44061006800F417
:102BC0008020059002220598204800910192002162
:102BD00002910322072104910392694600F02AFC26
:102BE00000220421272000F057FF272000F071FF6A
:102BF00007B030BD05910599026842F400320260C9
:102C00007047006800F4003005900222059800919A
:102C100001927047029103220721049103926946B1
:102C20004FF0904000F006BC181002400001005028
:102C3000141002402C0F002008040240002800401D
:102C40003C044242003800401C100240000400488E
:102C500000040040004401400048014000380140A9
:102C600000440040700F00206C000240004800400B
:102C700001484068704700BF9802002010B504006A
:102C800001D1012010BD022084F8210022681368C0
:102C90006068A1686FF30D130343E0680B4321697B
:102CA000034360690B43A1690343E0690B4303439A
:102CB0001360204600F0F4F80021A163012084F89D
:102CC000210084F82010002010BDF8B5044600252E
:102CD00094F82000012801D10220F2BD94F821606F
:102CE0000120012E84F8200024D1022004F12C06BA
:102CF00084F82100F560206807687F087F0007607E
:102D0000204600F0BCF82168306820B10A6842F023
:102D10000E020A6008E0086840F00A0008602068B7
:102D2000016821F0040101602068016841F001019F
:102D3000016002E084F8205002252846F2BD10B55B
:102D400090F82110022900F1380206D00423136004
:102D5000002180F82010012010BD00F030F80C6830
:102D6000640864000C60916852688B4053600121D4
:102D7000002280F8211080F82020002010BD38B5F6
:102D800090F821100024022900F1340203D004201D
:102D90005060012411E000F012F80D686D086D001C
:102DA0000D60D16895688B406B60012180F821101F
:102DB00080F82040116801B18847204632BD016883
:102DC0000B6823F00E030B60012301687047F8B510
:102DD00000F12802042351690C6801680D689669A6
:102DE00003FA06F73C420FD06F070DD50C68A50615
:102DF00003D40C6824F004040C6000F03BF8516824
:102E0000B9B3BDE8F4400847022303FA06F73C4291
:102E100015D0AF0713D50C68A50606D40C6824F0AE
:102E20000A040C60012180F8211000F023F8002131
:102E300080F820101168E1B1BDE8F440084708238C
:102E400003FA06F6344214D02B0712D50C6824F08E
:102E50000E040C60012300F00DF80121116180F8CF
:102E60002110002180F82010916811B1BDE8F440D4
:102E70000847F1BD916954698B406360704770B534
:102E8000046CC66B0125A5407560046863604068EA
:102E9000102802D1A260E16070BDA160E26070BD47
:102EA00010B502680A4B9A4207D20A498A181424BC
:102EB000B2FBF4F18900084A06E008498A18142395
:102EC000B2FBF3F18900064A0164C26310BD000041
:102ED00008040240F8FFFDBF00000240F8FBFDBF00
:102EE0000004024070477047704770472DE9F8436F
:102EF000040019D02078DFF86054C10716D568683F
:102F000000F00C0004280AD0686800F00C000828C3
:102F100002BF686800F48030B0F5803F41D100F016
:102F2000E6F918B16068002800F05F812078DFF8CA
:102F3000386481071BD5686810F00C0F07D06868EB
:102F400000F00C0008286CD16868C10369D42868B7
:102F5000C0F3400000281CBF2069012840F04581D3
:102F60002968606921F0F80141EAC00129602178EF
:102F7000080740F18C80A069DFF8F013002878D0B2
:102F800001220A60FFF774FE0746686AC0F340003A
:102F900000287CD1FFF76CFEC01B0228F5D9032066
:102FA00026E16068B0F5803F04D1286840F48030A5
:102FB000286014E008B928680AE0B0F5A02F286856
:102FC00006D140F480202860296841F4803105E072
:102FD00020F480302860296821F480212960E86A83
:102FE000A168000941EA0010E862606860B1FFF77B
:102FF0003FFE064600F07BF9002897D1FFF738FE28
:10300000801B6528F6D3CAE7FFF732FE064600F0BC
:103010006EF900288AD0FFF72BFE801B6528F6D3B7
:10302000BDE72069B0B101213160FFF721FE0746FD
:103030002868C0F3400028B9FFF71AFEC01B022819
:10304000F6D9ACE72868616920F0F80040EAC100D1
:1030500028608CE73060FFF70BFE07462868C0F356
:103060004000002883D0FFF703FEC01B0228F5D9DB
:1030700095E70860FFF7FCFD0746686AC0F340006B
:1030800028B1FFF7F5FDC01B0228F6D987E72078A5
:10309000410763D5E8690027C10009D4E86940F019
:1030A0008050E8610127E86900F0805000900098A6
:1030B000DFF8BC82D8F80000C10513D4D8F80000AE
:1030C00040F48070C8F80000FFF7D2FD8146D8F8C0
:1030D0000000C10506D4FFF7CBFDA0EB0900652871
:1030E000F5D35CE7E068012808D008B9286A09E050
:1030F0000528286A06D140F004002862286A40F0BA
:10310000010005E0400840002862286A20F0040021
:10311000286241F28938E06868B1FFF7A9FD81466D
:10312000286AC0F34000A0B9FFF7A2FDA0EB090098
:103130004045F5D333E7FFF79BFD8146286AC0F38E
:10314000400030B1FFF794FDA0EB09004045F5D3F6
:1031500025E71FB1E86920F08050E861E0690028A8
:1031600045D0696801F00C01082931D0022822D12C
:1031700000F040F807462868C0F3406028B1FFF728
:1031800077FDC01B0228F6D909E76868616A226AE0
:1031900020F47410084310436860012000F02BF8FD
:1031A00004462868C0F3406008BBFFF761FD001BC0
:1031B0000228F6D9F3E600F01DF804462868C0F3AB
:1031C0004060A0B1FFF754FD001B0228F6D9E6E6E7
:1031D00001280AD06868226A00F48031914202BF57
:1031E00000F47010616A884201D0012000E00020E4
:1031F000BDE8F28300203066FFF73ABD2DE9F041CB
:103200000400884643D05B4E00F06CF802D200F018
:1032100064F83CD12078504D810705D56A68A068D4
:1032200022F0F00202436A602178C80727D561685E
:10323000012902D100F05BF804E00229286803D1DB
:10324000C0F3406018B922E0C0F34000F8B16868EC
:10325000800841EA80016960FFF70AFD0746686857
:10326000616800F00C00B0EB810F08D0FFF700FDA3
:10327000C01B41F289318842F1D303202BE0306832
:1032800000F00700804504D200F027F801D00120AB
:1032900021E02078410705D56A68E06822F4E06201
:1032A00002436A602178080706D56968206921F41D
:1032B000605141EAC001696000F01EF86A682E4959
:1032C000264BC2F30312895CC84018602548006889
:1032D00000F03EFC0020BDE8F0813168C90848EAF2
:1032E000C1013160306800F0070040457047286830
:1032F000C0F340407047000010B520490A6802F052
:103300000C00082814D100BF1FA3C2F38340D203CE
:10331000185C896A09D500BF1FA4114B01F00F0189
:10332000625CB3FBF2F2504310BD1549484310BD37
:103330000B4810BD0948114A006813681149C3F3CE
:10334000022206E005480D4A006813680D49C3F3E0
:10335000C222895CC840704700100240A4020020CD
:1033600000127A00A0020020000042428004424283
:103370000070004000200240F06B00080410024082
:1033800000093D00606C00080203040506070809F7
:103390000A0B0C0D0E0F101001020304050607089E
:1033A000090A0B0C0D0E0F1038B50168114A1248AE
:1033B000914208D11149124B0A881C88114D00F026
:1033C00031F8114811E0114A914203D10168491CBA
:1033D000016031BD0E4A91420BD10E490E4B0A8855
:1033E0001C880E4D00F01EF80D48BDE83840FEF771
:1033F00033BD31BD0038014048100020F60F0020D9
:1034000024380140E4060020980B002000440040CE
:1034100000480040E002002024480040E402002070
:10342000A00C0020AC54521C0A80011D01227047E0
:10343000704700002DE9F84F00276B4A6B4B4FF0A7
:103440000F0805460E4634E0694CA54214BF05241A
:1034500004248C40674944EA0E0441F82C40C143DF
:10346000146801EA040C7468E40348BF40EA0C0CD9
:10347000C2F800C0546801EA040C7468A40348BF91
:1034800040EA0C0CC2F804C0946801EA040C7468A9
:10349000E40248BF40EA0C0CC2F808C0D46801EA54
:1034A000040C7168890248BF40EA0C0CC2F80CC0D9
:1034B0007F1C316831FA07F000F089800124BC409C
:1034C00014EA0100F4D04FEA470C032101FA0CF191
:1034D0006FEA010E716801F00309B9F1010F1CBF19
:1034E00001F00301022912D1A968D6F80C900EEA66
:1034F000010109FA0CF949EA0101A960696821EAA8
:1035000004047168C1F30011B9400C436C60B90048
:10351000347904F00304032C21D0EC68D6F8089029
:103520000EEA040409FA0CF949EA0404EC6034795F
:1035300004F00304022C12D1FC0805EB840401F012
:103540001C09D4F820A008FA09FB2AEA0B0AD6F8CD
:1035500010B00BFA09F949EA0A09C4F820902C685E
:103560000EEA040E347904F0030404FA0CF444EA7D
:103570000E042C60746814F4403F99D01C6844F029
:1035800001041C604FEA970C1C6804F001040094CD
:1035900001F00C01009C174C54F82C4008FA01FE75
:1035A00024EA0E0EB5F1904F08BF00240ED0124C45
:1035B000A54208BF012409D0104CA54208BF02242F
:1035C00004D00F4CA5427FF43FAF032441E7BDE890
:1035D000F18F0069084018BF0120C0B270470AB1DE
:1035E00081617047816270470004014018100240F9
:1035F000001000480800014000040048000800488E
:10360000000C004870B58AB000F0C2FA00F0C3F9AF
:1036100000F022FADFF80C44DFF80C64206840F474
:103620000020206041F20205216801F4002105918B
:103630000598216841F480012160226802F480022B
:1036400005920598216841F400312160226802F456
:10365000003205920598216841F480212160922171
:10366000226802F480220592002205984FF09040D3
:10367000FFF7B5FF002229463046FFF7B0FF0122D1
:1036800060213046FFF7ABFF92210091012200211B
:1036900002910391019200F06BF920204FF4881100
:1036A000009001910022029200F062F90120019045
:1036B000002202920392009569463046FFF7BAFE57
:1036C000602100911122002102910391019269462B
:1036D0003046FFF7AFFE206840F00200206021680E
:1036E00001F0020100910098216841F00101216080
:1036F00007212268CD4C02F00102009200220098BE
:10370000102000F0C9F9102000F0E3F90022002198
:10371000382000F0C1F9382000F0DBF9182100F062
:103720009CF9C348206000210020206184F820001B
:10373000616001200121A062E061617604F1300541
:103740000420002200216061A260E162E160297032
:1037500022766960204600F02DFA08B100F080F969
:10376000032100910122019200210391042204917E
:10377000059102926946204600F068FD08B100F00C
:103780006FF94FF4827169624FF4E061A9482862D1
:10379000E9620020A862286300216963E963696423
:1037A0004FF40070A8630721E96400202864A8642E
:1037B00028650821696504F1500000F085FF08B113
:1037C00000F04EF904F1B4009B49016000220C2185
:1037D0004FF4E1358260C260026141618261C26181
:1037E000026242624560FEF79BFA08B100F038F9C8
:1037F00004F59C70914900F0C0F808B100F030F970
:1038000004F5DE708E4900F0B8F808B100F028F930
:10381000684600210022002380E80E001C2103A836
:1038200000F092F904F51075864828624721696214
:103830000020A8624FF496712863A863E96204F53A
:103840001876304601F012F808B100F009F90021AD
:10385000009102913046694601F08AFB08B100F000
:10386000FFF860210022039104920592079203A9B8
:103870000822304601F04AF908B100F0F1F830466C
:10388000FFF719F9142101A800F05EF90021009159
:103890007F206D4929600022A860FF216A60E960ED
:1038A0002A616A61AA61284601F0A8FB08B100F00C
:1038B000D7F80F218DF805100420372200218DF84C
:1038C00004008DF8062004910591012201A92846E3
:1038D00001F0E1FB08B100F0C3F801218DF8001000
:1038E0008DF80110E62203218DF802108DF80320D7
:1038F00069460122284601F054FC08B100F0B0F8F6
:103900005248E86647212967002064216867A96753
:10391000E86704F530752860686004F52B7630465A
:1039200000F04CFF08B100F09BF84948A86347211C
:10393000E9630020286442F21071A864E8642865F5
:10394000696404F53E74204600F038FF08B100F0C9
:1039500087F8304600F03FFF204600F03CFF01F0C2
:10396000EBFC4FF4FA6001F097FD01F0FAFCFCE784
:1039700069464FF09040FFF75DBD016000220C21C9
:103980008260C260026141618261C2610262426220
:103990004560FEF7C5B910B59EB0282105A800F016
:1039A000D3F800F059F83C210FA800F0CDF8002121
:1039B0000791012002210C91059009904FF4E0112C
:1039C0004FF480340E9106940D9405A8FFF78EFAFB
:1039D00008B100F045F8022101910F204FF48061F9
:1039E0000090002203910292049202216846FFF7A0
:1039F00005FC08B172B6FEE7012111914FF4802257
:103A000014480F904FF480734FF440711392189341
:103A1000109112940FA801F053FD08B172B6FEE7A1
:103A20001EB010BD1410024000040048E40A00203B
:103A300000010050003800400038014000440040C0
:103A400000480040000400400028004000440140BD
:103A500000480140870001001421684600F074B856
:103A600072B6FEE70901020002D430488154704763
:103A70002F4B02F00F021A4402F8041C70472D4B22
:103A800019684FF6FF020002114000F4E06008439D
:103A9000294908431860704770B5264B1C68C4F369
:103AA00002230124C3F10705052D2EBF0F2504FABB
:103AB00005F56D1E1E1D072E34BF0023DB1E294099
:103AC000994004FA03F3BDE870405B1E1A401143AD
:103AD000C8E7010007D4012200F01F01174B8A40FC
:103AE000400943F820207047BFF34F8F1149144815
:103AF0000A6802F4E06202430A60BFF34F8F00BF1E
:103B0000FDE710B5401EB0F1807F01D3012010BD4C
:103B10000C4C60600F214FF0FF30FFF7A3FF002136
:103B2000A16007202060002010BD000000E400E03C
:103B300018ED00E00CED00E00000FA0500E100E007
:103B40000400FA0510E000E0002201F093BD00003F
:103B500038B50D4D0D4B2A7804464FF47A7118682C
:103B6000B1FBF2F2B0FBF2F0FFF7CBFF50B9102C33
:103B700008D2002221464FF0FF30FFF78DFFAC60E6
:103B8000002032BD012032BD98020020A402002096
:103B900080B50748016841F0100101600320FFF77C
:103BA0006EFF0F20FFF7D4FFFEF7B6FE002002BD28
:103BB00000200240F8B50026044600960CB901200A
:103BC000F2BD04F130052869C1064DD4286998BBBF
:103BD0006E61E8612873AE612046FEF7B4FE20688E
:103BE0008168C80028D400F013FB06462869C10686
:103BF00022D4300020D12869DFF8FC22DFF8FC3223
:103C000020F4885040F0020028612068816821F08B
:103C1000405181602068816841F0805181600A20B4
:103C20001168B1FBF3F34343009302E00098401E98
:103C3000009000980028F9D120688168CA0002D558
:103C40008068810010D5286920F0020040F0100043
:103C500000F0B6F82869296921F0020141F010014D
:103C6000296101263046F2BD2869C106F3D430002F
:103C7000F1D1226890684107EDD42869DFF88032DD
:103C8000DFF88072DFF8801220F4807040F00200CC
:103C90002861B2F1A04FDFF874020ED0824208BF53
:103CA0004FF0A04009D0BA42DFF8501508BF1846BF
:103CB00003D09A420CBF38460020926800F057FCAF
:103CC00003D122681268D2070CD428B100F04EFC50
:103CD00002D10068C20705D4086820F44032606849
:103CE000104308606968607EE268012914BF4FF4E0
:103CF000805C4FF0000C4CEA40310A43A16841EA75
:103D0000020C94F82020012A0ED130B9606A401EBE
:103D10004CEA404040F4803C06E0286920F0020074
:103D200040F0200000F04CF8A06A2168012819D06A
:103D3000B94218BF994210D1B0F5307F08BF4FF497
:103D4000E0700AD0B0F5807F08BF4FF4307004D027
:103D5000B0F5E07F08BF4FF4807040EA0C02E06AE3
:103D600040EA020C8A6812F00C0F0AD1CA68DFF828
:103D700090040240CA60217E28784CEA813141EAF1
:103D8000400C2168DFF87C04CA6802404CEA02005B
:103D9000C860216920680129016B05D1E269090920
:103DA000521E42EA011101E00909090101630020E4
:103DB0006861296921F0020141F00101296151E79F
:103DC0002861686940F00100686170472DE9F84F8B
:103DD000054688462868816814464A0700F18680AF
:103DE00005F13C073978012908BF022000F08180E5
:103DF00001213970B0F1A04F434EDFF80094DFF895
:103E00000CA116BF50453068D9F8000010F01F0013
:103E100068D1284600F0E2FB002883465FD179682C
:103E2000DFF80C04014041F4807179602968B1F138
:103E3000A04F16BF51453068D9F8000010F01F00A0
:103E40001EBFB1F1A04F2F48814207D17A6822F4FA
:103E500080127A60C868810110D50DE0786840F45E
:103E60008010786051450CBFDFF8AC03DFF8AC037D
:103E7000006810F0007001D000F0D2F92346786895
:103E8000C10446BFB86820F006000020B8600021D9
:103E900039704246AC6BDFF89C03A062A96BDFF877
:103EA0009803C862A96BDFF8940308631C202C6890
:103EB00020602868416841F0100141602868C168AD
:103EC00041F00101C160286800F14001A86BFEF7D4
:103ED000FCFE2868816841F00401816008E0002050
:103EE000387005E08B460021397001E04FF0020B7D
:103EF0005846BDE8F28F0000A402002040420F00A7
:103F0000000500500004005008030050000100505C
:103F10002DE9F0470446DFF804532168DFF8F88202
:103F20000868DFF81C93DFF81C63B44FDFF818A3B0
:103F3000420702D54A68500705D40A68100756D5CB
:103F40004868020753D5206CC20603D4206C40F4A5
:103F500000702064B1F1A04F16BF51453068386839
:103F600010F01F0017D0B1F1A04F16BF51453068B7
:103F7000386800F01F0005280DD0B1F1A04F16BF22
:103F800051453068386800F01F0009281CBFB1F1A6
:103F9000A04F494501D1C86804E051450CBF4046D7
:103FA000284600680A46D36813F4406F19D180048C
:103FB00017D40968080714D5906841070FD45168D1
:103FC00021F00C015160216C21F480712164206C7E
:103FD000C10406D4206C40F00100206401E000F030
:103FE00069FB204601F05FFB21680C200860216816
:103FF0000868820602D54A68900606D40A68500608
:1040000001D54868420640F18280206C40F400509F
:1040100020642268B2F1A04F16BF5145306838685D
:1040200010F01F0017D0B1F1A04F16BF51453068F6
:10403000386800F01F0005280DD0B1F1A04F16BF61
:1040400051453068386800F01F0009281CBFB1F1E5
:10405000A04F494501D1C86804E051450CBF404616
:1040600028460068CB6C13F0C00F4AD1820105D5F9
:10407000CA6812F4406F44D1800442D409684806EB
:104080003FD52168B1F1A04F16BF5145306838685F
:1040900010F01F0017D0B1F1A04F16BF5145306886
:1040A000386800F01F0006280DD0B1F1A04F16BFF0
:1040B00051453068386800F01F0007281CBFB1F177
:1040C000A04F494501D1C86803E0514508BF4546A6
:1040D0002868800215D48868010710D420684168D8
:1040E00021F060014160216C21F480512164206C39
:1040F000C10506D4206C40F00100206401E000F00E
:10410000D9FA204601F0D0FA2168602008602268C0
:10411000106801060CD55168080609D5216C41F4D8
:1041200080312164204601F0C0FA216880200860B7
:1041300022681068C1050DD55168C8050AD5216CE3
:1041400041F400312164204601F0B0FA21684FF4B7
:10415000807008602268106881050DD55168880557
:104160000AD5216C41F480212164204601F09FFA98
:1041700021684FF40070086022681068C10624D5D9
:104180005168C80621D5616B012910D0B2F1A04F4A
:104190001CBF52453E46306810F01F0F03D1D16856
:1041A000C80704D40EE0316811F4404F0AD0206CE7
:1041B00040F480602064606C40F00200606420463F
:1041C00001F076FA21681020086020680268510525
:1041D00012D541684A050FD5216C41F48041216414
:1041E0004FF48062616C41F0080161640260204616
:1041F000BDE8F04701F05DBABDE8F0870807005060
:10420000FDBFFFFF07C0F0FF0446206881687047CC
:10421000204600F00DBA00000C0000500C040050C5
:10422000786820F4005040F48050786070470000B7
:10423000FEF1FFFF7D450008C1450008C7450008A5
:104240000004005008030050000100502DE9F8411F
:1042500002460846002102F13C0400912578012D18
:1042600008BF022000F06681012323701568AE6844
:10427000730700F1578103461F265F681868052FF2
:104280004FF0060C0BD20CFB07F7D5F830C0BE4040
:104290002CEA060600FA07F737432F631DE00A2FC2
:1042A00008D27F1F17FB0CF7D5F834C000F052F985
:1042B000686312E00F2F08D20A3F17FB0CF7D5F8FE
:1042C00038C000F047F9A86307E00F3F17FB0CF771
:1042D000D5F83CC000F03EF9E86307251668B068E1
:1042E00010F00C0F3ED118689F680A280DD30A38C9
:1042F00000EB400CD6F818E005FA0CF02EEA0000AE
:1043000007FA0CF70743B7610BE000EB400CD6F857
:1043100014E005FA0CF02EEA000007FA0CF7074348
:10432000776110685F69C668D3F810E0F608760018
:1043300006F00606AEF1010E07FA06F6BEF1030F0F
:10434000DFF85C7332D8DFE80EF0020E1A26D0F8E0
:104350006080D3F800C007EA080747EA8C6700F0DE
:10436000F5F8066645E0D0F864C0D3F800E007EA47
:104370000C0747EA8E6700F0E9F8466639E0D0F8A6
:1043800068C0D3F800E007EA0C0747EA8E6700F040
:10439000DDF886662DE0D0F86CC0D3F800E007EABF
:1043A0000C0747EA8E6700F0D1F821E0066E00F0B6
:1043B000D7F803D1066E26F0004606661068466EF2
:1043C00000F0CEF803D1466E26F00046466610682F
:1043D000866E00F0C5F803D1866E26F0004686662C
:1043E0001068C66E00F0BCF803D1C66E26F0004619
:1043F000C6661068866806F00306012E02D10768BB
:10440000FE073BD41E68012707FA06F6DF68012F76
:1044100006D0D0F8B05025EA0606C0F8B0601AE021
:10442000D0F8B0703E43C0F8B0601F689868166856
:104430000A2F08D3093F07EB4707D6F818C000F04A
:104440007FF8B56107E07F1C07EB4707D6F814C07B
:1044500000F076F87561156838481B68B5F1A04F13
:1044600016BF8542DFF83C62334E102B02D137680D
:104470003A0203E0112B03D13768FA0157D404E064
:10448000122B54D137687A0251D4B5F1A04F0FD016
:10449000854208BF4FF0A0400AD0DFF80C02DFF8D9
:1044A000D870854208BF384602D0BD4218BF0020F0
:1044B000AF6807F00307012F02D12F68FA0731D444
:1044C00028B100F053F802D10068C2072AD4102B9B
:1044D00018D1B5F1A04F2AD13068DFF8D021DFF82C
:1044E000D05140F4000030600A201368B3FBF5F5AA
:1044F00045430095009800281EBF0098401E00907C
:10450000F8D114E0112B06D1B5F1A04F0FD13068CE
:1045100040F0807004E0122B09D1306840F4800034
:10452000306004E0606840F02000606001210020FD
:1045300020700846BDE8F2810807005000010050D5
:10454000BD402CEA0505B840054370473E4346F0A0
:1045500000467047BE402CEA0606B840304370471C
:104560001F6806F0F846B6EB876F7047826802F066
:104570000302012A7047000000050050416A0A6CDE
:1045800012F0500F19D1086C40F4007008640A68EA
:10459000D06810F4406F04BF487E00280AD1086C30
:1045A00020F480700864086CC20403D4086C40F0E6
:1045B00001000864084601F076B8896B0A6B104761
:1045C000406A01F077B8406A016C41F04001016433
:1045D000416C41F00401416401F06AB838B5044609
:1045E0002168886800F00300012802D10A68D30717
:1045F0001CD488686FF39E1098B9886840F0010059
:104600008860FEF735FB054620680168CA070DD4AF
:10461000FEF72EFB401B0328F6D320680168CA076B
:10462000F2D4206C40F01000206433E0002032BD52
:1046300038B5FFF7E9FD01F00301012928D102682F
:10464000D30725D5816801F00D0101291BD18168AF
:1046500041F002018160032021680860FEF708FB39
:10466000054620688168C80712D5FEF701FB401B8C
:104670000328F6D320688168C807F2D5216C41F081
:104680001001216403E0206C40F01000206401E080
:10469000002032BD606C40F001006064012032BD3A
:1046A00000F0FF830803005000040050A402002023
:1046B00040420F00206C40F010002064606C40F01D
:1046C000010060647047000038B5040001D101208A
:1046D00032BD606A28B900F06DF805D00021E161B3
:1046E00002E00020206160610020A06204F15C050E
:1046F000687820B9002129702046FEF778F9022059
:10470000687000F04FF8E168B1F5E06F04D900205F
:10471000B1F5706F03D104E04FF4805001D0002157
:10472000A1626168A268237C01F4827102F40442F0
:104730001143227D03F002031943A36902F0010231
:104740001143227F03F40073194394F8203002F0E0
:1047500038021143A26A03F080031943236802F46C
:10476000005211431960A16994F8242094F8343060
:10477000090C01F0040102F010021143E26803F099
:104780000803194302F4706211430843216848602A
:104790002068C16921F40061C161002068600121C5
:1047A000697032BD2068016821F0400101607047E6
:1047B00004460D466068B0F5827F704738B5040046
:1047C00001D1012032BD00F0E7F818B900F027FA56
:1047D000FEF744F935E090F83D10012901D00120A1
:1047E0007047022180F83D100168CA6842F001025A
:1047F000CA600168DFF87421914218BFB1F1804F9F
:104800000FD0DFF86C2191421CBFDFF8683199426C
:1048100007D0DFF8642191421CBFDFF86031994274
:1048200009D18A68DFF864110A40062A18BFB2F578
:10483000803F04D001680A6842F001020A6000204B
:10484000704702206870211D206800F0ECF90120FB
:104850002873A870E87028716871A871E8712872CF
:104860006872A872E8726870002032BD38B5040022
:1048700001D1012032BD00F08FF818B900F0CFF956
:10488000FEF7DBF8DDE770B5044604F13E0009B938
:1048900002780FE0042908BF42780BD0082908BF2E
:1048A000827807D00C2908BFC27803D010290CBF2A
:1048B00002794279012A01D0012070BD11B902228A
:1048C000027014E0042902D1022242700FE008298C
:1048D00002D1022282700AE00C2902D10222C270A7
:1048E00005E0102907BF02220271022343712068EC
:1048F000012200F02FFB00F02EF818BF904208D0E4
:1049000088421FBFDFF88850A842DFF88860B042B5
:1049100003D1456C45F4004545642068984218BFB2
:10492000B0F1804F09D000F013F81CBF114DA84220
:1049300003D0904218BF884206D100F012F818BF89
:10494000B1F5803F02D0206800F01AF8002070BD59
:10495000074B984270472068044B074A0749984222
:10496000704781680948014006297047002C0140C2
:1049700000040040000800400034014000400140B5
:10498000016841F00101016070470000070001006B
:10499000004401400048014004F13C05687870473C
:1049A00010B50446206801698A0715D5C1688A07D1
:1049B00012D56FF00201016101222277806910F0A7
:1049C000030F204602D000F076FE03E000F074FEF4
:1049D00000F094F800202077206801694A0715D577
:1049E000C1684A0712D56FF00401016102222277E3
:1049F000806910F4407F204602D000F05CFE03E0A6
:104A000000F05AFE00F07AF8002020772068016953
:104A10000A0715D5C1680A0712D56FF008010161B0
:104A200004222277C06910F0030F204602D000F064
:104A300042FE03E000F040FE00F060F80020207726
:104A400020680169CA0615D5C168CA0612D56FF07B
:104A50001001016108222277C06910F4407F2046CE
:104A600002D000F028FE03E000F026FE00F046F839
:104A70000020207720680169CA0708D5C168CA07E5
:104A800005D56FF001010161204600F0CEFC2068E1
:104A900001690A0608D5C1680A0605D56FF08001CC
:104AA0000161204600F009FE20680169CA0508D5A9
:104AB000C1680A0605D56FF480710161204600F0D7
:104AC000FDFD206801694A0608D5C1684A0605D57A
:104AD0006FF040010161204600F0F1FD206801699E
:104AE0008A060AD5C1688A0607D56FF020010161E0
:104AF0002046BDE8104000F0E3BD10BD204600F0A8
:104B0000E0BD002084F83C002846704770B500F0F6
:104B10007FF801D1022070BD012084F83C0052B121
:104B2000042A19D0082A29D00C2A38D0102A48D0B3
:104B3000142A57D068E0206800F0C5F82168886919
:104B400040F008008861886920F0040088618A6963
:104B5000306902438A6158E0206800F0F5F8206867
:104B6000816941F400618161816921F48061816121
:104B70008169326941EA0221816146E0206800F0E2
:104B80001CF92168C86940F00800C861C86920F0B4
:104B90000400C861CA6930690243CA6135E020680F
:104BA00000F043F92068C16941F40061C161C16945
:104BB00021F48061C161C169326941EA0221C161A8
:104BC00023E0206800F058F92168486D40F00800A3
:104BD0004865486D20F0040048654A6D306902431D
:104BE0004A6512E0206800F071F92068416D41F4D7
:104BF00000614165416D21F480614165416D32691B
:104C000041EA0221416500E00125FFF77AFF70BD0E
:104C10000446002594F83C0001280E467047002108
:104C20002970204670472DE9F041DFF8FC72D0F87A
:104C300000C0DFF8F832DFF8F842DFF8F852DFF8AA
:104C4000F862DFF8F8E2DFF8F882B84218BFB0F196
:104C5000804F04D040451CBF7045B0420DD14A681A
:104C6000B8422CF0700C18BFB0F1804F42EA0C0C27
:104C70000BD0404518BF704507D0B04218BFA842BE
:104C800003D0A04218BF984204D1CA682CF4407CDB
:104C900042EA0C0C4A692CF0800C42EA0C020260D9
:104CA000B8428A68C26218BFB0420A68826204D001
:104CB000A8421CBFA042984201D1096901630122A8
:104CC0004261BDE8F0812DE9F041026ADFF85882C7
:104CD000DFF864E2DFF85872DFF858C25208520079
:104CE0000262066A44688569DFF858220B6826F07C
:104CF000020615408A6816431D43404518BF70459B
:104D00008A4B04D060451CBFB84298420DD1CA6896
:104D100026F008061643404518BF704526F00406E5
:104D200005D0604518BFB84201D0984205D14B6903
:104D30008A6924F440741C431443446085614968C3
:104D400041630662BDE8F081F0B5026A22F010020C
:104D50000262056A436884697B4A0E6814408A6867
:104D600044EA062425F0200545EA02156E4E724AF3
:104D7000B04218BF904208D1CF6825F0800545EABF
:104D80000715B04225F040050AD090421CBF694A81
:104D9000904205D0664EB0421CBF644A904206D194
:104DA0004E698A6923F44063164343EA86034360ED
:104DB0008461496881630562F0BDF0B5026A614BA8
:104DC00022F480720262066A4468C5690A6826F4A1
:104DD00000761D408B6846EA03261543524B564A1F
:104DE000984218BF904208D1CF6826F4006646EA80
:104DF0000726984226F480660AD090421CBF4D4A8E
:104E0000904205D04A4B98421CBF484A904206D176
:104E10004B698A6924F44054134344EA0314446000
:104E2000C5614968C1630662F0BD70B5026A22F4CB
:104E300080520262036A4468C569434A00F06DF813
:104E400023F4005343EA0233B0421CBF3A4A904273
:104E500007D0384EB0421FBF354A9042334EB04261
:104E600004D14A6924F4804444EA82144460C56150
:104E700049680164036270BD70B5026A334B22F465
:104E800080320262046A4568466D0A681E40164315
:104E90008B68254A24F4003444EA034490421CBF42
:104EA000254B984207D0234A90421FBF204B98427F
:104EB0001E4A904204D14A6925F4803545EA02250C
:104EC0004560466549688165046270BD70B5026AD7
:104ED00022F480120262036A4468456D1C4A00F0A5
:104EE0001CF823F4001343EA0253B0421CBF124AD9
:104EF000904207D00F4EB0421FBF0D4A90420B4E5A
:104F0000B04204D14A6924F4802444EA82244460F3
:104F100045654968C165036270BD0E68154045EA84
:104F200006258A68004E7047002C01400048014069
:104F300000440140004001400034014000080040AE
:104F4000000400408CFFFEFFFF8CFFFE8FFFFEFF82
:104F5000FF8FFFFE10B501F01F01036A01248C4092
:104F6000A343036202FA01F1036A1943016210BD0F
:104F7000F0B500F13C042278012A01D10220F0BDF5
:104F800001222270022363700668DFF85CE0776814
:104F9000DFF858C0B568764518BF664503D14B6841
:104FA00027F470071F430A6827F0700717437760DC
:104FB0000268724518BFB2F1804F0AD00C48824295
:104FC0001CBF0C4B9A4204D062451CBF0A48824267
:104FD00004D1886825F08005054395600121617042
:104FE00000202070F0BD0000002C01400034014082
:104FF00000040040000800400040014038B50400B3
:1050000031D0607F20B9002121772046FDF7E7FCF1
:1050100000F03BF853202168486200F09BF8FF2520
:10502000E8B92168DFF874028A6802408A60226861
:10503000936860682169034360690B43034393608D
:105040002068E168016120680169A26841EA0241C3
:10505000016100F074F808D400F07AF828B12068F3
:10506000456204216177012032BD2068016C21F482
:105070008021016421680A6CA06902430A6401204E
:1050800021684D626077002032BD02206077CA211E
:10509000226851627047F8B504460D46207F01280A
:1050A00001D10220F2BD00F0C4F82068806815D15B
:1050B00041065CBF0020E870287800F029F9064618
:1050C000687800F025F90702A87800F021F947EA8E
:1050D00006470743E87847EA00470DE041065CBF12
:1050E0000020E8706F782978A8783F0247EA0147E6
:1050F000E978074347EA01472168CA2048625322FA
:105100002068426200F026F8FF26B0B92168DFF877
:10511000900107400F602068826822F4802282603C
:1051200022689368E96828690B430343936000F0A1
:1051300006F803D400F00CF800B180E072E02068BB
:10514000C16821F08001C1602068816888067047CD
:105150002046A9E02046C0E038B500680C46816AC8
:1051600061600369C3F30E03A3600168DFF83001D7
:105170000140080C00F03F0323700D0A00F04000CE
:105180006570A170E0703AB9207800F0CCF800F0BA
:1051900005F800F07AF8A070002032BD2070607829
:1051A000C1E0F8B504460E46207F012801D1022057
:1051B000F2BD00F03EF875782AD1E80603D505F077
:1051C000EF050A357570F07800F0A2F8074600F098
:1051D00063F8050200F05DF845EA074505433078BD
:1051E00045EA40352068CA214162532221684A625B
:1051F000FFF7B0FFFF2650B92168DFF8A80005408F
:105200004D60FFF79CFF0DD4FFF7A2FF50B116E0F1
:10521000F07831782D0245EA0045B078054345EA3B
:105220004135DFE720684662012161770020207761
:10523000F2BD0120207702216177002A70472068A3
:10524000466204216177002020770120F2BD38B545
:105250000C460168DFF84C0049680140A1700D0A56
:105260000B0C05F01F05490BE370657001F0070199
:10527000217042B9E07800F056F8E070FFF78FFF38
:1052800000F003F8A070002032BD6070A0784AE002
:105290000702B0783CE00446707839E0BFFF8FFF2A
:1052A0007F7F7F003FFFFF0038B504462068C1685C
:1052B00021F0A001C160FDF7DBFC05462068C16854
:1052C000880608D4FDF7D4FC401B40F2E93188423F
:1052D000F4D3032032BD002032BD38B50446206827
:1052E000C1684A0612D44FF0FF31C160FDF7C0FC1F
:1052F00005462068C168480608D4FDF7B9FC401B84
:1053000040F2E9318842F4D3032032BD002032BD9F
:10531000002101E0491C0A38C2B20A2AFAD240EA46
:105320000110C0B2704701090A2200F00F0012FB01
:105330000100C0B27047000080B500F0C3F900F072
:10534000ECF900F077FA00F08DFB00F0BFFB00F005
:10535000F3FB01F08FF901F0ADF9BDE8014000F079
:10536000E8B980B5494890F83D10012912D10022D2
:1053700080F83D20032000F032F800F0B8FB00F088
:1053800089FB00F0F7FB00F09EF9032000F032F8F3
:10539000032006E0042000F022F8042000F02AF8A0
:1053A0000420BDE8024002E03848006870473749F1
:1053B0000A68022802D0032803D007E0CB69D31A79
:1053C0000AE00B6AD31A0B630A627047022813467D
:1053D00002D00328F7D07047CB62CA6170472B49CF
:1053E0000A68022802D0032802D07047CA607047BA
:1053F0004A61704710B50446FFF7D6FF022C2349D7
:1054000002D0032C03D007E0CA68821A0AE04A6976
:10541000821A8A62886110BD022C024602D0032CD7
:10542000F7D010BD4A62086110BD70B50446184936
:105430002068164D884220D16868401C686005F1DC
:105440003C020A260123B0FBF6F60A21137001FB89
:10545000160018B9A8685370401CA860002111708C
:105460000220FFF7BCFF00F09BF900F0BDF902201D
:10547000FFF7C0FF0220FFF79AFF20680549884226
:1054800002D12A68521C2A6070BD0000B40F0020AF
:10549000004801400044014038B50446FDF7E8FBF0
:1054A00014F1010F054602D0044801786418FDF795
:1054B000DFFB401BA042FAD331BD00BF98020020A1
:1054C0002DE9FC41054600242868DFF89C61C103F2
:1054D00052D5B069C10009D4B06940F08050B061C4
:1054E0000124B06900F0805000900098DFF87C71D2
:1054F0003868C10511D4386840F480703860FDF711
:10550000B7FB80463868C10507D4FDF7B1FBA0EBB7
:1055100008006528F6D30320A4E0F06910F4407079
:105520001EBF696801F4407188421AD0DFF840114B
:10553000F06901220A60002320F440700B60F061E2
:10554000C0070ED5FDF794FB0746F069C0F3400095
:1055500038B9FDF78DFBC01B41F289318842F4D385
:10556000D9E7F269686822F440720243F2611CB123
:10557000B06920F08050B0612878C10705D5F26A83
:10558000A868920840EA8202F2622978880705D565
:10559000F16AE86821F440310143F1622978480753
:1055A00005D5F16A286921F440210143F162297887
:1055B000880605D5F16AE86921F010010143F1621E
:1055C0002968880305D53168A86B21F4800101435F
:1055D00031602978480605D5F16A286A21F0200152
:1055E0000143F1622978080705D5F16A686921F459
:1055F00040110143F1622978C80605D5F16AA8690E
:1056000021F440010143F1622968880505D531681C
:10561000E86A21F40001014331602978080605D5C4
:10562000B16A686A21F4F8710143B1622968C8055A
:1056300005D5B16AA86A21F478510143B16229689D
:10564000C80405D5F16A286B21F480710143F16229
:105650002968880405D5F16A686B21F4007101435B
:10566000F1620020BDE8F6810410024000700040A5
:105670004004424200B500BF1300964694461039DC
:1056800028BFA0E80C50FAD85FEA417C28BF0CC0C4
:1056900048BF40F8042BC90728BF20F8022B48BF99
:1056A00000F8012B00BD7047704770477047704786
:1056B0007047704770477047704770477047704732
:1056C00070477047704710B586B00B4C002201A997
:1056D0002046FFF741FD002269462046FFF7B7FD4F
:1056E00006489DF804109DF80520018042809DF831
:1056F0000610818006B010BD240D00202A10002065
:10570000BFF34F8F434944480A6802F4E062024302
:105710000A60BFF34F8F00BFFDE780B501223F490C
:105720003F48FEF753FB18B1BDE80140FEF798B9BA
:1057300001BD80B53B493C4B0A781868C00F18BFC3
:10574000012222D11868C0F3807008B102221CE047
:105750001868C0F3407008B1032216E01868C0F35F
:10576000007008B1042210E01868C0F3C06008B1EE
:1057700005220AE01868C0F3806008B1062204E040
:105780001868C0F3400000B107220A7008780528A5
:1057900018BF062801D1FFF7B3FF0728FBD001BDD2
:1057A00010B5224C1E480122211DFEF70FFB08B147
:1057B000FEF756F994ED010AB8EE400ADFED110A42
:1057C00060EE200A9FED101A20EE811ADFED0F1A0D
:1057D00061EE211A9FED0E0A81EE800ABDEEC00A2D
:1057E00010EE100A208010BD10B520214FF090401F
:1057F000FDF7EFFE0E4C01281CBF002020706070EA
:1058000010BD000000404E45000080390000FA46FF
:1058100000401C460CED00E00400FA054410002096
:10582000E40A0020561000202410024040100020FE
:105830004D100020012202217048FDF7D0BE00006B
:105840002DE9F94E2DED028B82B06D4F9DF81000C1
:1058500082A1002838780CBF4FF4FA644FF47A74B0
:10586000012891EC028A16D1FDF702FAF968401A74
:10587000A04213D297ED020AD7ED010AF0EE408A5A
:10588000B0EE608A02B0B0EE480AF0EE680ABDECF5
:10589000028BBDE8F38E08B901203870FDF7E8F9F6
:1058A000F86042F21179002000F0B3F8002200F015
:1058B000D0F80A20FFF7F0FD00F0CAF8012000F050
:1058C000A8F84C4600F0A0F8012802D1641EF9D1D6
:1058D000D8E74C4600F098F8012802D0641EF9D1B0
:1058E000D0E700F091F8012803D1B9F10109F8D10E
:1058F000C8E705216846FEF727F9002607254FF07F
:10590000000ADFF80091D3464C4600F07DF80128EC
:1059100003D0641E0BF1010BF7D100F075F80128DC
:1059200004D1B9F101090AF1010AF6D1D34506D231
:105930001DF806000121A94008430DF806006D1E60
:10594000EAB2FF2ADBD1761C042ED7DD9DF80120B8
:105950009DF800309DF802109DF803009DF804406A
:10596000D318CB18C318DBB2A3423DD19DF8103039
:10597000012B29D19DF8003042EA032200EE902A43
:105980009FED1C0AF8EEE00A60EE800A0A06B0EE0F
:10599000608A08D440EA012000EE900AF8EEE00A9E
:1059A00020EE800A1EE0DFED140A01F07F0140EADC
:1059B000012000EE100AB8EEC00A60EE200A8DF851
:1059C0000210F0EE608A0FE018000DD19DF8000083
:1059D00000EE100AB8EE400AB0EE408A00EE101A4F
:1059E000B8EE400AF0EE408A87ED018AC7ED028AE0
:1059F00048E70000CDCCCC3DCDCCCCBD0004004868
:105A000030100020915F010080214FF09040FDF7A1
:105A1000E0BD18B585B0044614216846FEF794F839
:105A200054B900F015F88021112200910192002153
:105A300003220291039204E0802000210090019152
:105A4000029169464FF09040FDF7F4FC06B010BD9E
:105A5000012280214FF09040FDF7C1BD0000000001
:105A60000000000080B5012213491448FCF7F4F946
:105A700008B1FDF7F5FFBDE80240114810B5044636
:105A8000FBF766FB2146BDE8104082B264230B4859
:105A9000FCF786B910B50B4C228862B16423211D36
:105AA0000648FCF77DF9228807486423211DFCF78E
:105AB00077F90020208010BD4F100020A00C00209E
:105AC0004C6B0008E0020020980B002080B50922F2
:105AD00017491848FCF7D4F908B1FDF7C1FFBDE834
