:020000040800F2
:1000000088110020A1450008B9430008C143000839
:10001000C9430008D1430008D9430008000000008C
:10002000000000000000000000000000E1430008A4
:10003000E543000800000000E9430008ED43000824
:10004000C9450008CD450008D1450008D545000840
:10005000D9450008DD450008E1450008E5450008F0
:10006000E9450008ED450008F1450008F5450008A0
:10007000F9450008FD45000801460008054600084E
:10008000F143000809460008F74300080D46000840
:10009000114600081546000819460008FD430008EF
:1000A0001D460008034400080944000821460008D2
:1000B00025460008294600082D460008314600085C
:1000C00035460008394600083D460008414600080C
:1000D000454600080F44000849460008154400083A
:1000E0004D4600085146000855460008594600088C
:1000F0005D4600086146000865460008694600083C
:100100000000000000000000000000006D46000834
:100110007146000875460008794600087D460008CB
:100120001B440008814600088546000889460008EF
:100130008D46000891460008000000000000000005
:1001400095460008994600089D46000800000000FA
:10015000000000000000000000000000000000009F
:100160000000000000000000A1460008A5460008AD
:10017000A946000800000000000000000000000088
:1001800000000000AD46000838B5040009D004F1B5
:100190007405696809B900F01EF800F021F801281B
:1001A00001D1012032BD606A08B100F02AF800F0E8
:1001B0000AF821F02A01FFE7816000F01BF8BDE892
:1001C000324000F07EBB2068416821F490414160DC
:1001D00020688168704700202870204600F0C6BE65
:1001E000242169602068026852085200026020469B
:1001F00000F022BA2068016841F001010160204648
:100200007047204600F0FABA2DE9FC47054605F193
:100210007404884660682028174699464DD1B8F185
:10022000000F14BF002F012048D02078012844D0AF
:10023000012121700020E0602122626005F150065A
:1002400000F04EFF378082467780A868B0F5805F67
:1002500004BF286900280EBF4746404600270021FA
:10026000217080460FE018F8012B028508E028680D
:10027000B8F1000FF7D137F8021BC1F3080101856F
:100280007088411E718053467088CDF80090002818
:1002900007D000228021284600F041FB0028E6D04C
:1002A00005E000224021284600F039FB08B1032078
:1002B00004E020206060002000E00220BDE8F68716
:1002C00038B500F025F80DD109B1140001D1012095
:1002D00032BD0478012C05D000F020F8BDE838408C
:1002E00000F06BBB022032BD38B500F011F80DD123
:1002F00009B1140001D1012032BD0478012C05D0D0
:1003000000F00CF8BDE8384000F09CBB022032BD84
:10031000034603F174008468202C704701250570A2
:10032000002018661C686068040209D5186850E847
:10033000004F054644F0806445E800400028F5D1B0
:1003400018467047206800F1080151E8001F00F1CD
:1003500008037047F8B5054640F60F022B68DE69C2
:100360001F68D3F808C0324005F1580407F0200098
:1003700006F020010BD1002918BF00280DD0E1683C
:10038000002900F020812846BDE8F44008475FEAD4
:10039000CC7203D4DFF84024174271D0F20707D59E
:1003A000FA0505D501221A62A36A43F00103A3628C
:1003B000B20748BF5FEACC7306D52B6802221A62E7
:1003C000A26A42F00402A262720748BF5FEACC73DD
:1003D00006D52B6804221A62A26A42F00202A262C7
:1003E00032070AD510B95FEACC7206D52A6808230D
:1003F0001362A26A42F00802A262320509D57B01AB
:1004000007D52E684FF400623262A26A42F02002E1
:10041000A262A26A002A32D0002918BF002803D0A5
:10042000E16809B128468847A06A29688A685106A8
:1004300002D410F0280F1DD0284600F055FB286884
:100440008168480611D500F0D5F8FCD1A06960B1EB
:100450000FF601014163A06900F0C9FE00280ED02B
:10046000A069416BBDE8F44008472846BDE8F2406A
:1004700000F070BF284600F06DFF0020A062F1BDC3
:10048000A068012874D1F00672D5F90670D5102045
:10049000186229688868410638D5A16908684068EB
:1004A00080B20028EBD022889042E8DA6080886928
:1004B000202825D0296851E8001F2A6821F480717E
:1004C00000F08FF8F6D100F0A3F8FCD1286800F115
:1004D000080151E8001F00F1080321F0400100F07D
:1004E0007AF8F3D1202060620021A16000F07DF84D
:1004F00021F0100100F075F8F8D1A06900F057FE66
:1005000021886088091A89B228462DE022886188EE
:100510006088511A00281CBF88B2002853D02A4690
:10052000106850E8003F054623F4907300F04DF842
:10053000F6D1106800F1080353E8003F5B0800F1B2
:1005400008065B0046E800300028F2D120206062F7
:100550000023A360E360136853E8003F146800F0D1
:1005600064F8F8D189B21046BDE8F44000F0F3BE5B
:10057000F00248BF5FEA4C2107D54FF480101862A3
:100580002846BDE8F24000F0E7BE300607D5390640
:1005900005D52169B9B12846BDE8F4400847700681
:1005A00011D579060FD500F020F821F0400100F0B8
:1005B00018F8F8D120202062002121612846BDE8EA
:1005C000F24000F0CABEF1BD000045E8003000284E
:1005D000704721F0800143E800100028704721F4A3
:1005E000F07142E8001000287047286850E8001FAA
:1005F00002467047296801F1080252E8001F286886
:1006000000F1080321F0400143E800100028704782
:10061000286800F1080151E8001F490800F10803AB
:10062000490043E800100028704723F0100344E815
:10063000003000287047000070B504466748226803
:100640001368A168034020690B4361690343E069B3
:100650000B430343136000255168E06821F44051C7
:10066000014351609368A169206A23F430630B430E
:100670005B4903438A4293605A480AD1006800F0FC
:100680000300032815D8DFE800F00261754E012150
:1006900010E055498A4236D1006810F4403067D0E6
:1006A000B0F5803F52D0B0F5003F63D0B0F5403F89
:1006B00039D01021E3694D48B3F5004F4FF6F0767D
:1006C0004FF4004260D141B1012955D0022908D030
:1006D000042954D0082955D078E001F063F80028A7
:1006E00075D061684A0802EB4002B2FBF1F080B2BB
:1006F000A0F11001B14269D20640C0F342000643A6
:100700002068C66063E03A498A420ED1006810F45E
:1007100040202DD0B0F5802F18D0B0F5002F29D073
:10072000B0F5402FC5D10221C4E732498A420FD12A
:10073000006810F440101BD0B0F5801F06D0B0F553
:10074000001F17D0B0F5401FEDD0B2E70421B1E78C
:1007500029498A42ADD1006810F4400008D0B0F5B4
:10076000800FF3D0B0F5000F04D0B0F5400FEBE7E9
:1007700000219FE708219DE701F01CF8AFE700F09A
:10078000F3FFACE71046ACE741B1012916D00229CE
:1007900007D0042915D0082916D017E001F002F877
:1007A000A8B1616800EB5100B0FBF1F080B2A0F19C
:1007B0001001B1420AD22268D06008E000F0FAFFCE
:1007C000EEE700F0D1FFEBE71046EAE70125002055
:1007D0006066A066284670BD20010004F369FFFF33
:1007E00000380140301002400044004000127A00FE
:1007F00000480040004C00400050004090F8241099
:10080000CA0706D502685368816A23F400330B4394
:10081000536090F824108A0706D502685368C16AAD
:1008200023F480330B43536090F824104A0706D515
:1008300002685368016B23F480230B43536090F8E4
:1008400024100A0706D502685368416B23F400435D
:100850000B43536090F82410CA0606D502689368CB
:10086000816B23F480530B43936090F824108A0625
:1008700006D502689368C16B23F400530B43936061
:1008800090F824104A0610D502685368016C23F4CE
:1008900080130B435360036CB3F5801F05D153687D
:1008A000416C23F4C0030B43536090F824100A06F4
:1008B00006D501684A68806C22F4002202434A602F
:1008C0007047F8B5044604F174050020E8606FF045
:1008D0007E4700F005FC0646206801680A0708D537
:1008E0000097334600224FF40011204600F017F81D
:1008F00060B9206801684A070AD50097334600228C
:100900004FF48001204600F00AF808B10320F2BD40
:1009100020206860A860002020662870F2BD2DE9C4
:10092000F041069C05460E4690461F462868C16960
:100930003140B1420CBF01200020404529D114F1C3
:10094000010FF3D000F0CCFBC01B844200D34CB9A4
:1009500000F028F8FFF75CFEFCD100F01DF8002144
:10096000017014E0286801684A07DFD5C1690805ED
:10097000DCD52A684FF40061116200F013F8FFF72C
:1009800047FEFCD100F008F8C1600022027003208D
:1009900000E00020BDE8F08105F1740020214160F5
:1009A00081607047286850E8001F024621F4D0712A
:1009B00042E800100028F5D1704720B5034600201A
:1009C000596503F158010A804A80C860FF2298687F
:1009D000B0F5805F04D1186948B940F2FF1206E013
:1009E00020B9186918B17F20888001E000228A8030
:1009F0000020886222224A62186800F1080252E848
:100A0000002F00F1080542F0010245E8002000280F
:100A1000F2D19868B0F5805F04BF1869002807BF5D
:100A20000FF29122CA600FF23D20C86000220A77BF
:100A3000186850E8001F024641F49071FFF7D1FD9D
:100A4000F6D120BD70B5044604F158051346616522
:100A50002B800020A86222216962A869E8B10FF208
:100A6000F10181620FF28510A969C862A9690FF2CC
:100A7000951008630020A96948632668626DA8691B
:100A800006F1240100F059FB38B11020A8620021C2
:100A9000297720206862012070BD00202877216816
:100AA00051E8001F226841F48071FFF79AFDF6D1EA
:100AB000FFF748FC41F00101FFF78DFDF8D1FFF78A
:100AC00041FC41F04001FFF786FDF8D170BD01689F
:100AD00051E8002F0B4622F0C00243E80021002914
:100AE000F5D120218167704710B500F010F8FCD1D6
:100AF00000F017F8FCD1016E012902D100F01EF8B8
:100B0000FCD12021C16700220266426610BD016847
:100B100051E8002F0B4622F4907243E8002100298F
:100B20007047016801F1080252E8002F520801F1F4
:100B30000804520044E8002100297047026852E886
:100B4000002F036822F0100243E8002100297047BB
:100B500038B5426A8069202802F1580119D0002373
:100B60004B80106800F038F8FBD1106800F028F8CE
:100B7000FBD1106800F018F8FBD1202048628B6888
:100B8000012B06D1106850E8003F0446FFF74DFDE9
:100B9000F8D18B68012B02D109881046E8E0BDE846
:100BA0003240104600F038BE00F1080353E8003F21
:100BB00000F1080523F0400345E8003000287047A5
:100BC00000F1080353E8003F5B0800F108055B00F3
:100BD00045E800300028704750E8003F044623F401
:100BE000807344E80030002870470000406A00F13C
:100BF00058018A68012A18BF00F052BE09884908C6
:100C000000F0A9BBF8B5446A04F1780504F1520775
:100C100028686E6821688A68110606D5212804D1E3
:100C2000002038802046FFF752FF2168886841067F
:100C300006D5222E04D1002038812046FFF754FF2C
:100C4000A86840F01000A8602046BDE8F24000F01F
:100C500081BB0000406A00F1520100220A810A8033
:100C600000F078BB38B500F04CF81DD18B8C918822
:100C7000446D0B402370416D4B1C00F048F817D1B8
:100C800000F053F800F066F8FCD100F047F80AD104
:100C9000936000F055F8FCD10168CB69DC0644BFD5
:100CA00010230B6263E067E0886940F00800886108
:100CB00031BD000038B500F024F81DD18B8C91882F
:100CC000446D0B402380416D8B1C00F020F817D140
:100CD00000F02BF800F03EF8FCD100F01FF80AD12C
:100CE000936000F02DF8FCD10168CB69DC0644BFAD
:100CF00010230B623BE03FE0886940F00800886108
:100D000031BD00F158020168536A222B70474365D8
:100D100051884B1E53805188002970472021516211
:100D20000023D360916801297047036853E8003FAE
:100D3000046823F4907344E800310029F5D170472A
:100D4000016851E8003F0C4623F0100344E80031ED
:100D500000297047016801F1080353E8003F5B0870
:100D600001F108055B0045E8003100297047118852
:100D7000BDE8344000F0EFBABDE8324000F04CBDB1
:100D8000DFF8140381B0016841F0010101600268DD
:100D900002F0010200920099426842F080524260E3
:100DA000406800F080500090009801B0704738B55E
:100DB00086B000F073F82168DFF8E002814240D18C
:100DC000DFF8DC02DFF8DC52016841F0805101609D
:100DD000026802F080520092009900F044F940212C
:100DE000006800F400300090032200980191029204
:100DF000002103914FF0904001A900F067FDDFF85A
:100E0000A8022860002169608020E8604FF48071AA
:100E100029614FF48060002268612021AA60A961E5
:100E2000EA61284600F062F908B101F07AF8A5639A
:100E30006C6200220221122001F090F8122001F0D1
:100E4000AAF807B030BD00689849884202D1984896
:100E500001220260704710B586B000F01FF82168CB
:100E60009448814218D18E48816841F48041816064
:100E7000816801F4804100910099026842F4802267
:100E800002604FF4604100F065F8032205210591EE
:100E9000049201A900F01AFD06B010BD0446142208
:100EA000002101A801F0B2B881B0006884498842ED
:100EB00009D18148026842F002020260006800F035
:100EC00002000090009801B0704780B500687D4A2C
:100ED000714990420FD1086840F400300860002248
:100EE000096801F4003100910D210098192001F0EA
:100EF00035F8192011E0744A904212D1086840F484
:100F0000802008600022096801F4802100910E21F0
:100F100000981A2001F022F81A20BDE8024001F0E2
:100F20003AB801BD10B586B0FFF7B8FF2168644834
:100F300081420DD15A48016841F4802101600121AC
:100F400000F008F804910221059101A900F0BEFC0F
:100F500006B010BD006800F48020009002220098C6
:100F600056480191029200210391704738B586B02E
:100F7000044614220021684601F048F82168534ACB
:100F80004748914216D1416841F48041416041682F
:100F900001F4804100F065F84FF4C06100F068F89A
:100FA000012100F06EF800220321252000F0D6FF79
:100FB000252052E0464A914225D18168454D41F4B1
:100FC00000318160816801F4003100F04AF80C21A1
:100FD00000F04EF8002100F054F83F48286000214E
:100FE0008020E8606960A960296100206861202193
:100FF000E861A961284600F079F808B100F091FF96
:1010000025676C622BE0354A914228D1816841F412
:1010100080218160816801F4802105910599026831
:1010200042F4802202604FF44061006800F48020A6
:101030000590022205982148009101920021029119
:101040000322072104910392694600F03FFC00222D
:101050000421272000F082FF272000F09CFF07B02A
:1010600030BD05910599026842F400320260704774
:10107000006800F40030059002220598009101926A
:1010800070470291032207210491039269464FF0B1
:10109000904000F01BBC00001810024000010050FE
:1010A000141002405C0C002008040240002800409C
:1010B0003C044242003800401C100240000400483A
:1010C0000004004000440140004801400038014055
:1010D00000440040A00C00206C000240004800408A
:1010E00001484068704700BF0000002010B50400B0
:1010F00001D1012010BD022084F82100226813686C
:101100006068A1686FF30D130343E0680B43216926
:10111000034360690B43A1690343E0690B43034345
:101120001360204600F0F4F80021A163012084F848
:10113000210084F82010002010BDF8B504460025D9
:1011400094F82000012801D10220F2BD94F821601A
:101150000120012E84F8200024D1022004F12C0665
:1011600084F82100F560206807687F087F00076029
:10117000204600F0BCF82168306820B10A6842F0CF
:101180000E020A6008E0086840F00A000860206863
:10119000016821F0040101602068016841F001014B
:1011A000016002E084F8205002252846F2BD10B507
:1011B00090F82110022900F1380206D004231360B0
:1011C000002180F82010012010BD00F030F80C68DC
:1011D000640864000C60916852688B405360012180
:1011E000002280F8211080F82020002010BD38B5A2
:1011F00090F821100024022900F1340203D00420C9
:101200005060012411E000F012F80D686D086D00C7
:101210000D60D16895688B406B60012180F82110CA
:1012200080F82040116801B18847204632BD01682E
:101230000B6823F00E030B60012301687047F8B5BB
:1012400000F12802042351690C6801680D68966951
:1012500003FA06F73C420FD06F070DD50C68A506C0
:1012600003D40C6824F004040C6000F03BF85168CF
:10127000B9B3BDE8F4400847022303FA06F73C423D
:1012800015D0AF0713D50C68A50606D40C6824F05A
:101290000A040C60012180F8211000F023F80021DD
:1012A00080F820101168E1B1BDE8F4400847082338
:1012B00003FA06F6344214D02B0712D50C6824F03A
:1012C0000E040C60012300F00DF80121116180F87B
:1012D0002110002180F82010916811B1BDE8F44080
:1012E0000847F1BD916954698B406360704770B5E0
:1012F000046CC66B0125A540756004686360406896
:10130000102802D1A260E16070BDA160E26070BDF2
:1013100010B502680A4B9A4207D20A498A18142467
:10132000B2FBF4F18900084A06E008498A18142340
:10133000B2FBF3F18900064A0164C26310BD0000EC
:1013400008040240F8FFFDBF00000240F8FBFDBFAB
:101350000004024070477047704770472DE9F8431A
:10136000040019D02078DFF86054C10716D56868EA
:1013700000F00C0004280AD0686800F00C0008286F
:1013800002BF686800F48030B0F5803F41D100F0C2
:10139000E6F918B16068002800F05F812078DFF876
:1013A000386481071BD5686810F00C0F07D0686897
:1013B00000F00C0008286CD16868C10369D4286863
:1013C000C0F3400000281CBF2069012840F045817F
:1013D0002968606921F0F80141EAC001296021789B
:1013E000080740F18C80A069DFF8F013002878D05E
:1013F00001220A60FFF774FE0746686AC0F34000E6
:1014000000287CD1FFF76CFEC01B0228F5D9032011
:1014100026E16068B0F5803F04D1286840F4803050
:10142000286014E008B928680AE0B0F5A02F286801
:1014300006D140F480202860296841F4803105E01D
:1014400020F480302860296821F480212960E86A2E
:10145000A168000941EA0010E862606860B1FFF726
:101460003FFE064600F07BF9002897D1FFF738FED3
:10147000801B6528F6D3CAE7FFF732FE064600F068
:101480006EF900288AD0FFF72BFE801B6528F6D363
:10149000BDE72069B0B101213160FFF721FE0746A9
:1014A0002868C0F3400028B9FFF71AFEC01B0228C5
:1014B000F6D9ACE72868616920F0F80040EAC1007D
:1014C00028608CE73060FFF70BFE07462868C0F302
:1014D0004000002883D0FFF703FEC01B0228F5D987
:1014E00095E70860FFF7FCFD0746686AC0F3400017
:1014F00028B1FFF7F5FDC01B0228F6D987E7207851
:10150000410763D5E8690027C10009D4E86940F0C4
:101510008050E8610127E86900F080500090009851
:10152000DFF8BC82D8F80000C10513D4D8F8000059
:1015300040F48070C8F80000FFF7D2FD8146D8F86B
:101540000000C10506D4FFF7CBFDA0EB090065281C
:10155000F5D35CE7E068012808D008B9286A09E0FB
:101560000528286A06D140F004002862286A40F065
:10157000010005E0400840002862286A20F00400CD
:10158000286241F28938E06868B1FFF7A9FD814619
:10159000286AC0F34000A0B9FFF7A2FDA0EB090044
:1015A0004045F5D333E7FFF79BFD8146286AC0F33A
:1015B000400030B1FFF794FDA0EB09004045F5D3A2
:1015C00025E71FB1E86920F08050E861E069002854
:1015D00045D0696801F00C01082931D0022822D1D8
:1015E00000F040F807462868C0F3406028B1FFF7D4
:1015F00077FDC01B0228F6D909E76868616A226A8C
:1016000020F47410084310436860012000F02BF8A8
:1016100004462868C0F3406008BBFFF761FD001B6B
:101620000228F6D9F3E600F01DF804462868C0F356
:101630004060A0B1FFF754FD001B0228F6D9E6E692
:1016400001280AD06868226A00F48031914202BF02
:1016500000F47010616A884201D0012000E000208F
:10166000BDE8F28300203066FFF73ABD2DE9F04176
:101670000400884643D05B4E00F06CF802D200F0C4
:1016800064F83CD12078504D810705D56A68A06880
:1016900022F0F00202436A602178C80727D561680A
:1016A000012902D100F05BF804E00229286803D187
:1016B000C0F3406018B922E0C0F34000F8B1686898
:1016C000800841EA80016960FFF70AFD0746686803
:1016D000616800F00C00B0EB810F08D0FFF700FD4F
:1016E000C01B41F289318842F1D303202BE03068DE
:1016F00000F00700804504D200F027F801D0012057
:1017000021E02078410705D56A68E06822F4E062AC
:1017100002436A602178080706D56968206921F4C8
:10172000605141EAC001696000F01EF86A682E4904
:10173000264BC2F30312895CC84018602548006834
:1017400000F06EFC0020BDE8F0813168C90848EA6D
:10175000C1013160306800F00700404570472868DB
:10176000C0F340407047000010B520490A6802F0FD
:101770000C00082814D100BF1FA3C2F38340D2037A
:10178000185C896A09D500BF1FA4114B01F00F0135
:10179000625CB3FBF2F2504310BD1549484310BDE3
:1017A0000B4810BD0948114A006813681149C3F37A
:1017B000022206E005480D4A006813680D49C3F38C
:1017C000C222895CC8407047001002400C00002013
:1017D00000127A00080000200000424280044242C9
:1017E00000700040002002402C4500080410024018
:1017F00000093D00C045000802030405060708096A
:101800000A0B0C0D0E0F1010010203040506070849
:10181000090A0B0C0D0E0F1038B50168114A124859
:10182000914208D11149124B0A881C88114D00F0D1
:1018300031F8114811E0114A914203D10168491C65
:10184000016031BD0E4A91420BD10E490E4B0A8800
:101850001C880E4D00F01EF80D48BDE83840FEF71C
:101860002FBD31BD003801407C0D0020360D002019
:101870002438014014040020C8080020004400401F
:1018800000480040100000202448004014000020C0
:10189000D0090020AC54521C0A80011D012270475F
:1018A00070470EE002684368024408305FEAC37C78
:1018B00044BF4B445B1E52F804CB43F804CB091FD2
:1018C000F9D150F8041B0029ECD170472DE9F84FED
:1018D0000027704A704B4FF00F0805460E4634E063
:1018E0006E4CA54214BF052404248C406C4944EA84
:1018F0000E0441F82C40C143146801EA040C7468DA
:10190000E40348BF40EA0C0CC2F800C0546801EA86
:10191000040C7468A40348BF40EA0C0CC2F804C06D
:10192000946801EA040C7468E40248BF40EA0C0CB5
:10193000C2F808C0D46801EA040C7168890248BF83
:1019400040EA0C0CC2F80CC07F1C316831FA07F079
:1019500000F089800124BC4014EA0100F4D04FEA71
:10196000470C032101FA0CF16FEA010E716801F0D6
:101970000309B9F1010F1CBF01F00301022912D1C3
:10198000A968D6F80C900EEA010109FA0CF949EAA7
:101990000101A960696821EA04047168C1F30011BA
:1019A000B9400C436C60B900347904F00304032C93
:1019B00021D0EC68D6F808900EEA040409FA0CF974
:1019C00049EA0404EC60347904F00304022C12D1D7
:1019D000FC0805EB840401F01C09D4F820A008FAE7
:1019E00009FB2AEA0B0AD6F810B00BFA09F949EA02
:1019F0000A09C4F820902C680EEA040E347904F029
:101A0000030404FA0CF444EA0E042C60746814F421
:101A1000403F99D01C6844F001041C604FEA970CC9
:101A20001C6804F00104009401F00C01009C1C4CA3
:101A300054F82C4008FA01FE24EA0E0EB5F1904F3E
:101A400008BF00240ED0174CA54208BF012409D0BE
:101A5000154CA54208BF022404D0144CA5427FF4C3
:101A60003FAF032441E7BDE8F18F0069084018BF8C
:101A70000120C0B270470AB181617047816270472E
:101A80000B4A136803421CBF106000F07BBB704719
:101A9000000000000004014018100240001000483F
:101AA000080001400004004800080048000C0048FD
:101AB0001404014070B58AB000F086FB00F0C8F94C
:101AC00000F02AFADFF81C44DFF81C64206840F4B8
:101AD0000020206041F20205216801F400210591F7
:101AE0000598216841F480012160226802F4800297
:101AF00005920598216841F400312160226802F4C2
:101B0000003205920598216841F4802121609221DC
:101B1000226802F480220592002205984FF090403E
:101B2000FFF7A9FF002229463046FFF7A4FF012254
:101B300060213046FFF79FFF92210091012200F0C3
:101B400073F94FF09040FFF7C1FE20204FF4881149
:101B5000009001910022029269464FF09040FFF7F9
:101B6000B5FE012001900022029203920095694681
:101B70003046FFF7ABFE60210091112200F054F9CE
:101B80003046FFF7A3FE00220121172000F0E6F9FE
:101B9000172000F000FA206840F002002060216861
:101BA00001F0020100910098216841F001012160DB
:101BB00007212268CD4C02F0010200920022009819
:101BC000102000F0CBF9102000F0E5F900220021F0
:101BD000382000F0C3F9382000F0DDF9182200F0B9
:101BE0009CF9C348206000200021206184F8200077
:101BF000616001200121A062E061617604F130059D
:101C00000420002200216061A260E162E16029708D
:101C100022766960204600F0E9FA08B100F081F907
:101C200003210091012201920021039104220491D9
:101C3000059102926946204600F024FE08B100F0AA
:101C400070F94FF4827169624FF4E061A94828622B
:101C5000E9620020A862286300216963E96369647E
:101C60004FF40070A8630721E96400202864A86489
:101C700028650821696504F1500001F041F808B1B8
:101C800000F04FF904F1B4009B49016000220C21DF
:101C90004FF4E1358260C260026141618261C261DC
:101CA000026242624560FEF76FFA08B100F039F94E
:101CB00004F59C70914900F0BDF808B100F031F9CD
:101CC00004F5DE708E4900F0B5F808B100F029F98E
:101CD0000C2200F022F91C22002103A800F096F942
:101CE00004F5107587482862472169620020A862C0
:101CF0004FF496712863A863E96204F518763046BC
:101D000001F0D0F808B100F00CF900210091029127
:101D10003046694601F048FC08B100F002F9602144
:101D20000022039104920592079203A908223046EB
:101D300001F008FA08B100F0F4F83046FFF7F2F8C5
:101D40001422002101A800F061F9042200F0E5F856
:101D50006D4828600021FF207F22E8606960AA604A
:101D600029616961A961284601F064FC08B100F0AD
:101D7000D8F80F218DF805100420372200218DF8A6
:101D800004008DF8062004910591012201A928463E
:101D900001F09DFC08B100F0C4F801218DF800109D
:101DA0008DF80110E62203218DF802108DF8032032
:101DB00069460122284601F010FD08B100F0B1F893
:101DC0005248E86647212967002064216867A967AF
:101DD000E86704F530752860686004F52B763046B6
:101DE00001F008F808B100F09CF84948A8634721C1
:101DF000E9630020286442F21071A864E864286551
:101E0000696404F53E74204600F0F4FF08B100F068
:101E100088F8304600F0FBFF204600F0F8FF01F0A4
:101E2000A7FD01F0BAFDFCE70021029103910192A8
:101E300069467047016000220C218260C260026125
:101E400041618261C261026242624560FEF79CB9F3
:101E500010B59EB02822002105A800F0D7F800F0A8
:101E60005BF83C2200210FA800F0D0F80021079178
:101E7000012002210C91059009904FF4E0114FF4DC
:101E800080340E9106940D9405A8FFF767FA08B107
:101E900000F047F8022101910F204FF4806100907B
:101EA000002203910292049202216846FFF7DEFBB2
:101EB00008B172B6FEE7012111914FF48022154856
:101EC0000F904FF480734FF4407113921893109158
:101ED00012940FA801F0FCFD08B172B6FEE71EB027
:101EE00010BD000014100240000400481408002037
:101EF000000100500038004000380140004400401C
:101F00000048004000040040002800400044014018
:101F1000004801408700010014220021684600F0BB
:101F200075B872B6FEE700000901020002D430481D
:101F3000815470472F4B02F00F021A4402F8041C20
:101F400070472D4B19684FF6FF020002114000F454
:101F5000E0600843294908431860704770B5264B74
:101F60001C68C4F302230124C3F10705052D2EBF0D
:101F70000F2504FA05F56D1E1E1D072E34BF002324
:101F8000DB1E2940994004FA03F3BDE870405B1E54
:101F90001A401143C8E7010007D4012200F01F01D5
:101FA000174B8A40400943F820207047BFF34F8FFA
:101FB000114914480A6802F4E06202430A60BFF360
:101FC0004F8F00BFFDE710B5401EB0F1807F01D3F9
:101FD000012010BD0C4C60600F214FF0FF30FFF767
:101FE000A3FF0021A16007202060002010BD000099
:101FF00000E400E018ED00E00CED00E00000FA0560
:1020000000E100E00400FA0510E000E010B504462D
:1020100010460A460146204601F034FE204610BD17
:1020200038B50D4D0D4B2A7804464FF47A71186877
:10203000B1FBF2F2B0FBF2F0FFF7C5FF50B9102C84
:1020400008D2002221464FF0FF30FFF787FFAC6037
:10205000002032BD012032BD000000200C00002015
:10206000BFF34F8F504951480A6802F4E0620243BF
:102070000A60BFF34F8F00BFFDE780B501224C49D6
:102080004C4800F0BFF918B1BDE80140FFF749BF67
:1020900001BD80B54849494B0A781868C00F18BF80
:1020A000012222D11868C0F3807008B102221CE01E
:1020B0001868C0F3407008B1032216E01868C0F336
:1020C000007008B1042210E01868C0F3C06008B1C5
:1020D00005220AE01868C0F3806008B1062204E017
:1020E0001868C0F3400000B107220A70087805287C
:1020F00018BF062801D1FFF7B3FF0728FBD001BDA9
:1021000010B52F4C2B480122211D00F07BF908B19E
:10211000FFF707FF94ED010AB8EE400ADFED1E0A53
:1021200060EE200A9FED1D1A20EE811ADFED1C1AC9
:1021300061EE211A9FED1B0A81EE800ABDEEC00AF6
:1021400010EE100A208010BD1E4842780178012A46
:102150000CD1C278521CD3B20A2B06DB8378002242
:10216000032BA8BF012182704270C270012907D1E0
:102170000279521CD3B2642BA4BF00220021027149
:1021800001707047202805D10E4882780121521C29
:10219000417082707047000000404E450000803959
:1021A0000000FA4600401C460CED00E00400FA0571
:1021B0006C0D002014080020810D00202410024026
:1021C000680D0020760D002080B50748016841F0B9
:1021D000100101600320FFF7B4FE0F20FFF720FF7E
:1021E000FEF7CEFD002002BD00200240F8B500261B
:1021F000044600960CB90120F2BD04F130052869AF
:10220000C1064DD4286998BB6E61E8612873AE6140
:102210002046FEF7CCFD20688168C80028D400F075
:1022200013FB06462869C10622D4300020D1286954
:10223000DFF8FC22DFF8FC3220F4885040F0020086
:1022400028612068816821F04051816020688168A0
:1022500041F0805181600A201168B1FBF3F34343E0
:10226000009302E00098401E009000980028F9D1E9
:1022700020688168CA0002D58068810010D528696D
:1022800020F0020040F0100000F0B6F8286929693B
:1022900021F0020141F01001296101263046F2BD12
:1022A0002869C106F3D43000F1D122689068410753
:1022B000EDD42869DFF88032DFF88072DFF8801211
:1022C00020F4807040F002002861B2F1A04FDFF8E6
:1022D00074020ED0824208BF4FF0A04009D0BA422B
:1022E000DFF8501508BF184603D09A420CBF384695
:1022F0000020926800F057FC03D122681268D207D0
:102300000CD428B100F04EFC02D10068C20705D4FD
:10231000086820F440326068104308606968607E95
:10232000E268012914BF4FF4805C4FF0000C4CEAC6
:1023300040310A43A16841EA020C94F82020012AA6
:102340000ED130B9606A401E4CEA404040F4803CF7
:1023500006E0286920F0020040F0200000F04CF870
:10236000A06A2168012819D0B94218BF994210D13A
:10237000B0F5307F08BF4FF4E0700AD0B0F5807F31
:1023800008BF4FF4307004D0B0F5E07F08BF4FF4C1
:10239000807040EA0C02E06A40EA020C8A6812F09F
:1023A0000C0F0AD1CA68DFF890040240CA60217E8F
:1023B00028784CEA813141EA400C2168DFF87C043E
:1023C000CA6802404CEA0200C860216920680129FD
:1023D000016B05D1E2690909521E42EA011101E0CF
:1023E00009090901016300206861296921F00201DE
:1023F00041F00101296151E72861686940F001005D
:10240000686170472DE9F84F05468846286881685D
:1024100014464A0700F1868005F13C073978012906
:1024200008BF022000F0818001213970B0F1A04F77
:10243000434EDFF80094DFF80CA116BF504530681A
:10244000D9F8000010F01F0068D1284600F0E2FB28
:10245000002883465FD17968DFF80C04014041F41D
:10246000807179602968B1F1A04F16BF514530687D
:10247000D9F8000010F01F001EBFB1F1A04F2F4887
:10248000814207D17A6822F480127A60C86881019B
:1024900010D50DE0786840F48010786051450CBF8D
:1024A000DFF8AC03DFF8AC03006810F0007001D077
:1024B00000F0D2F923467868C10446BFB86820F01E
:1024C00006000020B860002139704246AC6BDFF88E
:1024D0009C03A062A96BDFF89803C862A96BDFF8C0
:1024E000940308631C202C6820602868416841F030
:1024F000100141602868C16841F00101C16028688D
:1025000000F14001A86BFEF718FE2868816841F0D1
:102510000401816008E00020387005E08B4600214E
:10252000397001E04FF0020B5846BDE8F28F000011
:102530000C00002040420F00000500500004005035
:1025400008030050000100502DE9F0470446DFF871
:1025500004532168DFF8F8820868DFF81C93DFF87D
:102560001C63B44FDFF818A3420702D54A6850072E
:1025700005D40A68100756D54868020753D5206C61
:10258000C20603D4206C40F400702064B1F1A04F67
:1025900016BF51453068386810F01F0017D0B1F1F0
:1025A000A04F16BF51453068386800F01F0005285D
:1025B0000DD0B1F1A04F16BF51453068386800F01A
:1025C0001F0009281CBFB1F1A04F494501D1C868BF
:1025D00004E051450CBF4046284600680A46D368CF
:1025E00013F4406F19D1800417D40968080714D573
:1025F000906841070FD4516821F00C015160216CA3
:1026000021F480712164206CC10406D4206C40F058
:102610000100206401E000F069FB204601F065FB49
:1026200021680C20086021680868820602D54A6883
:10263000900606D40A68500601D54868420640F163
:102640008280206C40F4005020642268B2F1A04FD8
:1026500016BF51453068386810F01F0017D0B1F12F
:10266000A04F16BF51453068386800F01F0005289C
:102670000DD0B1F1A04F16BF51453068386800F059
:102680001F0009281CBFB1F1A04F494501D1C868FE
:1026900004E051450CBF404628460068CB6C13F05F
:1026A000C00F4AD1820105D5CA6812F4406F44D1E7
:1026B000800442D4096848063FD52168B1F1A04F93
:1026C00016BF51453068386810F01F0017D0B1F1BF
:1026D000A04F16BF51453068386800F01F0006282B
:1026E0000DD0B1F1A04F16BF51453068386800F0E9
:1026F0001F0007281CBFB1F1A04F494501D1C86890
:1027000003E0514508BF45462868800215D4886813
:10271000010710D42068416821F060014160216CFC
:1027200021F480512164206CC10506D4206C40F056
:102730000100206401E000F0D9FA204601F0D6FA49
:102740002168602008602268106801060CD5516875
:10275000080609D5216C41F480312164204601F03E
:10276000C6FA21688020086022681068C1050DD56E
:102770005168C8050AD5216C41F400312164204616
:1027800001F0B6FA21684FF4807008602268106882
:1027900081050DD5516888050AD5216C41F4802149
:1027A0002164204601F0A5FA21684FF4007008600A
:1027B00022681068C10624D55168C80621D5616B0E
:1027C000012910D0B2F1A04F1CBF52453E463068DF
:1027D00010F01F0F03D1D168C80704D40EE0316890
:1027E00011F4404F0AD0206C40F480602064606C8B
:1027F00040F002006064204601F07CFA216810205D
:10280000086020680268510512D541684A050FD555
:10281000216C41F4804121644FF48062616C41F08D
:102820000801616402602046BDE8F04701F063BA28
:10283000BDE8F08708070050FDBFFFFF07C0F0FFAD
:102840000446206881687047204600F00DBA0000F9
:102850000C0000500C040050786820F4005040F444
:102860008050786070470000FEF1FFFFB52B000834
:10287000F92B0008FF2B000800040050080300504B
:10288000000100502DE9F84102460846002102F1FE
:102890003C0400912578012D08BF022000F06681DC
:1028A000012323701568AE68730700F15781034652
:1028B0001F265F681868052F4FF0060C0BD20CFB23
:1028C00007F7D5F830C0BE402CEA060600FA07F735
:1028D00037432F631DE00A2F08D27F1F17FB0CF729
:1028E000D5F834C000F052F9686312E00F2F08D217
:1028F0000A3F17FB0CF7D5F838C000F047F9A8637A
:1029000007E00F3F17FB0CF7D5F83CC000F03EF98D
:10291000E86307251668B06810F00C0F3ED1186800
:102920009F680A280DD30A3800EB400CD6F818E04F
:1029300005FA0CF02EEA000007FA0CF70743B7611E
:102940000BE000EB400CD6F814E005FA0CF02EEA90
:10295000000007FA0CF70743776110685F69C668E3
:10296000D3F810E0F608760006F00606AEF1010E88
:1029700007FA06F6BEF1030FDFF85C7332D8DFE822
:102980000EF0020E1A26D0F86080D3F800C007EAD5
:10299000080747EA8C6700F0F5F8066645E0D0F8CE
:1029A00064C0D3F800E007EA0C0747EA8E6700F03E
:1029B000E9F8466639E0D0F868C0D3F800E007EAE5
:1029C0000C0747EA8E6700F0DDF886662DE0D0F848
:1029D0006CC0D3F800E007EA0C0747EA8E6700F006
:1029E000D1F821E0066E00F0D7F803D1066E26F08C
:1029F000004606661068466E00F0CEF803D1466EBB
:102A000026F0004646661068866E00F0C5F803D1D1
:102A1000866E26F0004686661068C66E00F0BCF82A
:102A200003D1C66E26F00046C6661068866806F0BA
:102A30000306012E02D10768FE073BD41E6801275A
:102A400007FA06F6DF68012F06D0D0F8B05025EA65
:102A50000606C0F8B0601AE0D0F8B0703E43C0F887
:102A6000B0601F68986816680A2F08D3093F07EB03
:102A70004707D6F818C000F07FF8B56107E07F1C63
:102A800007EB4707D6F814C000F076F875611568B3
:102A900038481B68B5F1A04F16BF8542DFF83C628D
:102AA000334E102B02D137683A0203E0112B03D1C9
:102AB0003768FA0157D404E0122B54D137687A02F0
:102AC00051D4B5F1A04F0FD0854208BF4FF0A040C0
:102AD0000AD0DFF80C02DFF8D870854208BF38460C
:102AE00002D0BD4218BF0020AF6807F00307012FD6
:102AF00002D12F68FA0731D428B100F053F802D17F
:102B00000068C2072AD4102B18D1B5F1A04F2AD1E2
:102B10003068DFF8D021DFF8D05140F40000306099
:102B20000A201368B3FBF5F545430095009800288B
:102B30001EBF0098401E0090F8D114E0112B06D162
:102B4000B5F1A04F0FD1306840F0807004E0122B37
:102B500009D1306840F48000306004E0606840F0E3
:102B6000200060600121002020700846BDE8F2814D
:102B70000807005000010050BD402CEA0505B84090
:102B8000054370473E4346F000467047BE402CEA7E
:102B90000606B840304370471F6806F0F846B6EBAB
:102BA000876F7047826802F00302012A70470000B5
:102BB00000050050416A0A6C12F0500F19D1086CE0
:102BC00040F4007008640A68D06810F4406F04BFD5
:102BD000487E00280AD1086C20F480700864086CD4
:102BE000C20403D4086C40F001000864084601F0F8
:102BF0007CB8896B0A6B1047406A01F07DB8406A67
:102C0000016C41F040010164416C41F004014164F8
:102C100001F070B838B504462168886800F00300F8
:102C2000012802D10A68D3071CD488686FF39E106C
:102C300098B9886840F001008860FEF751FA0546AF
:102C400020680168CA070DD4FEF74AFA401B032822
:102C5000F6D320680168CA07F2D4206C40F0100057
:102C6000206433E0002032BD38B5FFF7E9FD01F004
:102C70000301012928D10268D30725D5816801F015
:102C80000D0101291BD1816841F0020181600320FF
:102C900021680860FEF724FA054620688168C807A5
:102CA00012D5FEF71DFA401B0328F6D32068816871
:102CB000C807F2D5216C41F01001216403E0206CBB
:102CC00040F01000206401E0002032BD606C40F054
:102CD00001006064012032BD00F0FF830803005052
:102CE000000400500C00002040420F00206C40F017
:102CF00010002064606C40F00100606470470000C8
:102D000038B5040001D1012032BD606A28B900F055
:102D10006DF805D00021E16102E0002020616061D2
:102D20000020A06204F15C05687820B900212970B8
:102D30002046FEF790F80220687000F04FF8E16836
:102D4000B1F5E06F04D90020B1F5706F03D104E054
:102D50004FF4805001D00021A1626168A268237CF9
:102D600001F4827102F404421143227D03F0020354
:102D70001943A36902F001021143227F03F4007397
:102D8000194394F8203002F038021143A26A03F08C
:102D900080031943236802F4005211431960A169AA
:102DA00094F8242094F83430090C01F0040102F066
:102DB00010021143E26803F00803194302F4706241
:102DC00011430843216848602068C16921F400610B
:102DD000C161002068600121697032BD206801680E
:102DE00021F040010160704704460D466068B0F56F
:102DF000827F704738B5040001D1012032BD00F058
:102E0000E7F818B900F027FAFEF75FF835E090F818
:102E10003D10012901D001207047022180F83D10AA
:102E20000168CA6842F00102CA600168DFF87421D3
:102E3000914218BFB1F1804F0FD0DFF86C21914261
:102E40001CBFDFF86831994207D0DFF86421914256
:102E50001CBFDFF86031994209D18A68DFF864113C
:102E60000A40062A18BFB2F5803F04D001680A68FC
:102E700042F001020A600020704702206870211DA4
:102E8000206800F0ECF901202873A870E870287120
:102E90006871A871E87128726872A872E872687027
:102EA000002032BD38B5040001D1012032BD00F050
:102EB0008FF818B900F0CFF9FDF7F6FFDDE770B530
:102EC000044604F13E0009B902780FE0042908BF66
:102ED00042780BD0082908BF827807D00C2908BF98
:102EE000C27803D010290CBF02794279012A01D09F
:102EF000012070BD11B90222027014E0042902D130
:102F0000022242700FE0082902D1022282700AE0F8
:102F10000C2902D10222C27005E0102907BF02224B
:102F20000271022343712068012200F02FFB00F0A0
:102F30002EF818BF904208D088421FBFDFF8885093
:102F4000A842DFF88860B04203D1456C45F40045E3
:102F500045642068984218BFB0F1804F09D000F056
:102F600013F81CBF114DA84203D0904218BF8842ED
:102F700006D100F012F818BFB1F5803F02D02068EA
:102F800000F01AF8002070BD074B98427047206887
:102F9000044B074A07499842704781680948014035
:102FA00006297047002C0140000400400008004042
:102FB0000034014000400140016841F0010101601E
:102FC0007047000007000100004401400048014034
:102FD00004F13C056878704710B504462068016923
:102FE0008A0715D5C1688A0712D56FF00201016101
:102FF00001222277806910F0030F204602D000F0F2
:103000007CFE03E000F07AFE00F094F800202077C8
:10301000206801694A0715D5C1684A0712D56FF0C3
:103020000401016102222277806910F4407F20466A
:1030300002D000F062FE03E000F060FE00F07AF8DB
:1030400000202077206801690A0715D5C1680A07A2
:1030500012D56FF00801016104222277C06910F0D7
:10306000030F204602D000F048FE03E000F046FEC9
:1030700000F060F80020207720680169CA0615D5A5
:10308000C168CA0612D56FF01001016108222277CB
:10309000C06910F4407F204602D000F02EFE03E00D
:1030A00000F02CFE00F046F800202077206801692F
:1030B000CA0708D5C168CA0705D56FF001010161CB
:1030C000204600F0CFFC206801690A0608D5C168D7
:1030D0000A0605D56FF080010161204600F00FFE61
:1030E00020680169CA0508D5C1680A0605D56FF4CC
:1030F00080710161204600F003FE206801694A06E4
:1031000008D5C1684A0605D56FF040010161204627
:1031100000F0F7FD206801698A060AD5C1688A06B1
:1031200007D56FF0200101612046BDE8104000F096
:10313000E9BD10BD204600F0E6BD002084F83C004B
:103140002846704770B500F07FF801D1022070BDAD
:10315000012084F83C0052B1042A19D0082A29D051
:103160000C2A38D0102A48D0142A57D068E020689A
:1031700000F0C5F82168886940F008008861886916
:1031800020F0040088618A69306902438A6158E04E
:10319000206800F0F5F82068816941F400618161E0
:1031A000816921F4806181618169326941EA02218A
:1031B000816146E0206800F01CF92168C86940F090
:1031C0000800C861C86920F00400C861CA69306994
:1031D0000243CA6135E0206800F043F92068C16904
:1031E00041F40061C161C16921F48061C161C169BB
:1031F000326941EA0221C16123E0206800F058F9F8
:103200002168486D40F008004865486D20F00400D2
:1032100048654A6D306902434A6512E0206800F053
:1032200071F92068416D41F400614165416D21F4FF
:1032300080614165416D326941EA0221416500E0EA
:103240000125FFF77AFF70BD0446002594F83C0085
:1032500001280E46704700212970204670472DE94D
:10326000F041DFF8FC72D0F800C0DFF8F832DFF888
:10327000F842DFF8F852DFF8F862DFF8F8E2DFF83A
:10328000F882B84218BFB0F1804F04D040451CBF4F
:103290007045B0420DD14A68B8422CF0700C18BF8E
:1032A000B0F1804F42EA0C0C0BD0404518BF70457E
:1032B00007D0B04218BFA84203D0A04218BF98421E
:1032C00004D1CA682CF4407C42EA0C0C4A692CF008
:1032D000800C42EA0C020260B8428A68C26218BFDF
:1032E000B0420A68826204D0A8421CBFA042984241
:1032F00001D10969016301224261BDE8F0812DE934
:10330000F041026ADFF85882DFF864E2DFF85872B1
:10331000DFF858C2520852000262066A44688569A2
:10332000DFF858220B6826F0020615408A6816431B
:103330001D43404518BF70458A4B04D060451CBFF3
:10334000B84298420DD1CA6826F008061643404597
:1033500018BF704526F0040605D0604518BFB84276
:1033600001D0984205D14B698A6924F440741C430A
:10337000144344608561496841630662BDE8F08199
:10338000F0B5026A22F010020262056A436884699D
:103390007B4A0E6814408A6844EA062425F020051A
:1033A00045EA02156E4E724AB04218BF904208D1EB
:1033B000CF6825F0800545EA0715B04225F04005A5
:1033C0000AD090421CBF694A904205D0664EB04276
:1033D0001CBF644A904206D14E698A6923F4406357
:1033E000164343EA8603436084614968816305624A
:1033F000F0BDF0B5026A614B22F480720262066A87
:103400004468C5690A6826F400761D408B6846EA60
:1034100003261543524B564A984218BF904208D192
:10342000CF6826F4006646EA0726984226F48066AE
:103430000AD090421CBF4D4A904205D04A4B984258
:103440001CBF484A904206D14B698A6924F4405413
:10345000134344EA03144460C5614968C1630662CA
:10346000F0BD70B5026A22F480520262036A4468B9
:10347000C569434A00F06DF823F4005343EA023370
:10348000B0421CBF3A4A904207D0384EB0421FBFEC
:10349000354A9042334EB04204D14A6924F4804404
:1034A00044EA82144460C56149680164036270BDE6
:1034B00070B5026A334B22F480320262046A4568B6
:1034C000466D0A681E4016438B68254A24F4003472
:1034D00044EA034490421CBF254B984207D0234A3C
:1034E00090421FBF204B98421E4A904204D14A6925
:1034F00025F4803545EA02254560466549688165C1
:10350000046270BD70B5026A22F480120262036A1E
:103510004468456D1C4A00F01CF823F4001343EA8C
:103520000253B0421CBF124A904207D00F4EB04225
:103530001FBF0D4A90420B4EB04204D14A6924F499
:10354000802444EA8224446045654968C165036279
:1035500070BD0E68154045EA06258A68004E704722
:10356000002C01400048014000440140004001405F
:103570000034014000080040000400408CFFFEFFC2
:10358000FF8CFFFE8FFFFEFFFF8FFFFE10B501F0E7
:103590001F01036A01248C40A343036202FA01F174
:1035A000036A1943016210BDF0B500F13C042278B2
:1035B000012A01D10220F0BD012222700223637092
:1035C0000668DFF85CE07768DFF858C0B5687645D4
:1035D00018BF664503D14B6827F470071F430A687C
:1035E00027F07007174377600268724518BFB2F181
:1035F000804F0AD00C4882421CBF0C4B9A4204D028
:1036000062451CBF0A48824204D1886825F08005C3
:10361000054395600121617000202070F0BD00001D
:10362000002C01400034014000040040000800402C
:103630000040014038B5040031D0607F20B900213E
:1036400021772046FDF7FFFB00F03BF8532021686F
:10365000486200F09BF8FF25E8B92168DFF87402A2
:103660008A6802408A60226893686068216903431F
:1036700060690B43034393602068E168016120683F
:103680000169A26841EA0241016100F074F808D4BE
:1036900000F07AF828B120684562042161770120A2
:1036A00032BD2068016C21F48021016421680A6C1C
:1036B000A06902430A64012021684D6260770020FE
:1036C00032BD02206077CA21226851627047F8B586
:1036D00004460D46207F012801D10220F2BD00F0F2
:1036E000C4F82068806815D141065CBF0020E870EE
:1036F000287800F029F90646687800F025F90702D5
:10370000A87800F021F947EA06470743E87847EA36
:1037100000470DE041065CBF0020E8706F78297813
:10372000A8783F0247EA0147E978074347EA01479B
:103730002168CA20486253222068426200F026F8BD
:10374000FF26B0B92168DFF8900107400F602068BC
:10375000826822F48022826022689368E96828697E
:103760000B430343936000F006F803D400F00CF819
:1037700000B180E072E02068C16821F08001C16082
:1037800020688168880670472046A9E02046C0E08E
:1037900038B500680C46816A61600369C3F30E03A3
:1037A000A3600168DFF830010140080C00F03F031E
:1037B00023700D0A00F040006570A170E0703AB906
:1037C000207800F0CCF800F005F800F07AF8A0704E
:1037D000002032BD20706078C1E0F8B504460E4686
:1037E000207F012801D10220F2BD00F03EF875785B
:1037F0002AD1E80603D505F0EF050A357570F07893
:1038000000F0A2F8074600F063F8050200F05DF84A
:1038100045EA07450543307845EA40352068CA2126
:103820004162532221684A62FFF7B0FFFF2650B978
:103830002168DFF8A80005404D60FFF79CFF0DD41C
:10384000FFF7A2FF50B116E0F07831782D0245EA7B
:103850000045B078054345EA4135DFE72068466218
:103860000121617700202077F2BD0120207702211D
:103870006177002A70472068466204216177002042
:1038800020770120F2BD38B50C460168DFF84C0006
:1038900049680140A1700D0A0B0C05F01F05490B8A
:1038A000E370657001F00701217042B9E07800F023
:1038B00056F8E070FFF78FFF00F003F8A0700020CB
:1038C00032BD6070A0784AE00702B0783CE0044660
:1038D000707839E0BFFF8FFF7F7F7F003FFFFF00E1
:1038E00038B504462068C16821F0A001C160FDF729
:1038F000F7FB05462068C168880608D4FDF7F0FB91
:10390000401B40F2E9318842F4D3032032BD00204D
:1039100032BD38B504462068C1684A0612D44FF05B
:10392000FF31C160FDF7DCFB05462068C168480631
:1039300008D4FDF7D5FB401B40F2E9318842F4D3AF
:10394000032032BD002032BD002101E0491C0A38AD
:10395000C2B20A2AFAD240EA0110C0B27047010985
:103960000A2200F00F0012FB0100C0B270470000F5
:1039700080B500F0C9F9FEF780FB00F0E3F900F034
:10398000FBFA00F035FB00F069FB00F087FB00F06C
:10399000A5FBBDE80140FEF77CBB80B5494890F827
:1039A0003D10012913D1002280F83D20032000F0B2
:1039B00033F800F0AAF9012000F0CAF900F029FB61
:1039C00000F0F2FA032000F032F8032006E00420B1
:1039D00000F022F8042000F02AF80420BDE802409C
:1039E00002E038480068704736490A68022802D069
:1039F000032803D007E0CB69D31A0AE00B6AD31A75
:103A00000B630A6270470228134602D00328F7D0DE
:103A10007047CB62CA6170472A490A68022802D0FF
:103A2000032802D07047CA6070474A61704710B5DA
:103A30000446FFF7D6FF022C224902D0032C03D004
:103A400007E0CA68821A0AE04A69821A8A628861B3
:103A500010BD022C024602D0032CF7D010BD4A62E2
:103A6000086110BD70B5044617492068154D88429D
:103A700020D16868401C686005F13C020A260123D9
:103A8000B0FBF6F60A21137001FB160018B9A868FE
:103A90005370401CA860002111700220FFF7BCFF8A
:103AA000FEF72EFBFEF750FB0220FFF7C0FF0220BF
:103AB000FFF79AFF20680549884202D12A68521C04
:103AC0002A6070BDE40C0020004801400044014021
:103AD0002DE9FC41054600242868DFF89C61C103FC
:103AE00052D5B069C10009D4B06940F08050B061CE
:103AF0000124B06900F0805000900098DFF87C71DC
:103B00003868C10511D4386840F480703860FDF71A
:103B1000E7FA80463868C10507D4FDF7E1FAA0EB63
:103B200008006528F6D30320A4E0F06910F4407083
:103B30001EBF696801F4407188421AD0DFF8401155
:103B4000F06901220A60002320F440700B60F061EC
:103B5000C0070ED5FDF7C4FA0746F069C0F3400070
:103B600038B9FDF7BDFAC01B41F289318842F4D360
:103B7000D9E7F269686822F440720243F2611CB12D
:103B8000B06920F08050B0612878C10705D5F26A8D
:103B9000A868920840EA8202F2622978880705D56F
:103BA000F16AE86821F440310143F162297848075D
:103BB00005D5F16A286921F440210143F162297891
:103BC000880605D5F16AE86921F010010143F16228
:103BD0002968880305D53168A86B21F48001014369
:103BE00031602978480605D5F16A286A21F020015C
:103BF0000143F1622978080705D5F16A686921F463
:103C000040110143F1622978C80605D5F16AA86917
:103C100021F440010143F1622968880505D5316826
:103C2000E86A21F40001014331602978080605D5CE
:103C3000B16A686A21F4F8710143B1622968C80564
:103C400005D5B16AA86A21F478510143B1622968A7
:103C5000C80405D5F16A286B21F480710143F16233
:103C60002968880405D5F16A686B21F40071014365
:103C7000F1620020BDE8F6810410024000700040AF
:103C80004004424262F30F2262F31F42401810F0D8
:103C9000030308D0C91A1FD3DB0748BF00F8012D62
:103CA00028BF20F8022D130030B4144615461039F1
:103CB00028BF20E93C00FAD8490728BF20E90C00BA
:103CC00048BF40F8042D890028BF20F8022D48BFC6
:103CD00000F8012D30BC7047C91818BF00F8012D3D
:103CE000CB0728BF00F8012D704770477047704719
:103CF000704770477047704770477047704770470C
:103D00007047704770477047704710B586B00B4CCE
:103D1000002201A92046FFF73BFD0022694620460C
:103D2000FFF7B1FD06489DF804109DF805200180BD
:103D300042809DF80610818006B010BD540A002014
:103D4000700D0020012202217048FDF794BE000092
:103D50002DE9F94E2DED028B82B06D4F9DF81000CC
:103D600083A1002838780CBF4FF4FA644FF47A74BA
:103D7000012891EC028A16D1FDF7B2F9F968401AD0
:103D8000A04213D297ED020AD7ED010AF0EE408A65
:103D9000B0EE608A02B0B0EE480AF0EE680ABDEC00
:103DA000028BBDE8F38E08B901203870FDF798F951
:103DB000F86042F21179002000F0B3F8002200F020
:103DC000D1F80A2000F022FA00F0CBF8012000F030
:103DD000A8F84C4600F0A0F8012802D1641EF9D1E1
:103DE000D8E74C4600F098F8012802D0641EF9D1BB
:103DF000D0E700F091F8012803D1B9F10109F8D119
:103E0000C8E7052200216846FEF700F900260725CD
:103E10004FF0000ADFF8FC90D3464C4600F07CF8E7
:103E2000012803D0641E0BF1010BF7D100F074F8E8
:103E3000012804D1B9F101090AF1010AF6D1D345EB
:103E400006D21DF806000121A94008430DF806001E
:103E50006D1EEAB2FF2ADBD1761C042ED7DD9DF859
:103E600001209DF800309DF802109DF803009DF898
:103E70000440D318CB18C318DBB2A3423DD19DF840
:103E80001030012B29D19DF8003042EA032200EEC8
:103E9000902A9FED1C0AF8EEE00A60EE800A0A06FE
:103EA000B0EE608A08D440EA012000EE900AF8EEF5
:103EB000E00A20EE800A1EE0DFED130A01F07F0128
:103EC00040EA012000EE100AB8EEC00A60EE200AB7
:103ED0008DF80210F0EE608A0FE018000DD19DF809
:103EE000000000EE100AB8EE400AB0EE408A00EE84
:103EF000101AB8EE400AF0EE408A87ED018AC7ED4D
:103F0000028A47E7CDCCCC3DCDCCCCBD00040048E7
:103F1000580D0020915F010080214FF09040FDF787
:103F2000A4BD18B585B00446142200216846FEF7EA
:103F30006DF854B900F015F880211122009101921A
:103F4000002103220291039204E0802000210090CE
:103F50000191029169464FF09040FDF7B7FC06B021
:103F600010BD012280214FF09040FDF784BD00007C
:103F7000000000000000000080B50122154916482D
:103F8000FCF79EF908B1FDF7CCFFBDE802401348ED
:103F900010B5044600F04EF92146BDE8104082B24B
:103FA00064230D48FCF730B910B50D4C228832B1AE
:103FB0006423211D0B48FCF727F9002121800A4CBE
:103FC000228832B1642309490348FCF71DF9002017
:103FD000208010BD7B0D0020D00900208444000803
:103FE00010000020C8080020360D00201404002016
:103FF00080B5092217491848FCF776F908B1FDF792
:1040000090FFBDE80840012210214FF09040FDF7DD
:1040100032BD10B5002000210E4ACBB2491CD35C42
:10402000C018CCB2072CF8DD117A00F0FF008142F5
:104030000ED19078D17840EA0120908151791079A1
:1040400040EA0120D081D179907940EA01201082A4
:1040500010BD0000240D00204C09002010B50122E5
:104060000B490C48FCF72CF908B1FDF75AFF0A4C34
:10407000002220212046FDF7FEFC4FF47A7000F06C
:10408000C5F82046BDE8104000224021FDF7F3BCF2
:10409000820D0020C80800200004004810B50E4C16
:1040A00008212046FEF70BFF20680022C26320464D
:1040B000FEF7ADFE08B1FDF734FF21684FF4B9708B
:1040C000C862E06032202168C863642000F09EF876
:1040D00021680020C86310BD740A002070B5DFF8A5
:1040E0001C014FF0FF34D0E90023A34208BFA242D5
:1040F00029D100F061F8FDF789FF0020A0600021C0
:1041000042F630206160E0602161012222600020DF
:104110003B49421000EB92739B100A1804EB830595
:10412000D3780E18B278120402EB03620B185E7893
:104130000B5C02EB0622001DD2181428AA63E8DBF0
:10414000BDE870403DE0BDE87040F8B500F034F8DF
:10415000FDF75CFF0022294B03EB8203D3E900014A
:1041600044F82200521C222AF5DB254A20685067B9
:1041700061699167A0686168E368D366002812BF2F
:104180000029204B136700235D1003EB9575AD10DC
:104190000E3554F82550D554D7182E0EFE7002EB6C
:1041A000030E2E0C8EF802601B1D2E0A142B7E703F
:1041B000EADB50669166F1BD134C8822002120464F
:1041C000704738B500F07BF80A2000F01FF8002493
:1041D0000D4D72B655F824200849002301EB8401E7
:1041E000022000F031F862B60A2000F00FF8641CDB
:1041F000222CEEDBBDE8314000F071B800F8030876
:10420000E00B0020ADDEADDE580B002038B50446D3
:10421000FCF766FF14F1010F054602D0044801784F
:104220006418FCF75DFF401BA042FAD331BD00BF0C
:104230000000002000F1010310F8011B11B110F87B
:10424000011BFBE7C01A70472DE9F84F4C4E07469B
:10425000307E01288B461446994608BF02202CD098
:10426000012030764CF2503A504600F04BF80100F5
:1042700021D1012F08BF012103D0022F0CBF022141
:10428000042100253F4F884600E06D1C454512DAA9
:10429000204649462A0100F07FF881B20BEB450029
:1042A00000F025F8504600F02DF83968490849001B
:1042B00002003960E9D000213176BDE8F28F334940
:1042C000CA680020130600D4704710B5304A314C3C
:1042D0000A600C60C9680A0648BF012010BD294861
:1042E000016841F08001FFE701600020704710B5D0
:1042F000234B0022DA61234A146844F0010414605D
:10430000018010BD70B50446FCF7EAFE06461E4D5E
:104310002868C1070AD514F1010FF9D024B1FCF7C0
:10432000DFFE801B8442F3D2032070BD2868810623
:1043300044BF202028602968C80602D4296848079D
:1043400003D500F004F8012070BD002070BD10B549
:104350000D4A0B4913680020DC0604D5C86940F0FB
:104360000200C861102013685C0705D5CB6943F0D3
:104370000103CB6140F00400106010BD000000009C
:10438000380D0020102002400C2002400420024082
:1043900023016745AB89EFCDD2B2203A22BF21FA83
:1043A00002F0002170472032D141D0404840914076
:1043B000D14048407047000080B5FDF7F7FDFCE7AD
:1043C00080B5FDF7F3FDFCE780B5FDF7EFFDFCE7F9
:1043D00080B5FDF7EBFDFCE780B5FDF7E7FDFCE7F9
:1043E000FDF7E4BDFDF7E2BDFDF7E0BD00F026B846
:1043F0000B48FCF724BF0B48FEF7A6B82020FDF7BA
:104400003FBB0948FEF7E8BD0848FEF7E5BD084890
:10441000FBF7A0BF0748FBF79DBF0748FCF70FBF9E
:10442000A00C002014080020C00A00200C0B002063
:10443000C8080020D00900205C0C00200248416818
:1044400002788A18426070470000002030B40025CE
:1044500012E050F8042BD30744BF4A44521E091FF0
:10446000042942F8045BFAD213468C0744BF158036
:104470009B1CC90748BF1D7050F8041B0029E8D1D8
:1044800030BC70470A3D3D3D3D3D3D3D3E3E53699C
:104490006C6F205465737420462F572032303232AF
:1044A000303632385F3030320A00000010B507492C
:1044B00079441831064C7C44163404E00A68081D1F
:1044C000114488470146A142F8D110BD2C000000DC
:1044D0004C0000004EF68851CEF20001086840F40E
:1044E00070000860BFF34F8FBFF36F8F4FF0007005
:1044F000E1EE100A7047000055FFFFFF740D000049
:1045000010000020000000009BD3FFFF10000000FF
:10451000A000000000000020000000000248016828
:1045200041F470010160704788ED00E00000000078
:1045300000000000010203040607080900F00DF85E
:10454000002801D0FFF7B2FFAFF300800020AFF3E7
:104550000080FDF7AFFA00F002F80120704700F08C
:1045600001B800000746384600F002F8FBE70000FB
:1045700080B5AFF30080024A11001820ABBEFBE704
:10458000260002000548014603B4684680F3098806
:10459000AFF30080FFF79EFFFFF7D0FFA5EDF5FE1C
:1045A00001488047014800471D450008854500082F
:1045B00001000000000000001000000000127A005E
:1045C0000000000001020304FFF7FEBFFFF7FEBF7B
:1045D000FFF7FEBFFFF7FEBFFFF7FEBFFFF7FEBF0F
:1045E000FFF7FEBFFFF7FEBFFFF7FEBFFFF7FEBFFF
:1045F000FFF7FEBFFFF7FEBFFFF7FEBFFFF7FEBFEF
:10460000FFF7FEBFFFF7FEBFFFF7FEBFFFF7FEBFDE
:10461000FFF7FEBFFFF7FEBFFFF7FEBFFFF7FEBFCE
:10462000FFF7FEBFFFF7FEBFFFF7FEBFFFF7FEBFBE
:10463000FFF7FEBFFFF7FEBFFFF7FEBFFFF7FEBFAE
:10464000FFF7FEBFFFF7FEBFFFF7FEBFFFF7FEBF9E
:10465000FFF7FEBFFFF7FEBFFFF7FEBFFFF7FEBF8E
:10466000FFF7FEBFFFF7FEBFFFF7FEBFFFF7FEBF7E
:10467000FFF7FEBFFFF7FEBFFFF7FEBFFFF7FEBF6E
:10468000FFF7FEBFFFF7FEBFFFF7FEBFFFF7FEBF5E
:10469000FFF7FEBFFFF7FEBFFFF7FEBFFFF7FEBF4E
:1046A000FFF7FEBFFFF7FEBFFFF7FEBFFFF7FEBF3E
:040000050800458525
:00000001FF
